{
	"data": {
		"bytecode": {
			"linkReferences": {},
			"object": "611d53610053600b82828239805160001a607314610046577f4e487b7100000000000000000000000000000000000000000000000000000000600052600060045260246000fd5b30600052607381538281f3fe730000000000000000000000000000000000000000301460806040526004361061006c5760003560e01c8063229d05881461007157806322efde0a146100a157806393f32993146100d1578063b9576c3514610101578063d15eb0d514610131578063e707518714610161575b600080fd5b61008b600480360381019061008691906110cb565b610191565b604051610098919061114b565b60405180910390f35b6100bb60048036038101906100b691906110cb565b610297565b6040516100c89190611182565b60405180910390f35b6100eb60048036038101906100e691906110cb565b6104c4565b6040516100f89190611255565b60405180910390f35b61011b60048036038101906101169190611270565b61099d565b604051610128919061130e565b60405180910390f35b61014b60048036038101906101469190611329565b610a8d565b60405161015891906114c3565b60405180910390f35b61017b6004803603810190610176919061150b565b610bd3565b6040516101889190611182565b60405180910390f35b60008061019e6000610bdd565b905060005b60038160ff1610156101f65760006101d488888460026101c391906116a7565b886101ce91906116f2565b89610297565b90506101e08382610c00565b92505080806101ee9061172f565b9150506101a3565b5061021881610213888860018861020d91906116f2565b89610297565b610c00565b905061022d816102286004610bdd565b610c67565b9050600061027661025783610252600260406102499190611795565b61ffff16610bdd565b610cf0565b610271600260406102689190611795565b61ffff16610bdd565b610c00565b905061028181610d5b565b67ffffffffffffffff1692505050949350505050565b6000806102a5868686610a8d565b90506000805b60048160ff16101561048b576000838260ff16600481106102cf576102ce6117c6565b5b6020020151905060006040518060400160405280836000600281106102f7576102f66117c6565b5b60200201518c6103079190611802565b60030b60030b815260200183600160028110610326576103256117c6565b5b60200201518b6103369190611802565b60030b60030b8152509050600061037f8360006002811061035a576103596117c6565b5b602002015184600160028110610373576103726117c6565b5b60200201518b8b6104c4565b9050600081600160028110610397576103966117c6565b5b602002015160010b836001600281106103b3576103b26117c6565b5b602002015160030b6103c5919061186b565b826000600281106103d9576103d86117c6565b5b602002015160010b846000600281106103f5576103f46117c6565b5b602002015160030b610407919061186b565b61041191906118a8565b905060006104528560006002811061042c5761042b6117c6565b5b602002015186600160028110610445576104446117c6565b5b60200201518f8f8f61099d565b90508160070b8160070b6104669190611908565b876104719190611945565b9650505050505080806104839061172f565b9150506102ab565b506104b881600f0b60038760030b6104a39190611aa6565b6103e860010b6104b39190611b12565b610d7c565b92505050949350505050565b6104cc611019565b60006010868686866040516020016104e79493929190611bc0565b6040516020818303038152906040528051906020012060001c61050a9190611c0e565b9050600060405180610200016040528060405180604001604052806103e860010b60010b8152602001600060010b60010b8152508152602001604051806040016040528061039b60010b60010b815260200161017e60010b60010b815250815260200160405180604001604052806102c360010b60010b81526020016102c360010b60010b8152508152602001604051806040016040528061017e60010b60010b815260200161039b60010b60010b81525081526020016040518060400160405280600060010b60010b81526020016103e860010b60010b815250815260200160405180604001604052807ffffffffffffffffffffffffffffffffffffffffffffffffffffffffffffffe8160010b60010b815260200161039b60010b60010b815250815260200160405180604001604052807ffffffffffffffffffffffffffffffffffffffffffffffffffffffffffffffd3c60010b60010b81526020016102c360010b60010b815250815260200160405180604001604052807ffffffffffffffffffffffffffffffffffffffffffffffffffffffffffffffc6460010b60010b815260200161017e60010b60010b815250815260200160405180604001604052807ffffffffffffffffffffffffffffffffffffffffffffffffffffffffffffffc1860010b60010b8152602001600060010b60010b815250815260200160405180604001604052807ffffffffffffffffffffffffffffffffffffffffffffffffffffffffffffffc6460010b60010b81526020017ffffffffffffffffffffffffffffffffffffffffffffffffffffffffffffffe8160010b60010b815250815260200160405180604001604052807ffffffffffffffffffffffffffffffffffffffffffffffffffffffffffffffd3c60010b60010b81526020017ffffffffffffffffffffffffffffffffffffffffffffffffffffffffffffffd3c60010b60010b815250815260200160405180604001604052807ffffffffffffffffffffffffffffffffffffffffffffffffffffffffffffffe8160010b60010b81526020017ffffffffffffffffffffffffffffffffffffffffffffffffffffffffffffffc6460010b60010b815250815260200160405180604001604052807fffffffffffffffffffffffffffffffffffffffffffffffffffffffffffffffff60010b60010b81526020017ffffffffffffffffffffffffffffffffffffffffffffffffffffffffffffffc1860010b60010b8152508152602001604051806040016040528061017e60010b60010b81526020017ffffffffffffffffffffffffffffffffffffffffffffffffffffffffffffffc6460010b60010b815250815260200160405180604001604052806102c360010b60010b81526020017ffffffffffffffffffffffffffffffffffffffffffffffffffffffffffffffd3c60010b60010b8152508152602001604051806040016040528061039b60010b60010b81526020017ffffffffffffffffffffffffffffffffffffffffffffffffffffffffffffffe8160010b60010b815250815250905080826010811061098c5761098b6117c6565b5b602002015192505050949350505050565b600080600190508463ffffffff168763ffffffff1611156109e75784876109c49190611c3f565b836109cf9190611c3f565b63ffffffff16816109e09190611c77565b9050610a12565b86856109f39190611c3f565b836109fe9190611c3f565b63ffffffff1681610a0f9190611c77565b90505b8363ffffffff168663ffffffff161115610a55578386610a329190611c3f565b83610a3d9190611c3f565b63ffffffff1681610a4e9190611c77565b9050610a80565b8584610a619190611c3f565b83610a6c9190611c3f565b63ffffffff1681610a7d9190611c77565b90505b8091505095945050505050565b610a9561103b565b6000828386610aa49190611cb4565b610aae91906116f2565b90506000838486610abf9190611cb4565b610ac991906116f2565b9050604051806080016040528060405180604001604052808563ffffffff1663ffffffff1681526020018463ffffffff1663ffffffff16815250815260200160405180604001604052808786610b1f9190611ce5565b63ffffffff1663ffffffff1681526020018463ffffffff1663ffffffff16815250815260200160405180604001604052808786610b5c9190611ce5565b63ffffffff1663ffffffff1681526020018785610b799190611ce5565b63ffffffff1663ffffffff16815250815260200160405180604001604052808563ffffffff1663ffffffff1681526020018785610bb69190611ce5565b63ffffffff1663ffffffff16815250815250925050509392505050565b6000819050919050565b6000677fffffffffffffff821115610bf457600080fd5b604082901b9050919050565b60008082600f0b84600f0b0190507fffffffffffffffffffffffffffffffff80000000000000000000000000000000600f0b8112158015610c5457506f7fffffffffffffffffffffffffffffff600f0b8113155b610c5d57600080fd5b8091505092915050565b60008082600f0b03610c7857600080fd5b600082600f0b604085600f0b901b81610c9457610c93611766565b5b0590507fffffffffffffffffffffffffffffffff80000000000000000000000000000000600f0b8112158015610cdd57506f7fffffffffffffffffffffffffffffff600f0b8113155b610ce657600080fd5b8091505092915050565b600080604083600f0b85600f0b02901d90507fffffffffffffffffffffffffffffffff80000000000000000000000000000000600f0b8112158015610d4857506f7fffffffffffffffffffffffffffffff600f0b8113155b610d5157600080fd5b8091505092915050565b60008082600f0b1215610d6d57600080fd5b604082600f0b901d9050919050565b6000808203610d8a57600080fd5b600080841215610d9f57836000039350600190505b6000831215610db357826000039250801590505b6000610dbf8585610e3e565b90508115610e03576f80000000000000000000000000000000816fffffffffffffffffffffffffffffffff161115610df657600080fd5b8060000392505050610e38565b6f7fffffffffffffffffffffffffffffff816fffffffffffffffffffffffffffffffff161115610e3257600080fd5b80925050505b92915050565b6000808203610e4c57600080fd5b600077ffffffffffffffffffffffffffffffffffffffffffffffff8411610e895782604085901b81610e8157610e80611766565b5b049050610ff2565b600060c09050600060c086901c90506401000000008110610eb257602081901c90506020820191505b620100008110610eca57601081901c90506010820191505b6101008110610ee157600881901c90506008820191505b60108110610ef757600481901c90506004820191505b60048110610f0d57600281901c90506002820191505b60028110610f1c576001820191505b600160bf830360018703901c018260ff0387901b81610f3e57610f3d611766565b5b0492506fffffffffffffffffffffffffffffffff831115610f5e57600080fd5b6000608086901c8402905060006fffffffffffffffffffffffffffffffff871685029050600060c089901c9050600060408a901b905082811015610fa3576001820391505b8281039050608084901b925082811015610fbe576001820391505b8281039050608084901c8214610fd5576001610fe7565b888181610fe557610fe4611766565b5b045b870196505050505050505b6fffffffffffffffffffffffffffffffff81111561100f57600080fd5b8091505092915050565b6040518060400160405280600290602082028036833780820191505090505090565b60405180608001604052806004905b611052611068565b81526020019060019003908161104a5790505090565b6040518060400160405280600290602082028036833780820191505090505090565b600080fd5b600063ffffffff82169050919050565b6110a88161108f565b81146110b357600080fd5b50565b6000813590506110c58161109f565b92915050565b600080600080608085870312156110e5576110e461108a565b5b60006110f3878288016110b6565b9450506020611104878288016110b6565b9350506040611115878288016110b6565b9250506060611126878288016110b6565b91505092959194509250565b6000819050919050565b61114581611132565b82525050565b6000602082019050611160600083018461113c565b92915050565b600081600f0b9050919050565b61117c81611166565b82525050565b60006020820190506111976000830184611173565b92915050565b600060029050919050565b600081905092915050565b6000819050919050565b60008160010b9050919050565b6111d3816111bd565b82525050565b60006111e583836111ca565b60208301905092915050565b6000602082019050919050565b6112078161119d565b61121181846111a8565b925061121c826111b3565b8060005b8381101561124d57815161123487826111d9565b965061123f836111f1565b925050600181019050611220565b505050505050565b600060408201905061126a60008301846111fe565b92915050565b600080600080600060a0868803121561128c5761128b61108a565b5b600061129a888289016110b6565b95505060206112ab888289016110b6565b94505060406112bc888289016110b6565b93505060606112cd888289016110b6565b92505060806112de888289016110b6565b9150509295509295909350565b600067ffffffffffffffff82169050919050565b611308816112eb565b82525050565b600060208201905061132360008301846112ff565b92915050565b6000806000606084860312156113425761134161108a565b5b6000611350868287016110b6565b9350506020611361868287016110b6565b9250506040611372868287016110b6565b9150509250925092565b600060049050919050565b600081905092915050565b6000819050919050565b600060029050919050565b600081905092915050565b6000819050919050565b6113c58161108f565b82525050565b60006113d783836113bc565b60208301905092915050565b6000602082019050919050565b6113f98161139c565b61140381846113a7565b925061140e826113b2565b8060005b8381101561143f57815161142687826113cb565b9650611431836113e3565b925050600181019050611412565b505050505050565b600061145383836113f0565b60408301905092915050565b6000602082019050919050565b6114758161137c565b61147f8184611387565b925061148a82611392565b8060005b838110156114bb5781516114a28782611447565b96506114ad8361145f565b92505060018101905061148e565b505050505050565b6000610100820190506114d9600083018461146c565b92915050565b6114e881611166565b81146114f357600080fd5b50565b600081359050611505816114df565b92915050565b6000602082840312156115215761152061108a565b5b600061152f848285016114f6565b91505092915050565b7f4e487b7100000000000000000000000000000000000000000000000000000000600052601160045260246000fd5b60008160011c9050919050565b6000808291508390505b60018511156115be5780860481111561159a57611599611538565b5b60018516156115a95780820291505b80810290506115b785611567565b945061157e565b94509492505050565b6000826115d75760019050611693565b816115e55760009050611693565b81600181146115fb576002811461160557611634565b6001915050611693565b60ff84111561161757611616611538565b5b8360020a91508482111561162e5761162d611538565b5b50611693565b5060208310610133831016604e8410600b84101617156116695782820a90508381111561166457611663611538565b5b611693565b6116768484846001611574565b9250905081840481111561168d5761168c611538565b5b81810290505b9392505050565b600060ff82169050919050565b60006116b282611132565b91506116bd8361169a565b92506116ea7fffffffffffffffffffffffffffffffffffffffffffffffffffffffffffffffff84846115c7565b905092915050565b60006116fd8261108f565b91506117088361108f565b92508282026117168161108f565b915080821461172857611727611538565b5b5092915050565b600061173a8261169a565b915060ff820361174d5761174c611538565b5b600182019050919050565b600061ffff82169050919050565b7f4e487b7100000000000000000000000000000000000000000000000000000000600052601260045260246000fd5b60006117a082611758565b91506117ab83611758565b9250826117bb576117ba611766565b5b828204905092915050565b7f4e487b7100000000000000000000000000000000000000000000000000000000600052603260045260246000fd5b60008160030b9050919050565b600061180d826117f5565b9150611818836117f5565b92508282039050637fffffff81137fffffffffffffffffffffffffffffffffffffffffffffffffffffffff800000008212171561185857611857611538565b5b92915050565b60008160070b9050919050565b60006118768261185e565b91506118818361185e565b925082820261188f8161185e565b91508082146118a1576118a0611538565b5b5092915050565b60006118b38261185e565b91506118be8361185e565b925082820190507fffffffffffffffffffffffffffffffffffffffffffffffff80000000000000008112677fffffffffffffff8213171561190257611901611538565b5b92915050565b600061191382611166565b915061191e83611166565b925082820261192c81611166565b915080821461193e5761193d611538565b5b5092915050565b600061195082611166565b915061195b83611166565b925082820190507fffffffffffffffffffffffffffffffff8000000000000000000000000000000081126f7fffffffffffffffffffffffffffffff821317156119a7576119a6611538565b5b92915050565b600082600081146119c557600181146119cf576119d8565b6001915050611a94565b82915050611a94565b50816119e75760009050611a94565b600190506000821360018114611a045760008114611a1c57611a30565b828604831115611a1757611a16611538565b5b611a30565b828605831215611a2f57611a2e611538565b5b5b506001831615611a3e578190505b8182029150611a4c83611567565b9250611a5a85848484611574565b925090508185048111600082131615611a7657611a75611538565b5b8184058112600082121615611a8e57611a8d611538565b5b81810290505b949350505050565b6000819050919050565b6000611ab182611a9c565b9150611abc8361169a565b9250611b0a7f7fffffffffffffffffffffffffffffffffffffffffffffffffffffffffffffff7f800000000000000000000000000000000000000000000000000000000000000085856119ad565b905092915050565b6000611b1d82611a9c565b9150611b2883611a9c565b9250828202611b3681611a9c565b91507f80000000000000000000000000000000000000000000000000000000000000008414600084121615611b6e57611b6d611538565b5b8282058414831517611b8357611b82611538565b5b5092915050565b60008160e01b9050919050565b6000611ba282611b8a565b9050919050565b611bba611bb58261108f565b611b97565b82525050565b6000611bcc8287611ba9565b600482019150611bdc8286611ba9565b600482019150611bec8285611ba9565b600482019150611bfc8284611ba9565b60048201915081905095945050505050565b6000611c1982611132565b9150611c2483611132565b925082611c3457611c33611766565b5b828206905092915050565b6000611c4a8261108f565b9150611c558361108f565b9250828203905063ffffffff811115611c7157611c70611538565b5b92915050565b6000611c82826112eb565b9150611c8d836112eb565b9250828202611c9b816112eb565b9150808214611cad57611cac611538565b5b5092915050565b6000611cbf8261108f565b9150611cca8361108f565b925082611cda57611cd9611766565b5b828204905092915050565b6000611cf08261108f565b9150611cfb8361108f565b9250828201905063ffffffff811115611d1757611d16611538565b5b9291505056fea2646970667358221220279339b109245a44f5758b086bc7694350acfaa35f3d04f1b6bc91ff104a107064736f6c63430008120033",
			"opcodes": "PUSH2 0x1D53 PUSH2 0x53 PUSH1 0xB DUP3 DUP3 DUP3 CODECOPY DUP1 MLOAD PUSH1 0x0 BYTE PUSH1 0x73 EQ PUSH2 0x46 JUMPI PUSH32 0x4E487B7100000000000000000000000000000000000000000000000000000000 PUSH1 0x0 MSTORE PUSH1 0x0 PUSH1 0x4 MSTORE PUSH1 0x24 PUSH1 0x0 REVERT JUMPDEST ADDRESS PUSH1 0x0 MSTORE PUSH1 0x73 DUP2 MSTORE8 DUP3 DUP2 RETURN INVALID PUSH20 0x0 ADDRESS EQ PUSH1 0x80 PUSH1 0x40 MSTORE PUSH1 0x4 CALLDATASIZE LT PUSH2 0x6C JUMPI PUSH1 0x0 CALLDATALOAD PUSH1 0xE0 SHR DUP1 PUSH4 0x229D0588 EQ PUSH2 0x71 JUMPI DUP1 PUSH4 0x22EFDE0A EQ PUSH2 0xA1 JUMPI DUP1 PUSH4 0x93F32993 EQ PUSH2 0xD1 JUMPI DUP1 PUSH4 0xB9576C35 EQ PUSH2 0x101 JUMPI DUP1 PUSH4 0xD15EB0D5 EQ PUSH2 0x131 JUMPI DUP1 PUSH4 0xE7075187 EQ PUSH2 0x161 JUMPI JUMPDEST PUSH1 0x0 DUP1 REVERT JUMPDEST PUSH2 0x8B PUSH1 0x4 DUP1 CALLDATASIZE SUB DUP2 ADD SWAP1 PUSH2 0x86 SWAP2 SWAP1 PUSH2 0x10CB JUMP JUMPDEST PUSH2 0x191 JUMP JUMPDEST PUSH1 0x40 MLOAD PUSH2 0x98 SWAP2 SWAP1 PUSH2 0x114B JUMP JUMPDEST PUSH1 0x40 MLOAD DUP1 SWAP2 SUB SWAP1 RETURN JUMPDEST PUSH2 0xBB PUSH1 0x4 DUP1 CALLDATASIZE SUB DUP2 ADD SWAP1 PUSH2 0xB6 SWAP2 SWAP1 PUSH2 0x10CB JUMP JUMPDEST PUSH2 0x297 JUMP JUMPDEST PUSH1 0x40 MLOAD PUSH2 0xC8 SWAP2 SWAP1 PUSH2 0x1182 JUMP JUMPDEST PUSH1 0x40 MLOAD DUP1 SWAP2 SUB SWAP1 RETURN JUMPDEST PUSH2 0xEB PUSH1 0x4 DUP1 CALLDATASIZE SUB DUP2 ADD SWAP1 PUSH2 0xE6 SWAP2 SWAP1 PUSH2 0x10CB JUMP JUMPDEST PUSH2 0x4C4 JUMP JUMPDEST PUSH1 0x40 MLOAD PUSH2 0xF8 SWAP2 SWAP1 PUSH2 0x1255 JUMP JUMPDEST PUSH1 0x40 MLOAD DUP1 SWAP2 SUB SWAP1 RETURN JUMPDEST PUSH2 0x11B PUSH1 0x4 DUP1 CALLDATASIZE SUB DUP2 ADD SWAP1 PUSH2 0x116 SWAP2 SWAP1 PUSH2 0x1270 JUMP JUMPDEST PUSH2 0x99D JUMP JUMPDEST PUSH1 0x40 MLOAD PUSH2 0x128 SWAP2 SWAP1 PUSH2 0x130E JUMP JUMPDEST PUSH1 0x40 MLOAD DUP1 SWAP2 SUB SWAP1 RETURN JUMPDEST PUSH2 0x14B PUSH1 0x4 DUP1 CALLDATASIZE SUB DUP2 ADD SWAP1 PUSH2 0x146 SWAP2 SWAP1 PUSH2 0x1329 JUMP JUMPDEST PUSH2 0xA8D JUMP JUMPDEST PUSH1 0x40 MLOAD PUSH2 0x158 SWAP2 SWAP1 PUSH2 0x14C3 JUMP JUMPDEST PUSH1 0x40 MLOAD DUP1 SWAP2 SUB SWAP1 RETURN JUMPDEST PUSH2 0x17B PUSH1 0x4 DUP1 CALLDATASIZE SUB DUP2 ADD SWAP1 PUSH2 0x176 SWAP2 SWAP1 PUSH2 0x150B JUMP JUMPDEST PUSH2 0xBD3 JUMP JUMPDEST PUSH1 0x40 MLOAD PUSH2 0x188 SWAP2 SWAP1 PUSH2 0x1182 JUMP JUMPDEST PUSH1 0x40 MLOAD DUP1 SWAP2 SUB SWAP1 RETURN JUMPDEST PUSH1 0x0 DUP1 PUSH2 0x19E PUSH1 0x0 PUSH2 0xBDD JUMP JUMPDEST SWAP1 POP PUSH1 0x0 JUMPDEST PUSH1 0x3 DUP2 PUSH1 0xFF AND LT ISZERO PUSH2 0x1F6 JUMPI PUSH1 0x0 PUSH2 0x1D4 DUP9 DUP9 DUP5 PUSH1 0x2 PUSH2 0x1C3 SWAP2 SWAP1 PUSH2 0x16A7 JUMP JUMPDEST DUP9 PUSH2 0x1CE SWAP2 SWAP1 PUSH2 0x16F2 JUMP JUMPDEST DUP10 PUSH2 0x297 JUMP JUMPDEST SWAP1 POP PUSH2 0x1E0 DUP4 DUP3 PUSH2 0xC00 JUMP JUMPDEST SWAP3 POP POP DUP1 DUP1 PUSH2 0x1EE SWAP1 PUSH2 0x172F JUMP JUMPDEST SWAP2 POP POP PUSH2 0x1A3 JUMP JUMPDEST POP PUSH2 0x218 DUP2 PUSH2 0x213 DUP9 DUP9 PUSH1 0x1 DUP9 PUSH2 0x20D SWAP2 SWAP1 PUSH2 0x16F2 JUMP JUMPDEST DUP10 PUSH2 0x297 JUMP JUMPDEST PUSH2 0xC00 JUMP JUMPDEST SWAP1 POP PUSH2 0x22D DUP2 PUSH2 0x228 PUSH1 0x4 PUSH2 0xBDD JUMP JUMPDEST PUSH2 0xC67 JUMP JUMPDEST SWAP1 POP PUSH1 0x0 PUSH2 0x276 PUSH2 0x257 DUP4 PUSH2 0x252 PUSH1 0x2 PUSH1 0x40 PUSH2 0x249 SWAP2 SWAP1 PUSH2 0x1795 JUMP JUMPDEST PUSH2 0xFFFF AND PUSH2 0xBDD JUMP JUMPDEST PUSH2 0xCF0 JUMP JUMPDEST PUSH2 0x271 PUSH1 0x2 PUSH1 0x40 PUSH2 0x268 SWAP2 SWAP1 PUSH2 0x1795 JUMP JUMPDEST PUSH2 0xFFFF AND PUSH2 0xBDD JUMP JUMPDEST PUSH2 0xC00 JUMP JUMPDEST SWAP1 POP PUSH2 0x281 DUP2 PUSH2 0xD5B JUMP JUMPDEST PUSH8 0xFFFFFFFFFFFFFFFF AND SWAP3 POP POP POP SWAP5 SWAP4 POP POP POP POP JUMP JUMPDEST PUSH1 0x0 DUP1 PUSH2 0x2A5 DUP7 DUP7 DUP7 PUSH2 0xA8D JUMP JUMPDEST SWAP1 POP PUSH1 0x0 DUP1 JUMPDEST PUSH1 0x4 DUP2 PUSH1 0xFF AND LT ISZERO PUSH2 0x48B JUMPI PUSH1 0x0 DUP4 DUP3 PUSH1 0xFF AND PUSH1 0x4 DUP2 LT PUSH2 0x2CF JUMPI PUSH2 0x2CE PUSH2 0x17C6 JUMP JUMPDEST JUMPDEST PUSH1 0x20 MUL ADD MLOAD SWAP1 POP PUSH1 0x0 PUSH1 0x40 MLOAD DUP1 PUSH1 0x40 ADD PUSH1 0x40 MSTORE DUP1 DUP4 PUSH1 0x0 PUSH1 0x2 DUP2 LT PUSH2 0x2F7 JUMPI PUSH2 0x2F6 PUSH2 0x17C6 JUMP JUMPDEST JUMPDEST PUSH1 0x20 MUL ADD MLOAD DUP13 PUSH2 0x307 SWAP2 SWAP1 PUSH2 0x1802 JUMP JUMPDEST PUSH1 0x3 SIGNEXTEND PUSH1 0x3 SIGNEXTEND DUP2 MSTORE PUSH1 0x20 ADD DUP4 PUSH1 0x1 PUSH1 0x2 DUP2 LT PUSH2 0x326 JUMPI PUSH2 0x325 PUSH2 0x17C6 JUMP JUMPDEST JUMPDEST PUSH1 0x20 MUL ADD MLOAD DUP12 PUSH2 0x336 SWAP2 SWAP1 PUSH2 0x1802 JUMP JUMPDEST PUSH1 0x3 SIGNEXTEND PUSH1 0x3 SIGNEXTEND DUP2 MSTORE POP SWAP1 POP PUSH1 0x0 PUSH2 0x37F DUP4 PUSH1 0x0 PUSH1 0x2 DUP2 LT PUSH2 0x35A JUMPI PUSH2 0x359 PUSH2 0x17C6 JUMP JUMPDEST JUMPDEST PUSH1 0x20 MUL ADD MLOAD DUP5 PUSH1 0x1 PUSH1 0x2 DUP2 LT PUSH2 0x373 JUMPI PUSH2 0x372 PUSH2 0x17C6 JUMP JUMPDEST JUMPDEST PUSH1 0x20 MUL ADD MLOAD DUP12 DUP12 PUSH2 0x4C4 JUMP JUMPDEST SWAP1 POP PUSH1 0x0 DUP2 PUSH1 0x1 PUSH1 0x2 DUP2 LT PUSH2 0x397 JUMPI PUSH2 0x396 PUSH2 0x17C6 JUMP JUMPDEST JUMPDEST PUSH1 0x20 MUL ADD MLOAD PUSH1 0x1 SIGNEXTEND DUP4 PUSH1 0x1 PUSH1 0x2 DUP2 LT PUSH2 0x3B3 JUMPI PUSH2 0x3B2 PUSH2 0x17C6 JUMP JUMPDEST JUMPDEST PUSH1 0x20 MUL ADD MLOAD PUSH1 0x3 SIGNEXTEND PUSH2 0x3C5 SWAP2 SWAP1 PUSH2 0x186B JUMP JUMPDEST DUP3 PUSH1 0x0 PUSH1 0x2 DUP2 LT PUSH2 0x3D9 JUMPI PUSH2 0x3D8 PUSH2 0x17C6 JUMP JUMPDEST JUMPDEST PUSH1 0x20 MUL ADD MLOAD PUSH1 0x1 SIGNEXTEND DUP5 PUSH1 0x0 PUSH1 0x2 DUP2 LT PUSH2 0x3F5 JUMPI PUSH2 0x3F4 PUSH2 0x17C6 JUMP JUMPDEST JUMPDEST PUSH1 0x20 MUL ADD MLOAD PUSH1 0x3 SIGNEXTEND PUSH2 0x407 SWAP2 SWAP1 PUSH2 0x186B JUMP JUMPDEST PUSH2 0x411 SWAP2 SWAP1 PUSH2 0x18A8 JUMP JUMPDEST SWAP1 POP PUSH1 0x0 PUSH2 0x452 DUP6 PUSH1 0x0 PUSH1 0x2 DUP2 LT PUSH2 0x42C JUMPI PUSH2 0x42B PUSH2 0x17C6 JUMP JUMPDEST JUMPDEST PUSH1 0x20 MUL ADD MLOAD DUP7 PUSH1 0x1 PUSH1 0x2 DUP2 LT PUSH2 0x445 JUMPI PUSH2 0x444 PUSH2 0x17C6 JUMP JUMPDEST JUMPDEST PUSH1 0x20 MUL ADD MLOAD DUP16 DUP16 DUP16 PUSH2 0x99D JUMP JUMPDEST SWAP1 POP DUP2 PUSH1 0x7 SIGNEXTEND DUP2 PUSH1 0x7 SIGNEXTEND PUSH2 0x466 SWAP2 SWAP1 PUSH2 0x1908 JUMP JUMPDEST DUP8 PUSH2 0x471 SWAP2 SWAP1 PUSH2 0x1945 JUMP JUMPDEST SWAP7 POP POP POP POP POP POP DUP1 DUP1 PUSH2 0x483 SWAP1 PUSH2 0x172F JUMP JUMPDEST SWAP2 POP POP PUSH2 0x2AB JUMP JUMPDEST POP PUSH2 0x4B8 DUP2 PUSH1 0xF SIGNEXTEND PUSH1 0x3 DUP8 PUSH1 0x3 SIGNEXTEND PUSH2 0x4A3 SWAP2 SWAP1 PUSH2 0x1AA6 JUMP JUMPDEST PUSH2 0x3E8 PUSH1 0x1 SIGNEXTEND PUSH2 0x4B3 SWAP2 SWAP1 PUSH2 0x1B12 JUMP JUMPDEST PUSH2 0xD7C JUMP JUMPDEST SWAP3 POP POP POP SWAP5 SWAP4 POP POP POP POP JUMP JUMPDEST PUSH2 0x4CC PUSH2 0x1019 JUMP JUMPDEST PUSH1 0x0 PUSH1 0x10 DUP7 DUP7 DUP7 DUP7 PUSH1 0x40 MLOAD PUSH1 0x20 ADD PUSH2 0x4E7 SWAP5 SWAP4 SWAP3 SWAP2 SWAP1 PUSH2 0x1BC0 JUMP JUMPDEST PUSH1 0x40 MLOAD PUSH1 0x20 DUP2 DUP4 SUB SUB DUP2 MSTORE SWAP1 PUSH1 0x40 MSTORE DUP1 MLOAD SWAP1 PUSH1 0x20 ADD KECCAK256 PUSH1 0x0 SHR PUSH2 0x50A SWAP2 SWAP1 PUSH2 0x1C0E JUMP JUMPDEST SWAP1 POP PUSH1 0x0 PUSH1 0x40 MLOAD DUP1 PUSH2 0x200 ADD PUSH1 0x40 MSTORE DUP1 PUSH1 0x40 MLOAD DUP1 PUSH1 0x40 ADD PUSH1 0x40 MSTORE DUP1 PUSH2 0x3E8 PUSH1 0x1 SIGNEXTEND PUSH1 0x1 SIGNEXTEND DUP2 MSTORE PUSH1 0x20 ADD PUSH1 0x0 PUSH1 0x1 SIGNEXTEND PUSH1 0x1 SIGNEXTEND DUP2 MSTORE POP DUP2 MSTORE PUSH1 0x20 ADD PUSH1 0x40 MLOAD DUP1 PUSH1 0x40 ADD PUSH1 0x40 MSTORE DUP1 PUSH2 0x39B PUSH1 0x1 SIGNEXTEND PUSH1 0x1 SIGNEXTEND DUP2 MSTORE PUSH1 0x20 ADD PUSH2 0x17E PUSH1 0x1 SIGNEXTEND PUSH1 0x1 SIGNEXTEND DUP2 MSTORE POP DUP2 MSTORE PUSH1 0x20 ADD PUSH1 0x40 MLOAD DUP1 PUSH1 0x40 ADD PUSH1 0x40 MSTORE DUP1 PUSH2 0x2C3 PUSH1 0x1 SIGNEXTEND PUSH1 0x1 SIGNEXTEND DUP2 MSTORE PUSH1 0x20 ADD PUSH2 0x2C3 PUSH1 0x1 SIGNEXTEND PUSH1 0x1 SIGNEXTEND DUP2 MSTORE POP DUP2 MSTORE PUSH1 0x20 ADD PUSH1 0x40 MLOAD DUP1 PUSH1 0x40 ADD PUSH1 0x40 MSTORE DUP1 PUSH2 0x17E PUSH1 0x1 SIGNEXTEND PUSH1 0x1 SIGNEXTEND DUP2 MSTORE PUSH1 0x20 ADD PUSH2 0x39B PUSH1 0x1 SIGNEXTEND PUSH1 0x1 SIGNEXTEND DUP2 MSTORE POP DUP2 MSTORE PUSH1 0x20 ADD PUSH1 0x40 MLOAD DUP1 PUSH1 0x40 ADD PUSH1 0x40 MSTORE DUP1 PUSH1 0x0 PUSH1 0x1 SIGNEXTEND PUSH1 0x1 SIGNEXTEND DUP2 MSTORE PUSH1 0x20 ADD PUSH2 0x3E8 PUSH1 0x1 SIGNEXTEND PUSH1 0x1 SIGNEXTEND DUP2 MSTORE POP DUP2 MSTORE PUSH1 0x20 ADD PUSH1 0x40 MLOAD DUP1 PUSH1 0x40 ADD PUSH1 0x40 MSTORE DUP1 PUSH32 0xFFFFFFFFFFFFFFFFFFFFFFFFFFFFFFFFFFFFFFFFFFFFFFFFFFFFFFFFFFFFFE81 PUSH1 0x1 SIGNEXTEND PUSH1 0x1 SIGNEXTEND DUP2 MSTORE PUSH1 0x20 ADD PUSH2 0x39B PUSH1 0x1 SIGNEXTEND PUSH1 0x1 SIGNEXTEND DUP2 MSTORE POP DUP2 MSTORE PUSH1 0x20 ADD PUSH1 0x40 MLOAD DUP1 PUSH1 0x40 ADD PUSH1 0x40 MSTORE DUP1 PUSH32 0xFFFFFFFFFFFFFFFFFFFFFFFFFFFFFFFFFFFFFFFFFFFFFFFFFFFFFFFFFFFFFD3C PUSH1 0x1 SIGNEXTEND PUSH1 0x1 SIGNEXTEND DUP2 MSTORE PUSH1 0x20 ADD PUSH2 0x2C3 PUSH1 0x1 SIGNEXTEND PUSH1 0x1 SIGNEXTEND DUP2 MSTORE POP DUP2 MSTORE PUSH1 0x20 ADD PUSH1 0x40 MLOAD DUP1 PUSH1 0x40 ADD PUSH1 0x40 MSTORE DUP1 PUSH32 0xFFFFFFFFFFFFFFFFFFFFFFFFFFFFFFFFFFFFFFFFFFFFFFFFFFFFFFFFFFFFFC64 PUSH1 0x1 SIGNEXTEND PUSH1 0x1 SIGNEXTEND DUP2 MSTORE PUSH1 0x20 ADD PUSH2 0x17E PUSH1 0x1 SIGNEXTEND PUSH1 0x1 SIGNEXTEND DUP2 MSTORE POP DUP2 MSTORE PUSH1 0x20 ADD PUSH1 0x40 MLOAD DUP1 PUSH1 0x40 ADD PUSH1 0x40 MSTORE DUP1 PUSH32 0xFFFFFFFFFFFFFFFFFFFFFFFFFFFFFFFFFFFFFFFFFFFFFFFFFFFFFFFFFFFFFC18 PUSH1 0x1 SIGNEXTEND PUSH1 0x1 SIGNEXTEND DUP2 MSTORE PUSH1 0x20 ADD PUSH1 0x0 PUSH1 0x1 SIGNEXTEND PUSH1 0x1 SIGNEXTEND DUP2 MSTORE POP DUP2 MSTORE PUSH1 0x20 ADD PUSH1 0x40 MLOAD DUP1 PUSH1 0x40 ADD PUSH1 0x40 MSTORE DUP1 PUSH32 0xFFFFFFFFFFFFFFFFFFFFFFFFFFFFFFFFFFFFFFFFFFFFFFFFFFFFFFFFFFFFFC64 PUSH1 0x1 SIGNEXTEND PUSH1 0x1 SIGNEXTEND DUP2 MSTORE PUSH1 0x20 ADD PUSH32 0xFFFFFFFFFFFFFFFFFFFFFFFFFFFFFFFFFFFFFFFFFFFFFFFFFFFFFFFFFFFFFE81 PUSH1 0x1 SIGNEXTEND PUSH1 0x1 SIGNEXTEND DUP2 MSTORE POP DUP2 MSTORE PUSH1 0x20 ADD PUSH1 0x40 MLOAD DUP1 PUSH1 0x40 ADD PUSH1 0x40 MSTORE DUP1 PUSH32 0xFFFFFFFFFFFFFFFFFFFFFFFFFFFFFFFFFFFFFFFFFFFFFFFFFFFFFFFFFFFFFD3C PUSH1 0x1 SIGNEXTEND PUSH1 0x1 SIGNEXTEND DUP2 MSTORE PUSH1 0x20 ADD PUSH32 0xFFFFFFFFFFFFFFFFFFFFFFFFFFFFFFFFFFFFFFFFFFFFFFFFFFFFFFFFFFFFFD3C PUSH1 0x1 SIGNEXTEND PUSH1 0x1 SIGNEXTEND DUP2 MSTORE POP DUP2 MSTORE PUSH1 0x20 ADD PUSH1 0x40 MLOAD DUP1 PUSH1 0x40 ADD PUSH1 0x40 MSTORE DUP1 PUSH32 0xFFFFFFFFFFFFFFFFFFFFFFFFFFFFFFFFFFFFFFFFFFFFFFFFFFFFFFFFFFFFFE81 PUSH1 0x1 SIGNEXTEND PUSH1 0x1 SIGNEXTEND DUP2 MSTORE PUSH1 0x20 ADD PUSH32 0xFFFFFFFFFFFFFFFFFFFFFFFFFFFFFFFFFFFFFFFFFFFFFFFFFFFFFFFFFFFFFC64 PUSH1 0x1 SIGNEXTEND PUSH1 0x1 SIGNEXTEND DUP2 MSTORE POP DUP2 MSTORE PUSH1 0x20 ADD PUSH1 0x40 MLOAD DUP1 PUSH1 0x40 ADD PUSH1 0x40 MSTORE DUP1 PUSH32 0xFFFFFFFFFFFFFFFFFFFFFFFFFFFFFFFFFFFFFFFFFFFFFFFFFFFFFFFFFFFFFFFF PUSH1 0x1 SIGNEXTEND PUSH1 0x1 SIGNEXTEND DUP2 MSTORE PUSH1 0x20 ADD PUSH32 0xFFFFFFFFFFFFFFFFFFFFFFFFFFFFFFFFFFFFFFFFFFFFFFFFFFFFFFFFFFFFFC18 PUSH1 0x1 SIGNEXTEND PUSH1 0x1 SIGNEXTEND DUP2 MSTORE POP DUP2 MSTORE PUSH1 0x20 ADD PUSH1 0x40 MLOAD DUP1 PUSH1 0x40 ADD PUSH1 0x40 MSTORE DUP1 PUSH2 0x17E PUSH1 0x1 SIGNEXTEND PUSH1 0x1 SIGNEXTEND DUP2 MSTORE PUSH1 0x20 ADD PUSH32 0xFFFFFFFFFFFFFFFFFFFFFFFFFFFFFFFFFFFFFFFFFFFFFFFFFFFFFFFFFFFFFC64 PUSH1 0x1 SIGNEXTEND PUSH1 0x1 SIGNEXTEND DUP2 MSTORE POP DUP2 MSTORE PUSH1 0x20 ADD PUSH1 0x40 MLOAD DUP1 PUSH1 0x40 ADD PUSH1 0x40 MSTORE DUP1 PUSH2 0x2C3 PUSH1 0x1 SIGNEXTEND PUSH1 0x1 SIGNEXTEND DUP2 MSTORE PUSH1 0x20 ADD PUSH32 0xFFFFFFFFFFFFFFFFFFFFFFFFFFFFFFFFFFFFFFFFFFFFFFFFFFFFFFFFFFFFFD3C PUSH1 0x1 SIGNEXTEND PUSH1 0x1 SIGNEXTEND DUP2 MSTORE POP DUP2 MSTORE PUSH1 0x20 ADD PUSH1 0x40 MLOAD DUP1 PUSH1 0x40 ADD PUSH1 0x40 MSTORE DUP1 PUSH2 0x39B PUSH1 0x1 SIGNEXTEND PUSH1 0x1 SIGNEXTEND DUP2 MSTORE PUSH1 0x20 ADD PUSH32 0xFFFFFFFFFFFFFFFFFFFFFFFFFFFFFFFFFFFFFFFFFFFFFFFFFFFFFFFFFFFFFE81 PUSH1 0x1 SIGNEXTEND PUSH1 0x1 SIGNEXTEND DUP2 MSTORE POP DUP2 MSTORE POP SWAP1 POP DUP1 DUP3 PUSH1 0x10 DUP2 LT PUSH2 0x98C JUMPI PUSH2 0x98B PUSH2 0x17C6 JUMP JUMPDEST JUMPDEST PUSH1 0x20 MUL ADD MLOAD SWAP3 POP POP POP SWAP5 SWAP4 POP POP POP POP JUMP JUMPDEST PUSH1 0x0 DUP1 PUSH1 0x1 SWAP1 POP DUP5 PUSH4 0xFFFFFFFF AND DUP8 PUSH4 0xFFFFFFFF AND GT ISZERO PUSH2 0x9E7 JUMPI DUP5 DUP8 PUSH2 0x9C4 SWAP2 SWAP1 PUSH2 0x1C3F JUMP JUMPDEST DUP4 PUSH2 0x9CF SWAP2 SWAP1 PUSH2 0x1C3F JUMP JUMPDEST PUSH4 0xFFFFFFFF AND DUP2 PUSH2 0x9E0 SWAP2 SWAP1 PUSH2 0x1C77 JUMP JUMPDEST SWAP1 POP PUSH2 0xA12 JUMP JUMPDEST DUP7 DUP6 PUSH2 0x9F3 SWAP2 SWAP1 PUSH2 0x1C3F JUMP JUMPDEST DUP4 PUSH2 0x9FE SWAP2 SWAP1 PUSH2 0x1C3F JUMP JUMPDEST PUSH4 0xFFFFFFFF AND DUP2 PUSH2 0xA0F SWAP2 SWAP1 PUSH2 0x1C77 JUMP JUMPDEST SWAP1 POP JUMPDEST DUP4 PUSH4 0xFFFFFFFF AND DUP7 PUSH4 0xFFFFFFFF AND GT ISZERO PUSH2 0xA55 JUMPI DUP4 DUP7 PUSH2 0xA32 SWAP2 SWAP1 PUSH2 0x1C3F JUMP JUMPDEST DUP4 PUSH2 0xA3D SWAP2 SWAP1 PUSH2 0x1C3F JUMP JUMPDEST PUSH4 0xFFFFFFFF AND DUP2 PUSH2 0xA4E SWAP2 SWAP1 PUSH2 0x1C77 JUMP JUMPDEST SWAP1 POP PUSH2 0xA80 JUMP JUMPDEST DUP6 DUP5 PUSH2 0xA61 SWAP2 SWAP1 PUSH2 0x1C3F JUMP JUMPDEST DUP4 PUSH2 0xA6C SWAP2 SWAP1 PUSH2 0x1C3F JUMP JUMPDEST PUSH4 0xFFFFFFFF AND DUP2 PUSH2 0xA7D SWAP2 SWAP1 PUSH2 0x1C77 JUMP JUMPDEST SWAP1 POP JUMPDEST DUP1 SWAP2 POP POP SWAP6 SWAP5 POP POP POP POP POP JUMP JUMPDEST PUSH2 0xA95 PUSH2 0x103B JUMP JUMPDEST PUSH1 0x0 DUP3 DUP4 DUP7 PUSH2 0xAA4 SWAP2 SWAP1 PUSH2 0x1CB4 JUMP JUMPDEST PUSH2 0xAAE SWAP2 SWAP1 PUSH2 0x16F2 JUMP JUMPDEST SWAP1 POP PUSH1 0x0 DUP4 DUP5 DUP7 PUSH2 0xABF SWAP2 SWAP1 PUSH2 0x1CB4 JUMP JUMPDEST PUSH2 0xAC9 SWAP2 SWAP1 PUSH2 0x16F2 JUMP JUMPDEST SWAP1 POP PUSH1 0x40 MLOAD DUP1 PUSH1 0x80 ADD PUSH1 0x40 MSTORE DUP1 PUSH1 0x40 MLOAD DUP1 PUSH1 0x40 ADD PUSH1 0x40 MSTORE DUP1 DUP6 PUSH4 0xFFFFFFFF AND PUSH4 0xFFFFFFFF AND DUP2 MSTORE PUSH1 0x20 ADD DUP5 PUSH4 0xFFFFFFFF AND PUSH4 0xFFFFFFFF AND DUP2 MSTORE POP DUP2 MSTORE PUSH1 0x20 ADD PUSH1 0x40 MLOAD DUP1 PUSH1 0x40 ADD PUSH1 0x40 MSTORE DUP1 DUP8 DUP7 PUSH2 0xB1F SWAP2 SWAP1 PUSH2 0x1CE5 JUMP JUMPDEST PUSH4 0xFFFFFFFF AND PUSH4 0xFFFFFFFF AND DUP2 MSTORE PUSH1 0x20 ADD DUP5 PUSH4 0xFFFFFFFF AND PUSH4 0xFFFFFFFF AND DUP2 MSTORE POP DUP2 MSTORE PUSH1 0x20 ADD PUSH1 0x40 MLOAD DUP1 PUSH1 0x40 ADD PUSH1 0x40 MSTORE DUP1 DUP8 DUP7 PUSH2 0xB5C SWAP2 SWAP1 PUSH2 0x1CE5 JUMP JUMPDEST PUSH4 0xFFFFFFFF AND PUSH4 0xFFFFFFFF AND DUP2 MSTORE PUSH1 0x20 ADD DUP8 DUP6 PUSH2 0xB79 SWAP2 SWAP1 PUSH2 0x1CE5 JUMP JUMPDEST PUSH4 0xFFFFFFFF AND PUSH4 0xFFFFFFFF AND DUP2 MSTORE POP DUP2 MSTORE PUSH1 0x20 ADD PUSH1 0x40 MLOAD DUP1 PUSH1 0x40 ADD PUSH1 0x40 MSTORE DUP1 DUP6 PUSH4 0xFFFFFFFF AND PUSH4 0xFFFFFFFF AND DUP2 MSTORE PUSH1 0x20 ADD DUP8 DUP6 PUSH2 0xBB6 SWAP2 SWAP1 PUSH2 0x1CE5 JUMP JUMPDEST PUSH4 0xFFFFFFFF AND PUSH4 0xFFFFFFFF AND DUP2 MSTORE POP DUP2 MSTORE POP SWAP3 POP POP POP SWAP4 SWAP3 POP POP POP JUMP JUMPDEST PUSH1 0x0 DUP2 SWAP1 POP SWAP2 SWAP1 POP JUMP JUMPDEST PUSH1 0x0 PUSH8 0x7FFFFFFFFFFFFFFF DUP3 GT ISZERO PUSH2 0xBF4 JUMPI PUSH1 0x0 DUP1 REVERT JUMPDEST PUSH1 0x40 DUP3 SWAP1 SHL SWAP1 POP SWAP2 SWAP1 POP JUMP JUMPDEST PUSH1 0x0 DUP1 DUP3 PUSH1 0xF SIGNEXTEND DUP5 PUSH1 0xF SIGNEXTEND ADD SWAP1 POP PUSH32 0xFFFFFFFFFFFFFFFFFFFFFFFFFFFFFFFF80000000000000000000000000000000 PUSH1 0xF SIGNEXTEND DUP2 SLT ISZERO DUP1 ISZERO PUSH2 0xC54 JUMPI POP PUSH16 0x7FFFFFFFFFFFFFFFFFFFFFFFFFFFFFFF PUSH1 0xF SIGNEXTEND DUP2 SGT ISZERO JUMPDEST PUSH2 0xC5D JUMPI PUSH1 0x0 DUP1 REVERT JUMPDEST DUP1 SWAP2 POP POP SWAP3 SWAP2 POP POP JUMP JUMPDEST PUSH1 0x0 DUP1 DUP3 PUSH1 0xF SIGNEXTEND SUB PUSH2 0xC78 JUMPI PUSH1 0x0 DUP1 REVERT JUMPDEST PUSH1 0x0 DUP3 PUSH1 0xF SIGNEXTEND PUSH1 0x40 DUP6 PUSH1 0xF SIGNEXTEND SWAP1 SHL DUP2 PUSH2 0xC94 JUMPI PUSH2 0xC93 PUSH2 0x1766 JUMP JUMPDEST JUMPDEST SDIV SWAP1 POP PUSH32 0xFFFFFFFFFFFFFFFFFFFFFFFFFFFFFFFF80000000000000000000000000000000 PUSH1 0xF SIGNEXTEND DUP2 SLT ISZERO DUP1 ISZERO PUSH2 0xCDD JUMPI POP PUSH16 0x7FFFFFFFFFFFFFFFFFFFFFFFFFFFFFFF PUSH1 0xF SIGNEXTEND DUP2 SGT ISZERO JUMPDEST PUSH2 0xCE6 JUMPI PUSH1 0x0 DUP1 REVERT JUMPDEST DUP1 SWAP2 POP POP SWAP3 SWAP2 POP POP JUMP JUMPDEST PUSH1 0x0 DUP1 PUSH1 0x40 DUP4 PUSH1 0xF SIGNEXTEND DUP6 PUSH1 0xF SIGNEXTEND MUL SWAP1 SAR SWAP1 POP PUSH32 0xFFFFFFFFFFFFFFFFFFFFFFFFFFFFFFFF80000000000000000000000000000000 PUSH1 0xF SIGNEXTEND DUP2 SLT ISZERO DUP1 ISZERO PUSH2 0xD48 JUMPI POP PUSH16 0x7FFFFFFFFFFFFFFFFFFFFFFFFFFFFFFF PUSH1 0xF SIGNEXTEND DUP2 SGT ISZERO JUMPDEST PUSH2 0xD51 JUMPI PUSH1 0x0 DUP1 REVERT JUMPDEST DUP1 SWAP2 POP POP SWAP3 SWAP2 POP POP JUMP JUMPDEST PUSH1 0x0 DUP1 DUP3 PUSH1 0xF SIGNEXTEND SLT ISZERO PUSH2 0xD6D JUMPI PUSH1 0x0 DUP1 REVERT JUMPDEST PUSH1 0x40 DUP3 PUSH1 0xF SIGNEXTEND SWAP1 SAR SWAP1 POP SWAP2 SWAP1 POP JUMP JUMPDEST PUSH1 0x0 DUP1 DUP3 SUB PUSH2 0xD8A JUMPI PUSH1 0x0 DUP1 REVERT JUMPDEST PUSH1 0x0 DUP1 DUP5 SLT ISZERO PUSH2 0xD9F JUMPI DUP4 PUSH1 0x0 SUB SWAP4 POP PUSH1 0x1 SWAP1 POP JUMPDEST PUSH1 0x0 DUP4 SLT ISZERO PUSH2 0xDB3 JUMPI DUP3 PUSH1 0x0 SUB SWAP3 POP DUP1 ISZERO SWAP1 POP JUMPDEST PUSH1 0x0 PUSH2 0xDBF DUP6 DUP6 PUSH2 0xE3E JUMP JUMPDEST SWAP1 POP DUP2 ISZERO PUSH2 0xE03 JUMPI PUSH16 0x80000000000000000000000000000000 DUP2 PUSH16 0xFFFFFFFFFFFFFFFFFFFFFFFFFFFFFFFF AND GT ISZERO PUSH2 0xDF6 JUMPI PUSH1 0x0 DUP1 REVERT JUMPDEST DUP1 PUSH1 0x0 SUB SWAP3 POP POP POP PUSH2 0xE38 JUMP JUMPDEST PUSH16 0x7FFFFFFFFFFFFFFFFFFFFFFFFFFFFFFF DUP2 PUSH16 0xFFFFFFFFFFFFFFFFFFFFFFFFFFFFFFFF AND GT ISZERO PUSH2 0xE32 JUMPI PUSH1 0x0 DUP1 REVERT JUMPDEST DUP1 SWAP3 POP POP POP JUMPDEST SWAP3 SWAP2 POP POP JUMP JUMPDEST PUSH1 0x0 DUP1 DUP3 SUB PUSH2 0xE4C JUMPI PUSH1 0x0 DUP1 REVERT JUMPDEST PUSH1 0x0 PUSH24 0xFFFFFFFFFFFFFFFFFFFFFFFFFFFFFFFFFFFFFFFFFFFFFFFF DUP5 GT PUSH2 0xE89 JUMPI DUP3 PUSH1 0x40 DUP6 SWAP1 SHL DUP2 PUSH2 0xE81 JUMPI PUSH2 0xE80 PUSH2 0x1766 JUMP JUMPDEST JUMPDEST DIV SWAP1 POP PUSH2 0xFF2 JUMP JUMPDEST PUSH1 0x0 PUSH1 0xC0 SWAP1 POP PUSH1 0x0 PUSH1 0xC0 DUP7 SWAP1 SHR SWAP1 POP PUSH5 0x100000000 DUP2 LT PUSH2 0xEB2 JUMPI PUSH1 0x20 DUP2 SWAP1 SHR SWAP1 POP PUSH1 0x20 DUP3 ADD SWAP2 POP JUMPDEST PUSH3 0x10000 DUP2 LT PUSH2 0xECA JUMPI PUSH1 0x10 DUP2 SWAP1 SHR SWAP1 POP PUSH1 0x10 DUP3 ADD SWAP2 POP JUMPDEST PUSH2 0x100 DUP2 LT PUSH2 0xEE1 JUMPI PUSH1 0x8 DUP2 SWAP1 SHR SWAP1 POP PUSH1 0x8 DUP3 ADD SWAP2 POP JUMPDEST PUSH1 0x10 DUP2 LT PUSH2 0xEF7 JUMPI PUSH1 0x4 DUP2 SWAP1 SHR SWAP1 POP PUSH1 0x4 DUP3 ADD SWAP2 POP JUMPDEST PUSH1 0x4 DUP2 LT PUSH2 0xF0D JUMPI PUSH1 0x2 DUP2 SWAP1 SHR SWAP1 POP PUSH1 0x2 DUP3 ADD SWAP2 POP JUMPDEST PUSH1 0x2 DUP2 LT PUSH2 0xF1C JUMPI PUSH1 0x1 DUP3 ADD SWAP2 POP JUMPDEST PUSH1 0x1 PUSH1 0xBF DUP4 SUB PUSH1 0x1 DUP8 SUB SWAP1 SHR ADD DUP3 PUSH1 0xFF SUB DUP8 SWAP1 SHL DUP2 PUSH2 0xF3E JUMPI PUSH2 0xF3D PUSH2 0x1766 JUMP JUMPDEST JUMPDEST DIV SWAP3 POP PUSH16 0xFFFFFFFFFFFFFFFFFFFFFFFFFFFFFFFF DUP4 GT ISZERO PUSH2 0xF5E JUMPI PUSH1 0x0 DUP1 REVERT JUMPDEST PUSH1 0x0 PUSH1 0x80 DUP7 SWAP1 SHR DUP5 MUL SWAP1 POP PUSH1 0x0 PUSH16 0xFFFFFFFFFFFFFFFFFFFFFFFFFFFFFFFF DUP8 AND DUP6 MUL SWAP1 POP PUSH1 0x0 PUSH1 0xC0 DUP10 SWAP1 SHR SWAP1 POP PUSH1 0x0 PUSH1 0x40 DUP11 SWAP1 SHL SWAP1 POP DUP3 DUP2 LT ISZERO PUSH2 0xFA3 JUMPI PUSH1 0x1 DUP3 SUB SWAP2 POP JUMPDEST DUP3 DUP2 SUB SWAP1 POP PUSH1 0x80 DUP5 SWAP1 SHL SWAP3 POP DUP3 DUP2 LT ISZERO PUSH2 0xFBE JUMPI PUSH1 0x1 DUP3 SUB SWAP2 POP JUMPDEST DUP3 DUP2 SUB SWAP1 POP PUSH1 0x80 DUP5 SWAP1 SHR DUP3 EQ PUSH2 0xFD5 JUMPI PUSH1 0x1 PUSH2 0xFE7 JUMP JUMPDEST DUP9 DUP2 DUP2 PUSH2 0xFE5 JUMPI PUSH2 0xFE4 PUSH2 0x1766 JUMP JUMPDEST JUMPDEST DIV JUMPDEST DUP8 ADD SWAP7 POP POP POP POP POP POP POP JUMPDEST PUSH16 0xFFFFFFFFFFFFFFFFFFFFFFFFFFFFFFFF DUP2 GT ISZERO PUSH2 0x100F JUMPI PUSH1 0x0 DUP1 REVERT JUMPDEST DUP1 SWAP2 POP POP SWAP3 SWAP2 POP POP JUMP JUMPDEST PUSH1 0x40 MLOAD DUP1 PUSH1 0x40 ADD PUSH1 0x40 MSTORE DUP1 PUSH1 0x2 SWAP1 PUSH1 0x20 DUP3 MUL DUP1 CALLDATASIZE DUP4 CALLDATACOPY DUP1 DUP3 ADD SWAP2 POP POP SWAP1 POP POP SWAP1 JUMP JUMPDEST PUSH1 0x40 MLOAD DUP1 PUSH1 0x80 ADD PUSH1 0x40 MSTORE DUP1 PUSH1 0x4 SWAP1 JUMPDEST PUSH2 0x1052 PUSH2 0x1068 JUMP JUMPDEST DUP2 MSTORE PUSH1 0x20 ADD SWAP1 PUSH1 0x1 SWAP1 SUB SWAP1 DUP2 PUSH2 0x104A JUMPI SWAP1 POP POP SWAP1 JUMP JUMPDEST PUSH1 0x40 MLOAD DUP1 PUSH1 0x40 ADD PUSH1 0x40 MSTORE DUP1 PUSH1 0x2 SWAP1 PUSH1 0x20 DUP3 MUL DUP1 CALLDATASIZE DUP4 CALLDATACOPY DUP1 DUP3 ADD SWAP2 POP POP SWAP1 POP POP SWAP1 JUMP JUMPDEST PUSH1 0x0 DUP1 REVERT JUMPDEST PUSH1 0x0 PUSH4 0xFFFFFFFF DUP3 AND SWAP1 POP SWAP2 SWAP1 POP JUMP JUMPDEST PUSH2 0x10A8 DUP2 PUSH2 0x108F JUMP JUMPDEST DUP2 EQ PUSH2 0x10B3 JUMPI PUSH1 0x0 DUP1 REVERT JUMPDEST POP JUMP JUMPDEST PUSH1 0x0 DUP2 CALLDATALOAD SWAP1 POP PUSH2 0x10C5 DUP2 PUSH2 0x109F JUMP JUMPDEST SWAP3 SWAP2 POP POP JUMP JUMPDEST PUSH1 0x0 DUP1 PUSH1 0x0 DUP1 PUSH1 0x80 DUP6 DUP8 SUB SLT ISZERO PUSH2 0x10E5 JUMPI PUSH2 0x10E4 PUSH2 0x108A JUMP JUMPDEST JUMPDEST PUSH1 0x0 PUSH2 0x10F3 DUP8 DUP3 DUP9 ADD PUSH2 0x10B6 JUMP JUMPDEST SWAP5 POP POP PUSH1 0x20 PUSH2 0x1104 DUP8 DUP3 DUP9 ADD PUSH2 0x10B6 JUMP JUMPDEST SWAP4 POP POP PUSH1 0x40 PUSH2 0x1115 DUP8 DUP3 DUP9 ADD PUSH2 0x10B6 JUMP JUMPDEST SWAP3 POP POP PUSH1 0x60 PUSH2 0x1126 DUP8 DUP3 DUP9 ADD PUSH2 0x10B6 JUMP JUMPDEST SWAP2 POP POP SWAP3 SWAP6 SWAP2 SWAP5 POP SWAP3 POP JUMP JUMPDEST PUSH1 0x0 DUP2 SWAP1 POP SWAP2 SWAP1 POP JUMP JUMPDEST PUSH2 0x1145 DUP2 PUSH2 0x1132 JUMP JUMPDEST DUP3 MSTORE POP POP JUMP JUMPDEST PUSH1 0x0 PUSH1 0x20 DUP3 ADD SWAP1 POP PUSH2 0x1160 PUSH1 0x0 DUP4 ADD DUP5 PUSH2 0x113C JUMP JUMPDEST SWAP3 SWAP2 POP POP JUMP JUMPDEST PUSH1 0x0 DUP2 PUSH1 0xF SIGNEXTEND SWAP1 POP SWAP2 SWAP1 POP JUMP JUMPDEST PUSH2 0x117C DUP2 PUSH2 0x1166 JUMP JUMPDEST DUP3 MSTORE POP POP JUMP JUMPDEST PUSH1 0x0 PUSH1 0x20 DUP3 ADD SWAP1 POP PUSH2 0x1197 PUSH1 0x0 DUP4 ADD DUP5 PUSH2 0x1173 JUMP JUMPDEST SWAP3 SWAP2 POP POP JUMP JUMPDEST PUSH1 0x0 PUSH1 0x2 SWAP1 POP SWAP2 SWAP1 POP JUMP JUMPDEST PUSH1 0x0 DUP2 SWAP1 POP SWAP3 SWAP2 POP POP JUMP JUMPDEST PUSH1 0x0 DUP2 SWAP1 POP SWAP2 SWAP1 POP JUMP JUMPDEST PUSH1 0x0 DUP2 PUSH1 0x1 SIGNEXTEND SWAP1 POP SWAP2 SWAP1 POP JUMP JUMPDEST PUSH2 0x11D3 DUP2 PUSH2 0x11BD JUMP JUMPDEST DUP3 MSTORE POP POP JUMP JUMPDEST PUSH1 0x0 PUSH2 0x11E5 DUP4 DUP4 PUSH2 0x11CA JUMP JUMPDEST PUSH1 0x20 DUP4 ADD SWAP1 POP SWAP3 SWAP2 POP POP JUMP JUMPDEST PUSH1 0x0 PUSH1 0x20 DUP3 ADD SWAP1 POP SWAP2 SWAP1 POP JUMP JUMPDEST PUSH2 0x1207 DUP2 PUSH2 0x119D JUMP JUMPDEST PUSH2 0x1211 DUP2 DUP5 PUSH2 0x11A8 JUMP JUMPDEST SWAP3 POP PUSH2 0x121C DUP3 PUSH2 0x11B3 JUMP JUMPDEST DUP1 PUSH1 0x0 JUMPDEST DUP4 DUP2 LT ISZERO PUSH2 0x124D JUMPI DUP2 MLOAD PUSH2 0x1234 DUP8 DUP3 PUSH2 0x11D9 JUMP JUMPDEST SWAP7 POP PUSH2 0x123F DUP4 PUSH2 0x11F1 JUMP JUMPDEST SWAP3 POP POP PUSH1 0x1 DUP2 ADD SWAP1 POP PUSH2 0x1220 JUMP JUMPDEST POP POP POP POP POP POP JUMP JUMPDEST PUSH1 0x0 PUSH1 0x40 DUP3 ADD SWAP1 POP PUSH2 0x126A PUSH1 0x0 DUP4 ADD DUP5 PUSH2 0x11FE JUMP JUMPDEST SWAP3 SWAP2 POP POP JUMP JUMPDEST PUSH1 0x0 DUP1 PUSH1 0x0 DUP1 PUSH1 0x0 PUSH1 0xA0 DUP7 DUP9 SUB SLT ISZERO PUSH2 0x128C JUMPI PUSH2 0x128B PUSH2 0x108A JUMP JUMPDEST JUMPDEST PUSH1 0x0 PUSH2 0x129A DUP9 DUP3 DUP10 ADD PUSH2 0x10B6 JUMP JUMPDEST SWAP6 POP POP PUSH1 0x20 PUSH2 0x12AB DUP9 DUP3 DUP10 ADD PUSH2 0x10B6 JUMP JUMPDEST SWAP5 POP POP PUSH1 0x40 PUSH2 0x12BC DUP9 DUP3 DUP10 ADD PUSH2 0x10B6 JUMP JUMPDEST SWAP4 POP POP PUSH1 0x60 PUSH2 0x12CD DUP9 DUP3 DUP10 ADD PUSH2 0x10B6 JUMP JUMPDEST SWAP3 POP POP PUSH1 0x80 PUSH2 0x12DE DUP9 DUP3 DUP10 ADD PUSH2 0x10B6 JUMP JUMPDEST SWAP2 POP POP SWAP3 SWAP6 POP SWAP3 SWAP6 SWAP1 SWAP4 POP JUMP JUMPDEST PUSH1 0x0 PUSH8 0xFFFFFFFFFFFFFFFF DUP3 AND SWAP1 POP SWAP2 SWAP1 POP JUMP JUMPDEST PUSH2 0x1308 DUP2 PUSH2 0x12EB JUMP JUMPDEST DUP3 MSTORE POP POP JUMP JUMPDEST PUSH1 0x0 PUSH1 0x20 DUP3 ADD SWAP1 POP PUSH2 0x1323 PUSH1 0x0 DUP4 ADD DUP5 PUSH2 0x12FF JUMP JUMPDEST SWAP3 SWAP2 POP POP JUMP JUMPDEST PUSH1 0x0 DUP1 PUSH1 0x0 PUSH1 0x60 DUP5 DUP7 SUB SLT ISZERO PUSH2 0x1342 JUMPI PUSH2 0x1341 PUSH2 0x108A JUMP JUMPDEST JUMPDEST PUSH1 0x0 PUSH2 0x1350 DUP7 DUP3 DUP8 ADD PUSH2 0x10B6 JUMP JUMPDEST SWAP4 POP POP PUSH1 0x20 PUSH2 0x1361 DUP7 DUP3 DUP8 ADD PUSH2 0x10B6 JUMP JUMPDEST SWAP3 POP POP PUSH1 0x40 PUSH2 0x1372 DUP7 DUP3 DUP8 ADD PUSH2 0x10B6 JUMP JUMPDEST SWAP2 POP POP SWAP3 POP SWAP3 POP SWAP3 JUMP JUMPDEST PUSH1 0x0 PUSH1 0x4 SWAP1 POP SWAP2 SWAP1 POP JUMP JUMPDEST PUSH1 0x0 DUP2 SWAP1 POP SWAP3 SWAP2 POP POP JUMP JUMPDEST PUSH1 0x0 DUP2 SWAP1 POP SWAP2 SWAP1 POP JUMP JUMPDEST PUSH1 0x0 PUSH1 0x2 SWAP1 POP SWAP2 SWAP1 POP JUMP JUMPDEST PUSH1 0x0 DUP2 SWAP1 POP SWAP3 SWAP2 POP POP JUMP JUMPDEST PUSH1 0x0 DUP2 SWAP1 POP SWAP2 SWAP1 POP JUMP JUMPDEST PUSH2 0x13C5 DUP2 PUSH2 0x108F JUMP JUMPDEST DUP3 MSTORE POP POP JUMP JUMPDEST PUSH1 0x0 PUSH2 0x13D7 DUP4 DUP4 PUSH2 0x13BC JUMP JUMPDEST PUSH1 0x20 DUP4 ADD SWAP1 POP SWAP3 SWAP2 POP POP JUMP JUMPDEST PUSH1 0x0 PUSH1 0x20 DUP3 ADD SWAP1 POP SWAP2 SWAP1 POP JUMP JUMPDEST PUSH2 0x13F9 DUP2 PUSH2 0x139C JUMP JUMPDEST PUSH2 0x1403 DUP2 DUP5 PUSH2 0x13A7 JUMP JUMPDEST SWAP3 POP PUSH2 0x140E DUP3 PUSH2 0x13B2 JUMP JUMPDEST DUP1 PUSH1 0x0 JUMPDEST DUP4 DUP2 LT ISZERO PUSH2 0x143F JUMPI DUP2 MLOAD PUSH2 0x1426 DUP8 DUP3 PUSH2 0x13CB JUMP JUMPDEST SWAP7 POP PUSH2 0x1431 DUP4 PUSH2 0x13E3 JUMP JUMPDEST SWAP3 POP POP PUSH1 0x1 DUP2 ADD SWAP1 POP PUSH2 0x1412 JUMP JUMPDEST POP POP POP POP POP POP JUMP JUMPDEST PUSH1 0x0 PUSH2 0x1453 DUP4 DUP4 PUSH2 0x13F0 JUMP JUMPDEST PUSH1 0x40 DUP4 ADD SWAP1 POP SWAP3 SWAP2 POP POP JUMP JUMPDEST PUSH1 0x0 PUSH1 0x20 DUP3 ADD SWAP1 POP SWAP2 SWAP1 POP JUMP JUMPDEST PUSH2 0x1475 DUP2 PUSH2 0x137C JUMP JUMPDEST PUSH2 0x147F DUP2 DUP5 PUSH2 0x1387 JUMP JUMPDEST SWAP3 POP PUSH2 0x148A DUP3 PUSH2 0x1392 JUMP JUMPDEST DUP1 PUSH1 0x0 JUMPDEST DUP4 DUP2 LT ISZERO PUSH2 0x14BB JUMPI DUP2 MLOAD PUSH2 0x14A2 DUP8 DUP3 PUSH2 0x1447 JUMP JUMPDEST SWAP7 POP PUSH2 0x14AD DUP4 PUSH2 0x145F JUMP JUMPDEST SWAP3 POP POP PUSH1 0x1 DUP2 ADD SWAP1 POP PUSH2 0x148E JUMP JUMPDEST POP POP POP POP POP POP JUMP JUMPDEST PUSH1 0x0 PUSH2 0x100 DUP3 ADD SWAP1 POP PUSH2 0x14D9 PUSH1 0x0 DUP4 ADD DUP5 PUSH2 0x146C JUMP JUMPDEST SWAP3 SWAP2 POP POP JUMP JUMPDEST PUSH2 0x14E8 DUP2 PUSH2 0x1166 JUMP JUMPDEST DUP2 EQ PUSH2 0x14F3 JUMPI PUSH1 0x0 DUP1 REVERT JUMPDEST POP JUMP JUMPDEST PUSH1 0x0 DUP2 CALLDATALOAD SWAP1 POP PUSH2 0x1505 DUP2 PUSH2 0x14DF JUMP JUMPDEST SWAP3 SWAP2 POP POP JUMP JUMPDEST PUSH1 0x0 PUSH1 0x20 DUP3 DUP5 SUB SLT ISZERO PUSH2 0x1521 JUMPI PUSH2 0x1520 PUSH2 0x108A JUMP JUMPDEST JUMPDEST PUSH1 0x0 PUSH2 0x152F DUP5 DUP3 DUP6 ADD PUSH2 0x14F6 JUMP JUMPDEST SWAP2 POP POP SWAP3 SWAP2 POP POP JUMP JUMPDEST PUSH32 0x4E487B7100000000000000000000000000000000000000000000000000000000 PUSH1 0x0 MSTORE PUSH1 0x11 PUSH1 0x4 MSTORE PUSH1 0x24 PUSH1 0x0 REVERT JUMPDEST PUSH1 0x0 DUP2 PUSH1 0x1 SHR SWAP1 POP SWAP2 SWAP1 POP JUMP JUMPDEST PUSH1 0x0 DUP1 DUP3 SWAP2 POP DUP4 SWAP1 POP JUMPDEST PUSH1 0x1 DUP6 GT ISZERO PUSH2 0x15BE JUMPI DUP1 DUP7 DIV DUP2 GT ISZERO PUSH2 0x159A JUMPI PUSH2 0x1599 PUSH2 0x1538 JUMP JUMPDEST JUMPDEST PUSH1 0x1 DUP6 AND ISZERO PUSH2 0x15A9 JUMPI DUP1 DUP3 MUL SWAP2 POP JUMPDEST DUP1 DUP2 MUL SWAP1 POP PUSH2 0x15B7 DUP6 PUSH2 0x1567 JUMP JUMPDEST SWAP5 POP PUSH2 0x157E JUMP JUMPDEST SWAP5 POP SWAP5 SWAP3 POP POP POP JUMP JUMPDEST PUSH1 0x0 DUP3 PUSH2 0x15D7 JUMPI PUSH1 0x1 SWAP1 POP PUSH2 0x1693 JUMP JUMPDEST DUP2 PUSH2 0x15E5 JUMPI PUSH1 0x0 SWAP1 POP PUSH2 0x1693 JUMP JUMPDEST DUP2 PUSH1 0x1 DUP2 EQ PUSH2 0x15FB JUMPI PUSH1 0x2 DUP2 EQ PUSH2 0x1605 JUMPI PUSH2 0x1634 JUMP JUMPDEST PUSH1 0x1 SWAP2 POP POP PUSH2 0x1693 JUMP JUMPDEST PUSH1 0xFF DUP5 GT ISZERO PUSH2 0x1617 JUMPI PUSH2 0x1616 PUSH2 0x1538 JUMP JUMPDEST JUMPDEST DUP4 PUSH1 0x2 EXP SWAP2 POP DUP5 DUP3 GT ISZERO PUSH2 0x162E JUMPI PUSH2 0x162D PUSH2 0x1538 JUMP JUMPDEST JUMPDEST POP PUSH2 0x1693 JUMP JUMPDEST POP PUSH1 0x20 DUP4 LT PUSH2 0x133 DUP4 LT AND PUSH1 0x4E DUP5 LT PUSH1 0xB DUP5 LT AND OR ISZERO PUSH2 0x1669 JUMPI DUP3 DUP3 EXP SWAP1 POP DUP4 DUP2 GT ISZERO PUSH2 0x1664 JUMPI PUSH2 0x1663 PUSH2 0x1538 JUMP JUMPDEST JUMPDEST PUSH2 0x1693 JUMP JUMPDEST PUSH2 0x1676 DUP5 DUP5 DUP5 PUSH1 0x1 PUSH2 0x1574 JUMP JUMPDEST SWAP3 POP SWAP1 POP DUP2 DUP5 DIV DUP2 GT ISZERO PUSH2 0x168D JUMPI PUSH2 0x168C PUSH2 0x1538 JUMP JUMPDEST JUMPDEST DUP2 DUP2 MUL SWAP1 POP JUMPDEST SWAP4 SWAP3 POP POP POP JUMP JUMPDEST PUSH1 0x0 PUSH1 0xFF DUP3 AND SWAP1 POP SWAP2 SWAP1 POP JUMP JUMPDEST PUSH1 0x0 PUSH2 0x16B2 DUP3 PUSH2 0x1132 JUMP JUMPDEST SWAP2 POP PUSH2 0x16BD DUP4 PUSH2 0x169A JUMP JUMPDEST SWAP3 POP PUSH2 0x16EA PUSH32 0xFFFFFFFFFFFFFFFFFFFFFFFFFFFFFFFFFFFFFFFFFFFFFFFFFFFFFFFFFFFFFFFF DUP5 DUP5 PUSH2 0x15C7 JUMP JUMPDEST SWAP1 POP SWAP3 SWAP2 POP POP JUMP JUMPDEST PUSH1 0x0 PUSH2 0x16FD DUP3 PUSH2 0x108F JUMP JUMPDEST SWAP2 POP PUSH2 0x1708 DUP4 PUSH2 0x108F JUMP JUMPDEST SWAP3 POP DUP3 DUP3 MUL PUSH2 0x1716 DUP2 PUSH2 0x108F JUMP JUMPDEST SWAP2 POP DUP1 DUP3 EQ PUSH2 0x1728 JUMPI PUSH2 0x1727 PUSH2 0x1538 JUMP JUMPDEST JUMPDEST POP SWAP3 SWAP2 POP POP JUMP JUMPDEST PUSH1 0x0 PUSH2 0x173A DUP3 PUSH2 0x169A JUMP JUMPDEST SWAP2 POP PUSH1 0xFF DUP3 SUB PUSH2 0x174D JUMPI PUSH2 0x174C PUSH2 0x1538 JUMP JUMPDEST JUMPDEST PUSH1 0x1 DUP3 ADD SWAP1 POP SWAP2 SWAP1 POP JUMP JUMPDEST PUSH1 0x0 PUSH2 0xFFFF DUP3 AND SWAP1 POP SWAP2 SWAP1 POP JUMP JUMPDEST PUSH32 0x4E487B7100000000000000000000000000000000000000000000000000000000 PUSH1 0x0 MSTORE PUSH1 0x12 PUSH1 0x4 MSTORE PUSH1 0x24 PUSH1 0x0 REVERT JUMPDEST PUSH1 0x0 PUSH2 0x17A0 DUP3 PUSH2 0x1758 JUMP JUMPDEST SWAP2 POP PUSH2 0x17AB DUP4 PUSH2 0x1758 JUMP JUMPDEST SWAP3 POP DUP3 PUSH2 0x17BB JUMPI PUSH2 0x17BA PUSH2 0x1766 JUMP JUMPDEST JUMPDEST DUP3 DUP3 DIV SWAP1 POP SWAP3 SWAP2 POP POP JUMP JUMPDEST PUSH32 0x4E487B7100000000000000000000000000000000000000000000000000000000 PUSH1 0x0 MSTORE PUSH1 0x32 PUSH1 0x4 MSTORE PUSH1 0x24 PUSH1 0x0 REVERT JUMPDEST PUSH1 0x0 DUP2 PUSH1 0x3 SIGNEXTEND SWAP1 POP SWAP2 SWAP1 POP JUMP JUMPDEST PUSH1 0x0 PUSH2 0x180D DUP3 PUSH2 0x17F5 JUMP JUMPDEST SWAP2 POP PUSH2 0x1818 DUP4 PUSH2 0x17F5 JUMP JUMPDEST SWAP3 POP DUP3 DUP3 SUB SWAP1 POP PUSH4 0x7FFFFFFF DUP2 SGT PUSH32 0xFFFFFFFFFFFFFFFFFFFFFFFFFFFFFFFFFFFFFFFFFFFFFFFFFFFFFFFF80000000 DUP3 SLT OR ISZERO PUSH2 0x1858 JUMPI PUSH2 0x1857 PUSH2 0x1538 JUMP JUMPDEST JUMPDEST SWAP3 SWAP2 POP POP JUMP JUMPDEST PUSH1 0x0 DUP2 PUSH1 0x7 SIGNEXTEND SWAP1 POP SWAP2 SWAP1 POP JUMP JUMPDEST PUSH1 0x0 PUSH2 0x1876 DUP3 PUSH2 0x185E JUMP JUMPDEST SWAP2 POP PUSH2 0x1881 DUP4 PUSH2 0x185E JUMP JUMPDEST SWAP3 POP DUP3 DUP3 MUL PUSH2 0x188F DUP2 PUSH2 0x185E JUMP JUMPDEST SWAP2 POP DUP1 DUP3 EQ PUSH2 0x18A1 JUMPI PUSH2 0x18A0 PUSH2 0x1538 JUMP JUMPDEST JUMPDEST POP SWAP3 SWAP2 POP POP JUMP JUMPDEST PUSH1 0x0 PUSH2 0x18B3 DUP3 PUSH2 0x185E JUMP JUMPDEST SWAP2 POP PUSH2 0x18BE DUP4 PUSH2 0x185E JUMP JUMPDEST SWAP3 POP DUP3 DUP3 ADD SWAP1 POP PUSH32 0xFFFFFFFFFFFFFFFFFFFFFFFFFFFFFFFFFFFFFFFFFFFFFFFF8000000000000000 DUP2 SLT PUSH8 0x7FFFFFFFFFFFFFFF DUP3 SGT OR ISZERO PUSH2 0x1902 JUMPI PUSH2 0x1901 PUSH2 0x1538 JUMP JUMPDEST JUMPDEST SWAP3 SWAP2 POP POP JUMP JUMPDEST PUSH1 0x0 PUSH2 0x1913 DUP3 PUSH2 0x1166 JUMP JUMPDEST SWAP2 POP PUSH2 0x191E DUP4 PUSH2 0x1166 JUMP JUMPDEST SWAP3 POP DUP3 DUP3 MUL PUSH2 0x192C DUP2 PUSH2 0x1166 JUMP JUMPDEST SWAP2 POP DUP1 DUP3 EQ PUSH2 0x193E JUMPI PUSH2 0x193D PUSH2 0x1538 JUMP JUMPDEST JUMPDEST POP SWAP3 SWAP2 POP POP JUMP JUMPDEST PUSH1 0x0 PUSH2 0x1950 DUP3 PUSH2 0x1166 JUMP JUMPDEST SWAP2 POP PUSH2 0x195B DUP4 PUSH2 0x1166 JUMP JUMPDEST SWAP3 POP DUP3 DUP3 ADD SWAP1 POP PUSH32 0xFFFFFFFFFFFFFFFFFFFFFFFFFFFFFFFF80000000000000000000000000000000 DUP2 SLT PUSH16 0x7FFFFFFFFFFFFFFFFFFFFFFFFFFFFFFF DUP3 SGT OR ISZERO PUSH2 0x19A7 JUMPI PUSH2 0x19A6 PUSH2 0x1538 JUMP JUMPDEST JUMPDEST SWAP3 SWAP2 POP POP JUMP JUMPDEST PUSH1 0x0 DUP3 PUSH1 0x0 DUP2 EQ PUSH2 0x19C5 JUMPI PUSH1 0x1 DUP2 EQ PUSH2 0x19CF JUMPI PUSH2 0x19D8 JUMP JUMPDEST PUSH1 0x1 SWAP2 POP POP PUSH2 0x1A94 JUMP JUMPDEST DUP3 SWAP2 POP POP PUSH2 0x1A94 JUMP JUMPDEST POP DUP2 PUSH2 0x19E7 JUMPI PUSH1 0x0 SWAP1 POP PUSH2 0x1A94 JUMP JUMPDEST PUSH1 0x1 SWAP1 POP PUSH1 0x0 DUP3 SGT PUSH1 0x1 DUP2 EQ PUSH2 0x1A04 JUMPI PUSH1 0x0 DUP2 EQ PUSH2 0x1A1C JUMPI PUSH2 0x1A30 JUMP JUMPDEST DUP3 DUP7 DIV DUP4 GT ISZERO PUSH2 0x1A17 JUMPI PUSH2 0x1A16 PUSH2 0x1538 JUMP JUMPDEST JUMPDEST PUSH2 0x1A30 JUMP JUMPDEST DUP3 DUP7 SDIV DUP4 SLT ISZERO PUSH2 0x1A2F JUMPI PUSH2 0x1A2E PUSH2 0x1538 JUMP JUMPDEST JUMPDEST JUMPDEST POP PUSH1 0x1 DUP4 AND ISZERO PUSH2 0x1A3E JUMPI DUP2 SWAP1 POP JUMPDEST DUP2 DUP3 MUL SWAP2 POP PUSH2 0x1A4C DUP4 PUSH2 0x1567 JUMP JUMPDEST SWAP3 POP PUSH2 0x1A5A DUP6 DUP5 DUP5 DUP5 PUSH2 0x1574 JUMP JUMPDEST SWAP3 POP SWAP1 POP DUP2 DUP6 DIV DUP2 GT PUSH1 0x0 DUP3 SGT AND ISZERO PUSH2 0x1A76 JUMPI PUSH2 0x1A75 PUSH2 0x1538 JUMP JUMPDEST JUMPDEST DUP2 DUP5 SDIV DUP2 SLT PUSH1 0x0 DUP3 SLT AND ISZERO PUSH2 0x1A8E JUMPI PUSH2 0x1A8D PUSH2 0x1538 JUMP JUMPDEST JUMPDEST DUP2 DUP2 MUL SWAP1 POP JUMPDEST SWAP5 SWAP4 POP POP POP POP JUMP JUMPDEST PUSH1 0x0 DUP2 SWAP1 POP SWAP2 SWAP1 POP JUMP JUMPDEST PUSH1 0x0 PUSH2 0x1AB1 DUP3 PUSH2 0x1A9C JUMP JUMPDEST SWAP2 POP PUSH2 0x1ABC DUP4 PUSH2 0x169A JUMP JUMPDEST SWAP3 POP PUSH2 0x1B0A PUSH32 0x7FFFFFFFFFFFFFFFFFFFFFFFFFFFFFFFFFFFFFFFFFFFFFFFFFFFFFFFFFFFFFFF PUSH32 0x8000000000000000000000000000000000000000000000000000000000000000 DUP6 DUP6 PUSH2 0x19AD JUMP JUMPDEST SWAP1 POP SWAP3 SWAP2 POP POP JUMP JUMPDEST PUSH1 0x0 PUSH2 0x1B1D DUP3 PUSH2 0x1A9C JUMP JUMPDEST SWAP2 POP PUSH2 0x1B28 DUP4 PUSH2 0x1A9C JUMP JUMPDEST SWAP3 POP DUP3 DUP3 MUL PUSH2 0x1B36 DUP2 PUSH2 0x1A9C JUMP JUMPDEST SWAP2 POP PUSH32 0x8000000000000000000000000000000000000000000000000000000000000000 DUP5 EQ PUSH1 0x0 DUP5 SLT AND ISZERO PUSH2 0x1B6E JUMPI PUSH2 0x1B6D PUSH2 0x1538 JUMP JUMPDEST JUMPDEST DUP3 DUP3 SDIV DUP5 EQ DUP4 ISZERO OR PUSH2 0x1B83 JUMPI PUSH2 0x1B82 PUSH2 0x1538 JUMP JUMPDEST JUMPDEST POP SWAP3 SWAP2 POP POP JUMP JUMPDEST PUSH1 0x0 DUP2 PUSH1 0xE0 SHL SWAP1 POP SWAP2 SWAP1 POP JUMP JUMPDEST PUSH1 0x0 PUSH2 0x1BA2 DUP3 PUSH2 0x1B8A JUMP JUMPDEST SWAP1 POP SWAP2 SWAP1 POP JUMP JUMPDEST PUSH2 0x1BBA PUSH2 0x1BB5 DUP3 PUSH2 0x108F JUMP JUMPDEST PUSH2 0x1B97 JUMP JUMPDEST DUP3 MSTORE POP POP JUMP JUMPDEST PUSH1 0x0 PUSH2 0x1BCC DUP3 DUP8 PUSH2 0x1BA9 JUMP JUMPDEST PUSH1 0x4 DUP3 ADD SWAP2 POP PUSH2 0x1BDC DUP3 DUP7 PUSH2 0x1BA9 JUMP JUMPDEST PUSH1 0x4 DUP3 ADD SWAP2 POP PUSH2 0x1BEC DUP3 DUP6 PUSH2 0x1BA9 JUMP JUMPDEST PUSH1 0x4 DUP3 ADD SWAP2 POP PUSH2 0x1BFC DUP3 DUP5 PUSH2 0x1BA9 JUMP JUMPDEST PUSH1 0x4 DUP3 ADD SWAP2 POP DUP2 SWAP1 POP SWAP6 SWAP5 POP POP POP POP POP JUMP JUMPDEST PUSH1 0x0 PUSH2 0x1C19 DUP3 PUSH2 0x1132 JUMP JUMPDEST SWAP2 POP PUSH2 0x1C24 DUP4 PUSH2 0x1132 JUMP JUMPDEST SWAP3 POP DUP3 PUSH2 0x1C34 JUMPI PUSH2 0x1C33 PUSH2 0x1766 JUMP JUMPDEST JUMPDEST DUP3 DUP3 MOD SWAP1 POP SWAP3 SWAP2 POP POP JUMP JUMPDEST PUSH1 0x0 PUSH2 0x1C4A DUP3 PUSH2 0x108F JUMP JUMPDEST SWAP2 POP PUSH2 0x1C55 DUP4 PUSH2 0x108F JUMP JUMPDEST SWAP3 POP DUP3 DUP3 SUB SWAP1 POP PUSH4 0xFFFFFFFF DUP2 GT ISZERO PUSH2 0x1C71 JUMPI PUSH2 0x1C70 PUSH2 0x1538 JUMP JUMPDEST JUMPDEST SWAP3 SWAP2 POP POP JUMP JUMPDEST PUSH1 0x0 PUSH2 0x1C82 DUP3 PUSH2 0x12EB JUMP JUMPDEST SWAP2 POP PUSH2 0x1C8D DUP4 PUSH2 0x12EB JUMP JUMPDEST SWAP3 POP DUP3 DUP3 MUL PUSH2 0x1C9B DUP2 PUSH2 0x12EB JUMP JUMPDEST SWAP2 POP DUP1 DUP3 EQ PUSH2 0x1CAD JUMPI PUSH2 0x1CAC PUSH2 0x1538 JUMP JUMPDEST JUMPDEST POP SWAP3 SWAP2 POP POP JUMP JUMPDEST PUSH1 0x0 PUSH2 0x1CBF DUP3 PUSH2 0x108F JUMP JUMPDEST SWAP2 POP PUSH2 0x1CCA DUP4 PUSH2 0x108F JUMP JUMPDEST SWAP3 POP DUP3 PUSH2 0x1CDA JUMPI PUSH2 0x1CD9 PUSH2 0x1766 JUMP JUMPDEST JUMPDEST DUP3 DUP3 DIV SWAP1 POP SWAP3 SWAP2 POP POP JUMP JUMPDEST PUSH1 0x0 PUSH2 0x1CF0 DUP3 PUSH2 0x108F JUMP JUMPDEST SWAP2 POP PUSH2 0x1CFB DUP4 PUSH2 0x108F JUMP JUMPDEST SWAP3 POP DUP3 DUP3 ADD SWAP1 POP PUSH4 0xFFFFFFFF DUP2 GT ISZERO PUSH2 0x1D17 JUMPI PUSH2 0x1D16 PUSH2 0x1538 JUMP JUMPDEST JUMPDEST SWAP3 SWAP2 POP POP JUMP INVALID LOG2 PUSH5 0x6970667358 0x22 SLT KECCAK256 0x27 SWAP4 CODECOPY 0xB1 MULMOD 0x24 GAS PREVRANDAO CREATE2 PUSH22 0x8B086BC7694350ACFAA35F3D04F1B6BC91FF104A1070 PUSH5 0x736F6C6343 STOP ADDMOD SLT STOP CALLER "
		},
		"gasEstimates": {
			"creation": {
				"codeDepositCost": "1501400",
				"executionCost": "1593",
				"totalCost": "1502993"
			},
			"external": {
				"computePerlin(uint32,uint32,uint32,uint32)": "infinite",
				"getCorners(uint32,uint32,uint32)": "infinite",
				"getGradientAt(uint32,uint32,uint32,uint32)": "infinite",
				"getSingleScalePerlin(uint32,uint32,uint32,uint32)": "infinite",
				"getWeight(uint32,uint32,uint32,uint32,uint32)": "infinite",
				"smoothStep(int128)": "infinite"
			}
		},
		"methodIdentifiers": {
			"computePerlin(uint32,uint32,uint32,uint32)": "229d0588",
			"getCorners(uint32,uint32,uint32)": "d15eb0d5",
			"getGradientAt(uint32,uint32,uint32,uint32)": "93f32993",
			"getSingleScalePerlin(uint32,uint32,uint32,uint32)": "22efde0a",
			"getWeight(uint32,uint32,uint32,uint32,uint32)": "b9576c35",
			"smoothStep(int128)": "e7075187"
		}
	},
	"abi": [
		{
			"inputs": [
				{
					"internalType": "uint32",
					"name": "x",
					"type": "uint32"
				},
				{
					"internalType": "uint32",
					"name": "y",
					"type": "uint32"
				},
				{
					"internalType": "uint32",
					"name": "seed",
					"type": "uint32"
				},
				{
					"internalType": "uint32",
					"name": "scale",
					"type": "uint32"
				}
			],
			"name": "computePerlin",
			"outputs": [
				{
					"internalType": "uint256",
					"name": "",
					"type": "uint256"
				}
			],
			"stateMutability": "pure",
			"type": "function"
		},
		{
			"inputs": [
				{
					"internalType": "uint32",
					"name": "x",
					"type": "uint32"
				},
				{
					"internalType": "uint32",
					"name": "y",
					"type": "uint32"
				},
				{
					"internalType": "uint32",
					"name": "scale",
					"type": "uint32"
				}
			],
			"name": "getCorners",
			"outputs": [
				{
					"internalType": "uint32[2][4]",
					"name": "",
					"type": "uint32[2][4]"
				}
			],
			"stateMutability": "pure",
			"type": "function"
		},
		{
			"inputs": [
				{
					"internalType": "uint32",
					"name": "x",
					"type": "uint32"
				},
				{
					"internalType": "uint32",
					"name": "y",
					"type": "uint32"
				},
				{
					"internalType": "uint32",
					"name": "scale",
					"type": "uint32"
				},
				{
					"internalType": "uint32",
					"name": "seed",
					"type": "uint32"
				}
			],
			"name": "getGradientAt",
			"outputs": [
				{
					"internalType": "int16[2]",
					"name": "",
					"type": "int16[2]"
				}
			],
			"stateMutability": "pure",
			"type": "function"
		},
		{
			"inputs": [
				{
					"internalType": "uint32",
					"name": "x",
					"type": "uint32"
				},
				{
					"internalType": "uint32",
					"name": "y",
					"type": "uint32"
				},
				{
					"internalType": "uint32",
					"name": "scale",
					"type": "uint32"
				},
				{
					"internalType": "uint32",
					"name": "seed",
					"type": "uint32"
				}
			],
			"name": "getSingleScalePerlin",
			"outputs": [
				{
					"internalType": "int128",
					"name": "",
					"type": "int128"
				}
			],
			"stateMutability": "pure",
			"type": "function"
		},
		{
			"inputs": [
				{
					"internalType": "uint32",
					"name": "cornerX",
					"type": "uint32"
				},
				{
					"internalType": "uint32",
					"name": "cornerY",
					"type": "uint32"
				},
				{
					"internalType": "uint32",
					"name": "x",
					"type": "uint32"
				},
				{
					"internalType": "uint32",
					"name": "y",
					"type": "uint32"
				},
				{
					"internalType": "uint32",
					"name": "scale",
					"type": "uint32"
				}
			],
			"name": "getWeight",
			"outputs": [
				{
					"internalType": "uint64",
					"name": "",
					"type": "uint64"
				}
			],
			"stateMutability": "pure",
			"type": "function"
		},
		{
			"inputs": [
				{
					"internalType": "int128",
					"name": "x",
					"type": "int128"
				}
			],
			"name": "smoothStep",
			"outputs": [
				{
					"internalType": "int128",
					"name": "",
					"type": "int128"
				}
			],
			"stateMutability": "pure",
			"type": "function"
		}
	]
}