{
	"data": {
		"bytecode": {
			"linkReferences": {},
			"object": "612f80610053600b82828239805160001a607314610046577f4e487b7100000000000000000000000000000000000000000000000000000000600052600060045260246000fd5b30600052607381538281f3fe73000000000000000000000000000000000000000030146080604052600436106100405760003560e01c8063657d14d11461004557806370ab32b314610075575b600080fd5b61005f600480360381019061005a9190612ce8565b6100a5565b60405161006c9190612d4a565b60405180910390f35b61008f600480360381019061008a9190612d65565b61052a565b60405161009c9190612d4a565b60405180910390f35b6000806040518060e0016040528060ff601088901d16815260200160ff601087901d16815260200160ff601086901d1681526020016000815260200160008152602001600081526020016000815250905061ffff8516945061ffff8416935061ffff8316925060008061012f8360006007811061012557610124612da5565b5b602002015161064c565b90506101618360016007811061014857610147612da5565b5b6020020151600883901d61015c9190612e03565b61064c565b91506101928360016007811061017a57610179612da5565b5b602002015160ff831661018d9190612e03565b61064c565b90506101c4836002600781106101ab576101aa612da5565b5b6020020151600884901d6101bf9190612e03565b61064c565b836003600781106101d8576101d7612da5565b5b602002018181525050610210836002600781106101f8576101f7612da5565b5b602002015160ff841661020b9190612e03565b61064c565b8360046007811061022457610223612da5565b5b60200201818152505061025d8360026007811061024457610243612da5565b5b6020020151600883901d6102589190612e03565b61064c565b8360056007811061027157610270612da5565b5b6020020181815250506102a98360026007811061029157610290612da5565b5b602002015160ff83166102a49190612e03565b61064c565b836006600781106102bd576102bc612da5565b5b60200201818152505060008060006102d48a61184c565b94506102df8961184c565b93506103488561030d6008896003600781106102fe576102fd612da5565b5b6020020151901d8d8d8d6118a2565b61034360088a60056007811061032657610325612da5565b5b6020020151901d620100008f61033c9190612e47565b8e8e6118a2565b61193d565b92506103cd8561038460088960046007811061036757610366612da5565b5b6020020151901d8d620100008e61037e9190612e47565b8d6118a2565b6103c860088a60066007811061039d5761039c612da5565b5b6020020151901d620100008f6103b39190612e47565b620100008f6103c29190612e47565b8e6118a2565b61193d565b91506103da84848461193d565b905061045d8561041560ff896003600781106103f9576103f8612da5565b5b6020020151168d8d620100008e6104109190612e47565b6118a2565b61045860ff8a60056007811061042e5761042d612da5565b5b602002015116620100008f6104439190612e47565b8e620100008f6104539190612e47565b6118a2565b61193d565b92506104fc856104a660ff8960046007811061047c5761047b612da5565b5b6020020151168d620100008e6104929190612e47565b620100008e6104a19190612e47565b6118a2565b6104f760ff8a6006600781106104bf576104be612da5565b5b602002015116620100008f6104d49190612e47565b620100008f6104e39190612e47565b620100008f6104f29190612e47565b6118a2565b61193d565b915061051b61050a8961184c565b8261051687878761193d565b61193d565b96505050505050509392505050565b60008061053d60ff601086901d1661064c565b9050600061056060ff601086901d16600884901d61055b9190612e03565b61064c565b9050600061058260ff601087901d1660ff851661057d9190612e03565b61064c565b905061ffff8616955061ffff85169450600061059d8761184c565b905060006105d6826105b4600887901d8b8b61196e565b6105d1600887901d620100008d6105cb9190612e47565b8c61196e565b61193d565b90506000610629836105fa60ff88168c620100008d6105f59190612e47565b61196e565b61062460ff8816620100008e6106109190612e47565b620100008e61061f9190612e47565b61196e565b61193d565b905061063e6106378961184c565b838361193d565b965050505050505092915050565b600060ff82169150607f8213610f5357603f8213610adb57601f82136108a457600f821361078c576007821361070457600382136106c457600182136106a8576000820361069e576197a09050611847565b61a0899050611847565b600282036106ba5761895b9050611847565b615b5a9050611847565b600582136106e857600482036106de57615a0f9050611847565b610f839050611847565b600682036106fa5761830d9050611847565b610dc99050611847565b600b821361074c576009821361073057600882036107265761c95f9050611847565b615f609050611847565b600a8203610742576160359050611847565b6135c29050611847565b600d821361077057600c82036107665761c2e99050611847565b61e9079050611847565b600e8203610782576107e19050611847565b61e18c9050611847565b6017821361081c57601382136107dc57601182136107c057601082036107b657618c249050611847565b6124679050611847565b601282036107d25761671e9050611847565b611e459050611847565b6015821361080057601482036107f65761458e9050611847565b618e089050611847565b60168203610812576108639050611847565b6163259050611847565b601b82136108645760198213610848576018820361083e576125f09050611847565b61f0159050611847565b601a820361085a5761150a9050611847565b610a179050611847565b601d821361088857601c820361087e576117be9050611847565b61be069050611847565b601e820361089a576106949050611847565b6194f79050611847565b602f82136109c3576027821361093b57602382136108fc57602182136108e057602082036108d65761f7789050611847565b6178ea9050611847565b602282036108f25761ea4b9050611847565b614b009050611847565b6025821361091f576024820361091557601a9050611847565b611ac59050611847565b602682036109315761c53e9050611847565b613e5e9050611847565b602b82136109835760298213610967576028820361095d57615efc9050611847565b61fcdb9050611847565b602a82036109795761dbcb9050611847565b61cb759050611847565b602d82136109a757602c820361099d576175239050611847565b61230b9050611847565b602e82036109b957610b209050611847565b6120399050611847565b60378213610a535760338213610a1357603182136109f757603082036109ed576139b19050611847565b61b1219050611847565b60328203610a09576121589050611847565b6158ed9050611847565b60358213610a375760348203610a2d5761ed959050611847565b6195389050611847565b60368203610a49576138579050611847565b6157ae9050611847565b603b8213610a9b5760398213610a7f5760388203610a755761ae149050611847565b61147d9050611847565b603a8203610a9157617d889050611847565b6188ab9050611847565b603d8213610abf57603c8203610ab55761aba89050611847565b61a8449050611847565b603e8203610ad1576144af9050611847565b61af4a9050611847565b605f8213610d1b57604f8213610c035760478213610b7b5760438213610b3b5760418213610b1f5760408203610b1557614aa59050611847565b61a5479050611847565b60428203610b31576147869050611847565b61868b9050611847565b60458213610b5f5760448203610b5557618b309050611847565b61301b9050611847565b60468203610b7157611ba69050611847565b61a64d9050611847565b604b8213610bc35760498213610ba75760488203610b9d57614d929050611847565b61929e9050611847565b604a8203610bb957619ee79050611847565b61e7539050611847565b604d8213610be757604c8203610bdd5761536f9050611847565b616fe59050611847565b604e8203610bf95761e57a9050611847565b617a3c9050611847565b60578213610c935760538213610c535760518213610c375760508203610c2d57613cd39050611847565b61d3859050611847565b60528203610c49576185e69050611847565b61e6dc9050611847565b60558213610c775760548203610c6d5761dc699050611847565b61695c9050611847565b60568203610c8957615c299050611847565b6129379050611847565b605b8213610cdb5760598213610cbf5760588203610cb55761372e9050611847565b612ef59050611847565b605a8203610cd15761f5289050611847565b6128f49050611847565b605d8213610cff57605c8203610cf55761f4669050611847565b61668f9050611847565b605e8203610d1157618f369050611847565b6136419050611847565b606f8213610e3b5760678213610db35760638213610d735760618213610d575760608203610d4d576141199050611847565b61193f9050611847565b60628203610d6957613fa19050611847565b61a1019050611847565b60658213610d975760648203610d8d576101d89050611847565b61d8509050611847565b60668203610da9576150499050611847565b6149d19050611847565b606b8213610dfb5760698213610ddf5760688203610dd55761d14c9050611847565b614c849050611847565b606a8203610df1576184bb9050611847565b61bbd09050611847565b606d8213610e1f57606c8203610e155761d0599050611847565b6159129050611847565b606e8203610e31576112a99050611847565b61a9c89050611847565b60778213610ecb5760738213610e8b5760718213610e6f5760708203610e655761c8c49050611847565b61c4879050611847565b60728203610e81576187829050611847565b6182749050611847565b60758213610eaf5760748203610ea5576174bc9050611847565b61bc9f9050611847565b60768203610ec157619f569050611847565b6156a49050611847565b607b8213610f135760798213610ef75760788203610eed5761a4649050611847565b61646d9050611847565b607a8203610f0957616dc69050611847565b61c6ad9050611847565b607d8213610f3757607c8203610f2d5761adba9050611847565b61ba039050611847565b607e8203610f49576103409050611847565b6140349050611847565b60bf82136113d357609f821361119b57608f82136110835760878213610ffb5760838213610fbb5760818213610f9f5760808203610f95576134d99050611847565b61d9e29050611847565b60828203610fb15761e2fa9050611847565b61fa7c9050611847565b60858213610fdf5760848203610fd557617c7b9050611847565b617b059050611847565b60868203610ff1576105ca9050611847565b61ca269050611847565b608b82136110435760898213611027576088820361101d576126939050611847565b6193769050611847565b608a82036110395761767e9050611847565b617eff9050611847565b608d821361106757608c820361105d5761ff529050611847565b6152559050611847565b608e8203611079576155d49050611847565b61d4cf9050611847565b6097821361111357609382136110d357609182136110b757609082036110ad5761cfce9050611847565b61ce3b9050611847565b609282036110c957613be39050611847565b61e32f9050611847565b609582136110f757609482036110ed57612f109050611847565b61103a9050611847565b6096820361110957613a119050611847565b6111b69050611847565b609b821361115b576099821361113f57609882036111355761b6bd9050611847565b61bd1c9050611847565b609a820361115157611c2a9050611847565b612adf9050611847565b609d821361117f57609c82036111755761dfb79050611847565b61b7aa9050611847565b609e82036111915761aad59050611847565b61d5779050611847565b60af82136112bb5760a782136112335760a382136111f35760a182136111d75760a082036111cd576177f89050611847565b61f8989050611847565b60a282036111e9576198029050611847565b61022c9050611847565b60a582136112175760a4820361120d57612c9a9050611847565b619aa39050611847565b60a682036112295761a3469050611847565b6146dd9050611847565b60ab821361127b5760a9821361125f5760a882036112555761dd999050611847565b6199659050611847565b60aa82036112715761659b9050611847565b619ba79050611847565b60ad821361129f5760ac82036112955761a72b9050611847565b612bac9050611847565b60ae82036112b15761ac099050611847565b6109819050611847565b60b7821361134b5760b3821361130b5760b182136112ef5760b082036112e5576181169050611847565b6116279050611847565b60b28203611301576127fd9050611847565b61fd139050611847565b60b5821361132f5760b48203611325576113629050611847565b61626c9050611847565b60b6820361134157616c6e9050611847565b616e4f9050611847565b60bb82136113935760b982136113775760b8820361136d57614f719050611847565b6171e09050611847565b60ba82036113895761e0e89050611847565b61e8b29050611847565b60bd82136113b75760bc82036113ad5761b2b99050611847565b61b9709050611847565b60be82036113c9576170689050611847565b6168da9050611847565b60df82136116135760cf82136114fb5760c782136114735760c382136114335760c182136114175760c0820361140d5761daf69050611847565b61f6619050611847565b60c28203611429576161e49050611847565b61e4fb9050611847565b60c582136114575760c4820361144d5761fb229050611847565b6122f29050611847565b60c682036114695761f2c19050611847565b61c1ee9050611847565b60cb82136114bb5760c9821361149f5760c882036114955761eed29050611847565b61d2909050611847565b60ca82036114b15761900c9050611847565b610cbf9050611847565b60cd82136114df5760cc82036114d55761bfb39050611847565b61b3a29050611847565b60ce82036114f15761a2f19050611847565b61f1519050611847565b60d7821361158b5760d3821361154b5760d1821361152f5760d08203611525576151339050611847565b6133919050611847565b60d28203611541576191eb9050611847565b61ebf99050611847565b60d5821361156f5760d482036115655761f90e9050611847565b610eef9050611847565b60d682036115815761ef6b9050611847565b616b319050611847565b60db82136115d35760d982136115b75760d882036115ad576131c09050611847565b61c0d69050611847565b60da82036115c95761d61f9050611847565b611fb59050611847565b60dd82136115f75760dc82036115ed5761b5c79050611847565b61c76a9050611847565b60de820361160957616a9d9050611847565b619db89050611847565b60ef82136117335760e782136116ab5760e3821361166b5760e1821361164f5760e082036116455761b8549050611847565b6154cc9050611847565b60e282036116615761ccb09050611847565b61b0739050611847565b60e5821361168f5760e48203611685576173799050611847565b6179329050611847565b60e682036116a15761322d9050611847565b612d7f9050611847565b60eb82136116f35760e982136116d75760e882036116cd57617f049050611847565b6104969050611847565b60ea82036116e9576196fe9050611847565b61fe8a9050611847565b60ed82136117175760ec820361170d57618aec9050611847565b61eccd9050611847565b60ee82036117295761cd5d9050611847565b615dde9050611847565b60f782136117c35760f382136117835760f182136117675760f0820361175d5761de729050611847565b6172439050611847565b60f282036117795761431d9050611847565b611d189050611847565b60f582136117a75760f4820361179d576118489050611847565b6148f39050611847565b60f682036117b95761f38d9050611847565b618d809050611847565b60fb821361180b5760f982136117ef5760f882036117e5576180c39050611847565b61c34e9050611847565b60fa820361180157614e429050611847565b6142d79050611847565b60fd821361182f5760fc82036118255761d73d9050611847565b613d9c9050611847565b60fe820361184157619cb49050611847565b61b49790505b919050565b60008061185c600884901d6119ce565b9050600080600c83901d610fff8416915091506008828261187d9190612e47565b60ff871661188b9190612e8a565b901d826118989190612e03565b9350505050919050565b6000600f85169450600060088612156118bd578490506118c1565b8390505b600060048712156118d4578490506118f5565b600c8714806118e35750600e87145b156118f0578590506118f4565b8390505b5b6000600188161461190d578161190a90612f02565b91505b60006002881614611925578061192290612f02565b90505b80826119319190612e03565b92505050949350505050565b6000600c838361194d9190612e47565b856119589190612e8a565b901d836119659190612e03565b90509392505050565b6000600384169350600080600186160361198a57839050611997565b8361199490612f02565b90505b600060028612156119aa578390506119b7565b836119b490612f02565b90505b80826119c39190612e03565b925050509392505050565b6000607f821361233457603f8213611e7c57601f8213611c2457600f8213611b005760078213611a785760038213611a3c5760018213611a225760008203611a195760009050612ca8565b60009050612ca8565b60028203611a335760009050612ca8565b60009050612ca8565b60058213611a5e5760048203611a555760009050612ca8565b60009050612ca8565b60068203611a6f5760009050612ca8565b60019050612ca8565b600b8213611ac05760098213611aa45760088203611a9a576110019050612ca8565b6110029050612ca8565b600a8203611ab6576120039050612ca8565b6130039050612ca8565b600d8213611ae457600c8203611ada576130049050612ca8565b6140069050612ca8565b600e8203611af6576160079050612ca8565b6170099050612ca8565b60178213611b945760138213611b505760118213611b345760108203611b2a5761900a9050612ca8565b61a00c9050612ca8565b60128203611b465761c00e9050612ca8565b61e0119050612ca8565b60158213611b765760148203611b6b57620110139050612ca8565b620130169050612ca8565b60168203611b8957620160199050612ca8565b6201901d9050612ca8565b601b8213611be05760198213611bc25760188203611bb7576201d0209050612ca8565b620200249050612ca8565b601a8203611bd557620240289050612ca8565b6202802d9050612ca8565b601d8213611c0657601c8203611bfb576202d0319050612ca8565b620310369050612ca8565b601e8203611c19576203603c9050612ca8565b6203c0419050612ca8565b602f8213611d545760278213611cc45760238213611c805760218213611c625760208203611c5757620410479050612ca8565b6204704d9050612ca8565b60228203611c75576204d0549050612ca8565b6205405b9050612ca8565b60258213611ca65760248203611c9b576205b0629050612ca8565b620620699050612ca8565b60268203611cb957620690719050612ca8565b620710799050612ca8565b602b8213611d105760298213611cf25760288203611ce757620790829050612ca8565b6208208b9050612ca8565b602a8203611d05576208b0949050612ca8565b6209409e9050612ca8565b602d8213611d3657602c8203611d2b576209e0a79050612ca8565b620a70b29050612ca8565b602e8203611d4957620b20bc9050612ca8565b620bc0c79050612ca8565b60378213611dec5760338213611da85760318213611d8a5760308203611d7f57620c70d39050612ca8565b620d30de9050612ca8565b60328203611d9d57620de0ea9050612ca8565b620ea0f79050612ca8565b60358213611dce5760348203611dc357620f71039050612ca8565b621031119050612ca8565b60368203611de1576211111e9050612ca8565b6211e12c9050612ca8565b603b8213611e385760398213611e1a5760388203611e0f576212c13a9050612ca8565b6213a1499050612ca8565b603a8203611e2d57621491589050612ca8565b621581679050612ca8565b603d8213611e5e57603c8203611e5357621671769050612ca8565b621761869050612ca8565b603e8203611e7157621861979050612ca8565b621971a89050612ca8565b605f82136120dc57604f8213611fb45760478213611f245760438213611ee05760418213611ec25760408203611eb757621a81b99050612ca8565b621b91ca9050612ca8565b60428203611ed557621ca1dc9050612ca8565b621dc1ee9050612ca8565b60458213611f065760448203611efb57621ee2009050612ca8565b622002139050612ca8565b60468203611f1957622132269050612ca8565b6222623a9050612ca8565b604b8213611f705760498213611f525760488203611f47576223a24d9050612ca8565b6224d2619050612ca8565b604a8203611f6557622612769050612ca8565b6227628b9050612ca8565b604d8213611f9657604c8203611f8b576228b2a09050612ca8565b622a02b59050612ca8565b604e8203611fa957622b52cb9050612ca8565b622cb2e19050612ca8565b6057821361204c57605382136120085760518213611fea5760508203611fdf57622e12f79050612ca8565b622f730e9050612ca8565b60528203611ffd576230e3259050612ca8565b6232533c9050612ca8565b6055821361202e5760548203612023576233c3539050612ca8565b6235336b9050612ca8565b60568203612041576236b3839050612ca8565b6238339b9050612ca8565b605b8213612098576059821361207a576058820361206f576239b3b49050612ca8565b623b43cd9050612ca8565b605a820361208d57623cd3e69050612ca8565b623e63ff9050612ca8565b605d82136120be57605c82036120b357623ff4199050612ca8565b624194329050612ca8565b605e82036120d1576243244c9050612ca8565b6244c4679050612ca8565b606f821361220c576067821361217c5760638213612138576061821361211a576060820361210f57624674819050612ca8565b6248149c9050612ca8565b6062820361212d576249c4b79050612ca8565b624b74d29050612ca8565b6065821361215e576064820361215357624d24ed9050612ca8565b624ed5099050612ca8565b6066820361217157625095249050612ca8565b625245409050612ca8565b606b82136121c857606982136121aa576068820361219f576254055c9050612ca8565b6255c5789050612ca8565b606a82036121bd57625785959050612ca8565b625955b19050612ca8565b606d82136121ee57606c82036121e357625b15ce9050612ca8565b625ce5eb9050612ca8565b606e820361220157625eb6079050612ca8565b626076249050612ca8565b607782136122a457607382136122605760718213612242576070820361223757626246429050612ca8565b6264265f9050612ca8565b60728203612255576265f67c9050612ca8565b6267c69a9050612ca8565b60758213612286576074820361227b576269a6b79050612ca8565b626b76d59050612ca8565b6076820361229957626d56f29050612ca8565b626f27109050612ca8565b607b82136122f057607982136122d257607882036122c7576271072e9050612ca8565b6272e74c9050612ca8565b607a82036122e5576274c76a9050612ca8565b6276a7889050612ca8565b607d821361231657607c820361230b57627887a69050612ca8565b627a67c49050612ca8565b607e820361232957627c47e29050612ca8565b627e28009050612ca8565b60bf82136127f457609f821361259c57608f821361247457608782136123e457608382136123a057608182136123825760808203612377576280081d9050612ca8565b6281d83b9050612ca8565b60828203612395576283b8599050612ca8565b628598779050612ca8565b608582136123c657608482036123bb57628778959050612ca8565b628958b39050612ca8565b608682036123d957628b38d19050612ca8565b628d18ef9050612ca8565b608b82136124305760898213612412576088820361240757628ef90d9050612ca8565b6290d92a9050612ca8565b608a8203612425576292a9489050612ca8565b629489659050612ca8565b608d821361245657608c820361244b57629659839050612ca8565b629839a09050612ca8565b608e820361246957629a09bd9050612ca8565b629bd9db9050612ca8565b6097821361250c57609382136124c857609182136124aa576090820361249f57629db9f89050612ca8565b629f8a149050612ca8565b609282036124bd5762a14a319050612ca8565b62a31a4e9050612ca8565b609582136124ee57609482036124e35762a4ea6a9050612ca8565b62a6aa879050612ca8565b609682036125015762a87aa39050612ca8565b62aa3abf9050612ca8565b609b8213612558576099821361253a576098820361252f5762abfadb9050612ca8565b62adbaf69050612ca8565b609a820361254d5762af6b129050612ca8565b62b12b2d9050612ca8565b609d821361257e57609c82036125735762b2db489050612ca8565b62b48b639050612ca8565b609e82036125915762b63b7e9050612ca8565b62b7eb989050612ca8565b60af82136126cc5760a7821361263c5760a382136125f85760a182136125da5760a082036125cf5762b98bb39050612ca8565b62bb3bcd9050612ca8565b60a282036125ed5762bcdbe69050612ca8565b62be6c009050612ca8565b60a5821361261e5760a482036126135762c00c199050612ca8565b62c19c329050612ca8565b60a682036126315762c32c4b9050612ca8565b62c4bc649050612ca8565b60ab82136126885760a9821361266a5760a8820361265f5762c64c7c9050612ca8565b62c7cc949050612ca8565b60aa820361267d5762c94cac9050612ca8565b62caccc39050612ca8565b60ad82136126ae5760ac82036126a35762cc3cda9050612ca8565b62cdacf19050612ca8565b60ae82036126c15762cf1d089050612ca8565b62d08d1e9050612ca8565b60b782136127645760b382136127205760b182136127025760b082036126f75762d1ed349050612ca8565b62d34d4a9050612ca8565b60b282036127155762d4ad5f9050612ca8565b62d5fd749050612ca8565b60b582136127465760b4820361273b5762d74d899050612ca8565b62d89d9e9050612ca8565b60b682036127595762d9edb29050612ca8565b62db2dc59050612ca8565b60bb82136127b05760b982136127925760b882036127875762dc5dd99050612ca8565b62dd9dec9050612ca8565b60ba82036127a55762decdff9050612ca8565b62dffe119050612ca8565b60bd82136127d65760bc82036127cb5762e11e239050612ca8565b62e23e359050612ca8565b60be82036127e95762e35e469050612ca8565b62e46e589050612ca8565b60df8213612a545760cf821361292c5760c7821361289c5760c382136128585760c1821361283a5760c0820361282f5762e58e689050612ca8565b62e68e799050612ca8565b60c2820361284d5762e79e899050612ca8565b62e89e989050612ca8565b60c5821361287e5760c482036128735762e98ea79050612ca8565b62ea7eb69050612ca8565b60c682036128915762eb6ec59050612ca8565b62ec5ed39050612ca8565b60cb82136128e85760c982136128ca5760c882036128bf5762ed3ee19050612ca8565b62ee1eee9050612ca8565b60ca82036128dd5762eeeefc9050612ca8565b62efcf089050612ca8565b60cd821361290e5760cc82036129035762f08f159050612ca8565b62f15f219050612ca8565b60ce82036129215762f21f2c9050612ca8565b62f2cf389050612ca8565b60d782136129c45760d382136129805760d182136129625760d082036129575762f38f439050612ca8565b62f43f4d9050612ca8565b60d282036129755762f4df589050612ca8565b62f58f619050612ca8565b60d582136129a65760d4820361299b5762f61f6b9050612ca8565b62f6bf749050612ca8565b60d682036129b95762f74f7d9050612ca8565b62f7df869050612ca8565b60db8213612a105760d982136129f25760d882036129e75762f86f8e9050612ca8565b62f8ef969050612ca8565b60da8203612a055762f96f9d9050612ca8565b62f9dfa49050612ca8565b60dd8213612a365760dc8203612a2b5762fa4fab9050612ca8565b62fabfb29050612ca8565b60de8203612a495762fb2fb89050612ca8565b62fb8fbe9050612ca8565b60ef8213612b845760e78213612af45760e38213612ab05760e18213612a925760e08203612a875762fbefc39050612ca8565b62fc3fc99050612ca8565b60e28203612aa55762fc9fce9050612ca8565b62fcefd29050612ca8565b60e58213612ad65760e48203612acb5762fd2fd79050612ca8565b62fd7fdb9050612ca8565b60e68203612ae95762fdbfdf9050612ca8565b62fdffe29050612ca8565b60eb8213612b405760e98213612b225760e88203612b175762fe2fe69050612ca8565b62fe6fe99050612ca8565b60ea8203612b355762fe9fec9050612ca8565b62fecfee9050612ca8565b60ed8213612b665760ec8203612b5b5762feeff19050612ca8565b62ff1ff39050612ca8565b60ee8203612b795762ff3ff59050612ca8565b62ff5ff69050612ca8565b60f78213612c1c5760f38213612bd85760f18213612bba5760f08203612baf5762ff6ff89050612ca8565b62ff8ff99050612ca8565b60f28203612bcd5762ff9ffb9050612ca8565b62ffbffc9050612ca8565b60f58213612bfe5760f48203612bf35762ffcffc9050612ca8565b62ffcffd9050612ca8565b60f68203612c115762ffdffe9050612ca8565b62ffeffe9050612ca8565b60fb8213612c685760f98213612c4a5760f88203612c3f5762ffefff9050612ca8565b62ffffff9050612ca8565b60fa8203612c5d5762ffffff9050612ca8565b62ffffff9050612ca8565b60fd8213612c8e5760fc8203612c835762ffffff9050612ca8565b62ffffff9050612ca8565b60fe8203612ca15762ffffff9050612ca8565b62ffffff90505b919050565b600080fd5b6000819050919050565b612cc581612cb2565b8114612cd057600080fd5b50565b600081359050612ce281612cbc565b92915050565b600080600060608486031215612d0157612d00612cad565b5b6000612d0f86828701612cd3565b9350506020612d2086828701612cd3565b9250506040612d3186828701612cd3565b9150509250925092565b612d4481612cb2565b82525050565b6000602082019050612d5f6000830184612d3b565b92915050565b60008060408385031215612d7c57612d7b612cad565b5b6000612d8a85828601612cd3565b9250506020612d9b85828601612cd3565b9150509250929050565b7f4e487b7100000000000000000000000000000000000000000000000000000000600052603260045260246000fd5b7f4e487b7100000000000000000000000000000000000000000000000000000000600052601160045260246000fd5b6000612e0e82612cb2565b9150612e1983612cb2565b925082820190508281121560008312168382126000841215161715612e4157612e40612dd4565b5b92915050565b6000612e5282612cb2565b9150612e5d83612cb2565b9250828203905081811260008412168282136000851215161715612e8457612e83612dd4565b5b92915050565b6000612e9582612cb2565b9150612ea083612cb2565b9250828202612eae81612cb2565b91507f80000000000000000000000000000000000000000000000000000000000000008414600084121615612ee657612ee5612dd4565b5b8282058414831517612efb57612efa612dd4565b5b5092915050565b6000612f0d82612cb2565b91507f80000000000000000000000000000000000000000000000000000000000000008203612f3f57612f3e612dd4565b5b81600003905091905056fea26469706673582212205887eea43b0d8657aba5e8163c2cf5811025f521079974f9c30e5e5917b353ff64736f6c63430008120033",
			"opcodes": "PUSH2 0x2F80 PUSH2 0x53 PUSH1 0xB DUP3 DUP3 DUP3 CODECOPY DUP1 MLOAD PUSH1 0x0 BYTE PUSH1 0x73 EQ PUSH2 0x46 JUMPI PUSH32 0x4E487B7100000000000000000000000000000000000000000000000000000000 PUSH1 0x0 MSTORE PUSH1 0x0 PUSH1 0x4 MSTORE PUSH1 0x24 PUSH1 0x0 REVERT JUMPDEST ADDRESS PUSH1 0x0 MSTORE PUSH1 0x73 DUP2 MSTORE8 DUP3 DUP2 RETURN INVALID PUSH20 0x0 ADDRESS EQ PUSH1 0x80 PUSH1 0x40 MSTORE PUSH1 0x4 CALLDATASIZE LT PUSH2 0x40 JUMPI PUSH1 0x0 CALLDATALOAD PUSH1 0xE0 SHR DUP1 PUSH4 0x657D14D1 EQ PUSH2 0x45 JUMPI DUP1 PUSH4 0x70AB32B3 EQ PUSH2 0x75 JUMPI JUMPDEST PUSH1 0x0 DUP1 REVERT JUMPDEST PUSH2 0x5F PUSH1 0x4 DUP1 CALLDATASIZE SUB DUP2 ADD SWAP1 PUSH2 0x5A SWAP2 SWAP1 PUSH2 0x2CE8 JUMP JUMPDEST PUSH2 0xA5 JUMP JUMPDEST PUSH1 0x40 MLOAD PUSH2 0x6C SWAP2 SWAP1 PUSH2 0x2D4A JUMP JUMPDEST PUSH1 0x40 MLOAD DUP1 SWAP2 SUB SWAP1 RETURN JUMPDEST PUSH2 0x8F PUSH1 0x4 DUP1 CALLDATASIZE SUB DUP2 ADD SWAP1 PUSH2 0x8A SWAP2 SWAP1 PUSH2 0x2D65 JUMP JUMPDEST PUSH2 0x52A JUMP JUMPDEST PUSH1 0x40 MLOAD PUSH2 0x9C SWAP2 SWAP1 PUSH2 0x2D4A JUMP JUMPDEST PUSH1 0x40 MLOAD DUP1 SWAP2 SUB SWAP1 RETURN JUMPDEST PUSH1 0x0 DUP1 PUSH1 0x40 MLOAD DUP1 PUSH1 0xE0 ADD PUSH1 0x40 MSTORE DUP1 PUSH1 0xFF PUSH1 0x10 DUP9 SWAP1 SAR AND DUP2 MSTORE PUSH1 0x20 ADD PUSH1 0xFF PUSH1 0x10 DUP8 SWAP1 SAR AND DUP2 MSTORE PUSH1 0x20 ADD PUSH1 0xFF PUSH1 0x10 DUP7 SWAP1 SAR AND DUP2 MSTORE PUSH1 0x20 ADD PUSH1 0x0 DUP2 MSTORE PUSH1 0x20 ADD PUSH1 0x0 DUP2 MSTORE PUSH1 0x20 ADD PUSH1 0x0 DUP2 MSTORE PUSH1 0x20 ADD PUSH1 0x0 DUP2 MSTORE POP SWAP1 POP PUSH2 0xFFFF DUP6 AND SWAP5 POP PUSH2 0xFFFF DUP5 AND SWAP4 POP PUSH2 0xFFFF DUP4 AND SWAP3 POP PUSH1 0x0 DUP1 PUSH2 0x12F DUP4 PUSH1 0x0 PUSH1 0x7 DUP2 LT PUSH2 0x125 JUMPI PUSH2 0x124 PUSH2 0x2DA5 JUMP JUMPDEST JUMPDEST PUSH1 0x20 MUL ADD MLOAD PUSH2 0x64C JUMP JUMPDEST SWAP1 POP PUSH2 0x161 DUP4 PUSH1 0x1 PUSH1 0x7 DUP2 LT PUSH2 0x148 JUMPI PUSH2 0x147 PUSH2 0x2DA5 JUMP JUMPDEST JUMPDEST PUSH1 0x20 MUL ADD MLOAD PUSH1 0x8 DUP4 SWAP1 SAR PUSH2 0x15C SWAP2 SWAP1 PUSH2 0x2E03 JUMP JUMPDEST PUSH2 0x64C JUMP JUMPDEST SWAP2 POP PUSH2 0x192 DUP4 PUSH1 0x1 PUSH1 0x7 DUP2 LT PUSH2 0x17A JUMPI PUSH2 0x179 PUSH2 0x2DA5 JUMP JUMPDEST JUMPDEST PUSH1 0x20 MUL ADD MLOAD PUSH1 0xFF DUP4 AND PUSH2 0x18D SWAP2 SWAP1 PUSH2 0x2E03 JUMP JUMPDEST PUSH2 0x64C JUMP JUMPDEST SWAP1 POP PUSH2 0x1C4 DUP4 PUSH1 0x2 PUSH1 0x7 DUP2 LT PUSH2 0x1AB JUMPI PUSH2 0x1AA PUSH2 0x2DA5 JUMP JUMPDEST JUMPDEST PUSH1 0x20 MUL ADD MLOAD PUSH1 0x8 DUP5 SWAP1 SAR PUSH2 0x1BF SWAP2 SWAP1 PUSH2 0x2E03 JUMP JUMPDEST PUSH2 0x64C JUMP JUMPDEST DUP4 PUSH1 0x3 PUSH1 0x7 DUP2 LT PUSH2 0x1D8 JUMPI PUSH2 0x1D7 PUSH2 0x2DA5 JUMP JUMPDEST JUMPDEST PUSH1 0x20 MUL ADD DUP2 DUP2 MSTORE POP POP PUSH2 0x210 DUP4 PUSH1 0x2 PUSH1 0x7 DUP2 LT PUSH2 0x1F8 JUMPI PUSH2 0x1F7 PUSH2 0x2DA5 JUMP JUMPDEST JUMPDEST PUSH1 0x20 MUL ADD MLOAD PUSH1 0xFF DUP5 AND PUSH2 0x20B SWAP2 SWAP1 PUSH2 0x2E03 JUMP JUMPDEST PUSH2 0x64C JUMP JUMPDEST DUP4 PUSH1 0x4 PUSH1 0x7 DUP2 LT PUSH2 0x224 JUMPI PUSH2 0x223 PUSH2 0x2DA5 JUMP JUMPDEST JUMPDEST PUSH1 0x20 MUL ADD DUP2 DUP2 MSTORE POP POP PUSH2 0x25D DUP4 PUSH1 0x2 PUSH1 0x7 DUP2 LT PUSH2 0x244 JUMPI PUSH2 0x243 PUSH2 0x2DA5 JUMP JUMPDEST JUMPDEST PUSH1 0x20 MUL ADD MLOAD PUSH1 0x8 DUP4 SWAP1 SAR PUSH2 0x258 SWAP2 SWAP1 PUSH2 0x2E03 JUMP JUMPDEST PUSH2 0x64C JUMP JUMPDEST DUP4 PUSH1 0x5 PUSH1 0x7 DUP2 LT PUSH2 0x271 JUMPI PUSH2 0x270 PUSH2 0x2DA5 JUMP JUMPDEST JUMPDEST PUSH1 0x20 MUL ADD DUP2 DUP2 MSTORE POP POP PUSH2 0x2A9 DUP4 PUSH1 0x2 PUSH1 0x7 DUP2 LT PUSH2 0x291 JUMPI PUSH2 0x290 PUSH2 0x2DA5 JUMP JUMPDEST JUMPDEST PUSH1 0x20 MUL ADD MLOAD PUSH1 0xFF DUP4 AND PUSH2 0x2A4 SWAP2 SWAP1 PUSH2 0x2E03 JUMP JUMPDEST PUSH2 0x64C JUMP JUMPDEST DUP4 PUSH1 0x6 PUSH1 0x7 DUP2 LT PUSH2 0x2BD JUMPI PUSH2 0x2BC PUSH2 0x2DA5 JUMP JUMPDEST JUMPDEST PUSH1 0x20 MUL ADD DUP2 DUP2 MSTORE POP POP PUSH1 0x0 DUP1 PUSH1 0x0 PUSH2 0x2D4 DUP11 PUSH2 0x184C JUMP JUMPDEST SWAP5 POP PUSH2 0x2DF DUP10 PUSH2 0x184C JUMP JUMPDEST SWAP4 POP PUSH2 0x348 DUP6 PUSH2 0x30D PUSH1 0x8 DUP10 PUSH1 0x3 PUSH1 0x7 DUP2 LT PUSH2 0x2FE JUMPI PUSH2 0x2FD PUSH2 0x2DA5 JUMP JUMPDEST JUMPDEST PUSH1 0x20 MUL ADD MLOAD SWAP1 SAR DUP14 DUP14 DUP14 PUSH2 0x18A2 JUMP JUMPDEST PUSH2 0x343 PUSH1 0x8 DUP11 PUSH1 0x5 PUSH1 0x7 DUP2 LT PUSH2 0x326 JUMPI PUSH2 0x325 PUSH2 0x2DA5 JUMP JUMPDEST JUMPDEST PUSH1 0x20 MUL ADD MLOAD SWAP1 SAR PUSH3 0x10000 DUP16 PUSH2 0x33C SWAP2 SWAP1 PUSH2 0x2E47 JUMP JUMPDEST DUP15 DUP15 PUSH2 0x18A2 JUMP JUMPDEST PUSH2 0x193D JUMP JUMPDEST SWAP3 POP PUSH2 0x3CD DUP6 PUSH2 0x384 PUSH1 0x8 DUP10 PUSH1 0x4 PUSH1 0x7 DUP2 LT PUSH2 0x367 JUMPI PUSH2 0x366 PUSH2 0x2DA5 JUMP JUMPDEST JUMPDEST PUSH1 0x20 MUL ADD MLOAD SWAP1 SAR DUP14 PUSH3 0x10000 DUP15 PUSH2 0x37E SWAP2 SWAP1 PUSH2 0x2E47 JUMP JUMPDEST DUP14 PUSH2 0x18A2 JUMP JUMPDEST PUSH2 0x3C8 PUSH1 0x8 DUP11 PUSH1 0x6 PUSH1 0x7 DUP2 LT PUSH2 0x39D JUMPI PUSH2 0x39C PUSH2 0x2DA5 JUMP JUMPDEST JUMPDEST PUSH1 0x20 MUL ADD MLOAD SWAP1 SAR PUSH3 0x10000 DUP16 PUSH2 0x3B3 SWAP2 SWAP1 PUSH2 0x2E47 JUMP JUMPDEST PUSH3 0x10000 DUP16 PUSH2 0x3C2 SWAP2 SWAP1 PUSH2 0x2E47 JUMP JUMPDEST DUP15 PUSH2 0x18A2 JUMP JUMPDEST PUSH2 0x193D JUMP JUMPDEST SWAP2 POP PUSH2 0x3DA DUP5 DUP5 DUP5 PUSH2 0x193D JUMP JUMPDEST SWAP1 POP PUSH2 0x45D DUP6 PUSH2 0x415 PUSH1 0xFF DUP10 PUSH1 0x3 PUSH1 0x7 DUP2 LT PUSH2 0x3F9 JUMPI PUSH2 0x3F8 PUSH2 0x2DA5 JUMP JUMPDEST JUMPDEST PUSH1 0x20 MUL ADD MLOAD AND DUP14 DUP14 PUSH3 0x10000 DUP15 PUSH2 0x410 SWAP2 SWAP1 PUSH2 0x2E47 JUMP JUMPDEST PUSH2 0x18A2 JUMP JUMPDEST PUSH2 0x458 PUSH1 0xFF DUP11 PUSH1 0x5 PUSH1 0x7 DUP2 LT PUSH2 0x42E JUMPI PUSH2 0x42D PUSH2 0x2DA5 JUMP JUMPDEST JUMPDEST PUSH1 0x20 MUL ADD MLOAD AND PUSH3 0x10000 DUP16 PUSH2 0x443 SWAP2 SWAP1 PUSH2 0x2E47 JUMP JUMPDEST DUP15 PUSH3 0x10000 DUP16 PUSH2 0x453 SWAP2 SWAP1 PUSH2 0x2E47 JUMP JUMPDEST PUSH2 0x18A2 JUMP JUMPDEST PUSH2 0x193D JUMP JUMPDEST SWAP3 POP PUSH2 0x4FC DUP6 PUSH2 0x4A6 PUSH1 0xFF DUP10 PUSH1 0x4 PUSH1 0x7 DUP2 LT PUSH2 0x47C JUMPI PUSH2 0x47B PUSH2 0x2DA5 JUMP JUMPDEST JUMPDEST PUSH1 0x20 MUL ADD MLOAD AND DUP14 PUSH3 0x10000 DUP15 PUSH2 0x492 SWAP2 SWAP1 PUSH2 0x2E47 JUMP JUMPDEST PUSH3 0x10000 DUP15 PUSH2 0x4A1 SWAP2 SWAP1 PUSH2 0x2E47 JUMP JUMPDEST PUSH2 0x18A2 JUMP JUMPDEST PUSH2 0x4F7 PUSH1 0xFF DUP11 PUSH1 0x6 PUSH1 0x7 DUP2 LT PUSH2 0x4BF JUMPI PUSH2 0x4BE PUSH2 0x2DA5 JUMP JUMPDEST JUMPDEST PUSH1 0x20 MUL ADD MLOAD AND PUSH3 0x10000 DUP16 PUSH2 0x4D4 SWAP2 SWAP1 PUSH2 0x2E47 JUMP JUMPDEST PUSH3 0x10000 DUP16 PUSH2 0x4E3 SWAP2 SWAP1 PUSH2 0x2E47 JUMP JUMPDEST PUSH3 0x10000 DUP16 PUSH2 0x4F2 SWAP2 SWAP1 PUSH2 0x2E47 JUMP JUMPDEST PUSH2 0x18A2 JUMP JUMPDEST PUSH2 0x193D JUMP JUMPDEST SWAP2 POP PUSH2 0x51B PUSH2 0x50A DUP10 PUSH2 0x184C JUMP JUMPDEST DUP3 PUSH2 0x516 DUP8 DUP8 DUP8 PUSH2 0x193D JUMP JUMPDEST PUSH2 0x193D JUMP JUMPDEST SWAP7 POP POP POP POP POP POP POP SWAP4 SWAP3 POP POP POP JUMP JUMPDEST PUSH1 0x0 DUP1 PUSH2 0x53D PUSH1 0xFF PUSH1 0x10 DUP7 SWAP1 SAR AND PUSH2 0x64C JUMP JUMPDEST SWAP1 POP PUSH1 0x0 PUSH2 0x560 PUSH1 0xFF PUSH1 0x10 DUP7 SWAP1 SAR AND PUSH1 0x8 DUP5 SWAP1 SAR PUSH2 0x55B SWAP2 SWAP1 PUSH2 0x2E03 JUMP JUMPDEST PUSH2 0x64C JUMP JUMPDEST SWAP1 POP PUSH1 0x0 PUSH2 0x582 PUSH1 0xFF PUSH1 0x10 DUP8 SWAP1 SAR AND PUSH1 0xFF DUP6 AND PUSH2 0x57D SWAP2 SWAP1 PUSH2 0x2E03 JUMP JUMPDEST PUSH2 0x64C JUMP JUMPDEST SWAP1 POP PUSH2 0xFFFF DUP7 AND SWAP6 POP PUSH2 0xFFFF DUP6 AND SWAP5 POP PUSH1 0x0 PUSH2 0x59D DUP8 PUSH2 0x184C JUMP JUMPDEST SWAP1 POP PUSH1 0x0 PUSH2 0x5D6 DUP3 PUSH2 0x5B4 PUSH1 0x8 DUP8 SWAP1 SAR DUP12 DUP12 PUSH2 0x196E JUMP JUMPDEST PUSH2 0x5D1 PUSH1 0x8 DUP8 SWAP1 SAR PUSH3 0x10000 DUP14 PUSH2 0x5CB SWAP2 SWAP1 PUSH2 0x2E47 JUMP JUMPDEST DUP13 PUSH2 0x196E JUMP JUMPDEST PUSH2 0x193D JUMP JUMPDEST SWAP1 POP PUSH1 0x0 PUSH2 0x629 DUP4 PUSH2 0x5FA PUSH1 0xFF DUP9 AND DUP13 PUSH3 0x10000 DUP14 PUSH2 0x5F5 SWAP2 SWAP1 PUSH2 0x2E47 JUMP JUMPDEST PUSH2 0x196E JUMP JUMPDEST PUSH2 0x624 PUSH1 0xFF DUP9 AND PUSH3 0x10000 DUP15 PUSH2 0x610 SWAP2 SWAP1 PUSH2 0x2E47 JUMP JUMPDEST PUSH3 0x10000 DUP15 PUSH2 0x61F SWAP2 SWAP1 PUSH2 0x2E47 JUMP JUMPDEST PUSH2 0x196E JUMP JUMPDEST PUSH2 0x193D JUMP JUMPDEST SWAP1 POP PUSH2 0x63E PUSH2 0x637 DUP10 PUSH2 0x184C JUMP JUMPDEST DUP4 DUP4 PUSH2 0x193D JUMP JUMPDEST SWAP7 POP POP POP POP POP POP POP SWAP3 SWAP2 POP POP JUMP JUMPDEST PUSH1 0x0 PUSH1 0xFF DUP3 AND SWAP2 POP PUSH1 0x7F DUP3 SGT PUSH2 0xF53 JUMPI PUSH1 0x3F DUP3 SGT PUSH2 0xADB JUMPI PUSH1 0x1F DUP3 SGT PUSH2 0x8A4 JUMPI PUSH1 0xF DUP3 SGT PUSH2 0x78C JUMPI PUSH1 0x7 DUP3 SGT PUSH2 0x704 JUMPI PUSH1 0x3 DUP3 SGT PUSH2 0x6C4 JUMPI PUSH1 0x1 DUP3 SGT PUSH2 0x6A8 JUMPI PUSH1 0x0 DUP3 SUB PUSH2 0x69E JUMPI PUSH2 0x97A0 SWAP1 POP PUSH2 0x1847 JUMP JUMPDEST PUSH2 0xA089 SWAP1 POP PUSH2 0x1847 JUMP JUMPDEST PUSH1 0x2 DUP3 SUB PUSH2 0x6BA JUMPI PUSH2 0x895B SWAP1 POP PUSH2 0x1847 JUMP JUMPDEST PUSH2 0x5B5A SWAP1 POP PUSH2 0x1847 JUMP JUMPDEST PUSH1 0x5 DUP3 SGT PUSH2 0x6E8 JUMPI PUSH1 0x4 DUP3 SUB PUSH2 0x6DE JUMPI PUSH2 0x5A0F SWAP1 POP PUSH2 0x1847 JUMP JUMPDEST PUSH2 0xF83 SWAP1 POP PUSH2 0x1847 JUMP JUMPDEST PUSH1 0x6 DUP3 SUB PUSH2 0x6FA JUMPI PUSH2 0x830D SWAP1 POP PUSH2 0x1847 JUMP JUMPDEST PUSH2 0xDC9 SWAP1 POP PUSH2 0x1847 JUMP JUMPDEST PUSH1 0xB DUP3 SGT PUSH2 0x74C JUMPI PUSH1 0x9 DUP3 SGT PUSH2 0x730 JUMPI PUSH1 0x8 DUP3 SUB PUSH2 0x726 JUMPI PUSH2 0xC95F SWAP1 POP PUSH2 0x1847 JUMP JUMPDEST PUSH2 0x5F60 SWAP1 POP PUSH2 0x1847 JUMP JUMPDEST PUSH1 0xA DUP3 SUB PUSH2 0x742 JUMPI PUSH2 0x6035 SWAP1 POP PUSH2 0x1847 JUMP JUMPDEST PUSH2 0x35C2 SWAP1 POP PUSH2 0x1847 JUMP JUMPDEST PUSH1 0xD DUP3 SGT PUSH2 0x770 JUMPI PUSH1 0xC DUP3 SUB PUSH2 0x766 JUMPI PUSH2 0xC2E9 SWAP1 POP PUSH2 0x1847 JUMP JUMPDEST PUSH2 0xE907 SWAP1 POP PUSH2 0x1847 JUMP JUMPDEST PUSH1 0xE DUP3 SUB PUSH2 0x782 JUMPI PUSH2 0x7E1 SWAP1 POP PUSH2 0x1847 JUMP JUMPDEST PUSH2 0xE18C SWAP1 POP PUSH2 0x1847 JUMP JUMPDEST PUSH1 0x17 DUP3 SGT PUSH2 0x81C JUMPI PUSH1 0x13 DUP3 SGT PUSH2 0x7DC JUMPI PUSH1 0x11 DUP3 SGT PUSH2 0x7C0 JUMPI PUSH1 0x10 DUP3 SUB PUSH2 0x7B6 JUMPI PUSH2 0x8C24 SWAP1 POP PUSH2 0x1847 JUMP JUMPDEST PUSH2 0x2467 SWAP1 POP PUSH2 0x1847 JUMP JUMPDEST PUSH1 0x12 DUP3 SUB PUSH2 0x7D2 JUMPI PUSH2 0x671E SWAP1 POP PUSH2 0x1847 JUMP JUMPDEST PUSH2 0x1E45 SWAP1 POP PUSH2 0x1847 JUMP JUMPDEST PUSH1 0x15 DUP3 SGT PUSH2 0x800 JUMPI PUSH1 0x14 DUP3 SUB PUSH2 0x7F6 JUMPI PUSH2 0x458E SWAP1 POP PUSH2 0x1847 JUMP JUMPDEST PUSH2 0x8E08 SWAP1 POP PUSH2 0x1847 JUMP JUMPDEST PUSH1 0x16 DUP3 SUB PUSH2 0x812 JUMPI PUSH2 0x863 SWAP1 POP PUSH2 0x1847 JUMP JUMPDEST PUSH2 0x6325 SWAP1 POP PUSH2 0x1847 JUMP JUMPDEST PUSH1 0x1B DUP3 SGT PUSH2 0x864 JUMPI PUSH1 0x19 DUP3 SGT PUSH2 0x848 JUMPI PUSH1 0x18 DUP3 SUB PUSH2 0x83E JUMPI PUSH2 0x25F0 SWAP1 POP PUSH2 0x1847 JUMP JUMPDEST PUSH2 0xF015 SWAP1 POP PUSH2 0x1847 JUMP JUMPDEST PUSH1 0x1A DUP3 SUB PUSH2 0x85A JUMPI PUSH2 0x150A SWAP1 POP PUSH2 0x1847 JUMP JUMPDEST PUSH2 0xA17 SWAP1 POP PUSH2 0x1847 JUMP JUMPDEST PUSH1 0x1D DUP3 SGT PUSH2 0x888 JUMPI PUSH1 0x1C DUP3 SUB PUSH2 0x87E JUMPI PUSH2 0x17BE SWAP1 POP PUSH2 0x1847 JUMP JUMPDEST PUSH2 0xBE06 SWAP1 POP PUSH2 0x1847 JUMP JUMPDEST PUSH1 0x1E DUP3 SUB PUSH2 0x89A JUMPI PUSH2 0x694 SWAP1 POP PUSH2 0x1847 JUMP JUMPDEST PUSH2 0x94F7 SWAP1 POP PUSH2 0x1847 JUMP JUMPDEST PUSH1 0x2F DUP3 SGT PUSH2 0x9C3 JUMPI PUSH1 0x27 DUP3 SGT PUSH2 0x93B JUMPI PUSH1 0x23 DUP3 SGT PUSH2 0x8FC JUMPI PUSH1 0x21 DUP3 SGT PUSH2 0x8E0 JUMPI PUSH1 0x20 DUP3 SUB PUSH2 0x8D6 JUMPI PUSH2 0xF778 SWAP1 POP PUSH2 0x1847 JUMP JUMPDEST PUSH2 0x78EA SWAP1 POP PUSH2 0x1847 JUMP JUMPDEST PUSH1 0x22 DUP3 SUB PUSH2 0x8F2 JUMPI PUSH2 0xEA4B SWAP1 POP PUSH2 0x1847 JUMP JUMPDEST PUSH2 0x4B00 SWAP1 POP PUSH2 0x1847 JUMP JUMPDEST PUSH1 0x25 DUP3 SGT PUSH2 0x91F JUMPI PUSH1 0x24 DUP3 SUB PUSH2 0x915 JUMPI PUSH1 0x1A SWAP1 POP PUSH2 0x1847 JUMP JUMPDEST PUSH2 0x1AC5 SWAP1 POP PUSH2 0x1847 JUMP JUMPDEST PUSH1 0x26 DUP3 SUB PUSH2 0x931 JUMPI PUSH2 0xC53E SWAP1 POP PUSH2 0x1847 JUMP JUMPDEST PUSH2 0x3E5E SWAP1 POP PUSH2 0x1847 JUMP JUMPDEST PUSH1 0x2B DUP3 SGT PUSH2 0x983 JUMPI PUSH1 0x29 DUP3 SGT PUSH2 0x967 JUMPI PUSH1 0x28 DUP3 SUB PUSH2 0x95D JUMPI PUSH2 0x5EFC SWAP1 POP PUSH2 0x1847 JUMP JUMPDEST PUSH2 0xFCDB SWAP1 POP PUSH2 0x1847 JUMP JUMPDEST PUSH1 0x2A DUP3 SUB PUSH2 0x979 JUMPI PUSH2 0xDBCB SWAP1 POP PUSH2 0x1847 JUMP JUMPDEST PUSH2 0xCB75 SWAP1 POP PUSH2 0x1847 JUMP JUMPDEST PUSH1 0x2D DUP3 SGT PUSH2 0x9A7 JUMPI PUSH1 0x2C DUP3 SUB PUSH2 0x99D JUMPI PUSH2 0x7523 SWAP1 POP PUSH2 0x1847 JUMP JUMPDEST PUSH2 0x230B SWAP1 POP PUSH2 0x1847 JUMP JUMPDEST PUSH1 0x2E DUP3 SUB PUSH2 0x9B9 JUMPI PUSH2 0xB20 SWAP1 POP PUSH2 0x1847 JUMP JUMPDEST PUSH2 0x2039 SWAP1 POP PUSH2 0x1847 JUMP JUMPDEST PUSH1 0x37 DUP3 SGT PUSH2 0xA53 JUMPI PUSH1 0x33 DUP3 SGT PUSH2 0xA13 JUMPI PUSH1 0x31 DUP3 SGT PUSH2 0x9F7 JUMPI PUSH1 0x30 DUP3 SUB PUSH2 0x9ED JUMPI PUSH2 0x39B1 SWAP1 POP PUSH2 0x1847 JUMP JUMPDEST PUSH2 0xB121 SWAP1 POP PUSH2 0x1847 JUMP JUMPDEST PUSH1 0x32 DUP3 SUB PUSH2 0xA09 JUMPI PUSH2 0x2158 SWAP1 POP PUSH2 0x1847 JUMP JUMPDEST PUSH2 0x58ED SWAP1 POP PUSH2 0x1847 JUMP JUMPDEST PUSH1 0x35 DUP3 SGT PUSH2 0xA37 JUMPI PUSH1 0x34 DUP3 SUB PUSH2 0xA2D JUMPI PUSH2 0xED95 SWAP1 POP PUSH2 0x1847 JUMP JUMPDEST PUSH2 0x9538 SWAP1 POP PUSH2 0x1847 JUMP JUMPDEST PUSH1 0x36 DUP3 SUB PUSH2 0xA49 JUMPI PUSH2 0x3857 SWAP1 POP PUSH2 0x1847 JUMP JUMPDEST PUSH2 0x57AE SWAP1 POP PUSH2 0x1847 JUMP JUMPDEST PUSH1 0x3B DUP3 SGT PUSH2 0xA9B JUMPI PUSH1 0x39 DUP3 SGT PUSH2 0xA7F JUMPI PUSH1 0x38 DUP3 SUB PUSH2 0xA75 JUMPI PUSH2 0xAE14 SWAP1 POP PUSH2 0x1847 JUMP JUMPDEST PUSH2 0x147D SWAP1 POP PUSH2 0x1847 JUMP JUMPDEST PUSH1 0x3A DUP3 SUB PUSH2 0xA91 JUMPI PUSH2 0x7D88 SWAP1 POP PUSH2 0x1847 JUMP JUMPDEST PUSH2 0x88AB SWAP1 POP PUSH2 0x1847 JUMP JUMPDEST PUSH1 0x3D DUP3 SGT PUSH2 0xABF JUMPI PUSH1 0x3C DUP3 SUB PUSH2 0xAB5 JUMPI PUSH2 0xABA8 SWAP1 POP PUSH2 0x1847 JUMP JUMPDEST PUSH2 0xA844 SWAP1 POP PUSH2 0x1847 JUMP JUMPDEST PUSH1 0x3E DUP3 SUB PUSH2 0xAD1 JUMPI PUSH2 0x44AF SWAP1 POP PUSH2 0x1847 JUMP JUMPDEST PUSH2 0xAF4A SWAP1 POP PUSH2 0x1847 JUMP JUMPDEST PUSH1 0x5F DUP3 SGT PUSH2 0xD1B JUMPI PUSH1 0x4F DUP3 SGT PUSH2 0xC03 JUMPI PUSH1 0x47 DUP3 SGT PUSH2 0xB7B JUMPI PUSH1 0x43 DUP3 SGT PUSH2 0xB3B JUMPI PUSH1 0x41 DUP3 SGT PUSH2 0xB1F JUMPI PUSH1 0x40 DUP3 SUB PUSH2 0xB15 JUMPI PUSH2 0x4AA5 SWAP1 POP PUSH2 0x1847 JUMP JUMPDEST PUSH2 0xA547 SWAP1 POP PUSH2 0x1847 JUMP JUMPDEST PUSH1 0x42 DUP3 SUB PUSH2 0xB31 JUMPI PUSH2 0x4786 SWAP1 POP PUSH2 0x1847 JUMP JUMPDEST PUSH2 0x868B SWAP1 POP PUSH2 0x1847 JUMP JUMPDEST PUSH1 0x45 DUP3 SGT PUSH2 0xB5F JUMPI PUSH1 0x44 DUP3 SUB PUSH2 0xB55 JUMPI PUSH2 0x8B30 SWAP1 POP PUSH2 0x1847 JUMP JUMPDEST PUSH2 0x301B SWAP1 POP PUSH2 0x1847 JUMP JUMPDEST PUSH1 0x46 DUP3 SUB PUSH2 0xB71 JUMPI PUSH2 0x1BA6 SWAP1 POP PUSH2 0x1847 JUMP JUMPDEST PUSH2 0xA64D SWAP1 POP PUSH2 0x1847 JUMP JUMPDEST PUSH1 0x4B DUP3 SGT PUSH2 0xBC3 JUMPI PUSH1 0x49 DUP3 SGT PUSH2 0xBA7 JUMPI PUSH1 0x48 DUP3 SUB PUSH2 0xB9D JUMPI PUSH2 0x4D92 SWAP1 POP PUSH2 0x1847 JUMP JUMPDEST PUSH2 0x929E SWAP1 POP PUSH2 0x1847 JUMP JUMPDEST PUSH1 0x4A DUP3 SUB PUSH2 0xBB9 JUMPI PUSH2 0x9EE7 SWAP1 POP PUSH2 0x1847 JUMP JUMPDEST PUSH2 0xE753 SWAP1 POP PUSH2 0x1847 JUMP JUMPDEST PUSH1 0x4D DUP3 SGT PUSH2 0xBE7 JUMPI PUSH1 0x4C DUP3 SUB PUSH2 0xBDD JUMPI PUSH2 0x536F SWAP1 POP PUSH2 0x1847 JUMP JUMPDEST PUSH2 0x6FE5 SWAP1 POP PUSH2 0x1847 JUMP JUMPDEST PUSH1 0x4E DUP3 SUB PUSH2 0xBF9 JUMPI PUSH2 0xE57A SWAP1 POP PUSH2 0x1847 JUMP JUMPDEST PUSH2 0x7A3C SWAP1 POP PUSH2 0x1847 JUMP JUMPDEST PUSH1 0x57 DUP3 SGT PUSH2 0xC93 JUMPI PUSH1 0x53 DUP3 SGT PUSH2 0xC53 JUMPI PUSH1 0x51 DUP3 SGT PUSH2 0xC37 JUMPI PUSH1 0x50 DUP3 SUB PUSH2 0xC2D JUMPI PUSH2 0x3CD3 SWAP1 POP PUSH2 0x1847 JUMP JUMPDEST PUSH2 0xD385 SWAP1 POP PUSH2 0x1847 JUMP JUMPDEST PUSH1 0x52 DUP3 SUB PUSH2 0xC49 JUMPI PUSH2 0x85E6 SWAP1 POP PUSH2 0x1847 JUMP JUMPDEST PUSH2 0xE6DC SWAP1 POP PUSH2 0x1847 JUMP JUMPDEST PUSH1 0x55 DUP3 SGT PUSH2 0xC77 JUMPI PUSH1 0x54 DUP3 SUB PUSH2 0xC6D JUMPI PUSH2 0xDC69 SWAP1 POP PUSH2 0x1847 JUMP JUMPDEST PUSH2 0x695C SWAP1 POP PUSH2 0x1847 JUMP JUMPDEST PUSH1 0x56 DUP3 SUB PUSH2 0xC89 JUMPI PUSH2 0x5C29 SWAP1 POP PUSH2 0x1847 JUMP JUMPDEST PUSH2 0x2937 SWAP1 POP PUSH2 0x1847 JUMP JUMPDEST PUSH1 0x5B DUP3 SGT PUSH2 0xCDB JUMPI PUSH1 0x59 DUP3 SGT PUSH2 0xCBF JUMPI PUSH1 0x58 DUP3 SUB PUSH2 0xCB5 JUMPI PUSH2 0x372E SWAP1 POP PUSH2 0x1847 JUMP JUMPDEST PUSH2 0x2EF5 SWAP1 POP PUSH2 0x1847 JUMP JUMPDEST PUSH1 0x5A DUP3 SUB PUSH2 0xCD1 JUMPI PUSH2 0xF528 SWAP1 POP PUSH2 0x1847 JUMP JUMPDEST PUSH2 0x28F4 SWAP1 POP PUSH2 0x1847 JUMP JUMPDEST PUSH1 0x5D DUP3 SGT PUSH2 0xCFF JUMPI PUSH1 0x5C DUP3 SUB PUSH2 0xCF5 JUMPI PUSH2 0xF466 SWAP1 POP PUSH2 0x1847 JUMP JUMPDEST PUSH2 0x668F SWAP1 POP PUSH2 0x1847 JUMP JUMPDEST PUSH1 0x5E DUP3 SUB PUSH2 0xD11 JUMPI PUSH2 0x8F36 SWAP1 POP PUSH2 0x1847 JUMP JUMPDEST PUSH2 0x3641 SWAP1 POP PUSH2 0x1847 JUMP JUMPDEST PUSH1 0x6F DUP3 SGT PUSH2 0xE3B JUMPI PUSH1 0x67 DUP3 SGT PUSH2 0xDB3 JUMPI PUSH1 0x63 DUP3 SGT PUSH2 0xD73 JUMPI PUSH1 0x61 DUP3 SGT PUSH2 0xD57 JUMPI PUSH1 0x60 DUP3 SUB PUSH2 0xD4D JUMPI PUSH2 0x4119 SWAP1 POP PUSH2 0x1847 JUMP JUMPDEST PUSH2 0x193F SWAP1 POP PUSH2 0x1847 JUMP JUMPDEST PUSH1 0x62 DUP3 SUB PUSH2 0xD69 JUMPI PUSH2 0x3FA1 SWAP1 POP PUSH2 0x1847 JUMP JUMPDEST PUSH2 0xA101 SWAP1 POP PUSH2 0x1847 JUMP JUMPDEST PUSH1 0x65 DUP3 SGT PUSH2 0xD97 JUMPI PUSH1 0x64 DUP3 SUB PUSH2 0xD8D JUMPI PUSH2 0x1D8 SWAP1 POP PUSH2 0x1847 JUMP JUMPDEST PUSH2 0xD850 SWAP1 POP PUSH2 0x1847 JUMP JUMPDEST PUSH1 0x66 DUP3 SUB PUSH2 0xDA9 JUMPI PUSH2 0x5049 SWAP1 POP PUSH2 0x1847 JUMP JUMPDEST PUSH2 0x49D1 SWAP1 POP PUSH2 0x1847 JUMP JUMPDEST PUSH1 0x6B DUP3 SGT PUSH2 0xDFB JUMPI PUSH1 0x69 DUP3 SGT PUSH2 0xDDF JUMPI PUSH1 0x68 DUP3 SUB PUSH2 0xDD5 JUMPI PUSH2 0xD14C SWAP1 POP PUSH2 0x1847 JUMP JUMPDEST PUSH2 0x4C84 SWAP1 POP PUSH2 0x1847 JUMP JUMPDEST PUSH1 0x6A DUP3 SUB PUSH2 0xDF1 JUMPI PUSH2 0x84BB SWAP1 POP PUSH2 0x1847 JUMP JUMPDEST PUSH2 0xBBD0 SWAP1 POP PUSH2 0x1847 JUMP JUMPDEST PUSH1 0x6D DUP3 SGT PUSH2 0xE1F JUMPI PUSH1 0x6C DUP3 SUB PUSH2 0xE15 JUMPI PUSH2 0xD059 SWAP1 POP PUSH2 0x1847 JUMP JUMPDEST PUSH2 0x5912 SWAP1 POP PUSH2 0x1847 JUMP JUMPDEST PUSH1 0x6E DUP3 SUB PUSH2 0xE31 JUMPI PUSH2 0x12A9 SWAP1 POP PUSH2 0x1847 JUMP JUMPDEST PUSH2 0xA9C8 SWAP1 POP PUSH2 0x1847 JUMP JUMPDEST PUSH1 0x77 DUP3 SGT PUSH2 0xECB JUMPI PUSH1 0x73 DUP3 SGT PUSH2 0xE8B JUMPI PUSH1 0x71 DUP3 SGT PUSH2 0xE6F JUMPI PUSH1 0x70 DUP3 SUB PUSH2 0xE65 JUMPI PUSH2 0xC8C4 SWAP1 POP PUSH2 0x1847 JUMP JUMPDEST PUSH2 0xC487 SWAP1 POP PUSH2 0x1847 JUMP JUMPDEST PUSH1 0x72 DUP3 SUB PUSH2 0xE81 JUMPI PUSH2 0x8782 SWAP1 POP PUSH2 0x1847 JUMP JUMPDEST PUSH2 0x8274 SWAP1 POP PUSH2 0x1847 JUMP JUMPDEST PUSH1 0x75 DUP3 SGT PUSH2 0xEAF JUMPI PUSH1 0x74 DUP3 SUB PUSH2 0xEA5 JUMPI PUSH2 0x74BC SWAP1 POP PUSH2 0x1847 JUMP JUMPDEST PUSH2 0xBC9F SWAP1 POP PUSH2 0x1847 JUMP JUMPDEST PUSH1 0x76 DUP3 SUB PUSH2 0xEC1 JUMPI PUSH2 0x9F56 SWAP1 POP PUSH2 0x1847 JUMP JUMPDEST PUSH2 0x56A4 SWAP1 POP PUSH2 0x1847 JUMP JUMPDEST PUSH1 0x7B DUP3 SGT PUSH2 0xF13 JUMPI PUSH1 0x79 DUP3 SGT PUSH2 0xEF7 JUMPI PUSH1 0x78 DUP3 SUB PUSH2 0xEED JUMPI PUSH2 0xA464 SWAP1 POP PUSH2 0x1847 JUMP JUMPDEST PUSH2 0x646D SWAP1 POP PUSH2 0x1847 JUMP JUMPDEST PUSH1 0x7A DUP3 SUB PUSH2 0xF09 JUMPI PUSH2 0x6DC6 SWAP1 POP PUSH2 0x1847 JUMP JUMPDEST PUSH2 0xC6AD SWAP1 POP PUSH2 0x1847 JUMP JUMPDEST PUSH1 0x7D DUP3 SGT PUSH2 0xF37 JUMPI PUSH1 0x7C DUP3 SUB PUSH2 0xF2D JUMPI PUSH2 0xADBA SWAP1 POP PUSH2 0x1847 JUMP JUMPDEST PUSH2 0xBA03 SWAP1 POP PUSH2 0x1847 JUMP JUMPDEST PUSH1 0x7E DUP3 SUB PUSH2 0xF49 JUMPI PUSH2 0x340 SWAP1 POP PUSH2 0x1847 JUMP JUMPDEST PUSH2 0x4034 SWAP1 POP PUSH2 0x1847 JUMP JUMPDEST PUSH1 0xBF DUP3 SGT PUSH2 0x13D3 JUMPI PUSH1 0x9F DUP3 SGT PUSH2 0x119B JUMPI PUSH1 0x8F DUP3 SGT PUSH2 0x1083 JUMPI PUSH1 0x87 DUP3 SGT PUSH2 0xFFB JUMPI PUSH1 0x83 DUP3 SGT PUSH2 0xFBB JUMPI PUSH1 0x81 DUP3 SGT PUSH2 0xF9F JUMPI PUSH1 0x80 DUP3 SUB PUSH2 0xF95 JUMPI PUSH2 0x34D9 SWAP1 POP PUSH2 0x1847 JUMP JUMPDEST PUSH2 0xD9E2 SWAP1 POP PUSH2 0x1847 JUMP JUMPDEST PUSH1 0x82 DUP3 SUB PUSH2 0xFB1 JUMPI PUSH2 0xE2FA SWAP1 POP PUSH2 0x1847 JUMP JUMPDEST PUSH2 0xFA7C SWAP1 POP PUSH2 0x1847 JUMP JUMPDEST PUSH1 0x85 DUP3 SGT PUSH2 0xFDF JUMPI PUSH1 0x84 DUP3 SUB PUSH2 0xFD5 JUMPI PUSH2 0x7C7B SWAP1 POP PUSH2 0x1847 JUMP JUMPDEST PUSH2 0x7B05 SWAP1 POP PUSH2 0x1847 JUMP JUMPDEST PUSH1 0x86 DUP3 SUB PUSH2 0xFF1 JUMPI PUSH2 0x5CA SWAP1 POP PUSH2 0x1847 JUMP JUMPDEST PUSH2 0xCA26 SWAP1 POP PUSH2 0x1847 JUMP JUMPDEST PUSH1 0x8B DUP3 SGT PUSH2 0x1043 JUMPI PUSH1 0x89 DUP3 SGT PUSH2 0x1027 JUMPI PUSH1 0x88 DUP3 SUB PUSH2 0x101D JUMPI PUSH2 0x2693 SWAP1 POP PUSH2 0x1847 JUMP JUMPDEST PUSH2 0x9376 SWAP1 POP PUSH2 0x1847 JUMP JUMPDEST PUSH1 0x8A DUP3 SUB PUSH2 0x1039 JUMPI PUSH2 0x767E SWAP1 POP PUSH2 0x1847 JUMP JUMPDEST PUSH2 0x7EFF SWAP1 POP PUSH2 0x1847 JUMP JUMPDEST PUSH1 0x8D DUP3 SGT PUSH2 0x1067 JUMPI PUSH1 0x8C DUP3 SUB PUSH2 0x105D JUMPI PUSH2 0xFF52 SWAP1 POP PUSH2 0x1847 JUMP JUMPDEST PUSH2 0x5255 SWAP1 POP PUSH2 0x1847 JUMP JUMPDEST PUSH1 0x8E DUP3 SUB PUSH2 0x1079 JUMPI PUSH2 0x55D4 SWAP1 POP PUSH2 0x1847 JUMP JUMPDEST PUSH2 0xD4CF SWAP1 POP PUSH2 0x1847 JUMP JUMPDEST PUSH1 0x97 DUP3 SGT PUSH2 0x1113 JUMPI PUSH1 0x93 DUP3 SGT PUSH2 0x10D3 JUMPI PUSH1 0x91 DUP3 SGT PUSH2 0x10B7 JUMPI PUSH1 0x90 DUP3 SUB PUSH2 0x10AD JUMPI PUSH2 0xCFCE SWAP1 POP PUSH2 0x1847 JUMP JUMPDEST PUSH2 0xCE3B SWAP1 POP PUSH2 0x1847 JUMP JUMPDEST PUSH1 0x92 DUP3 SUB PUSH2 0x10C9 JUMPI PUSH2 0x3BE3 SWAP1 POP PUSH2 0x1847 JUMP JUMPDEST PUSH2 0xE32F SWAP1 POP PUSH2 0x1847 JUMP JUMPDEST PUSH1 0x95 DUP3 SGT PUSH2 0x10F7 JUMPI PUSH1 0x94 DUP3 SUB PUSH2 0x10ED JUMPI PUSH2 0x2F10 SWAP1 POP PUSH2 0x1847 JUMP JUMPDEST PUSH2 0x103A SWAP1 POP PUSH2 0x1847 JUMP JUMPDEST PUSH1 0x96 DUP3 SUB PUSH2 0x1109 JUMPI PUSH2 0x3A11 SWAP1 POP PUSH2 0x1847 JUMP JUMPDEST PUSH2 0x11B6 SWAP1 POP PUSH2 0x1847 JUMP JUMPDEST PUSH1 0x9B DUP3 SGT PUSH2 0x115B JUMPI PUSH1 0x99 DUP3 SGT PUSH2 0x113F JUMPI PUSH1 0x98 DUP3 SUB PUSH2 0x1135 JUMPI PUSH2 0xB6BD SWAP1 POP PUSH2 0x1847 JUMP JUMPDEST PUSH2 0xBD1C SWAP1 POP PUSH2 0x1847 JUMP JUMPDEST PUSH1 0x9A DUP3 SUB PUSH2 0x1151 JUMPI PUSH2 0x1C2A SWAP1 POP PUSH2 0x1847 JUMP JUMPDEST PUSH2 0x2ADF SWAP1 POP PUSH2 0x1847 JUMP JUMPDEST PUSH1 0x9D DUP3 SGT PUSH2 0x117F JUMPI PUSH1 0x9C DUP3 SUB PUSH2 0x1175 JUMPI PUSH2 0xDFB7 SWAP1 POP PUSH2 0x1847 JUMP JUMPDEST PUSH2 0xB7AA SWAP1 POP PUSH2 0x1847 JUMP JUMPDEST PUSH1 0x9E DUP3 SUB PUSH2 0x1191 JUMPI PUSH2 0xAAD5 SWAP1 POP PUSH2 0x1847 JUMP JUMPDEST PUSH2 0xD577 SWAP1 POP PUSH2 0x1847 JUMP JUMPDEST PUSH1 0xAF DUP3 SGT PUSH2 0x12BB JUMPI PUSH1 0xA7 DUP3 SGT PUSH2 0x1233 JUMPI PUSH1 0xA3 DUP3 SGT PUSH2 0x11F3 JUMPI PUSH1 0xA1 DUP3 SGT PUSH2 0x11D7 JUMPI PUSH1 0xA0 DUP3 SUB PUSH2 0x11CD JUMPI PUSH2 0x77F8 SWAP1 POP PUSH2 0x1847 JUMP JUMPDEST PUSH2 0xF898 SWAP1 POP PUSH2 0x1847 JUMP JUMPDEST PUSH1 0xA2 DUP3 SUB PUSH2 0x11E9 JUMPI PUSH2 0x9802 SWAP1 POP PUSH2 0x1847 JUMP JUMPDEST PUSH2 0x22C SWAP1 POP PUSH2 0x1847 JUMP JUMPDEST PUSH1 0xA5 DUP3 SGT PUSH2 0x1217 JUMPI PUSH1 0xA4 DUP3 SUB PUSH2 0x120D JUMPI PUSH2 0x2C9A SWAP1 POP PUSH2 0x1847 JUMP JUMPDEST PUSH2 0x9AA3 SWAP1 POP PUSH2 0x1847 JUMP JUMPDEST PUSH1 0xA6 DUP3 SUB PUSH2 0x1229 JUMPI PUSH2 0xA346 SWAP1 POP PUSH2 0x1847 JUMP JUMPDEST PUSH2 0x46DD SWAP1 POP PUSH2 0x1847 JUMP JUMPDEST PUSH1 0xAB DUP3 SGT PUSH2 0x127B JUMPI PUSH1 0xA9 DUP3 SGT PUSH2 0x125F JUMPI PUSH1 0xA8 DUP3 SUB PUSH2 0x1255 JUMPI PUSH2 0xDD99 SWAP1 POP PUSH2 0x1847 JUMP JUMPDEST PUSH2 0x9965 SWAP1 POP PUSH2 0x1847 JUMP JUMPDEST PUSH1 0xAA DUP3 SUB PUSH2 0x1271 JUMPI PUSH2 0x659B SWAP1 POP PUSH2 0x1847 JUMP JUMPDEST PUSH2 0x9BA7 SWAP1 POP PUSH2 0x1847 JUMP JUMPDEST PUSH1 0xAD DUP3 SGT PUSH2 0x129F JUMPI PUSH1 0xAC DUP3 SUB PUSH2 0x1295 JUMPI PUSH2 0xA72B SWAP1 POP PUSH2 0x1847 JUMP JUMPDEST PUSH2 0x2BAC SWAP1 POP PUSH2 0x1847 JUMP JUMPDEST PUSH1 0xAE DUP3 SUB PUSH2 0x12B1 JUMPI PUSH2 0xAC09 SWAP1 POP PUSH2 0x1847 JUMP JUMPDEST PUSH2 0x981 SWAP1 POP PUSH2 0x1847 JUMP JUMPDEST PUSH1 0xB7 DUP3 SGT PUSH2 0x134B JUMPI PUSH1 0xB3 DUP3 SGT PUSH2 0x130B JUMPI PUSH1 0xB1 DUP3 SGT PUSH2 0x12EF JUMPI PUSH1 0xB0 DUP3 SUB PUSH2 0x12E5 JUMPI PUSH2 0x8116 SWAP1 POP PUSH2 0x1847 JUMP JUMPDEST PUSH2 0x1627 SWAP1 POP PUSH2 0x1847 JUMP JUMPDEST PUSH1 0xB2 DUP3 SUB PUSH2 0x1301 JUMPI PUSH2 0x27FD SWAP1 POP PUSH2 0x1847 JUMP JUMPDEST PUSH2 0xFD13 SWAP1 POP PUSH2 0x1847 JUMP JUMPDEST PUSH1 0xB5 DUP3 SGT PUSH2 0x132F JUMPI PUSH1 0xB4 DUP3 SUB PUSH2 0x1325 JUMPI PUSH2 0x1362 SWAP1 POP PUSH2 0x1847 JUMP JUMPDEST PUSH2 0x626C SWAP1 POP PUSH2 0x1847 JUMP JUMPDEST PUSH1 0xB6 DUP3 SUB PUSH2 0x1341 JUMPI PUSH2 0x6C6E SWAP1 POP PUSH2 0x1847 JUMP JUMPDEST PUSH2 0x6E4F SWAP1 POP PUSH2 0x1847 JUMP JUMPDEST PUSH1 0xBB DUP3 SGT PUSH2 0x1393 JUMPI PUSH1 0xB9 DUP3 SGT PUSH2 0x1377 JUMPI PUSH1 0xB8 DUP3 SUB PUSH2 0x136D JUMPI PUSH2 0x4F71 SWAP1 POP PUSH2 0x1847 JUMP JUMPDEST PUSH2 0x71E0 SWAP1 POP PUSH2 0x1847 JUMP JUMPDEST PUSH1 0xBA DUP3 SUB PUSH2 0x1389 JUMPI PUSH2 0xE0E8 SWAP1 POP PUSH2 0x1847 JUMP JUMPDEST PUSH2 0xE8B2 SWAP1 POP PUSH2 0x1847 JUMP JUMPDEST PUSH1 0xBD DUP3 SGT PUSH2 0x13B7 JUMPI PUSH1 0xBC DUP3 SUB PUSH2 0x13AD JUMPI PUSH2 0xB2B9 SWAP1 POP PUSH2 0x1847 JUMP JUMPDEST PUSH2 0xB970 SWAP1 POP PUSH2 0x1847 JUMP JUMPDEST PUSH1 0xBE DUP3 SUB PUSH2 0x13C9 JUMPI PUSH2 0x7068 SWAP1 POP PUSH2 0x1847 JUMP JUMPDEST PUSH2 0x68DA SWAP1 POP PUSH2 0x1847 JUMP JUMPDEST PUSH1 0xDF DUP3 SGT PUSH2 0x1613 JUMPI PUSH1 0xCF DUP3 SGT PUSH2 0x14FB JUMPI PUSH1 0xC7 DUP3 SGT PUSH2 0x1473 JUMPI PUSH1 0xC3 DUP3 SGT PUSH2 0x1433 JUMPI PUSH1 0xC1 DUP3 SGT PUSH2 0x1417 JUMPI PUSH1 0xC0 DUP3 SUB PUSH2 0x140D JUMPI PUSH2 0xDAF6 SWAP1 POP PUSH2 0x1847 JUMP JUMPDEST PUSH2 0xF661 SWAP1 POP PUSH2 0x1847 JUMP JUMPDEST PUSH1 0xC2 DUP3 SUB PUSH2 0x1429 JUMPI PUSH2 0x61E4 SWAP1 POP PUSH2 0x1847 JUMP JUMPDEST PUSH2 0xE4FB SWAP1 POP PUSH2 0x1847 JUMP JUMPDEST PUSH1 0xC5 DUP3 SGT PUSH2 0x1457 JUMPI PUSH1 0xC4 DUP3 SUB PUSH2 0x144D JUMPI PUSH2 0xFB22 SWAP1 POP PUSH2 0x1847 JUMP JUMPDEST PUSH2 0x22F2 SWAP1 POP PUSH2 0x1847 JUMP JUMPDEST PUSH1 0xC6 DUP3 SUB PUSH2 0x1469 JUMPI PUSH2 0xF2C1 SWAP1 POP PUSH2 0x1847 JUMP JUMPDEST PUSH2 0xC1EE SWAP1 POP PUSH2 0x1847 JUMP JUMPDEST PUSH1 0xCB DUP3 SGT PUSH2 0x14BB JUMPI PUSH1 0xC9 DUP3 SGT PUSH2 0x149F JUMPI PUSH1 0xC8 DUP3 SUB PUSH2 0x1495 JUMPI PUSH2 0xEED2 SWAP1 POP PUSH2 0x1847 JUMP JUMPDEST PUSH2 0xD290 SWAP1 POP PUSH2 0x1847 JUMP JUMPDEST PUSH1 0xCA DUP3 SUB PUSH2 0x14B1 JUMPI PUSH2 0x900C SWAP1 POP PUSH2 0x1847 JUMP JUMPDEST PUSH2 0xCBF SWAP1 POP PUSH2 0x1847 JUMP JUMPDEST PUSH1 0xCD DUP3 SGT PUSH2 0x14DF JUMPI PUSH1 0xCC DUP3 SUB PUSH2 0x14D5 JUMPI PUSH2 0xBFB3 SWAP1 POP PUSH2 0x1847 JUMP JUMPDEST PUSH2 0xB3A2 SWAP1 POP PUSH2 0x1847 JUMP JUMPDEST PUSH1 0xCE DUP3 SUB PUSH2 0x14F1 JUMPI PUSH2 0xA2F1 SWAP1 POP PUSH2 0x1847 JUMP JUMPDEST PUSH2 0xF151 SWAP1 POP PUSH2 0x1847 JUMP JUMPDEST PUSH1 0xD7 DUP3 SGT PUSH2 0x158B JUMPI PUSH1 0xD3 DUP3 SGT PUSH2 0x154B JUMPI PUSH1 0xD1 DUP3 SGT PUSH2 0x152F JUMPI PUSH1 0xD0 DUP3 SUB PUSH2 0x1525 JUMPI PUSH2 0x5133 SWAP1 POP PUSH2 0x1847 JUMP JUMPDEST PUSH2 0x3391 SWAP1 POP PUSH2 0x1847 JUMP JUMPDEST PUSH1 0xD2 DUP3 SUB PUSH2 0x1541 JUMPI PUSH2 0x91EB SWAP1 POP PUSH2 0x1847 JUMP JUMPDEST PUSH2 0xEBF9 SWAP1 POP PUSH2 0x1847 JUMP JUMPDEST PUSH1 0xD5 DUP3 SGT PUSH2 0x156F JUMPI PUSH1 0xD4 DUP3 SUB PUSH2 0x1565 JUMPI PUSH2 0xF90E SWAP1 POP PUSH2 0x1847 JUMP JUMPDEST PUSH2 0xEEF SWAP1 POP PUSH2 0x1847 JUMP JUMPDEST PUSH1 0xD6 DUP3 SUB PUSH2 0x1581 JUMPI PUSH2 0xEF6B SWAP1 POP PUSH2 0x1847 JUMP JUMPDEST PUSH2 0x6B31 SWAP1 POP PUSH2 0x1847 JUMP JUMPDEST PUSH1 0xDB DUP3 SGT PUSH2 0x15D3 JUMPI PUSH1 0xD9 DUP3 SGT PUSH2 0x15B7 JUMPI PUSH1 0xD8 DUP3 SUB PUSH2 0x15AD JUMPI PUSH2 0x31C0 SWAP1 POP PUSH2 0x1847 JUMP JUMPDEST PUSH2 0xC0D6 SWAP1 POP PUSH2 0x1847 JUMP JUMPDEST PUSH1 0xDA DUP3 SUB PUSH2 0x15C9 JUMPI PUSH2 0xD61F SWAP1 POP PUSH2 0x1847 JUMP JUMPDEST PUSH2 0x1FB5 SWAP1 POP PUSH2 0x1847 JUMP JUMPDEST PUSH1 0xDD DUP3 SGT PUSH2 0x15F7 JUMPI PUSH1 0xDC DUP3 SUB PUSH2 0x15ED JUMPI PUSH2 0xB5C7 SWAP1 POP PUSH2 0x1847 JUMP JUMPDEST PUSH2 0xC76A SWAP1 POP PUSH2 0x1847 JUMP JUMPDEST PUSH1 0xDE DUP3 SUB PUSH2 0x1609 JUMPI PUSH2 0x6A9D SWAP1 POP PUSH2 0x1847 JUMP JUMPDEST PUSH2 0x9DB8 SWAP1 POP PUSH2 0x1847 JUMP JUMPDEST PUSH1 0xEF DUP3 SGT PUSH2 0x1733 JUMPI PUSH1 0xE7 DUP3 SGT PUSH2 0x16AB JUMPI PUSH1 0xE3 DUP3 SGT PUSH2 0x166B JUMPI PUSH1 0xE1 DUP3 SGT PUSH2 0x164F JUMPI PUSH1 0xE0 DUP3 SUB PUSH2 0x1645 JUMPI PUSH2 0xB854 SWAP1 POP PUSH2 0x1847 JUMP JUMPDEST PUSH2 0x54CC SWAP1 POP PUSH2 0x1847 JUMP JUMPDEST PUSH1 0xE2 DUP3 SUB PUSH2 0x1661 JUMPI PUSH2 0xCCB0 SWAP1 POP PUSH2 0x1847 JUMP JUMPDEST PUSH2 0xB073 SWAP1 POP PUSH2 0x1847 JUMP JUMPDEST PUSH1 0xE5 DUP3 SGT PUSH2 0x168F JUMPI PUSH1 0xE4 DUP3 SUB PUSH2 0x1685 JUMPI PUSH2 0x7379 SWAP1 POP PUSH2 0x1847 JUMP JUMPDEST PUSH2 0x7932 SWAP1 POP PUSH2 0x1847 JUMP JUMPDEST PUSH1 0xE6 DUP3 SUB PUSH2 0x16A1 JUMPI PUSH2 0x322D SWAP1 POP PUSH2 0x1847 JUMP JUMPDEST PUSH2 0x2D7F SWAP1 POP PUSH2 0x1847 JUMP JUMPDEST PUSH1 0xEB DUP3 SGT PUSH2 0x16F3 JUMPI PUSH1 0xE9 DUP3 SGT PUSH2 0x16D7 JUMPI PUSH1 0xE8 DUP3 SUB PUSH2 0x16CD JUMPI PUSH2 0x7F04 SWAP1 POP PUSH2 0x1847 JUMP JUMPDEST PUSH2 0x496 SWAP1 POP PUSH2 0x1847 JUMP JUMPDEST PUSH1 0xEA DUP3 SUB PUSH2 0x16E9 JUMPI PUSH2 0x96FE SWAP1 POP PUSH2 0x1847 JUMP JUMPDEST PUSH2 0xFE8A SWAP1 POP PUSH2 0x1847 JUMP JUMPDEST PUSH1 0xED DUP3 SGT PUSH2 0x1717 JUMPI PUSH1 0xEC DUP3 SUB PUSH2 0x170D JUMPI PUSH2 0x8AEC SWAP1 POP PUSH2 0x1847 JUMP JUMPDEST PUSH2 0xECCD SWAP1 POP PUSH2 0x1847 JUMP JUMPDEST PUSH1 0xEE DUP3 SUB PUSH2 0x1729 JUMPI PUSH2 0xCD5D SWAP1 POP PUSH2 0x1847 JUMP JUMPDEST PUSH2 0x5DDE SWAP1 POP PUSH2 0x1847 JUMP JUMPDEST PUSH1 0xF7 DUP3 SGT PUSH2 0x17C3 JUMPI PUSH1 0xF3 DUP3 SGT PUSH2 0x1783 JUMPI PUSH1 0xF1 DUP3 SGT PUSH2 0x1767 JUMPI PUSH1 0xF0 DUP3 SUB PUSH2 0x175D JUMPI PUSH2 0xDE72 SWAP1 POP PUSH2 0x1847 JUMP JUMPDEST PUSH2 0x7243 SWAP1 POP PUSH2 0x1847 JUMP JUMPDEST PUSH1 0xF2 DUP3 SUB PUSH2 0x1779 JUMPI PUSH2 0x431D SWAP1 POP PUSH2 0x1847 JUMP JUMPDEST PUSH2 0x1D18 SWAP1 POP PUSH2 0x1847 JUMP JUMPDEST PUSH1 0xF5 DUP3 SGT PUSH2 0x17A7 JUMPI PUSH1 0xF4 DUP3 SUB PUSH2 0x179D JUMPI PUSH2 0x1848 SWAP1 POP PUSH2 0x1847 JUMP JUMPDEST PUSH2 0x48F3 SWAP1 POP PUSH2 0x1847 JUMP JUMPDEST PUSH1 0xF6 DUP3 SUB PUSH2 0x17B9 JUMPI PUSH2 0xF38D SWAP1 POP PUSH2 0x1847 JUMP JUMPDEST PUSH2 0x8D80 SWAP1 POP PUSH2 0x1847 JUMP JUMPDEST PUSH1 0xFB DUP3 SGT PUSH2 0x180B JUMPI PUSH1 0xF9 DUP3 SGT PUSH2 0x17EF JUMPI PUSH1 0xF8 DUP3 SUB PUSH2 0x17E5 JUMPI PUSH2 0x80C3 SWAP1 POP PUSH2 0x1847 JUMP JUMPDEST PUSH2 0xC34E SWAP1 POP PUSH2 0x1847 JUMP JUMPDEST PUSH1 0xFA DUP3 SUB PUSH2 0x1801 JUMPI PUSH2 0x4E42 SWAP1 POP PUSH2 0x1847 JUMP JUMPDEST PUSH2 0x42D7 SWAP1 POP PUSH2 0x1847 JUMP JUMPDEST PUSH1 0xFD DUP3 SGT PUSH2 0x182F JUMPI PUSH1 0xFC DUP3 SUB PUSH2 0x1825 JUMPI PUSH2 0xD73D SWAP1 POP PUSH2 0x1847 JUMP JUMPDEST PUSH2 0x3D9C SWAP1 POP PUSH2 0x1847 JUMP JUMPDEST PUSH1 0xFE DUP3 SUB PUSH2 0x1841 JUMPI PUSH2 0x9CB4 SWAP1 POP PUSH2 0x1847 JUMP JUMPDEST PUSH2 0xB497 SWAP1 POP JUMPDEST SWAP2 SWAP1 POP JUMP JUMPDEST PUSH1 0x0 DUP1 PUSH2 0x185C PUSH1 0x8 DUP5 SWAP1 SAR PUSH2 0x19CE JUMP JUMPDEST SWAP1 POP PUSH1 0x0 DUP1 PUSH1 0xC DUP4 SWAP1 SAR PUSH2 0xFFF DUP5 AND SWAP2 POP SWAP2 POP PUSH1 0x8 DUP3 DUP3 PUSH2 0x187D SWAP2 SWAP1 PUSH2 0x2E47 JUMP JUMPDEST PUSH1 0xFF DUP8 AND PUSH2 0x188B SWAP2 SWAP1 PUSH2 0x2E8A JUMP JUMPDEST SWAP1 SAR DUP3 PUSH2 0x1898 SWAP2 SWAP1 PUSH2 0x2E03 JUMP JUMPDEST SWAP4 POP POP POP POP SWAP2 SWAP1 POP JUMP JUMPDEST PUSH1 0x0 PUSH1 0xF DUP6 AND SWAP5 POP PUSH1 0x0 PUSH1 0x8 DUP7 SLT ISZERO PUSH2 0x18BD JUMPI DUP5 SWAP1 POP PUSH2 0x18C1 JUMP JUMPDEST DUP4 SWAP1 POP JUMPDEST PUSH1 0x0 PUSH1 0x4 DUP8 SLT ISZERO PUSH2 0x18D4 JUMPI DUP5 SWAP1 POP PUSH2 0x18F5 JUMP JUMPDEST PUSH1 0xC DUP8 EQ DUP1 PUSH2 0x18E3 JUMPI POP PUSH1 0xE DUP8 EQ JUMPDEST ISZERO PUSH2 0x18F0 JUMPI DUP6 SWAP1 POP PUSH2 0x18F4 JUMP JUMPDEST DUP4 SWAP1 POP JUMPDEST JUMPDEST PUSH1 0x0 PUSH1 0x1 DUP9 AND EQ PUSH2 0x190D JUMPI DUP2 PUSH2 0x190A SWAP1 PUSH2 0x2F02 JUMP JUMPDEST SWAP2 POP JUMPDEST PUSH1 0x0 PUSH1 0x2 DUP9 AND EQ PUSH2 0x1925 JUMPI DUP1 PUSH2 0x1922 SWAP1 PUSH2 0x2F02 JUMP JUMPDEST SWAP1 POP JUMPDEST DUP1 DUP3 PUSH2 0x1931 SWAP2 SWAP1 PUSH2 0x2E03 JUMP JUMPDEST SWAP3 POP POP POP SWAP5 SWAP4 POP POP POP POP JUMP JUMPDEST PUSH1 0x0 PUSH1 0xC DUP4 DUP4 PUSH2 0x194D SWAP2 SWAP1 PUSH2 0x2E47 JUMP JUMPDEST DUP6 PUSH2 0x1958 SWAP2 SWAP1 PUSH2 0x2E8A JUMP JUMPDEST SWAP1 SAR DUP4 PUSH2 0x1965 SWAP2 SWAP1 PUSH2 0x2E03 JUMP JUMPDEST SWAP1 POP SWAP4 SWAP3 POP POP POP JUMP JUMPDEST PUSH1 0x0 PUSH1 0x3 DUP5 AND SWAP4 POP PUSH1 0x0 DUP1 PUSH1 0x1 DUP7 AND SUB PUSH2 0x198A JUMPI DUP4 SWAP1 POP PUSH2 0x1997 JUMP JUMPDEST DUP4 PUSH2 0x1994 SWAP1 PUSH2 0x2F02 JUMP JUMPDEST SWAP1 POP JUMPDEST PUSH1 0x0 PUSH1 0x2 DUP7 SLT ISZERO PUSH2 0x19AA JUMPI DUP4 SWAP1 POP PUSH2 0x19B7 JUMP JUMPDEST DUP4 PUSH2 0x19B4 SWAP1 PUSH2 0x2F02 JUMP JUMPDEST SWAP1 POP JUMPDEST DUP1 DUP3 PUSH2 0x19C3 SWAP2 SWAP1 PUSH2 0x2E03 JUMP JUMPDEST SWAP3 POP POP POP SWAP4 SWAP3 POP POP POP JUMP JUMPDEST PUSH1 0x0 PUSH1 0x7F DUP3 SGT PUSH2 0x2334 JUMPI PUSH1 0x3F DUP3 SGT PUSH2 0x1E7C JUMPI PUSH1 0x1F DUP3 SGT PUSH2 0x1C24 JUMPI PUSH1 0xF DUP3 SGT PUSH2 0x1B00 JUMPI PUSH1 0x7 DUP3 SGT PUSH2 0x1A78 JUMPI PUSH1 0x3 DUP3 SGT PUSH2 0x1A3C JUMPI PUSH1 0x1 DUP3 SGT PUSH2 0x1A22 JUMPI PUSH1 0x0 DUP3 SUB PUSH2 0x1A19 JUMPI PUSH1 0x0 SWAP1 POP PUSH2 0x2CA8 JUMP JUMPDEST PUSH1 0x0 SWAP1 POP PUSH2 0x2CA8 JUMP JUMPDEST PUSH1 0x2 DUP3 SUB PUSH2 0x1A33 JUMPI PUSH1 0x0 SWAP1 POP PUSH2 0x2CA8 JUMP JUMPDEST PUSH1 0x0 SWAP1 POP PUSH2 0x2CA8 JUMP JUMPDEST PUSH1 0x5 DUP3 SGT PUSH2 0x1A5E JUMPI PUSH1 0x4 DUP3 SUB PUSH2 0x1A55 JUMPI PUSH1 0x0 SWAP1 POP PUSH2 0x2CA8 JUMP JUMPDEST PUSH1 0x0 SWAP1 POP PUSH2 0x2CA8 JUMP JUMPDEST PUSH1 0x6 DUP3 SUB PUSH2 0x1A6F JUMPI PUSH1 0x0 SWAP1 POP PUSH2 0x2CA8 JUMP JUMPDEST PUSH1 0x1 SWAP1 POP PUSH2 0x2CA8 JUMP JUMPDEST PUSH1 0xB DUP3 SGT PUSH2 0x1AC0 JUMPI PUSH1 0x9 DUP3 SGT PUSH2 0x1AA4 JUMPI PUSH1 0x8 DUP3 SUB PUSH2 0x1A9A JUMPI PUSH2 0x1001 SWAP1 POP PUSH2 0x2CA8 JUMP JUMPDEST PUSH2 0x1002 SWAP1 POP PUSH2 0x2CA8 JUMP JUMPDEST PUSH1 0xA DUP3 SUB PUSH2 0x1AB6 JUMPI PUSH2 0x2003 SWAP1 POP PUSH2 0x2CA8 JUMP JUMPDEST PUSH2 0x3003 SWAP1 POP PUSH2 0x2CA8 JUMP JUMPDEST PUSH1 0xD DUP3 SGT PUSH2 0x1AE4 JUMPI PUSH1 0xC DUP3 SUB PUSH2 0x1ADA JUMPI PUSH2 0x3004 SWAP1 POP PUSH2 0x2CA8 JUMP JUMPDEST PUSH2 0x4006 SWAP1 POP PUSH2 0x2CA8 JUMP JUMPDEST PUSH1 0xE DUP3 SUB PUSH2 0x1AF6 JUMPI PUSH2 0x6007 SWAP1 POP PUSH2 0x2CA8 JUMP JUMPDEST PUSH2 0x7009 SWAP1 POP PUSH2 0x2CA8 JUMP JUMPDEST PUSH1 0x17 DUP3 SGT PUSH2 0x1B94 JUMPI PUSH1 0x13 DUP3 SGT PUSH2 0x1B50 JUMPI PUSH1 0x11 DUP3 SGT PUSH2 0x1B34 JUMPI PUSH1 0x10 DUP3 SUB PUSH2 0x1B2A JUMPI PUSH2 0x900A SWAP1 POP PUSH2 0x2CA8 JUMP JUMPDEST PUSH2 0xA00C SWAP1 POP PUSH2 0x2CA8 JUMP JUMPDEST PUSH1 0x12 DUP3 SUB PUSH2 0x1B46 JUMPI PUSH2 0xC00E SWAP1 POP PUSH2 0x2CA8 JUMP JUMPDEST PUSH2 0xE011 SWAP1 POP PUSH2 0x2CA8 JUMP JUMPDEST PUSH1 0x15 DUP3 SGT PUSH2 0x1B76 JUMPI PUSH1 0x14 DUP3 SUB PUSH2 0x1B6B JUMPI PUSH3 0x11013 SWAP1 POP PUSH2 0x2CA8 JUMP JUMPDEST PUSH3 0x13016 SWAP1 POP PUSH2 0x2CA8 JUMP JUMPDEST PUSH1 0x16 DUP3 SUB PUSH2 0x1B89 JUMPI PUSH3 0x16019 SWAP1 POP PUSH2 0x2CA8 JUMP JUMPDEST PUSH3 0x1901D SWAP1 POP PUSH2 0x2CA8 JUMP JUMPDEST PUSH1 0x1B DUP3 SGT PUSH2 0x1BE0 JUMPI PUSH1 0x19 DUP3 SGT PUSH2 0x1BC2 JUMPI PUSH1 0x18 DUP3 SUB PUSH2 0x1BB7 JUMPI PUSH3 0x1D020 SWAP1 POP PUSH2 0x2CA8 JUMP JUMPDEST PUSH3 0x20024 SWAP1 POP PUSH2 0x2CA8 JUMP JUMPDEST PUSH1 0x1A DUP3 SUB PUSH2 0x1BD5 JUMPI PUSH3 0x24028 SWAP1 POP PUSH2 0x2CA8 JUMP JUMPDEST PUSH3 0x2802D SWAP1 POP PUSH2 0x2CA8 JUMP JUMPDEST PUSH1 0x1D DUP3 SGT PUSH2 0x1C06 JUMPI PUSH1 0x1C DUP3 SUB PUSH2 0x1BFB JUMPI PUSH3 0x2D031 SWAP1 POP PUSH2 0x2CA8 JUMP JUMPDEST PUSH3 0x31036 SWAP1 POP PUSH2 0x2CA8 JUMP JUMPDEST PUSH1 0x1E DUP3 SUB PUSH2 0x1C19 JUMPI PUSH3 0x3603C SWAP1 POP PUSH2 0x2CA8 JUMP JUMPDEST PUSH3 0x3C041 SWAP1 POP PUSH2 0x2CA8 JUMP JUMPDEST PUSH1 0x2F DUP3 SGT PUSH2 0x1D54 JUMPI PUSH1 0x27 DUP3 SGT PUSH2 0x1CC4 JUMPI PUSH1 0x23 DUP3 SGT PUSH2 0x1C80 JUMPI PUSH1 0x21 DUP3 SGT PUSH2 0x1C62 JUMPI PUSH1 0x20 DUP3 SUB PUSH2 0x1C57 JUMPI PUSH3 0x41047 SWAP1 POP PUSH2 0x2CA8 JUMP JUMPDEST PUSH3 0x4704D SWAP1 POP PUSH2 0x2CA8 JUMP JUMPDEST PUSH1 0x22 DUP3 SUB PUSH2 0x1C75 JUMPI PUSH3 0x4D054 SWAP1 POP PUSH2 0x2CA8 JUMP JUMPDEST PUSH3 0x5405B SWAP1 POP PUSH2 0x2CA8 JUMP JUMPDEST PUSH1 0x25 DUP3 SGT PUSH2 0x1CA6 JUMPI PUSH1 0x24 DUP3 SUB PUSH2 0x1C9B JUMPI PUSH3 0x5B062 SWAP1 POP PUSH2 0x2CA8 JUMP JUMPDEST PUSH3 0x62069 SWAP1 POP PUSH2 0x2CA8 JUMP JUMPDEST PUSH1 0x26 DUP3 SUB PUSH2 0x1CB9 JUMPI PUSH3 0x69071 SWAP1 POP PUSH2 0x2CA8 JUMP JUMPDEST PUSH3 0x71079 SWAP1 POP PUSH2 0x2CA8 JUMP JUMPDEST PUSH1 0x2B DUP3 SGT PUSH2 0x1D10 JUMPI PUSH1 0x29 DUP3 SGT PUSH2 0x1CF2 JUMPI PUSH1 0x28 DUP3 SUB PUSH2 0x1CE7 JUMPI PUSH3 0x79082 SWAP1 POP PUSH2 0x2CA8 JUMP JUMPDEST PUSH3 0x8208B SWAP1 POP PUSH2 0x2CA8 JUMP JUMPDEST PUSH1 0x2A DUP3 SUB PUSH2 0x1D05 JUMPI PUSH3 0x8B094 SWAP1 POP PUSH2 0x2CA8 JUMP JUMPDEST PUSH3 0x9409E SWAP1 POP PUSH2 0x2CA8 JUMP JUMPDEST PUSH1 0x2D DUP3 SGT PUSH2 0x1D36 JUMPI PUSH1 0x2C DUP3 SUB PUSH2 0x1D2B JUMPI PUSH3 0x9E0A7 SWAP1 POP PUSH2 0x2CA8 JUMP JUMPDEST PUSH3 0xA70B2 SWAP1 POP PUSH2 0x2CA8 JUMP JUMPDEST PUSH1 0x2E DUP3 SUB PUSH2 0x1D49 JUMPI PUSH3 0xB20BC SWAP1 POP PUSH2 0x2CA8 JUMP JUMPDEST PUSH3 0xBC0C7 SWAP1 POP PUSH2 0x2CA8 JUMP JUMPDEST PUSH1 0x37 DUP3 SGT PUSH2 0x1DEC JUMPI PUSH1 0x33 DUP3 SGT PUSH2 0x1DA8 JUMPI PUSH1 0x31 DUP3 SGT PUSH2 0x1D8A JUMPI PUSH1 0x30 DUP3 SUB PUSH2 0x1D7F JUMPI PUSH3 0xC70D3 SWAP1 POP PUSH2 0x2CA8 JUMP JUMPDEST PUSH3 0xD30DE SWAP1 POP PUSH2 0x2CA8 JUMP JUMPDEST PUSH1 0x32 DUP3 SUB PUSH2 0x1D9D JUMPI PUSH3 0xDE0EA SWAP1 POP PUSH2 0x2CA8 JUMP JUMPDEST PUSH3 0xEA0F7 SWAP1 POP PUSH2 0x2CA8 JUMP JUMPDEST PUSH1 0x35 DUP3 SGT PUSH2 0x1DCE JUMPI PUSH1 0x34 DUP3 SUB PUSH2 0x1DC3 JUMPI PUSH3 0xF7103 SWAP1 POP PUSH2 0x2CA8 JUMP JUMPDEST PUSH3 0x103111 SWAP1 POP PUSH2 0x2CA8 JUMP JUMPDEST PUSH1 0x36 DUP3 SUB PUSH2 0x1DE1 JUMPI PUSH3 0x11111E SWAP1 POP PUSH2 0x2CA8 JUMP JUMPDEST PUSH3 0x11E12C SWAP1 POP PUSH2 0x2CA8 JUMP JUMPDEST PUSH1 0x3B DUP3 SGT PUSH2 0x1E38 JUMPI PUSH1 0x39 DUP3 SGT PUSH2 0x1E1A JUMPI PUSH1 0x38 DUP3 SUB PUSH2 0x1E0F JUMPI PUSH3 0x12C13A SWAP1 POP PUSH2 0x2CA8 JUMP JUMPDEST PUSH3 0x13A149 SWAP1 POP PUSH2 0x2CA8 JUMP JUMPDEST PUSH1 0x3A DUP3 SUB PUSH2 0x1E2D JUMPI PUSH3 0x149158 SWAP1 POP PUSH2 0x2CA8 JUMP JUMPDEST PUSH3 0x158167 SWAP1 POP PUSH2 0x2CA8 JUMP JUMPDEST PUSH1 0x3D DUP3 SGT PUSH2 0x1E5E JUMPI PUSH1 0x3C DUP3 SUB PUSH2 0x1E53 JUMPI PUSH3 0x167176 SWAP1 POP PUSH2 0x2CA8 JUMP JUMPDEST PUSH3 0x176186 SWAP1 POP PUSH2 0x2CA8 JUMP JUMPDEST PUSH1 0x3E DUP3 SUB PUSH2 0x1E71 JUMPI PUSH3 0x186197 SWAP1 POP PUSH2 0x2CA8 JUMP JUMPDEST PUSH3 0x1971A8 SWAP1 POP PUSH2 0x2CA8 JUMP JUMPDEST PUSH1 0x5F DUP3 SGT PUSH2 0x20DC JUMPI PUSH1 0x4F DUP3 SGT PUSH2 0x1FB4 JUMPI PUSH1 0x47 DUP3 SGT PUSH2 0x1F24 JUMPI PUSH1 0x43 DUP3 SGT PUSH2 0x1EE0 JUMPI PUSH1 0x41 DUP3 SGT PUSH2 0x1EC2 JUMPI PUSH1 0x40 DUP3 SUB PUSH2 0x1EB7 JUMPI PUSH3 0x1A81B9 SWAP1 POP PUSH2 0x2CA8 JUMP JUMPDEST PUSH3 0x1B91CA SWAP1 POP PUSH2 0x2CA8 JUMP JUMPDEST PUSH1 0x42 DUP3 SUB PUSH2 0x1ED5 JUMPI PUSH3 0x1CA1DC SWAP1 POP PUSH2 0x2CA8 JUMP JUMPDEST PUSH3 0x1DC1EE SWAP1 POP PUSH2 0x2CA8 JUMP JUMPDEST PUSH1 0x45 DUP3 SGT PUSH2 0x1F06 JUMPI PUSH1 0x44 DUP3 SUB PUSH2 0x1EFB JUMPI PUSH3 0x1EE200 SWAP1 POP PUSH2 0x2CA8 JUMP JUMPDEST PUSH3 0x200213 SWAP1 POP PUSH2 0x2CA8 JUMP JUMPDEST PUSH1 0x46 DUP3 SUB PUSH2 0x1F19 JUMPI PUSH3 0x213226 SWAP1 POP PUSH2 0x2CA8 JUMP JUMPDEST PUSH3 0x22623A SWAP1 POP PUSH2 0x2CA8 JUMP JUMPDEST PUSH1 0x4B DUP3 SGT PUSH2 0x1F70 JUMPI PUSH1 0x49 DUP3 SGT PUSH2 0x1F52 JUMPI PUSH1 0x48 DUP3 SUB PUSH2 0x1F47 JUMPI PUSH3 0x23A24D SWAP1 POP PUSH2 0x2CA8 JUMP JUMPDEST PUSH3 0x24D261 SWAP1 POP PUSH2 0x2CA8 JUMP JUMPDEST PUSH1 0x4A DUP3 SUB PUSH2 0x1F65 JUMPI PUSH3 0x261276 SWAP1 POP PUSH2 0x2CA8 JUMP JUMPDEST PUSH3 0x27628B SWAP1 POP PUSH2 0x2CA8 JUMP JUMPDEST PUSH1 0x4D DUP3 SGT PUSH2 0x1F96 JUMPI PUSH1 0x4C DUP3 SUB PUSH2 0x1F8B JUMPI PUSH3 0x28B2A0 SWAP1 POP PUSH2 0x2CA8 JUMP JUMPDEST PUSH3 0x2A02B5 SWAP1 POP PUSH2 0x2CA8 JUMP JUMPDEST PUSH1 0x4E DUP3 SUB PUSH2 0x1FA9 JUMPI PUSH3 0x2B52CB SWAP1 POP PUSH2 0x2CA8 JUMP JUMPDEST PUSH3 0x2CB2E1 SWAP1 POP PUSH2 0x2CA8 JUMP JUMPDEST PUSH1 0x57 DUP3 SGT PUSH2 0x204C JUMPI PUSH1 0x53 DUP3 SGT PUSH2 0x2008 JUMPI PUSH1 0x51 DUP3 SGT PUSH2 0x1FEA JUMPI PUSH1 0x50 DUP3 SUB PUSH2 0x1FDF JUMPI PUSH3 0x2E12F7 SWAP1 POP PUSH2 0x2CA8 JUMP JUMPDEST PUSH3 0x2F730E SWAP1 POP PUSH2 0x2CA8 JUMP JUMPDEST PUSH1 0x52 DUP3 SUB PUSH2 0x1FFD JUMPI PUSH3 0x30E325 SWAP1 POP PUSH2 0x2CA8 JUMP JUMPDEST PUSH3 0x32533C SWAP1 POP PUSH2 0x2CA8 JUMP JUMPDEST PUSH1 0x55 DUP3 SGT PUSH2 0x202E JUMPI PUSH1 0x54 DUP3 SUB PUSH2 0x2023 JUMPI PUSH3 0x33C353 SWAP1 POP PUSH2 0x2CA8 JUMP JUMPDEST PUSH3 0x35336B SWAP1 POP PUSH2 0x2CA8 JUMP JUMPDEST PUSH1 0x56 DUP3 SUB PUSH2 0x2041 JUMPI PUSH3 0x36B383 SWAP1 POP PUSH2 0x2CA8 JUMP JUMPDEST PUSH3 0x38339B SWAP1 POP PUSH2 0x2CA8 JUMP JUMPDEST PUSH1 0x5B DUP3 SGT PUSH2 0x2098 JUMPI PUSH1 0x59 DUP3 SGT PUSH2 0x207A JUMPI PUSH1 0x58 DUP3 SUB PUSH2 0x206F JUMPI PUSH3 0x39B3B4 SWAP1 POP PUSH2 0x2CA8 JUMP JUMPDEST PUSH3 0x3B43CD SWAP1 POP PUSH2 0x2CA8 JUMP JUMPDEST PUSH1 0x5A DUP3 SUB PUSH2 0x208D JUMPI PUSH3 0x3CD3E6 SWAP1 POP PUSH2 0x2CA8 JUMP JUMPDEST PUSH3 0x3E63FF SWAP1 POP PUSH2 0x2CA8 JUMP JUMPDEST PUSH1 0x5D DUP3 SGT PUSH2 0x20BE JUMPI PUSH1 0x5C DUP3 SUB PUSH2 0x20B3 JUMPI PUSH3 0x3FF419 SWAP1 POP PUSH2 0x2CA8 JUMP JUMPDEST PUSH3 0x419432 SWAP1 POP PUSH2 0x2CA8 JUMP JUMPDEST PUSH1 0x5E DUP3 SUB PUSH2 0x20D1 JUMPI PUSH3 0x43244C SWAP1 POP PUSH2 0x2CA8 JUMP JUMPDEST PUSH3 0x44C467 SWAP1 POP PUSH2 0x2CA8 JUMP JUMPDEST PUSH1 0x6F DUP3 SGT PUSH2 0x220C JUMPI PUSH1 0x67 DUP3 SGT PUSH2 0x217C JUMPI PUSH1 0x63 DUP3 SGT PUSH2 0x2138 JUMPI PUSH1 0x61 DUP3 SGT PUSH2 0x211A JUMPI PUSH1 0x60 DUP3 SUB PUSH2 0x210F JUMPI PUSH3 0x467481 SWAP1 POP PUSH2 0x2CA8 JUMP JUMPDEST PUSH3 0x48149C SWAP1 POP PUSH2 0x2CA8 JUMP JUMPDEST PUSH1 0x62 DUP3 SUB PUSH2 0x212D JUMPI PUSH3 0x49C4B7 SWAP1 POP PUSH2 0x2CA8 JUMP JUMPDEST PUSH3 0x4B74D2 SWAP1 POP PUSH2 0x2CA8 JUMP JUMPDEST PUSH1 0x65 DUP3 SGT PUSH2 0x215E JUMPI PUSH1 0x64 DUP3 SUB PUSH2 0x2153 JUMPI PUSH3 0x4D24ED SWAP1 POP PUSH2 0x2CA8 JUMP JUMPDEST PUSH3 0x4ED509 SWAP1 POP PUSH2 0x2CA8 JUMP JUMPDEST PUSH1 0x66 DUP3 SUB PUSH2 0x2171 JUMPI PUSH3 0x509524 SWAP1 POP PUSH2 0x2CA8 JUMP JUMPDEST PUSH3 0x524540 SWAP1 POP PUSH2 0x2CA8 JUMP JUMPDEST PUSH1 0x6B DUP3 SGT PUSH2 0x21C8 JUMPI PUSH1 0x69 DUP3 SGT PUSH2 0x21AA JUMPI PUSH1 0x68 DUP3 SUB PUSH2 0x219F JUMPI PUSH3 0x54055C SWAP1 POP PUSH2 0x2CA8 JUMP JUMPDEST PUSH3 0x55C578 SWAP1 POP PUSH2 0x2CA8 JUMP JUMPDEST PUSH1 0x6A DUP3 SUB PUSH2 0x21BD JUMPI PUSH3 0x578595 SWAP1 POP PUSH2 0x2CA8 JUMP JUMPDEST PUSH3 0x5955B1 SWAP1 POP PUSH2 0x2CA8 JUMP JUMPDEST PUSH1 0x6D DUP3 SGT PUSH2 0x21EE JUMPI PUSH1 0x6C DUP3 SUB PUSH2 0x21E3 JUMPI PUSH3 0x5B15CE SWAP1 POP PUSH2 0x2CA8 JUMP JUMPDEST PUSH3 0x5CE5EB SWAP1 POP PUSH2 0x2CA8 JUMP JUMPDEST PUSH1 0x6E DUP3 SUB PUSH2 0x2201 JUMPI PUSH3 0x5EB607 SWAP1 POP PUSH2 0x2CA8 JUMP JUMPDEST PUSH3 0x607624 SWAP1 POP PUSH2 0x2CA8 JUMP JUMPDEST PUSH1 0x77 DUP3 SGT PUSH2 0x22A4 JUMPI PUSH1 0x73 DUP3 SGT PUSH2 0x2260 JUMPI PUSH1 0x71 DUP3 SGT PUSH2 0x2242 JUMPI PUSH1 0x70 DUP3 SUB PUSH2 0x2237 JUMPI PUSH3 0x624642 SWAP1 POP PUSH2 0x2CA8 JUMP JUMPDEST PUSH3 0x64265F SWAP1 POP PUSH2 0x2CA8 JUMP JUMPDEST PUSH1 0x72 DUP3 SUB PUSH2 0x2255 JUMPI PUSH3 0x65F67C SWAP1 POP PUSH2 0x2CA8 JUMP JUMPDEST PUSH3 0x67C69A SWAP1 POP PUSH2 0x2CA8 JUMP JUMPDEST PUSH1 0x75 DUP3 SGT PUSH2 0x2286 JUMPI PUSH1 0x74 DUP3 SUB PUSH2 0x227B JUMPI PUSH3 0x69A6B7 SWAP1 POP PUSH2 0x2CA8 JUMP JUMPDEST PUSH3 0x6B76D5 SWAP1 POP PUSH2 0x2CA8 JUMP JUMPDEST PUSH1 0x76 DUP3 SUB PUSH2 0x2299 JUMPI PUSH3 0x6D56F2 SWAP1 POP PUSH2 0x2CA8 JUMP JUMPDEST PUSH3 0x6F2710 SWAP1 POP PUSH2 0x2CA8 JUMP JUMPDEST PUSH1 0x7B DUP3 SGT PUSH2 0x22F0 JUMPI PUSH1 0x79 DUP3 SGT PUSH2 0x22D2 JUMPI PUSH1 0x78 DUP3 SUB PUSH2 0x22C7 JUMPI PUSH3 0x71072E SWAP1 POP PUSH2 0x2CA8 JUMP JUMPDEST PUSH3 0x72E74C SWAP1 POP PUSH2 0x2CA8 JUMP JUMPDEST PUSH1 0x7A DUP3 SUB PUSH2 0x22E5 JUMPI PUSH3 0x74C76A SWAP1 POP PUSH2 0x2CA8 JUMP JUMPDEST PUSH3 0x76A788 SWAP1 POP PUSH2 0x2CA8 JUMP JUMPDEST PUSH1 0x7D DUP3 SGT PUSH2 0x2316 JUMPI PUSH1 0x7C DUP3 SUB PUSH2 0x230B JUMPI PUSH3 0x7887A6 SWAP1 POP PUSH2 0x2CA8 JUMP JUMPDEST PUSH3 0x7A67C4 SWAP1 POP PUSH2 0x2CA8 JUMP JUMPDEST PUSH1 0x7E DUP3 SUB PUSH2 0x2329 JUMPI PUSH3 0x7C47E2 SWAP1 POP PUSH2 0x2CA8 JUMP JUMPDEST PUSH3 0x7E2800 SWAP1 POP PUSH2 0x2CA8 JUMP JUMPDEST PUSH1 0xBF DUP3 SGT PUSH2 0x27F4 JUMPI PUSH1 0x9F DUP3 SGT PUSH2 0x259C JUMPI PUSH1 0x8F DUP3 SGT PUSH2 0x2474 JUMPI PUSH1 0x87 DUP3 SGT PUSH2 0x23E4 JUMPI PUSH1 0x83 DUP3 SGT PUSH2 0x23A0 JUMPI PUSH1 0x81 DUP3 SGT PUSH2 0x2382 JUMPI PUSH1 0x80 DUP3 SUB PUSH2 0x2377 JUMPI PUSH3 0x80081D SWAP1 POP PUSH2 0x2CA8 JUMP JUMPDEST PUSH3 0x81D83B SWAP1 POP PUSH2 0x2CA8 JUMP JUMPDEST PUSH1 0x82 DUP3 SUB PUSH2 0x2395 JUMPI PUSH3 0x83B859 SWAP1 POP PUSH2 0x2CA8 JUMP JUMPDEST PUSH3 0x859877 SWAP1 POP PUSH2 0x2CA8 JUMP JUMPDEST PUSH1 0x85 DUP3 SGT PUSH2 0x23C6 JUMPI PUSH1 0x84 DUP3 SUB PUSH2 0x23BB JUMPI PUSH3 0x877895 SWAP1 POP PUSH2 0x2CA8 JUMP JUMPDEST PUSH3 0x8958B3 SWAP1 POP PUSH2 0x2CA8 JUMP JUMPDEST PUSH1 0x86 DUP3 SUB PUSH2 0x23D9 JUMPI PUSH3 0x8B38D1 SWAP1 POP PUSH2 0x2CA8 JUMP JUMPDEST PUSH3 0x8D18EF SWAP1 POP PUSH2 0x2CA8 JUMP JUMPDEST PUSH1 0x8B DUP3 SGT PUSH2 0x2430 JUMPI PUSH1 0x89 DUP3 SGT PUSH2 0x2412 JUMPI PUSH1 0x88 DUP3 SUB PUSH2 0x2407 JUMPI PUSH3 0x8EF90D SWAP1 POP PUSH2 0x2CA8 JUMP JUMPDEST PUSH3 0x90D92A SWAP1 POP PUSH2 0x2CA8 JUMP JUMPDEST PUSH1 0x8A DUP3 SUB PUSH2 0x2425 JUMPI PUSH3 0x92A948 SWAP1 POP PUSH2 0x2CA8 JUMP JUMPDEST PUSH3 0x948965 SWAP1 POP PUSH2 0x2CA8 JUMP JUMPDEST PUSH1 0x8D DUP3 SGT PUSH2 0x2456 JUMPI PUSH1 0x8C DUP3 SUB PUSH2 0x244B JUMPI PUSH3 0x965983 SWAP1 POP PUSH2 0x2CA8 JUMP JUMPDEST PUSH3 0x9839A0 SWAP1 POP PUSH2 0x2CA8 JUMP JUMPDEST PUSH1 0x8E DUP3 SUB PUSH2 0x2469 JUMPI PUSH3 0x9A09BD SWAP1 POP PUSH2 0x2CA8 JUMP JUMPDEST PUSH3 0x9BD9DB SWAP1 POP PUSH2 0x2CA8 JUMP JUMPDEST PUSH1 0x97 DUP3 SGT PUSH2 0x250C JUMPI PUSH1 0x93 DUP3 SGT PUSH2 0x24C8 JUMPI PUSH1 0x91 DUP3 SGT PUSH2 0x24AA JUMPI PUSH1 0x90 DUP3 SUB PUSH2 0x249F JUMPI PUSH3 0x9DB9F8 SWAP1 POP PUSH2 0x2CA8 JUMP JUMPDEST PUSH3 0x9F8A14 SWAP1 POP PUSH2 0x2CA8 JUMP JUMPDEST PUSH1 0x92 DUP3 SUB PUSH2 0x24BD JUMPI PUSH3 0xA14A31 SWAP1 POP PUSH2 0x2CA8 JUMP JUMPDEST PUSH3 0xA31A4E SWAP1 POP PUSH2 0x2CA8 JUMP JUMPDEST PUSH1 0x95 DUP3 SGT PUSH2 0x24EE JUMPI PUSH1 0x94 DUP3 SUB PUSH2 0x24E3 JUMPI PUSH3 0xA4EA6A SWAP1 POP PUSH2 0x2CA8 JUMP JUMPDEST PUSH3 0xA6AA87 SWAP1 POP PUSH2 0x2CA8 JUMP JUMPDEST PUSH1 0x96 DUP3 SUB PUSH2 0x2501 JUMPI PUSH3 0xA87AA3 SWAP1 POP PUSH2 0x2CA8 JUMP JUMPDEST PUSH3 0xAA3ABF SWAP1 POP PUSH2 0x2CA8 JUMP JUMPDEST PUSH1 0x9B DUP3 SGT PUSH2 0x2558 JUMPI PUSH1 0x99 DUP3 SGT PUSH2 0x253A JUMPI PUSH1 0x98 DUP3 SUB PUSH2 0x252F JUMPI PUSH3 0xABFADB SWAP1 POP PUSH2 0x2CA8 JUMP JUMPDEST PUSH3 0xADBAF6 SWAP1 POP PUSH2 0x2CA8 JUMP JUMPDEST PUSH1 0x9A DUP3 SUB PUSH2 0x254D JUMPI PUSH3 0xAF6B12 SWAP1 POP PUSH2 0x2CA8 JUMP JUMPDEST PUSH3 0xB12B2D SWAP1 POP PUSH2 0x2CA8 JUMP JUMPDEST PUSH1 0x9D DUP3 SGT PUSH2 0x257E JUMPI PUSH1 0x9C DUP3 SUB PUSH2 0x2573 JUMPI PUSH3 0xB2DB48 SWAP1 POP PUSH2 0x2CA8 JUMP JUMPDEST PUSH3 0xB48B63 SWAP1 POP PUSH2 0x2CA8 JUMP JUMPDEST PUSH1 0x9E DUP3 SUB PUSH2 0x2591 JUMPI PUSH3 0xB63B7E SWAP1 POP PUSH2 0x2CA8 JUMP JUMPDEST PUSH3 0xB7EB98 SWAP1 POP PUSH2 0x2CA8 JUMP JUMPDEST PUSH1 0xAF DUP3 SGT PUSH2 0x26CC JUMPI PUSH1 0xA7 DUP3 SGT PUSH2 0x263C JUMPI PUSH1 0xA3 DUP3 SGT PUSH2 0x25F8 JUMPI PUSH1 0xA1 DUP3 SGT PUSH2 0x25DA JUMPI PUSH1 0xA0 DUP3 SUB PUSH2 0x25CF JUMPI PUSH3 0xB98BB3 SWAP1 POP PUSH2 0x2CA8 JUMP JUMPDEST PUSH3 0xBB3BCD SWAP1 POP PUSH2 0x2CA8 JUMP JUMPDEST PUSH1 0xA2 DUP3 SUB PUSH2 0x25ED JUMPI PUSH3 0xBCDBE6 SWAP1 POP PUSH2 0x2CA8 JUMP JUMPDEST PUSH3 0xBE6C00 SWAP1 POP PUSH2 0x2CA8 JUMP JUMPDEST PUSH1 0xA5 DUP3 SGT PUSH2 0x261E JUMPI PUSH1 0xA4 DUP3 SUB PUSH2 0x2613 JUMPI PUSH3 0xC00C19 SWAP1 POP PUSH2 0x2CA8 JUMP JUMPDEST PUSH3 0xC19C32 SWAP1 POP PUSH2 0x2CA8 JUMP JUMPDEST PUSH1 0xA6 DUP3 SUB PUSH2 0x2631 JUMPI PUSH3 0xC32C4B SWAP1 POP PUSH2 0x2CA8 JUMP JUMPDEST PUSH3 0xC4BC64 SWAP1 POP PUSH2 0x2CA8 JUMP JUMPDEST PUSH1 0xAB DUP3 SGT PUSH2 0x2688 JUMPI PUSH1 0xA9 DUP3 SGT PUSH2 0x266A JUMPI PUSH1 0xA8 DUP3 SUB PUSH2 0x265F JUMPI PUSH3 0xC64C7C SWAP1 POP PUSH2 0x2CA8 JUMP JUMPDEST PUSH3 0xC7CC94 SWAP1 POP PUSH2 0x2CA8 JUMP JUMPDEST PUSH1 0xAA DUP3 SUB PUSH2 0x267D JUMPI PUSH3 0xC94CAC SWAP1 POP PUSH2 0x2CA8 JUMP JUMPDEST PUSH3 0xCACCC3 SWAP1 POP PUSH2 0x2CA8 JUMP JUMPDEST PUSH1 0xAD DUP3 SGT PUSH2 0x26AE JUMPI PUSH1 0xAC DUP3 SUB PUSH2 0x26A3 JUMPI PUSH3 0xCC3CDA SWAP1 POP PUSH2 0x2CA8 JUMP JUMPDEST PUSH3 0xCDACF1 SWAP1 POP PUSH2 0x2CA8 JUMP JUMPDEST PUSH1 0xAE DUP3 SUB PUSH2 0x26C1 JUMPI PUSH3 0xCF1D08 SWAP1 POP PUSH2 0x2CA8 JUMP JUMPDEST PUSH3 0xD08D1E SWAP1 POP PUSH2 0x2CA8 JUMP JUMPDEST PUSH1 0xB7 DUP3 SGT PUSH2 0x2764 JUMPI PUSH1 0xB3 DUP3 SGT PUSH2 0x2720 JUMPI PUSH1 0xB1 DUP3 SGT PUSH2 0x2702 JUMPI PUSH1 0xB0 DUP3 SUB PUSH2 0x26F7 JUMPI PUSH3 0xD1ED34 SWAP1 POP PUSH2 0x2CA8 JUMP JUMPDEST PUSH3 0xD34D4A SWAP1 POP PUSH2 0x2CA8 JUMP JUMPDEST PUSH1 0xB2 DUP3 SUB PUSH2 0x2715 JUMPI PUSH3 0xD4AD5F SWAP1 POP PUSH2 0x2CA8 JUMP JUMPDEST PUSH3 0xD5FD74 SWAP1 POP PUSH2 0x2CA8 JUMP JUMPDEST PUSH1 0xB5 DUP3 SGT PUSH2 0x2746 JUMPI PUSH1 0xB4 DUP3 SUB PUSH2 0x273B JUMPI PUSH3 0xD74D89 SWAP1 POP PUSH2 0x2CA8 JUMP JUMPDEST PUSH3 0xD89D9E SWAP1 POP PUSH2 0x2CA8 JUMP JUMPDEST PUSH1 0xB6 DUP3 SUB PUSH2 0x2759 JUMPI PUSH3 0xD9EDB2 SWAP1 POP PUSH2 0x2CA8 JUMP JUMPDEST PUSH3 0xDB2DC5 SWAP1 POP PUSH2 0x2CA8 JUMP JUMPDEST PUSH1 0xBB DUP3 SGT PUSH2 0x27B0 JUMPI PUSH1 0xB9 DUP3 SGT PUSH2 0x2792 JUMPI PUSH1 0xB8 DUP3 SUB PUSH2 0x2787 JUMPI PUSH3 0xDC5DD9 SWAP1 POP PUSH2 0x2CA8 JUMP JUMPDEST PUSH3 0xDD9DEC SWAP1 POP PUSH2 0x2CA8 JUMP JUMPDEST PUSH1 0xBA DUP3 SUB PUSH2 0x27A5 JUMPI PUSH3 0xDECDFF SWAP1 POP PUSH2 0x2CA8 JUMP JUMPDEST PUSH3 0xDFFE11 SWAP1 POP PUSH2 0x2CA8 JUMP JUMPDEST PUSH1 0xBD DUP3 SGT PUSH2 0x27D6 JUMPI PUSH1 0xBC DUP3 SUB PUSH2 0x27CB JUMPI PUSH3 0xE11E23 SWAP1 POP PUSH2 0x2CA8 JUMP JUMPDEST PUSH3 0xE23E35 SWAP1 POP PUSH2 0x2CA8 JUMP JUMPDEST PUSH1 0xBE DUP3 SUB PUSH2 0x27E9 JUMPI PUSH3 0xE35E46 SWAP1 POP PUSH2 0x2CA8 JUMP JUMPDEST PUSH3 0xE46E58 SWAP1 POP PUSH2 0x2CA8 JUMP JUMPDEST PUSH1 0xDF DUP3 SGT PUSH2 0x2A54 JUMPI PUSH1 0xCF DUP3 SGT PUSH2 0x292C JUMPI PUSH1 0xC7 DUP3 SGT PUSH2 0x289C JUMPI PUSH1 0xC3 DUP3 SGT PUSH2 0x2858 JUMPI PUSH1 0xC1 DUP3 SGT PUSH2 0x283A JUMPI PUSH1 0xC0 DUP3 SUB PUSH2 0x282F JUMPI PUSH3 0xE58E68 SWAP1 POP PUSH2 0x2CA8 JUMP JUMPDEST PUSH3 0xE68E79 SWAP1 POP PUSH2 0x2CA8 JUMP JUMPDEST PUSH1 0xC2 DUP3 SUB PUSH2 0x284D JUMPI PUSH3 0xE79E89 SWAP1 POP PUSH2 0x2CA8 JUMP JUMPDEST PUSH3 0xE89E98 SWAP1 POP PUSH2 0x2CA8 JUMP JUMPDEST PUSH1 0xC5 DUP3 SGT PUSH2 0x287E JUMPI PUSH1 0xC4 DUP3 SUB PUSH2 0x2873 JUMPI PUSH3 0xE98EA7 SWAP1 POP PUSH2 0x2CA8 JUMP JUMPDEST PUSH3 0xEA7EB6 SWAP1 POP PUSH2 0x2CA8 JUMP JUMPDEST PUSH1 0xC6 DUP3 SUB PUSH2 0x2891 JUMPI PUSH3 0xEB6EC5 SWAP1 POP PUSH2 0x2CA8 JUMP JUMPDEST PUSH3 0xEC5ED3 SWAP1 POP PUSH2 0x2CA8 JUMP JUMPDEST PUSH1 0xCB DUP3 SGT PUSH2 0x28E8 JUMPI PUSH1 0xC9 DUP3 SGT PUSH2 0x28CA JUMPI PUSH1 0xC8 DUP3 SUB PUSH2 0x28BF JUMPI PUSH3 0xED3EE1 SWAP1 POP PUSH2 0x2CA8 JUMP JUMPDEST PUSH3 0xEE1EEE SWAP1 POP PUSH2 0x2CA8 JUMP JUMPDEST PUSH1 0xCA DUP3 SUB PUSH2 0x28DD JUMPI PUSH3 0xEEEEFC SWAP1 POP PUSH2 0x2CA8 JUMP JUMPDEST PUSH3 0xEFCF08 SWAP1 POP PUSH2 0x2CA8 JUMP JUMPDEST PUSH1 0xCD DUP3 SGT PUSH2 0x290E JUMPI PUSH1 0xCC DUP3 SUB PUSH2 0x2903 JUMPI PUSH3 0xF08F15 SWAP1 POP PUSH2 0x2CA8 JUMP JUMPDEST PUSH3 0xF15F21 SWAP1 POP PUSH2 0x2CA8 JUMP JUMPDEST PUSH1 0xCE DUP3 SUB PUSH2 0x2921 JUMPI PUSH3 0xF21F2C SWAP1 POP PUSH2 0x2CA8 JUMP JUMPDEST PUSH3 0xF2CF38 SWAP1 POP PUSH2 0x2CA8 JUMP JUMPDEST PUSH1 0xD7 DUP3 SGT PUSH2 0x29C4 JUMPI PUSH1 0xD3 DUP3 SGT PUSH2 0x2980 JUMPI PUSH1 0xD1 DUP3 SGT PUSH2 0x2962 JUMPI PUSH1 0xD0 DUP3 SUB PUSH2 0x2957 JUMPI PUSH3 0xF38F43 SWAP1 POP PUSH2 0x2CA8 JUMP JUMPDEST PUSH3 0xF43F4D SWAP1 POP PUSH2 0x2CA8 JUMP JUMPDEST PUSH1 0xD2 DUP3 SUB PUSH2 0x2975 JUMPI PUSH3 0xF4DF58 SWAP1 POP PUSH2 0x2CA8 JUMP JUMPDEST PUSH3 0xF58F61 SWAP1 POP PUSH2 0x2CA8 JUMP JUMPDEST PUSH1 0xD5 DUP3 SGT PUSH2 0x29A6 JUMPI PUSH1 0xD4 DUP3 SUB PUSH2 0x299B JUMPI PUSH3 0xF61F6B SWAP1 POP PUSH2 0x2CA8 JUMP JUMPDEST PUSH3 0xF6BF74 SWAP1 POP PUSH2 0x2CA8 JUMP JUMPDEST PUSH1 0xD6 DUP3 SUB PUSH2 0x29B9 JUMPI PUSH3 0xF74F7D SWAP1 POP PUSH2 0x2CA8 JUMP JUMPDEST PUSH3 0xF7DF86 SWAP1 POP PUSH2 0x2CA8 JUMP JUMPDEST PUSH1 0xDB DUP3 SGT PUSH2 0x2A10 JUMPI PUSH1 0xD9 DUP3 SGT PUSH2 0x29F2 JUMPI PUSH1 0xD8 DUP3 SUB PUSH2 0x29E7 JUMPI PUSH3 0xF86F8E SWAP1 POP PUSH2 0x2CA8 JUMP JUMPDEST PUSH3 0xF8EF96 SWAP1 POP PUSH2 0x2CA8 JUMP JUMPDEST PUSH1 0xDA DUP3 SUB PUSH2 0x2A05 JUMPI PUSH3 0xF96F9D SWAP1 POP PUSH2 0x2CA8 JUMP JUMPDEST PUSH3 0xF9DFA4 SWAP1 POP PUSH2 0x2CA8 JUMP JUMPDEST PUSH1 0xDD DUP3 SGT PUSH2 0x2A36 JUMPI PUSH1 0xDC DUP3 SUB PUSH2 0x2A2B JUMPI PUSH3 0xFA4FAB SWAP1 POP PUSH2 0x2CA8 JUMP JUMPDEST PUSH3 0xFABFB2 SWAP1 POP PUSH2 0x2CA8 JUMP JUMPDEST PUSH1 0xDE DUP3 SUB PUSH2 0x2A49 JUMPI PUSH3 0xFB2FB8 SWAP1 POP PUSH2 0x2CA8 JUMP JUMPDEST PUSH3 0xFB8FBE SWAP1 POP PUSH2 0x2CA8 JUMP JUMPDEST PUSH1 0xEF DUP3 SGT PUSH2 0x2B84 JUMPI PUSH1 0xE7 DUP3 SGT PUSH2 0x2AF4 JUMPI PUSH1 0xE3 DUP3 SGT PUSH2 0x2AB0 JUMPI PUSH1 0xE1 DUP3 SGT PUSH2 0x2A92 JUMPI PUSH1 0xE0 DUP3 SUB PUSH2 0x2A87 JUMPI PUSH3 0xFBEFC3 SWAP1 POP PUSH2 0x2CA8 JUMP JUMPDEST PUSH3 0xFC3FC9 SWAP1 POP PUSH2 0x2CA8 JUMP JUMPDEST PUSH1 0xE2 DUP3 SUB PUSH2 0x2AA5 JUMPI PUSH3 0xFC9FCE SWAP1 POP PUSH2 0x2CA8 JUMP JUMPDEST PUSH3 0xFCEFD2 SWAP1 POP PUSH2 0x2CA8 JUMP JUMPDEST PUSH1 0xE5 DUP3 SGT PUSH2 0x2AD6 JUMPI PUSH1 0xE4 DUP3 SUB PUSH2 0x2ACB JUMPI PUSH3 0xFD2FD7 SWAP1 POP PUSH2 0x2CA8 JUMP JUMPDEST PUSH3 0xFD7FDB SWAP1 POP PUSH2 0x2CA8 JUMP JUMPDEST PUSH1 0xE6 DUP3 SUB PUSH2 0x2AE9 JUMPI PUSH3 0xFDBFDF SWAP1 POP PUSH2 0x2CA8 JUMP JUMPDEST PUSH3 0xFDFFE2 SWAP1 POP PUSH2 0x2CA8 JUMP JUMPDEST PUSH1 0xEB DUP3 SGT PUSH2 0x2B40 JUMPI PUSH1 0xE9 DUP3 SGT PUSH2 0x2B22 JUMPI PUSH1 0xE8 DUP3 SUB PUSH2 0x2B17 JUMPI PUSH3 0xFE2FE6 SWAP1 POP PUSH2 0x2CA8 JUMP JUMPDEST PUSH3 0xFE6FE9 SWAP1 POP PUSH2 0x2CA8 JUMP JUMPDEST PUSH1 0xEA DUP3 SUB PUSH2 0x2B35 JUMPI PUSH3 0xFE9FEC SWAP1 POP PUSH2 0x2CA8 JUMP JUMPDEST PUSH3 0xFECFEE SWAP1 POP PUSH2 0x2CA8 JUMP JUMPDEST PUSH1 0xED DUP3 SGT PUSH2 0x2B66 JUMPI PUSH1 0xEC DUP3 SUB PUSH2 0x2B5B JUMPI PUSH3 0xFEEFF1 SWAP1 POP PUSH2 0x2CA8 JUMP JUMPDEST PUSH3 0xFF1FF3 SWAP1 POP PUSH2 0x2CA8 JUMP JUMPDEST PUSH1 0xEE DUP3 SUB PUSH2 0x2B79 JUMPI PUSH3 0xFF3FF5 SWAP1 POP PUSH2 0x2CA8 JUMP JUMPDEST PUSH3 0xFF5FF6 SWAP1 POP PUSH2 0x2CA8 JUMP JUMPDEST PUSH1 0xF7 DUP3 SGT PUSH2 0x2C1C JUMPI PUSH1 0xF3 DUP3 SGT PUSH2 0x2BD8 JUMPI PUSH1 0xF1 DUP3 SGT PUSH2 0x2BBA JUMPI PUSH1 0xF0 DUP3 SUB PUSH2 0x2BAF JUMPI PUSH3 0xFF6FF8 SWAP1 POP PUSH2 0x2CA8 JUMP JUMPDEST PUSH3 0xFF8FF9 SWAP1 POP PUSH2 0x2CA8 JUMP JUMPDEST PUSH1 0xF2 DUP3 SUB PUSH2 0x2BCD JUMPI PUSH3 0xFF9FFB SWAP1 POP PUSH2 0x2CA8 JUMP JUMPDEST PUSH3 0xFFBFFC SWAP1 POP PUSH2 0x2CA8 JUMP JUMPDEST PUSH1 0xF5 DUP3 SGT PUSH2 0x2BFE JUMPI PUSH1 0xF4 DUP3 SUB PUSH2 0x2BF3 JUMPI PUSH3 0xFFCFFC SWAP1 POP PUSH2 0x2CA8 JUMP JUMPDEST PUSH3 0xFFCFFD SWAP1 POP PUSH2 0x2CA8 JUMP JUMPDEST PUSH1 0xF6 DUP3 SUB PUSH2 0x2C11 JUMPI PUSH3 0xFFDFFE SWAP1 POP PUSH2 0x2CA8 JUMP JUMPDEST PUSH3 0xFFEFFE SWAP1 POP PUSH2 0x2CA8 JUMP JUMPDEST PUSH1 0xFB DUP3 SGT PUSH2 0x2C68 JUMPI PUSH1 0xF9 DUP3 SGT PUSH2 0x2C4A JUMPI PUSH1 0xF8 DUP3 SUB PUSH2 0x2C3F JUMPI PUSH3 0xFFEFFF SWAP1 POP PUSH2 0x2CA8 JUMP JUMPDEST PUSH3 0xFFFFFF SWAP1 POP PUSH2 0x2CA8 JUMP JUMPDEST PUSH1 0xFA DUP3 SUB PUSH2 0x2C5D JUMPI PUSH3 0xFFFFFF SWAP1 POP PUSH2 0x2CA8 JUMP JUMPDEST PUSH3 0xFFFFFF SWAP1 POP PUSH2 0x2CA8 JUMP JUMPDEST PUSH1 0xFD DUP3 SGT PUSH2 0x2C8E JUMPI PUSH1 0xFC DUP3 SUB PUSH2 0x2C83 JUMPI PUSH3 0xFFFFFF SWAP1 POP PUSH2 0x2CA8 JUMP JUMPDEST PUSH3 0xFFFFFF SWAP1 POP PUSH2 0x2CA8 JUMP JUMPDEST PUSH1 0xFE DUP3 SUB PUSH2 0x2CA1 JUMPI PUSH3 0xFFFFFF SWAP1 POP PUSH2 0x2CA8 JUMP JUMPDEST PUSH3 0xFFFFFF SWAP1 POP JUMPDEST SWAP2 SWAP1 POP JUMP JUMPDEST PUSH1 0x0 DUP1 REVERT JUMPDEST PUSH1 0x0 DUP2 SWAP1 POP SWAP2 SWAP1 POP JUMP JUMPDEST PUSH2 0x2CC5 DUP2 PUSH2 0x2CB2 JUMP JUMPDEST DUP2 EQ PUSH2 0x2CD0 JUMPI PUSH1 0x0 DUP1 REVERT JUMPDEST POP JUMP JUMPDEST PUSH1 0x0 DUP2 CALLDATALOAD SWAP1 POP PUSH2 0x2CE2 DUP2 PUSH2 0x2CBC JUMP JUMPDEST SWAP3 SWAP2 POP POP JUMP JUMPDEST PUSH1 0x0 DUP1 PUSH1 0x0 PUSH1 0x60 DUP5 DUP7 SUB SLT ISZERO PUSH2 0x2D01 JUMPI PUSH2 0x2D00 PUSH2 0x2CAD JUMP JUMPDEST JUMPDEST PUSH1 0x0 PUSH2 0x2D0F DUP7 DUP3 DUP8 ADD PUSH2 0x2CD3 JUMP JUMPDEST SWAP4 POP POP PUSH1 0x20 PUSH2 0x2D20 DUP7 DUP3 DUP8 ADD PUSH2 0x2CD3 JUMP JUMPDEST SWAP3 POP POP PUSH1 0x40 PUSH2 0x2D31 DUP7 DUP3 DUP8 ADD PUSH2 0x2CD3 JUMP JUMPDEST SWAP2 POP POP SWAP3 POP SWAP3 POP SWAP3 JUMP JUMPDEST PUSH2 0x2D44 DUP2 PUSH2 0x2CB2 JUMP JUMPDEST DUP3 MSTORE POP POP JUMP JUMPDEST PUSH1 0x0 PUSH1 0x20 DUP3 ADD SWAP1 POP PUSH2 0x2D5F PUSH1 0x0 DUP4 ADD DUP5 PUSH2 0x2D3B JUMP JUMPDEST SWAP3 SWAP2 POP POP JUMP JUMPDEST PUSH1 0x0 DUP1 PUSH1 0x40 DUP4 DUP6 SUB SLT ISZERO PUSH2 0x2D7C JUMPI PUSH2 0x2D7B PUSH2 0x2CAD JUMP JUMPDEST JUMPDEST PUSH1 0x0 PUSH2 0x2D8A DUP6 DUP3 DUP7 ADD PUSH2 0x2CD3 JUMP JUMPDEST SWAP3 POP POP PUSH1 0x20 PUSH2 0x2D9B DUP6 DUP3 DUP7 ADD PUSH2 0x2CD3 JUMP JUMPDEST SWAP2 POP POP SWAP3 POP SWAP3 SWAP1 POP JUMP JUMPDEST PUSH32 0x4E487B7100000000000000000000000000000000000000000000000000000000 PUSH1 0x0 MSTORE PUSH1 0x32 PUSH1 0x4 MSTORE PUSH1 0x24 PUSH1 0x0 REVERT JUMPDEST PUSH32 0x4E487B7100000000000000000000000000000000000000000000000000000000 PUSH1 0x0 MSTORE PUSH1 0x11 PUSH1 0x4 MSTORE PUSH1 0x24 PUSH1 0x0 REVERT JUMPDEST PUSH1 0x0 PUSH2 0x2E0E DUP3 PUSH2 0x2CB2 JUMP JUMPDEST SWAP2 POP PUSH2 0x2E19 DUP4 PUSH2 0x2CB2 JUMP JUMPDEST SWAP3 POP DUP3 DUP3 ADD SWAP1 POP DUP3 DUP2 SLT ISZERO PUSH1 0x0 DUP4 SLT AND DUP4 DUP3 SLT PUSH1 0x0 DUP5 SLT ISZERO AND OR ISZERO PUSH2 0x2E41 JUMPI PUSH2 0x2E40 PUSH2 0x2DD4 JUMP JUMPDEST JUMPDEST SWAP3 SWAP2 POP POP JUMP JUMPDEST PUSH1 0x0 PUSH2 0x2E52 DUP3 PUSH2 0x2CB2 JUMP JUMPDEST SWAP2 POP PUSH2 0x2E5D DUP4 PUSH2 0x2CB2 JUMP JUMPDEST SWAP3 POP DUP3 DUP3 SUB SWAP1 POP DUP2 DUP2 SLT PUSH1 0x0 DUP5 SLT AND DUP3 DUP3 SGT PUSH1 0x0 DUP6 SLT ISZERO AND OR ISZERO PUSH2 0x2E84 JUMPI PUSH2 0x2E83 PUSH2 0x2DD4 JUMP JUMPDEST JUMPDEST SWAP3 SWAP2 POP POP JUMP JUMPDEST PUSH1 0x0 PUSH2 0x2E95 DUP3 PUSH2 0x2CB2 JUMP JUMPDEST SWAP2 POP PUSH2 0x2EA0 DUP4 PUSH2 0x2CB2 JUMP JUMPDEST SWAP3 POP DUP3 DUP3 MUL PUSH2 0x2EAE DUP2 PUSH2 0x2CB2 JUMP JUMPDEST SWAP2 POP PUSH32 0x8000000000000000000000000000000000000000000000000000000000000000 DUP5 EQ PUSH1 0x0 DUP5 SLT AND ISZERO PUSH2 0x2EE6 JUMPI PUSH2 0x2EE5 PUSH2 0x2DD4 JUMP JUMPDEST JUMPDEST DUP3 DUP3 SDIV DUP5 EQ DUP4 ISZERO OR PUSH2 0x2EFB JUMPI PUSH2 0x2EFA PUSH2 0x2DD4 JUMP JUMPDEST JUMPDEST POP SWAP3 SWAP2 POP POP JUMP JUMPDEST PUSH1 0x0 PUSH2 0x2F0D DUP3 PUSH2 0x2CB2 JUMP JUMPDEST SWAP2 POP PUSH32 0x8000000000000000000000000000000000000000000000000000000000000000 DUP3 SUB PUSH2 0x2F3F JUMPI PUSH2 0x2F3E PUSH2 0x2DD4 JUMP JUMPDEST JUMPDEST DUP2 PUSH1 0x0 SUB SWAP1 POP SWAP2 SWAP1 POP JUMP INVALID LOG2 PUSH5 0x6970667358 0x22 SLT KECCAK256 PC DUP8 0xEE LOG4 EXTCODESIZE 0xD DUP7 JUMPI 0xAB 0xA5 0xE8 AND EXTCODECOPY 0x2C CREATE2 DUP2 LT 0x25 CREATE2 0x21 SMOD SWAP10 PUSH21 0xF9C30E5E5917B353FF64736F6C6343000812003300 "
		},
		"gasEstimates": {
			"creation": {
				"codeDepositCost": "2432000",
				"executionCost": "2642",
				"totalCost": "2434642"
			},
			"external": {
				"noise2d(int256,int256)": "infinite",
				"noise3d(int256,int256,int256)": "infinite"
			},
			"internal": {
				"fade(int256)": "infinite",
				"ftable(int256)": "223",
				"grad2(int256,int256,int256)": "infinite",
				"grad3(int256,int256,int256,int256)": "infinite",
				"lerp(int256,int256,int256)": "infinite",
				"ptable(int256)": "237"
			}
		},
		"methodIdentifiers": {
			"noise2d(int256,int256)": "70ab32b3",
			"noise3d(int256,int256,int256)": "657d14d1"
		}
	},
	"abi": [
		{
			"inputs": [
				{
					"internalType": "int256",
					"name": "x",
					"type": "int256"
				},
				{
					"internalType": "int256",
					"name": "y",
					"type": "int256"
				}
			],
			"name": "noise2d",
			"outputs": [
				{
					"internalType": "int256",
					"name": "",
					"type": "int256"
				}
			],
			"stateMutability": "pure",
			"type": "function"
		},
		{
			"inputs": [
				{
					"internalType": "int256",
					"name": "x",
					"type": "int256"
				},
				{
					"internalType": "int256",
					"name": "y",
					"type": "int256"
				},
				{
					"internalType": "int256",
					"name": "z",
					"type": "int256"
				}
			],
			"name": "noise3d",
			"outputs": [
				{
					"internalType": "int256",
					"name": "",
					"type": "int256"
				}
			],
			"stateMutability": "pure",
			"type": "function"
		}
	]
}