{
	"contracts/libraries/Perlin.sol": {
		"Perlin": {
			"abi": [
				{
					"inputs": [
						{
							"internalType": "uint32",
							"name": "x",
							"type": "uint32"
						},
						{
							"internalType": "uint32",
							"name": "y",
							"type": "uint32"
						},
						{
							"internalType": "uint32",
							"name": "seed",
							"type": "uint32"
						},
						{
							"internalType": "uint32",
							"name": "scale",
							"type": "uint32"
						}
					],
					"name": "computePerlin",
					"outputs": [
						{
							"internalType": "uint256",
							"name": "",
							"type": "uint256"
						}
					],
					"stateMutability": "pure",
					"type": "function"
				},
				{
					"inputs": [
						{
							"internalType": "uint32",
							"name": "x",
							"type": "uint32"
						},
						{
							"internalType": "uint32",
							"name": "y",
							"type": "uint32"
						},
						{
							"internalType": "uint32",
							"name": "scale",
							"type": "uint32"
						}
					],
					"name": "getCorners",
					"outputs": [
						{
							"internalType": "uint32[2][4]",
							"name": "",
							"type": "uint32[2][4]"
						}
					],
					"stateMutability": "pure",
					"type": "function"
				},
				{
					"inputs": [
						{
							"internalType": "uint32",
							"name": "x",
							"type": "uint32"
						},
						{
							"internalType": "uint32",
							"name": "y",
							"type": "uint32"
						},
						{
							"internalType": "uint32",
							"name": "scale",
							"type": "uint32"
						},
						{
							"internalType": "uint32",
							"name": "seed",
							"type": "uint32"
						}
					],
					"name": "getGradientAt",
					"outputs": [
						{
							"internalType": "int16[2]",
							"name": "",
							"type": "int16[2]"
						}
					],
					"stateMutability": "pure",
					"type": "function"
				},
				{
					"inputs": [
						{
							"internalType": "uint32",
							"name": "x",
							"type": "uint32"
						},
						{
							"internalType": "uint32",
							"name": "y",
							"type": "uint32"
						},
						{
							"internalType": "uint32",
							"name": "scale",
							"type": "uint32"
						},
						{
							"internalType": "uint32",
							"name": "seed",
							"type": "uint32"
						}
					],
					"name": "getSingleScalePerlin",
					"outputs": [
						{
							"internalType": "int128",
							"name": "",
							"type": "int128"
						}
					],
					"stateMutability": "pure",
					"type": "function"
				},
				{
					"inputs": [
						{
							"internalType": "uint32",
							"name": "cornerX",
							"type": "uint32"
						},
						{
							"internalType": "uint32",
							"name": "cornerY",
							"type": "uint32"
						},
						{
							"internalType": "uint32",
							"name": "x",
							"type": "uint32"
						},
						{
							"internalType": "uint32",
							"name": "y",
							"type": "uint32"
						},
						{
							"internalType": "uint32",
							"name": "scale",
							"type": "uint32"
						}
					],
					"name": "getWeight",
					"outputs": [
						{
							"internalType": "uint64",
							"name": "",
							"type": "uint64"
						}
					],
					"stateMutability": "pure",
					"type": "function"
				},
				{
					"inputs": [
						{
							"internalType": "int128",
							"name": "x",
							"type": "int128"
						}
					],
					"name": "smoothStep",
					"outputs": [
						{
							"internalType": "int128",
							"name": "",
							"type": "int128"
						}
					],
					"stateMutability": "pure",
					"type": "function"
				}
			],
			"devdoc": {
				"kind": "dev",
				"methods": {},
				"version": 1
			},
			"evm": {
				"assembly": "    /* \"contracts/libraries/Perlin.sol\":110:4463  library Perlin {... */\n  dataSize(sub_0)\n  dataOffset(sub_0)\n  0x0b\n  dup3\n  dup3\n  dup3\n  codecopy\n  dup1\n  mload\n  0x00\n  byte\n  0x73\n  eq\n  tag_1\n  jumpi\n  mstore(0x00, 0x4e487b7100000000000000000000000000000000000000000000000000000000)\n  mstore(0x04, 0x00)\n  revert(0x00, 0x24)\ntag_1:\n  mstore(0x00, address)\n  0x73\n  dup2\n  mstore8\n  dup3\n  dup2\n  return\nstop\n\nsub_0: assembly {\n        /* \"contracts/libraries/Perlin.sol\":110:4463  library Perlin {... */\n      eq(address, deployTimeAddress())\n      mstore(0x40, 0x80)\n      jumpi(tag_1, lt(calldatasize, 0x04))\n      shr(0xe0, calldataload(0x00))\n      dup1\n      0x229d0588\n      eq\n      tag_2\n      jumpi\n      dup1\n      0x22efde0a\n      eq\n      tag_3\n      jumpi\n      dup1\n      0x93f32993\n      eq\n      tag_4\n      jumpi\n      dup1\n      0xb9576c35\n      eq\n      tag_5\n      jumpi\n      dup1\n      0xd15eb0d5\n      eq\n      tag_6\n      jumpi\n      dup1\n      0xe7075187\n      eq\n      tag_7\n      jumpi\n    tag_1:\n      0x00\n      dup1\n      revert\n        /* \"contracts/libraries/Perlin.sol\":3638:4461  function computePerlin(... */\n    tag_2:\n      tag_8\n      0x04\n      dup1\n      calldatasize\n      sub\n      dup2\n      add\n      swap1\n      tag_9\n      swap2\n      swap1\n      tag_10\n      jump\t// in\n    tag_9:\n      tag_11\n      jump\t// in\n    tag_8:\n      mload(0x40)\n      tag_12\n      swap2\n      swap1\n      tag_13\n      jump\t// in\n    tag_12:\n      mload(0x40)\n      dup1\n      swap2\n      sub\n      swap1\n      return\n        /* \"contracts/libraries/Perlin.sol\":2426:3632  function getSingleScalePerlin(... */\n    tag_3:\n      tag_14\n      0x04\n      dup1\n      calldatasize\n      sub\n      dup2\n      add\n      swap1\n      tag_15\n      swap2\n      swap1\n      tag_10\n      jump\t// in\n    tag_15:\n      tag_16\n      jump\t// in\n    tag_14:\n      mload(0x40)\n      tag_17\n      swap2\n      swap1\n      tag_18\n      jump\t// in\n    tag_17:\n      mload(0x40)\n      dup1\n      swap2\n      sub\n      swap1\n      return\n        /* \"contracts/libraries/Perlin.sol\":437:1366  function getGradientAt(... */\n    tag_4:\n      tag_19\n      0x04\n      dup1\n      calldatasize\n      sub\n      dup2\n      add\n      swap1\n      tag_20\n      swap2\n      swap1\n      tag_10\n      jump\t// in\n    tag_20:\n      tag_21\n      jump\t// in\n    tag_19:\n      mload(0x40)\n      tag_22\n      swap2\n      swap1\n      tag_23\n      jump\t// in\n    tag_22:\n      mload(0x40)\n      dup1\n      swap2\n      sub\n      swap1\n      return\n        /* \"contracts/libraries/Perlin.sol\":1593:2011  function getWeight(... */\n    tag_5:\n      tag_24\n      0x04\n      dup1\n      calldatasize\n      sub\n      dup2\n      add\n      swap1\n      tag_25\n      swap2\n      swap1\n      tag_26\n      jump\t// in\n    tag_25:\n      tag_27\n      jump\t// in\n    tag_24:\n      mload(0x40)\n      tag_28\n      swap2\n      swap1\n      tag_29\n      jump\t// in\n    tag_28:\n      mload(0x40)\n      dup1\n      swap2\n      sub\n      swap1\n      return\n        /* \"contracts/libraries/Perlin.sol\":2017:2420  function getCorners(... */\n    tag_6:\n      tag_30\n      0x04\n      dup1\n      calldatasize\n      sub\n      dup2\n      add\n      swap1\n      tag_31\n      swap2\n      swap1\n      tag_32\n      jump\t// in\n    tag_31:\n      tag_33\n      jump\t// in\n    tag_30:\n      mload(0x40)\n      tag_34\n      swap2\n      swap1\n      tag_35\n      jump\t// in\n    tag_34:\n      mload(0x40)\n      dup1\n      swap2\n      sub\n      swap1\n      return\n        /* \"contracts/libraries/Perlin.sol\":270:354  function smoothStep(int128 x) public pure returns (int128) {... */\n    tag_7:\n      tag_36\n      0x04\n      dup1\n      calldatasize\n      sub\n      dup2\n      add\n      swap1\n      tag_37\n      swap2\n      swap1\n      tag_38\n      jump\t// in\n    tag_37:\n      tag_39\n      jump\t// in\n    tag_36:\n      mload(0x40)\n      tag_40\n      swap2\n      swap1\n      tag_18\n      jump\t// in\n    tag_40:\n      mload(0x40)\n      dup1\n      swap2\n      sub\n      swap1\n      return\n        /* \"contracts/libraries/Perlin.sol\":3638:4461  function computePerlin(... */\n    tag_11:\n        /* \"contracts/libraries/Perlin.sol\":3767:3774  uint256 */\n      0x00\n        /* \"contracts/libraries/Perlin.sol\":3786:3799  int128 perlin */\n      dup1\n        /* \"contracts/libraries/Perlin.sol\":3802:3827  ABDKMath64x64.fromUInt(0) */\n      tag_42\n        /* \"contracts/libraries/Perlin.sol\":3825:3826  0 */\n      0x00\n        /* \"contracts/libraries/Perlin.sol\":3802:3824  ABDKMath64x64.fromUInt */\n      tag_43\n        /* \"contracts/libraries/Perlin.sol\":3802:3827  ABDKMath64x64.fromUInt(0) */\n      jump\t// in\n    tag_42:\n        /* \"contracts/libraries/Perlin.sol\":3786:3827  int128 perlin = ABDKMath64x64.fromUInt(0) */\n      swap1\n      pop\n        /* \"contracts/libraries/Perlin.sol\":3843:3850  uint8 i */\n      0x00\n        /* \"contracts/libraries/Perlin.sol\":3838:4009  for (uint8 i = 0; i < 3; i++) {... */\n    tag_44:\n        /* \"contracts/libraries/Perlin.sol\":3860:3861  3 */\n      0x03\n        /* \"contracts/libraries/Perlin.sol\":3856:3857  i */\n      dup2\n        /* \"contracts/libraries/Perlin.sol\":3856:3861  i < 3 */\n      0xff\n      and\n      lt\n        /* \"contracts/libraries/Perlin.sol\":3838:4009  for (uint8 i = 0; i < 3; i++) {... */\n      iszero\n      tag_45\n      jumpi\n        /* \"contracts/libraries/Perlin.sol\":3882:3890  int128 v */\n      0x00\n        /* \"contracts/libraries/Perlin.sol\":3893:3947  getSingleScalePerlin(x, y, scale * uint32(2**i), seed) */\n      tag_47\n        /* \"contracts/libraries/Perlin.sol\":3914:3915  x */\n      dup9\n        /* \"contracts/libraries/Perlin.sol\":3917:3918  y */\n      dup9\n        /* \"contracts/libraries/Perlin.sol\":3938:3939  i */\n      dup5\n        /* \"contracts/libraries/Perlin.sol\":3935:3936  2 */\n      0x02\n        /* \"contracts/libraries/Perlin.sol\":3935:3939  2**i */\n      tag_48\n      swap2\n      swap1\n      tag_49\n      jump\t// in\n    tag_48:\n        /* \"contracts/libraries/Perlin.sol\":3920:3925  scale */\n      dup9\n        /* \"contracts/libraries/Perlin.sol\":3920:3940  scale * uint32(2**i) */\n      tag_50\n      swap2\n      swap1\n      tag_51\n      jump\t// in\n    tag_50:\n        /* \"contracts/libraries/Perlin.sol\":3942:3946  seed */\n      dup10\n        /* \"contracts/libraries/Perlin.sol\":3893:3913  getSingleScalePerlin */\n      tag_16\n        /* \"contracts/libraries/Perlin.sol\":3893:3947  getSingleScalePerlin(x, y, scale * uint32(2**i), seed) */\n      jump\t// in\n    tag_47:\n        /* \"contracts/libraries/Perlin.sol\":3882:3947  int128 v = getSingleScalePerlin(x, y, scale * uint32(2**i), seed) */\n      swap1\n      pop\n        /* \"contracts/libraries/Perlin.sol\":3970:3998  ABDKMath64x64.add(perlin, v) */\n      tag_52\n        /* \"contracts/libraries/Perlin.sol\":3988:3994  perlin */\n      dup4\n        /* \"contracts/libraries/Perlin.sol\":3996:3997  v */\n      dup3\n        /* \"contracts/libraries/Perlin.sol\":3970:3987  ABDKMath64x64.add */\n      tag_53\n        /* \"contracts/libraries/Perlin.sol\":3970:3998  ABDKMath64x64.add(perlin, v) */\n      jump\t// in\n    tag_52:\n        /* \"contracts/libraries/Perlin.sol\":3961:3998  perlin = ABDKMath64x64.add(perlin, v) */\n      swap3\n      pop\n        /* \"contracts/libraries/Perlin.sol\":3868:4009  {... */\n      pop\n        /* \"contracts/libraries/Perlin.sol\":3863:3866  i++ */\n      dup1\n      dup1\n      tag_54\n      swap1\n      tag_55\n      jump\t// in\n    tag_54:\n      swap2\n      pop\n      pop\n        /* \"contracts/libraries/Perlin.sol\":3838:4009  for (uint8 i = 0; i < 3; i++) {... */\n      jump(tag_44)\n    tag_45:\n      pop\n        /* \"contracts/libraries/Perlin.sol\":4027:4108  ABDKMath64x64.add(perlin, getSingleScalePerlin(x, y, scale * uint32(2**0), seed)) */\n      tag_56\n        /* \"contracts/libraries/Perlin.sol\":4045:4051  perlin */\n      dup2\n        /* \"contracts/libraries/Perlin.sol\":4053:4107  getSingleScalePerlin(x, y, scale * uint32(2**0), seed) */\n      tag_57\n        /* \"contracts/libraries/Perlin.sol\":4074:4075  x */\n      dup9\n        /* \"contracts/libraries/Perlin.sol\":4077:4078  y */\n      dup9\n        /* \"contracts/libraries/Perlin.sol\":4095:4099  2**0 */\n      0x01\n        /* \"contracts/libraries/Perlin.sol\":4080:4085  scale */\n      dup9\n        /* \"contracts/libraries/Perlin.sol\":4080:4100  scale * uint32(2**0) */\n      tag_58\n      swap2\n      swap1\n      tag_51\n      jump\t// in\n    tag_58:\n        /* \"contracts/libraries/Perlin.sol\":4102:4106  seed */\n      dup10\n        /* \"contracts/libraries/Perlin.sol\":4053:4073  getSingleScalePerlin */\n      tag_16\n        /* \"contracts/libraries/Perlin.sol\":4053:4107  getSingleScalePerlin(x, y, scale * uint32(2**0), seed) */\n      jump\t// in\n    tag_57:\n        /* \"contracts/libraries/Perlin.sol\":4027:4044  ABDKMath64x64.add */\n      tag_53\n        /* \"contracts/libraries/Perlin.sol\":4027:4108  ABDKMath64x64.add(perlin, getSingleScalePerlin(x, y, scale * uint32(2**0), seed)) */\n      jump\t// in\n    tag_56:\n        /* \"contracts/libraries/Perlin.sol\":4018:4108  perlin = ABDKMath64x64.add(perlin, getSingleScalePerlin(x, y, scale * uint32(2**0), seed)) */\n      swap1\n      pop\n        /* \"contracts/libraries/Perlin.sol\":4128:4180  ABDKMath64x64.div(perlin, ABDKMath64x64.fromUInt(4)) */\n      tag_59\n        /* \"contracts/libraries/Perlin.sol\":4146:4152  perlin */\n      dup2\n        /* \"contracts/libraries/Perlin.sol\":4154:4179  ABDKMath64x64.fromUInt(4) */\n      tag_60\n        /* \"contracts/libraries/Perlin.sol\":4177:4178  4 */\n      0x04\n        /* \"contracts/libraries/Perlin.sol\":4154:4176  ABDKMath64x64.fromUInt */\n      tag_43\n        /* \"contracts/libraries/Perlin.sol\":4154:4179  ABDKMath64x64.fromUInt(4) */\n      jump\t// in\n    tag_60:\n        /* \"contracts/libraries/Perlin.sol\":4128:4145  ABDKMath64x64.div */\n      tag_61\n        /* \"contracts/libraries/Perlin.sol\":4128:4180  ABDKMath64x64.div(perlin, ABDKMath64x64.fromUInt(4)) */\n      jump\t// in\n    tag_59:\n        /* \"contracts/libraries/Perlin.sol\":4119:4180  perlin = ABDKMath64x64.div(perlin, ABDKMath64x64.fromUInt(4)) */\n      swap1\n      pop\n        /* \"contracts/libraries/Perlin.sol\":4190:4216  int128 perlinScaledShifted */\n      0x00\n        /* \"contracts/libraries/Perlin.sol\":4219:4395  ABDKMath64x64.add(... */\n      tag_62\n        /* \"contracts/libraries/Perlin.sol\":4250:4323  ABDKMath64x64.mul(perlin, ABDKMath64x64.fromUInt(uint256(perlinMax / 2))) */\n      tag_63\n        /* \"contracts/libraries/Perlin.sol\":4268:4274  perlin */\n      dup4\n        /* \"contracts/libraries/Perlin.sol\":4276:4322  ABDKMath64x64.fromUInt(uint256(perlinMax / 2)) */\n      tag_64\n        /* \"contracts/libraries/Perlin.sol\":4319:4320  2 */\n      0x02\n        /* \"contracts/libraries/Perlin.sol\":196:198  64 */\n      0x40\n        /* \"contracts/libraries/Perlin.sol\":4307:4320  perlinMax / 2 */\n      tag_65\n      swap2\n      swap1\n      tag_66\n      jump\t// in\n    tag_65:\n        /* \"contracts/libraries/Perlin.sol\":4299:4321  uint256(perlinMax / 2) */\n      0xffff\n      and\n        /* \"contracts/libraries/Perlin.sol\":4276:4298  ABDKMath64x64.fromUInt */\n      tag_43\n        /* \"contracts/libraries/Perlin.sol\":4276:4322  ABDKMath64x64.fromUInt(uint256(perlinMax / 2)) */\n      jump\t// in\n    tag_64:\n        /* \"contracts/libraries/Perlin.sol\":4250:4267  ABDKMath64x64.mul */\n      tag_67\n        /* \"contracts/libraries/Perlin.sol\":4250:4323  ABDKMath64x64.mul(perlin, ABDKMath64x64.fromUInt(uint256(perlinMax / 2))) */\n      jump\t// in\n    tag_63:\n        /* \"contracts/libraries/Perlin.sol\":4337:4385  ABDKMath64x64.fromUInt((uint256(perlinMax / 2))) */\n      tag_68\n        /* \"contracts/libraries/Perlin.sol\":4381:4382  2 */\n      0x02\n        /* \"contracts/libraries/Perlin.sol\":196:198  64 */\n      0x40\n        /* \"contracts/libraries/Perlin.sol\":4369:4382  perlinMax / 2 */\n      tag_69\n      swap2\n      swap1\n      tag_66\n      jump\t// in\n    tag_69:\n        /* \"contracts/libraries/Perlin.sol\":4361:4383  uint256(perlinMax / 2) */\n      0xffff\n      and\n        /* \"contracts/libraries/Perlin.sol\":4337:4359  ABDKMath64x64.fromUInt */\n      tag_43\n        /* \"contracts/libraries/Perlin.sol\":4337:4385  ABDKMath64x64.fromUInt((uint256(perlinMax / 2))) */\n      jump\t// in\n    tag_68:\n        /* \"contracts/libraries/Perlin.sol\":4219:4236  ABDKMath64x64.add */\n      tag_53\n        /* \"contracts/libraries/Perlin.sol\":4219:4395  ABDKMath64x64.add(... */\n      jump\t// in\n    tag_62:\n        /* \"contracts/libraries/Perlin.sol\":4190:4395  int128 perlinScaledShifted = ABDKMath64x64.add(... */\n      swap1\n      pop\n        /* \"contracts/libraries/Perlin.sol\":4413:4454  ABDKMath64x64.toUInt(perlinScaledShifted) */\n      tag_70\n        /* \"contracts/libraries/Perlin.sol\":4434:4453  perlinScaledShifted */\n      dup2\n        /* \"contracts/libraries/Perlin.sol\":4413:4433  ABDKMath64x64.toUInt */\n      tag_71\n        /* \"contracts/libraries/Perlin.sol\":4413:4454  ABDKMath64x64.toUInt(perlinScaledShifted) */\n      jump\t// in\n    tag_70:\n        /* \"contracts/libraries/Perlin.sol\":4406:4454  return ABDKMath64x64.toUInt(perlinScaledShifted) */\n      0xffffffffffffffff\n      and\n      swap3\n      pop\n      pop\n      pop\n        /* \"contracts/libraries/Perlin.sol\":3638:4461  function computePerlin(... */\n      swap5\n      swap4\n      pop\n      pop\n      pop\n      pop\n      jump\t// out\n        /* \"contracts/libraries/Perlin.sol\":2426:3632  function getSingleScalePerlin(... */\n    tag_16:\n        /* \"contracts/libraries/Perlin.sol\":2562:2568  int128 */\n      0x00\n        /* \"contracts/libraries/Perlin.sol\":2580:2607  uint32[2][4] memory corners */\n      dup1\n        /* \"contracts/libraries/Perlin.sol\":2610:2633  getCorners(x, y, scale) */\n      tag_73\n        /* \"contracts/libraries/Perlin.sol\":2621:2622  x */\n      dup7\n        /* \"contracts/libraries/Perlin.sol\":2624:2625  y */\n      dup7\n        /* \"contracts/libraries/Perlin.sol\":2627:2632  scale */\n      dup7\n        /* \"contracts/libraries/Perlin.sol\":2610:2620  getCorners */\n      tag_33\n        /* \"contracts/libraries/Perlin.sol\":2610:2633  getCorners(x, y, scale) */\n      jump\t// in\n    tag_73:\n        /* \"contracts/libraries/Perlin.sol\":2580:2633  uint32[2][4] memory corners = getCorners(x, y, scale) */\n      swap1\n      pop\n        /* \"contracts/libraries/Perlin.sol\":2644:2663  int128 resNumerator */\n      0x00\n        /* \"contracts/libraries/Perlin.sol\":2683:2690  uint8 i */\n      dup1\n        /* \"contracts/libraries/Perlin.sol\":2678:3511  for (uint8 i = 0; i < 4; i++) {... */\n    tag_74:\n        /* \"contracts/libraries/Perlin.sol\":2700:2701  4 */\n      0x04\n        /* \"contracts/libraries/Perlin.sol\":2696:2697  i */\n      dup2\n        /* \"contracts/libraries/Perlin.sol\":2696:2701  i < 4 */\n      0xff\n      and\n      lt\n        /* \"contracts/libraries/Perlin.sol\":2678:3511  for (uint8 i = 0; i < 4; i++) {... */\n      iszero\n      tag_75\n      jumpi\n        /* \"contracts/libraries/Perlin.sol\":2722:2745  uint32[2] memory corner */\n      0x00\n        /* \"contracts/libraries/Perlin.sol\":2748:2755  corners */\n      dup4\n        /* \"contracts/libraries/Perlin.sol\":2756:2757  i */\n      dup3\n        /* \"contracts/libraries/Perlin.sol\":2748:2758  corners[i] */\n      0xff\n      and\n      0x04\n      dup2\n      lt\n      tag_77\n      jumpi\n      tag_78\n      tag_79\n      jump\t// in\n    tag_78:\n    tag_77:\n      0x20\n      mul\n      add\n      mload\n        /* \"contracts/libraries/Perlin.sol\":2722:2758  uint32[2] memory corner = corners[i] */\n      swap1\n      pop\n        /* \"contracts/libraries/Perlin.sol\":2830:2852  int32[2] memory offset */\n      0x00\n        /* \"contracts/libraries/Perlin.sol\":2830:2913  int32[2] memory offset = [int32(x) - int32(corner[0]), int32(y) - int32(corner[1])] */\n      mload(0x40)\n      dup1\n      0x40\n      add\n      0x40\n      mstore\n      dup1\n        /* \"contracts/libraries/Perlin.sol\":2873:2879  corner */\n      dup4\n        /* \"contracts/libraries/Perlin.sol\":2880:2881  0 */\n      0x00\n        /* \"contracts/libraries/Perlin.sol\":2873:2882  corner[0] */\n      0x02\n      dup2\n      lt\n      tag_80\n      jumpi\n      tag_81\n      tag_79\n      jump\t// in\n    tag_81:\n    tag_80:\n      0x20\n      mul\n      add\n      mload\n        /* \"contracts/libraries/Perlin.sol\":2862:2863  x */\n      dup13\n        /* \"contracts/libraries/Perlin.sol\":2856:2883  int32(x) - int32(corner[0]) */\n      tag_82\n      swap2\n      swap1\n      tag_83\n      jump\t// in\n    tag_82:\n        /* \"contracts/libraries/Perlin.sol\":2830:2913  int32[2] memory offset = [int32(x) - int32(corner[0]), int32(y) - int32(corner[1])] */\n      0x03\n      signextend\n      0x03\n      signextend\n      dup2\n      mstore\n      0x20\n      add\n        /* \"contracts/libraries/Perlin.sol\":2902:2908  corner */\n      dup4\n        /* \"contracts/libraries/Perlin.sol\":2909:2910  1 */\n      0x01\n        /* \"contracts/libraries/Perlin.sol\":2902:2911  corner[1] */\n      0x02\n      dup2\n      lt\n      tag_84\n      jumpi\n      tag_85\n      tag_79\n      jump\t// in\n    tag_85:\n    tag_84:\n      0x20\n      mul\n      add\n      mload\n        /* \"contracts/libraries/Perlin.sol\":2891:2892  y */\n      dup12\n        /* \"contracts/libraries/Perlin.sol\":2885:2912  int32(y) - int32(corner[1]) */\n      tag_86\n      swap2\n      swap1\n      tag_83\n      jump\t// in\n    tag_86:\n        /* \"contracts/libraries/Perlin.sol\":2830:2913  int32[2] memory offset = [int32(x) - int32(corner[0]), int32(y) - int32(corner[1])] */\n      0x03\n      signextend\n      0x03\n      signextend\n      dup2\n      mstore\n      pop\n      swap1\n      pop\n        /* \"contracts/libraries/Perlin.sol\":2989:3013  int16[2] memory gradient */\n      0x00\n        /* \"contracts/libraries/Perlin.sol\":3016:3064  getGradientAt(corner[0], corner[1], scale, seed) */\n      tag_87\n        /* \"contracts/libraries/Perlin.sol\":3030:3036  corner */\n      dup4\n        /* \"contracts/libraries/Perlin.sol\":3037:3038  0 */\n      0x00\n        /* \"contracts/libraries/Perlin.sol\":3030:3039  corner[0] */\n      0x02\n      dup2\n      lt\n      tag_88\n      jumpi\n      tag_89\n      tag_79\n      jump\t// in\n    tag_89:\n    tag_88:\n      0x20\n      mul\n      add\n      mload\n        /* \"contracts/libraries/Perlin.sol\":3041:3047  corner */\n      dup5\n        /* \"contracts/libraries/Perlin.sol\":3048:3049  1 */\n      0x01\n        /* \"contracts/libraries/Perlin.sol\":3041:3050  corner[1] */\n      0x02\n      dup2\n      lt\n      tag_90\n      jumpi\n      tag_91\n      tag_79\n      jump\t// in\n    tag_91:\n    tag_90:\n      0x20\n      mul\n      add\n      mload\n        /* \"contracts/libraries/Perlin.sol\":3052:3057  scale */\n      dup12\n        /* \"contracts/libraries/Perlin.sol\":3059:3063  seed */\n      dup12\n        /* \"contracts/libraries/Perlin.sol\":3016:3029  getGradientAt */\n      tag_21\n        /* \"contracts/libraries/Perlin.sol\":3016:3064  getGradientAt(corner[0], corner[1], scale, seed) */\n      jump\t// in\n    tag_87:\n        /* \"contracts/libraries/Perlin.sol\":2989:3064  int16[2] memory gradient = getGradientAt(corner[0], corner[1], scale, seed) */\n      swap1\n      pop\n        /* \"contracts/libraries/Perlin.sol\":3148:3157  int64 dot */\n      0x00\n        /* \"contracts/libraries/Perlin.sol\":3211:3219  gradient */\n      dup2\n        /* \"contracts/libraries/Perlin.sol\":3220:3221  1 */\n      0x01\n        /* \"contracts/libraries/Perlin.sol\":3211:3222  gradient[1] */\n      0x02\n      dup2\n      lt\n      tag_92\n      jumpi\n      tag_93\n      tag_79\n      jump\t// in\n    tag_93:\n    tag_92:\n      0x20\n      mul\n      add\n      mload\n        /* \"contracts/libraries/Perlin.sol\":3205:3223  int64(gradient[1]) */\n      0x01\n      signextend\n        /* \"contracts/libraries/Perlin.sol\":3193:3199  offset */\n      dup4\n        /* \"contracts/libraries/Perlin.sol\":3200:3201  1 */\n      0x01\n        /* \"contracts/libraries/Perlin.sol\":3193:3202  offset[1] */\n      0x02\n      dup2\n      lt\n      tag_94\n      jumpi\n      tag_95\n      tag_79\n      jump\t// in\n    tag_95:\n    tag_94:\n      0x20\n      mul\n      add\n      mload\n        /* \"contracts/libraries/Perlin.sol\":3193:3223  offset[1] * int64(gradient[1]) */\n      0x03\n      signextend\n      tag_96\n      swap2\n      swap1\n      tag_97\n      jump\t// in\n    tag_96:\n        /* \"contracts/libraries/Perlin.sol\":3178:3186  gradient */\n      dup3\n        /* \"contracts/libraries/Perlin.sol\":3187:3188  0 */\n      0x00\n        /* \"contracts/libraries/Perlin.sol\":3178:3189  gradient[0] */\n      0x02\n      dup2\n      lt\n      tag_98\n      jumpi\n      tag_99\n      tag_79\n      jump\t// in\n    tag_99:\n    tag_98:\n      0x20\n      mul\n      add\n      mload\n        /* \"contracts/libraries/Perlin.sol\":3172:3190  int64(gradient[0]) */\n      0x01\n      signextend\n        /* \"contracts/libraries/Perlin.sol\":3160:3166  offset */\n      dup5\n        /* \"contracts/libraries/Perlin.sol\":3167:3168  0 */\n      0x00\n        /* \"contracts/libraries/Perlin.sol\":3160:3169  offset[0] */\n      0x02\n      dup2\n      lt\n      tag_100\n      jumpi\n      tag_101\n      tag_79\n      jump\t// in\n    tag_101:\n    tag_100:\n      0x20\n      mul\n      add\n      mload\n        /* \"contracts/libraries/Perlin.sol\":3160:3190  offset[0] * int64(gradient[0]) */\n      0x03\n      signextend\n      tag_102\n      swap2\n      swap1\n      tag_97\n      jump\t// in\n    tag_102:\n        /* \"contracts/libraries/Perlin.sol\":3160:3223  offset[0] * int64(gradient[0]) + offset[1] * int64(gradient[1]) */\n      tag_103\n      swap2\n      swap1\n      tag_104\n      jump\t// in\n    tag_103:\n        /* \"contracts/libraries/Perlin.sol\":3148:3223  int64 dot = offset[0] * int64(gradient[0]) + offset[1] * int64(gradient[1]) */\n      swap1\n      pop\n        /* \"contracts/libraries/Perlin.sol\":3300:3313  uint64 weight */\n      0x00\n        /* \"contracts/libraries/Perlin.sol\":3316:3360  getWeight(corner[0], corner[1], x, y, scale) */\n      tag_105\n        /* \"contracts/libraries/Perlin.sol\":3326:3332  corner */\n      dup6\n        /* \"contracts/libraries/Perlin.sol\":3333:3334  0 */\n      0x00\n        /* \"contracts/libraries/Perlin.sol\":3326:3335  corner[0] */\n      0x02\n      dup2\n      lt\n      tag_106\n      jumpi\n      tag_107\n      tag_79\n      jump\t// in\n    tag_107:\n    tag_106:\n      0x20\n      mul\n      add\n      mload\n        /* \"contracts/libraries/Perlin.sol\":3337:3343  corner */\n      dup7\n        /* \"contracts/libraries/Perlin.sol\":3344:3345  1 */\n      0x01\n        /* \"contracts/libraries/Perlin.sol\":3337:3346  corner[1] */\n      0x02\n      dup2\n      lt\n      tag_108\n      jumpi\n      tag_109\n      tag_79\n      jump\t// in\n    tag_109:\n    tag_108:\n      0x20\n      mul\n      add\n      mload\n        /* \"contracts/libraries/Perlin.sol\":3348:3349  x */\n      dup16\n        /* \"contracts/libraries/Perlin.sol\":3351:3352  y */\n      dup16\n        /* \"contracts/libraries/Perlin.sol\":3354:3359  scale */\n      dup16\n        /* \"contracts/libraries/Perlin.sol\":3316:3325  getWeight */\n      tag_27\n        /* \"contracts/libraries/Perlin.sol\":3316:3360  getWeight(corner[0], corner[1], x, y, scale) */\n      jump\t// in\n    tag_105:\n        /* \"contracts/libraries/Perlin.sol\":3300:3360  uint64 weight = getWeight(corner[0], corner[1], x, y, scale) */\n      swap1\n      pop\n        /* \"contracts/libraries/Perlin.sol\":3496:3499  dot */\n      dup2\n        /* \"contracts/libraries/Perlin.sol\":3489:3500  int128(dot) */\n      0x07\n      signextend\n        /* \"contracts/libraries/Perlin.sol\":3478:3484  weight */\n      dup2\n        /* \"contracts/libraries/Perlin.sol\":3465:3486  int128(int64(weight)) */\n      0x07\n      signextend\n        /* \"contracts/libraries/Perlin.sol\":3465:3500  int128(int64(weight)) * int128(dot) */\n      tag_110\n      swap2\n      swap1\n      tag_111\n      jump\t// in\n    tag_110:\n        /* \"contracts/libraries/Perlin.sol\":3449:3500  resNumerator += int128(int64(weight)) * int128(dot) */\n      dup8\n      tag_112\n      swap2\n      swap1\n      tag_113\n      jump\t// in\n    tag_112:\n      swap7\n      pop\n        /* \"contracts/libraries/Perlin.sol\":2708:3511  {... */\n      pop\n      pop\n      pop\n      pop\n      pop\n        /* \"contracts/libraries/Perlin.sol\":2703:2706  i++ */\n      dup1\n      dup1\n      tag_114\n      swap1\n      tag_55\n      jump\t// in\n    tag_114:\n      swap2\n      pop\n      pop\n        /* \"contracts/libraries/Perlin.sol\":2678:3511  for (uint8 i = 0; i < 4; i++) {... */\n      jump(tag_74)\n    tag_75:\n      pop\n        /* \"contracts/libraries/Perlin.sol\":3540:3625  ABDKMath64x64.divi(int256(resNumerator), int256(vecsDenom) * int256(int32(scale))**3) */\n      tag_115\n        /* \"contracts/libraries/Perlin.sol\":3566:3578  resNumerator */\n      dup2\n        /* \"contracts/libraries/Perlin.sol\":3559:3579  int256(resNumerator) */\n      0x0f\n      signextend\n        /* \"contracts/libraries/Perlin.sol\":3623:3624  3 */\n      0x03\n        /* \"contracts/libraries/Perlin.sol\":3614:3619  scale */\n      dup8\n        /* \"contracts/libraries/Perlin.sol\":3601:3621  int256(int32(scale)) */\n      0x03\n      signextend\n        /* \"contracts/libraries/Perlin.sol\":3601:3624  int256(int32(scale))**3 */\n      tag_116\n      swap2\n      swap1\n      tag_117\n      jump\t// in\n    tag_116:\n        /* \"contracts/libraries/Perlin.sol\":158:162  1000 */\n      0x03e8\n        /* \"contracts/libraries/Perlin.sol\":3581:3598  int256(vecsDenom) */\n      0x01\n      signextend\n        /* \"contracts/libraries/Perlin.sol\":3581:3624  int256(vecsDenom) * int256(int32(scale))**3 */\n      tag_118\n      swap2\n      swap1\n      tag_119\n      jump\t// in\n    tag_118:\n        /* \"contracts/libraries/Perlin.sol\":3540:3558  ABDKMath64x64.divi */\n      tag_120\n        /* \"contracts/libraries/Perlin.sol\":3540:3625  ABDKMath64x64.divi(int256(resNumerator), int256(vecsDenom) * int256(int32(scale))**3) */\n      jump\t// in\n    tag_115:\n        /* \"contracts/libraries/Perlin.sol\":3521:3625  return... */\n      swap3\n      pop\n      pop\n      pop\n        /* \"contracts/libraries/Perlin.sol\":2426:3632  function getSingleScalePerlin(... */\n      swap5\n      swap4\n      pop\n      pop\n      pop\n      pop\n      jump\t// out\n        /* \"contracts/libraries/Perlin.sol\":437:1366  function getGradientAt(... */\n    tag_21:\n        /* \"contracts/libraries/Perlin.sol\":566:581  int16[2] memory */\n      tag_121\n      tag_122\n      jump\t// in\n    tag_121:\n        /* \"contracts/libraries/Perlin.sol\":593:604  uint256 idx */\n      0x00\n        /* \"contracts/libraries/Perlin.sol\":665:667  16 */\n      0x10\n        /* \"contracts/libraries/Perlin.sol\":642:643  x */\n      dup7\n        /* \"contracts/libraries/Perlin.sol\":645:646  y */\n      dup7\n        /* \"contracts/libraries/Perlin.sol\":648:653  scale */\n      dup7\n        /* \"contracts/libraries/Perlin.sol\":655:659  seed */\n      dup7\n        /* \"contracts/libraries/Perlin.sol\":625:660  abi.encodePacked(x, y, scale, seed) */\n      add(0x20, mload(0x40))\n      tag_124\n      swap5\n      swap4\n      swap3\n      swap2\n      swap1\n      tag_125\n      jump\t// in\n    tag_124:\n      mload(0x40)\n      0x20\n      dup2\n      dup4\n      sub\n      sub\n      dup2\n      mstore\n      swap1\n      0x40\n      mstore\n        /* \"contracts/libraries/Perlin.sol\":615:661  keccak256(abi.encodePacked(x, y, scale, seed)) */\n      dup1\n      mload\n      swap1\n      0x20\n      add\n      keccak256\n        /* \"contracts/libraries/Perlin.sol\":607:662  uint256(keccak256(abi.encodePacked(x, y, scale, seed))) */\n      0x00\n      shr\n        /* \"contracts/libraries/Perlin.sol\":607:667  uint256(keccak256(abi.encodePacked(x, y, scale, seed))) % 16 */\n      tag_126\n      swap2\n      swap1\n      tag_127\n      jump\t// in\n    tag_126:\n        /* \"contracts/libraries/Perlin.sol\":593:667  uint256 idx = uint256(keccak256(abi.encodePacked(x, y, scale, seed))) % 16 */\n      swap1\n      pop\n        /* \"contracts/libraries/Perlin.sol\":677:701  int16[2][16] memory vecs */\n      0x00\n        /* \"contracts/libraries/Perlin.sol\":677:1333  int16[2][16] memory vecs = [... */\n      mload(0x40)\n      dup1\n      0x0200\n      add\n      0x40\n      mstore\n      dup1\n      mload(0x40)\n      dup1\n      0x40\n      add\n      0x40\n      mstore\n      dup1\n        /* \"contracts/libraries/Perlin.sol\":725:729  1000 */\n      0x03e8\n        /* \"contracts/libraries/Perlin.sol\":677:1333  int16[2][16] memory vecs = [... */\n      0x01\n      signextend\n      0x01\n      signextend\n      dup2\n      mstore\n      0x20\n      add\n        /* \"contracts/libraries/Perlin.sol\":738:739  0 */\n      0x00\n        /* \"contracts/libraries/Perlin.sol\":677:1333  int16[2][16] memory vecs = [... */\n      0x01\n      signextend\n      0x01\n      signextend\n      dup2\n      mstore\n      pop\n      dup2\n      mstore\n      0x20\n      add\n      mload(0x40)\n      dup1\n      0x40\n      add\n      0x40\n      mstore\n      dup1\n        /* \"contracts/libraries/Perlin.sol\":762:765  923 */\n      0x039b\n        /* \"contracts/libraries/Perlin.sol\":677:1333  int16[2][16] memory vecs = [... */\n      0x01\n      signextend\n      0x01\n      signextend\n      dup2\n      mstore\n      0x20\n      add\n        /* \"contracts/libraries/Perlin.sol\":774:777  382 */\n      0x017e\n        /* \"contracts/libraries/Perlin.sol\":677:1333  int16[2][16] memory vecs = [... */\n      0x01\n      signextend\n      0x01\n      signextend\n      dup2\n      mstore\n      pop\n      dup2\n      mstore\n      0x20\n      add\n      mload(0x40)\n      dup1\n      0x40\n      add\n      0x40\n      mstore\n      dup1\n        /* \"contracts/libraries/Perlin.sol\":800:803  707 */\n      0x02c3\n        /* \"contracts/libraries/Perlin.sol\":677:1333  int16[2][16] memory vecs = [... */\n      0x01\n      signextend\n      0x01\n      signextend\n      dup2\n      mstore\n      0x20\n      add\n        /* \"contracts/libraries/Perlin.sol\":812:815  707 */\n      0x02c3\n        /* \"contracts/libraries/Perlin.sol\":677:1333  int16[2][16] memory vecs = [... */\n      0x01\n      signextend\n      0x01\n      signextend\n      dup2\n      mstore\n      pop\n      dup2\n      mstore\n      0x20\n      add\n      mload(0x40)\n      dup1\n      0x40\n      add\n      0x40\n      mstore\n      dup1\n        /* \"contracts/libraries/Perlin.sol\":838:841  382 */\n      0x017e\n        /* \"contracts/libraries/Perlin.sol\":677:1333  int16[2][16] memory vecs = [... */\n      0x01\n      signextend\n      0x01\n      signextend\n      dup2\n      mstore\n      0x20\n      add\n        /* \"contracts/libraries/Perlin.sol\":850:853  923 */\n      0x039b\n        /* \"contracts/libraries/Perlin.sol\":677:1333  int16[2][16] memory vecs = [... */\n      0x01\n      signextend\n      0x01\n      signextend\n      dup2\n      mstore\n      pop\n      dup2\n      mstore\n      0x20\n      add\n      mload(0x40)\n      dup1\n      0x40\n      add\n      0x40\n      mstore\n      dup1\n        /* \"contracts/libraries/Perlin.sol\":876:877  0 */\n      0x00\n        /* \"contracts/libraries/Perlin.sol\":677:1333  int16[2][16] memory vecs = [... */\n      0x01\n      signextend\n      0x01\n      signextend\n      dup2\n      mstore\n      0x20\n      add\n        /* \"contracts/libraries/Perlin.sol\":886:890  1000 */\n      0x03e8\n        /* \"contracts/libraries/Perlin.sol\":677:1333  int16[2][16] memory vecs = [... */\n      0x01\n      signextend\n      0x01\n      signextend\n      dup2\n      mstore\n      pop\n      dup2\n      mstore\n      0x20\n      add\n      mload(0x40)\n      dup1\n      0x40\n      add\n      0x40\n      mstore\n      dup1\n        /* \"contracts/libraries/Perlin.sol\":913:917  -383 */\n      0xfffffffffffffffffffffffffffffffffffffffffffffffffffffffffffffe81\n        /* \"contracts/libraries/Perlin.sol\":677:1333  int16[2][16] memory vecs = [... */\n      0x01\n      signextend\n      0x01\n      signextend\n      dup2\n      mstore\n      0x20\n      add\n        /* \"contracts/libraries/Perlin.sol\":926:929  923 */\n      0x039b\n        /* \"contracts/libraries/Perlin.sol\":677:1333  int16[2][16] memory vecs = [... */\n      0x01\n      signextend\n      0x01\n      signextend\n      dup2\n      mstore\n      pop\n      dup2\n      mstore\n      0x20\n      add\n      mload(0x40)\n      dup1\n      0x40\n      add\n      0x40\n      mstore\n      dup1\n        /* \"contracts/libraries/Perlin.sol\":952:956  -708 */\n      0xfffffffffffffffffffffffffffffffffffffffffffffffffffffffffffffd3c\n        /* \"contracts/libraries/Perlin.sol\":677:1333  int16[2][16] memory vecs = [... */\n      0x01\n      signextend\n      0x01\n      signextend\n      dup2\n      mstore\n      0x20\n      add\n        /* \"contracts/libraries/Perlin.sol\":965:968  707 */\n      0x02c3\n        /* \"contracts/libraries/Perlin.sol\":677:1333  int16[2][16] memory vecs = [... */\n      0x01\n      signextend\n      0x01\n      signextend\n      dup2\n      mstore\n      pop\n      dup2\n      mstore\n      0x20\n      add\n      mload(0x40)\n      dup1\n      0x40\n      add\n      0x40\n      mstore\n      dup1\n        /* \"contracts/libraries/Perlin.sol\":991:995  -924 */\n      0xfffffffffffffffffffffffffffffffffffffffffffffffffffffffffffffc64\n        /* \"contracts/libraries/Perlin.sol\":677:1333  int16[2][16] memory vecs = [... */\n      0x01\n      signextend\n      0x01\n      signextend\n      dup2\n      mstore\n      0x20\n      add\n        /* \"contracts/libraries/Perlin.sol\":1004:1007  382 */\n      0x017e\n        /* \"contracts/libraries/Perlin.sol\":677:1333  int16[2][16] memory vecs = [... */\n      0x01\n      signextend\n      0x01\n      signextend\n      dup2\n      mstore\n      pop\n      dup2\n      mstore\n      0x20\n      add\n      mload(0x40)\n      dup1\n      0x40\n      add\n      0x40\n      mstore\n      dup1\n        /* \"contracts/libraries/Perlin.sol\":1030:1035  -1000 */\n      0xfffffffffffffffffffffffffffffffffffffffffffffffffffffffffffffc18\n        /* \"contracts/libraries/Perlin.sol\":677:1333  int16[2][16] memory vecs = [... */\n      0x01\n      signextend\n      0x01\n      signextend\n      dup2\n      mstore\n      0x20\n      add\n        /* \"contracts/libraries/Perlin.sol\":1044:1045  0 */\n      0x00\n        /* \"contracts/libraries/Perlin.sol\":677:1333  int16[2][16] memory vecs = [... */\n      0x01\n      signextend\n      0x01\n      signextend\n      dup2\n      mstore\n      pop\n      dup2\n      mstore\n      0x20\n      add\n      mload(0x40)\n      dup1\n      0x40\n      add\n      0x40\n      mstore\n      dup1\n        /* \"contracts/libraries/Perlin.sol\":1068:1072  -924 */\n      0xfffffffffffffffffffffffffffffffffffffffffffffffffffffffffffffc64\n        /* \"contracts/libraries/Perlin.sol\":677:1333  int16[2][16] memory vecs = [... */\n      0x01\n      signextend\n      0x01\n      signextend\n      dup2\n      mstore\n      0x20\n      add\n        /* \"contracts/libraries/Perlin.sol\":1081:1085  -383 */\n      0xfffffffffffffffffffffffffffffffffffffffffffffffffffffffffffffe81\n        /* \"contracts/libraries/Perlin.sol\":677:1333  int16[2][16] memory vecs = [... */\n      0x01\n      signextend\n      0x01\n      signextend\n      dup2\n      mstore\n      pop\n      dup2\n      mstore\n      0x20\n      add\n      mload(0x40)\n      dup1\n      0x40\n      add\n      0x40\n      mstore\n      dup1\n        /* \"contracts/libraries/Perlin.sol\":1108:1112  -708 */\n      0xfffffffffffffffffffffffffffffffffffffffffffffffffffffffffffffd3c\n        /* \"contracts/libraries/Perlin.sol\":677:1333  int16[2][16] memory vecs = [... */\n      0x01\n      signextend\n      0x01\n      signextend\n      dup2\n      mstore\n      0x20\n      add\n        /* \"contracts/libraries/Perlin.sol\":1121:1125  -708 */\n      0xfffffffffffffffffffffffffffffffffffffffffffffffffffffffffffffd3c\n        /* \"contracts/libraries/Perlin.sol\":677:1333  int16[2][16] memory vecs = [... */\n      0x01\n      signextend\n      0x01\n      signextend\n      dup2\n      mstore\n      pop\n      dup2\n      mstore\n      0x20\n      add\n      mload(0x40)\n      dup1\n      0x40\n      add\n      0x40\n      mstore\n      dup1\n        /* \"contracts/libraries/Perlin.sol\":1148:1152  -383 */\n      0xfffffffffffffffffffffffffffffffffffffffffffffffffffffffffffffe81\n        /* \"contracts/libraries/Perlin.sol\":677:1333  int16[2][16] memory vecs = [... */\n      0x01\n      signextend\n      0x01\n      signextend\n      dup2\n      mstore\n      0x20\n      add\n        /* \"contracts/libraries/Perlin.sol\":1161:1165  -924 */\n      0xfffffffffffffffffffffffffffffffffffffffffffffffffffffffffffffc64\n        /* \"contracts/libraries/Perlin.sol\":677:1333  int16[2][16] memory vecs = [... */\n      0x01\n      signextend\n      0x01\n      signextend\n      dup2\n      mstore\n      pop\n      dup2\n      mstore\n      0x20\n      add\n      mload(0x40)\n      dup1\n      0x40\n      add\n      0x40\n      mstore\n      dup1\n        /* \"contracts/libraries/Perlin.sol\":1188:1190  -1 */\n      0xffffffffffffffffffffffffffffffffffffffffffffffffffffffffffffffff\n        /* \"contracts/libraries/Perlin.sol\":677:1333  int16[2][16] memory vecs = [... */\n      0x01\n      signextend\n      0x01\n      signextend\n      dup2\n      mstore\n      0x20\n      add\n        /* \"contracts/libraries/Perlin.sol\":1199:1204  -1000 */\n      0xfffffffffffffffffffffffffffffffffffffffffffffffffffffffffffffc18\n        /* \"contracts/libraries/Perlin.sol\":677:1333  int16[2][16] memory vecs = [... */\n      0x01\n      signextend\n      0x01\n      signextend\n      dup2\n      mstore\n      pop\n      dup2\n      mstore\n      0x20\n      add\n      mload(0x40)\n      dup1\n      0x40\n      add\n      0x40\n      mstore\n      dup1\n        /* \"contracts/libraries/Perlin.sol\":1227:1230  382 */\n      0x017e\n        /* \"contracts/libraries/Perlin.sol\":677:1333  int16[2][16] memory vecs = [... */\n      0x01\n      signextend\n      0x01\n      signextend\n      dup2\n      mstore\n      0x20\n      add\n        /* \"contracts/libraries/Perlin.sol\":1239:1243  -924 */\n      0xfffffffffffffffffffffffffffffffffffffffffffffffffffffffffffffc64\n        /* \"contracts/libraries/Perlin.sol\":677:1333  int16[2][16] memory vecs = [... */\n      0x01\n      signextend\n      0x01\n      signextend\n      dup2\n      mstore\n      pop\n      dup2\n      mstore\n      0x20\n      add\n      mload(0x40)\n      dup1\n      0x40\n      add\n      0x40\n      mstore\n      dup1\n        /* \"contracts/libraries/Perlin.sol\":1266:1269  707 */\n      0x02c3\n        /* \"contracts/libraries/Perlin.sol\":677:1333  int16[2][16] memory vecs = [... */\n      0x01\n      signextend\n      0x01\n      signextend\n      dup2\n      mstore\n      0x20\n      add\n        /* \"contracts/libraries/Perlin.sol\":1278:1282  -708 */\n      0xfffffffffffffffffffffffffffffffffffffffffffffffffffffffffffffd3c\n        /* \"contracts/libraries/Perlin.sol\":677:1333  int16[2][16] memory vecs = [... */\n      0x01\n      signextend\n      0x01\n      signextend\n      dup2\n      mstore\n      pop\n      dup2\n      mstore\n      0x20\n      add\n      mload(0x40)\n      dup1\n      0x40\n      add\n      0x40\n      mstore\n      dup1\n        /* \"contracts/libraries/Perlin.sol\":1305:1308  923 */\n      0x039b\n        /* \"contracts/libraries/Perlin.sol\":677:1333  int16[2][16] memory vecs = [... */\n      0x01\n      signextend\n      0x01\n      signextend\n      dup2\n      mstore\n      0x20\n      add\n        /* \"contracts/libraries/Perlin.sol\":1317:1321  -383 */\n      0xfffffffffffffffffffffffffffffffffffffffffffffffffffffffffffffe81\n        /* \"contracts/libraries/Perlin.sol\":677:1333  int16[2][16] memory vecs = [... */\n      0x01\n      signextend\n      0x01\n      signextend\n      dup2\n      mstore\n      pop\n      dup2\n      mstore\n      pop\n      swap1\n      pop\n        /* \"contracts/libraries/Perlin.sol\":1350:1354  vecs */\n      dup1\n        /* \"contracts/libraries/Perlin.sol\":1355:1358  idx */\n      dup3\n        /* \"contracts/libraries/Perlin.sol\":1350:1359  vecs[idx] */\n      0x10\n      dup2\n      lt\n      tag_128\n      jumpi\n      tag_129\n      tag_79\n      jump\t// in\n    tag_129:\n    tag_128:\n      0x20\n      mul\n      add\n      mload\n        /* \"contracts/libraries/Perlin.sol\":1343:1359  return vecs[idx] */\n      swap3\n      pop\n      pop\n      pop\n        /* \"contracts/libraries/Perlin.sol\":437:1366  function getGradientAt(... */\n      swap5\n      swap4\n      pop\n      pop\n      pop\n      pop\n      jump\t// out\n        /* \"contracts/libraries/Perlin.sol\":1593:2011  function getWeight(... */\n    tag_27:\n        /* \"contracts/libraries/Perlin.sol\":1745:1751  uint64 */\n      0x00\n        /* \"contracts/libraries/Perlin.sol\":1763:1773  uint64 res */\n      dup1\n        /* \"contracts/libraries/Perlin.sol\":1776:1777  1 */\n      0x01\n        /* \"contracts/libraries/Perlin.sol\":1763:1777  uint64 res = 1 */\n      swap1\n      pop\n        /* \"contracts/libraries/Perlin.sol\":1802:1803  x */\n      dup5\n        /* \"contracts/libraries/Perlin.sol\":1792:1803  cornerX > x */\n      0xffffffff\n      and\n        /* \"contracts/libraries/Perlin.sol\":1792:1799  cornerX */\n      dup8\n        /* \"contracts/libraries/Perlin.sol\":1792:1803  cornerX > x */\n      0xffffffff\n      and\n      gt\n        /* \"contracts/libraries/Perlin.sol\":1788:1880  if (cornerX > x) res *= (scale - (cornerX - x));... */\n      iszero\n      tag_131\n      jumpi\n        /* \"contracts/libraries/Perlin.sol\":1832:1833  x */\n      dup5\n        /* \"contracts/libraries/Perlin.sol\":1822:1829  cornerX */\n      dup8\n        /* \"contracts/libraries/Perlin.sol\":1822:1833  cornerX - x */\n      tag_132\n      swap2\n      swap1\n      tag_133\n      jump\t// in\n    tag_132:\n        /* \"contracts/libraries/Perlin.sol\":1813:1818  scale */\n      dup4\n        /* \"contracts/libraries/Perlin.sol\":1813:1834  scale - (cornerX - x) */\n      tag_134\n      swap2\n      swap1\n      tag_133\n      jump\t// in\n    tag_134:\n        /* \"contracts/libraries/Perlin.sol\":1805:1835  res *= (scale - (cornerX - x)) */\n      0xffffffff\n      and\n      dup2\n      tag_135\n      swap2\n      swap1\n      tag_136\n      jump\t// in\n    tag_135:\n      swap1\n      pop\n        /* \"contracts/libraries/Perlin.sol\":1788:1880  if (cornerX > x) res *= (scale - (cornerX - x));... */\n      jump(tag_137)\n    tag_131:\n        /* \"contracts/libraries/Perlin.sol\":1871:1878  cornerX */\n      dup7\n        /* \"contracts/libraries/Perlin.sol\":1867:1868  x */\n      dup6\n        /* \"contracts/libraries/Perlin.sol\":1867:1878  x - cornerX */\n      tag_138\n      swap2\n      swap1\n      tag_133\n      jump\t// in\n    tag_138:\n        /* \"contracts/libraries/Perlin.sol\":1858:1863  scale */\n      dup4\n        /* \"contracts/libraries/Perlin.sol\":1858:1879  scale - (x - cornerX) */\n      tag_139\n      swap2\n      swap1\n      tag_133\n      jump\t// in\n    tag_139:\n        /* \"contracts/libraries/Perlin.sol\":1850:1880  res *= (scale - (x - cornerX)) */\n      0xffffffff\n      and\n      dup2\n      tag_140\n      swap2\n      swap1\n      tag_136\n      jump\t// in\n    tag_140:\n      swap1\n      pop\n        /* \"contracts/libraries/Perlin.sol\":1788:1880  if (cornerX > x) res *= (scale - (cornerX - x));... */\n    tag_137:\n        /* \"contracts/libraries/Perlin.sol\":1905:1906  y */\n      dup4\n        /* \"contracts/libraries/Perlin.sol\":1895:1906  cornerY > y */\n      0xffffffff\n      and\n        /* \"contracts/libraries/Perlin.sol\":1895:1902  cornerY */\n      dup7\n        /* \"contracts/libraries/Perlin.sol\":1895:1906  cornerY > y */\n      0xffffffff\n      and\n      gt\n        /* \"contracts/libraries/Perlin.sol\":1891:1983  if (cornerY > y) res *= (scale - (cornerY - y));... */\n      iszero\n      tag_141\n      jumpi\n        /* \"contracts/libraries/Perlin.sol\":1935:1936  y */\n      dup4\n        /* \"contracts/libraries/Perlin.sol\":1925:1932  cornerY */\n      dup7\n        /* \"contracts/libraries/Perlin.sol\":1925:1936  cornerY - y */\n      tag_142\n      swap2\n      swap1\n      tag_133\n      jump\t// in\n    tag_142:\n        /* \"contracts/libraries/Perlin.sol\":1916:1921  scale */\n      dup4\n        /* \"contracts/libraries/Perlin.sol\":1916:1937  scale - (cornerY - y) */\n      tag_143\n      swap2\n      swap1\n      tag_133\n      jump\t// in\n    tag_143:\n        /* \"contracts/libraries/Perlin.sol\":1908:1938  res *= (scale - (cornerY - y)) */\n      0xffffffff\n      and\n      dup2\n      tag_144\n      swap2\n      swap1\n      tag_136\n      jump\t// in\n    tag_144:\n      swap1\n      pop\n        /* \"contracts/libraries/Perlin.sol\":1891:1983  if (cornerY > y) res *= (scale - (cornerY - y));... */\n      jump(tag_145)\n    tag_141:\n        /* \"contracts/libraries/Perlin.sol\":1974:1981  cornerY */\n      dup6\n        /* \"contracts/libraries/Perlin.sol\":1970:1971  y */\n      dup5\n        /* \"contracts/libraries/Perlin.sol\":1970:1981  y - cornerY */\n      tag_146\n      swap2\n      swap1\n      tag_133\n      jump\t// in\n    tag_146:\n        /* \"contracts/libraries/Perlin.sol\":1961:1966  scale */\n      dup4\n        /* \"contracts/libraries/Perlin.sol\":1961:1982  scale - (y - cornerY) */\n      tag_147\n      swap2\n      swap1\n      tag_133\n      jump\t// in\n    tag_147:\n        /* \"contracts/libraries/Perlin.sol\":1953:1983  res *= (scale - (y - cornerY)) */\n      0xffffffff\n      and\n      dup2\n      tag_148\n      swap2\n      swap1\n      tag_136\n      jump\t// in\n    tag_148:\n      swap1\n      pop\n        /* \"contracts/libraries/Perlin.sol\":1891:1983  if (cornerY > y) res *= (scale - (cornerY - y));... */\n    tag_145:\n        /* \"contracts/libraries/Perlin.sol\":2001:2004  res */\n      dup1\n        /* \"contracts/libraries/Perlin.sol\":1994:2004  return res */\n      swap2\n      pop\n      pop\n        /* \"contracts/libraries/Perlin.sol\":1593:2011  function getWeight(... */\n      swap6\n      swap5\n      pop\n      pop\n      pop\n      pop\n      pop\n      jump\t// out\n        /* \"contracts/libraries/Perlin.sol\":2017:2420  function getCorners(... */\n    tag_33:\n        /* \"contracts/libraries/Perlin.sol\":2122:2141  uint32[2][4] memory */\n      tag_149\n      tag_150\n      jump\t// in\n    tag_149:\n        /* \"contracts/libraries/Perlin.sol\":2153:2166  uint32 lowerX */\n      0x00\n        /* \"contracts/libraries/Perlin.sol\":2183:2188  scale */\n      dup3\n        /* \"contracts/libraries/Perlin.sol\":2174:2179  scale */\n      dup4\n        /* \"contracts/libraries/Perlin.sol\":2170:2171  x */\n      dup7\n        /* \"contracts/libraries/Perlin.sol\":2170:2179  x / scale */\n      tag_152\n      swap2\n      swap1\n      tag_153\n      jump\t// in\n    tag_152:\n        /* \"contracts/libraries/Perlin.sol\":2169:2188  (x / scale) * scale */\n      tag_154\n      swap2\n      swap1\n      tag_51\n      jump\t// in\n    tag_154:\n        /* \"contracts/libraries/Perlin.sol\":2153:2188  uint32 lowerX = (x / scale) * scale */\n      swap1\n      pop\n        /* \"contracts/libraries/Perlin.sol\":2198:2211  uint32 lowerY */\n      0x00\n        /* \"contracts/libraries/Perlin.sol\":2228:2233  scale */\n      dup4\n        /* \"contracts/libraries/Perlin.sol\":2219:2224  scale */\n      dup5\n        /* \"contracts/libraries/Perlin.sol\":2215:2216  y */\n      dup7\n        /* \"contracts/libraries/Perlin.sol\":2215:2224  y / scale */\n      tag_155\n      swap2\n      swap1\n      tag_153\n      jump\t// in\n    tag_155:\n        /* \"contracts/libraries/Perlin.sol\":2214:2233  (y / scale) * scale */\n      tag_156\n      swap2\n      swap1\n      tag_51\n      jump\t// in\n    tag_156:\n        /* \"contracts/libraries/Perlin.sol\":2198:2233  uint32 lowerY = (y / scale) * scale */\n      swap1\n      pop\n        /* \"contracts/libraries/Perlin.sol\":2244:2413  return [... */\n      mload(0x40)\n      dup1\n      0x80\n      add\n      0x40\n      mstore\n      dup1\n      mload(0x40)\n      dup1\n      0x40\n      add\n      0x40\n      mstore\n      dup1\n        /* \"contracts/libraries/Perlin.sol\":2266:2272  lowerX */\n      dup6\n        /* \"contracts/libraries/Perlin.sol\":2244:2413  return [... */\n      0xffffffff\n      and\n      0xffffffff\n      and\n      dup2\n      mstore\n      0x20\n      add\n        /* \"contracts/libraries/Perlin.sol\":2274:2280  lowerY */\n      dup5\n        /* \"contracts/libraries/Perlin.sol\":2244:2413  return [... */\n      0xffffffff\n      and\n      0xffffffff\n      and\n      dup2\n      mstore\n      pop\n      dup2\n      mstore\n      0x20\n      add\n      mload(0x40)\n      dup1\n      0x40\n      add\n      0x40\n      mstore\n      dup1\n        /* \"contracts/libraries/Perlin.sol\":2305:2310  scale */\n      dup8\n        /* \"contracts/libraries/Perlin.sol\":2296:2302  lowerX */\n      dup7\n        /* \"contracts/libraries/Perlin.sol\":2296:2310  lowerX + scale */\n      tag_157\n      swap2\n      swap1\n      tag_158\n      jump\t// in\n    tag_157:\n        /* \"contracts/libraries/Perlin.sol\":2244:2413  return [... */\n      0xffffffff\n      and\n      0xffffffff\n      and\n      dup2\n      mstore\n      0x20\n      add\n        /* \"contracts/libraries/Perlin.sol\":2312:2318  lowerY */\n      dup5\n        /* \"contracts/libraries/Perlin.sol\":2244:2413  return [... */\n      0xffffffff\n      and\n      0xffffffff\n      and\n      dup2\n      mstore\n      pop\n      dup2\n      mstore\n      0x20\n      add\n      mload(0x40)\n      dup1\n      0x40\n      add\n      0x40\n      mstore\n      dup1\n        /* \"contracts/libraries/Perlin.sol\":2343:2348  scale */\n      dup8\n        /* \"contracts/libraries/Perlin.sol\":2334:2340  lowerX */\n      dup7\n        /* \"contracts/libraries/Perlin.sol\":2334:2348  lowerX + scale */\n      tag_159\n      swap2\n      swap1\n      tag_158\n      jump\t// in\n    tag_159:\n        /* \"contracts/libraries/Perlin.sol\":2244:2413  return [... */\n      0xffffffff\n      and\n      0xffffffff\n      and\n      dup2\n      mstore\n      0x20\n      add\n        /* \"contracts/libraries/Perlin.sol\":2359:2364  scale */\n      dup8\n        /* \"contracts/libraries/Perlin.sol\":2350:2356  lowerY */\n      dup6\n        /* \"contracts/libraries/Perlin.sol\":2350:2364  lowerY + scale */\n      tag_160\n      swap2\n      swap1\n      tag_158\n      jump\t// in\n    tag_160:\n        /* \"contracts/libraries/Perlin.sol\":2244:2413  return [... */\n      0xffffffff\n      and\n      0xffffffff\n      and\n      dup2\n      mstore\n      pop\n      dup2\n      mstore\n      0x20\n      add\n      mload(0x40)\n      dup1\n      0x40\n      add\n      0x40\n      mstore\n      dup1\n        /* \"contracts/libraries/Perlin.sol\":2380:2386  lowerX */\n      dup6\n        /* \"contracts/libraries/Perlin.sol\":2244:2413  return [... */\n      0xffffffff\n      and\n      0xffffffff\n      and\n      dup2\n      mstore\n      0x20\n      add\n        /* \"contracts/libraries/Perlin.sol\":2397:2402  scale */\n      dup8\n        /* \"contracts/libraries/Perlin.sol\":2388:2394  lowerY */\n      dup6\n        /* \"contracts/libraries/Perlin.sol\":2388:2402  lowerY + scale */\n      tag_161\n      swap2\n      swap1\n      tag_158\n      jump\t// in\n    tag_161:\n        /* \"contracts/libraries/Perlin.sol\":2244:2413  return [... */\n      0xffffffff\n      and\n      0xffffffff\n      and\n      dup2\n      mstore\n      pop\n      dup2\n      mstore\n      pop\n      swap3\n      pop\n      pop\n      pop\n        /* \"contracts/libraries/Perlin.sol\":2017:2420  function getCorners(... */\n      swap4\n      swap3\n      pop\n      pop\n      pop\n      jump\t// out\n        /* \"contracts/libraries/Perlin.sol\":270:354  function smoothStep(int128 x) public pure returns (int128) {... */\n    tag_39:\n        /* \"contracts/libraries/Perlin.sol\":321:327  int128 */\n      0x00\n        /* \"contracts/libraries/Perlin.sol\":346:347  x */\n      dup2\n        /* \"contracts/libraries/Perlin.sol\":339:347  return x */\n      swap1\n      pop\n        /* \"contracts/libraries/Perlin.sol\":270:354  function smoothStep(int128 x) public pure returns (int128) {... */\n      swap2\n      swap1\n      pop\n      jump\t// out\n        /* \"abdk-libraries-solidity/ABDKMath64x64.sol\":1958:2127  function fromUInt (uint256 x) internal pure returns (int128) {... */\n    tag_43:\n        /* \"abdk-libraries-solidity/ABDKMath64x64.sol\":2011:2017  int128 */\n      0x00\n        /* \"abdk-libraries-solidity/ABDKMath64x64.sol\":2057:2075  0x7FFFFFFFFFFFFFFF */\n      0x7fffffffffffffff\n        /* \"abdk-libraries-solidity/ABDKMath64x64.sol\":2052:2053  x */\n      dup3\n        /* \"abdk-libraries-solidity/ABDKMath64x64.sol\":2052:2075  x <= 0x7FFFFFFFFFFFFFFF */\n      gt\n      iszero\n        /* \"abdk-libraries-solidity/ABDKMath64x64.sol\":2043:2076  require (x <= 0x7FFFFFFFFFFFFFFF) */\n      tag_164\n      jumpi\n      0x00\n      dup1\n      revert\n    tag_164:\n        /* \"abdk-libraries-solidity/ABDKMath64x64.sol\":2112:2114  64 */\n      0x40\n        /* \"abdk-libraries-solidity/ABDKMath64x64.sol\":2107:2108  x */\n      dup3\n        /* \"abdk-libraries-solidity/ABDKMath64x64.sol\":2107:2114  x << 64 */\n      swap1\n      shl\n        /* \"abdk-libraries-solidity/ABDKMath64x64.sol\":2084:2116  return int128 (int256 (x << 64)) */\n      swap1\n      pop\n        /* \"abdk-libraries-solidity/ABDKMath64x64.sol\":1958:2127  function fromUInt (uint256 x) internal pure returns (int128) {... */\n      swap2\n      swap1\n      pop\n      jump\t// out\n        /* \"abdk-libraries-solidity/ABDKMath64x64.sol\":3517:3736  function add (int128 x, int128 y) internal pure returns (int128) {... */\n    tag_53:\n        /* \"abdk-libraries-solidity/ABDKMath64x64.sol\":3574:3580  int128 */\n      0x00\n        /* \"abdk-libraries-solidity/ABDKMath64x64.sol\":3606:3619  int256 result */\n      dup1\n        /* \"abdk-libraries-solidity/ABDKMath64x64.sol\":3634:3635  y */\n      dup3\n        /* \"abdk-libraries-solidity/ABDKMath64x64.sol\":3622:3635  int256(x) + y */\n      0x0f\n      signextend\n        /* \"abdk-libraries-solidity/ABDKMath64x64.sol\":3629:3630  x */\n      dup5\n        /* \"abdk-libraries-solidity/ABDKMath64x64.sol\":3622:3631  int256(x) */\n      0x0f\n      signextend\n        /* \"abdk-libraries-solidity/ABDKMath64x64.sol\":3622:3635  int256(x) + y */\n      add\n        /* \"abdk-libraries-solidity/ABDKMath64x64.sol\":3606:3635  int256 result = int256(x) + y */\n      swap1\n      pop\n        /* \"abdk-libraries-solidity/ABDKMath64x64.sol\":805:840  -0x80000000000000000000000000000000 */\n      0xffffffffffffffffffffffffffffffff80000000000000000000000000000000\n        /* \"abdk-libraries-solidity/ABDKMath64x64.sol\":3652:3671  result >= MIN_64x64 */\n      0x0f\n      signextend\n        /* \"abdk-libraries-solidity/ABDKMath64x64.sol\":3652:3658  result */\n      dup2\n        /* \"abdk-libraries-solidity/ABDKMath64x64.sol\":3652:3671  result >= MIN_64x64 */\n      slt\n      iszero\n        /* \"abdk-libraries-solidity/ABDKMath64x64.sol\":3652:3694  result >= MIN_64x64 && result <= MAX_64x64 */\n      dup1\n      iszero\n      tag_166\n      jumpi\n      pop\n        /* \"abdk-libraries-solidity/ABDKMath64x64.sol\":958:992  0x7FFFFFFFFFFFFFFFFFFFFFFFFFFFFFFF */\n      0x7fffffffffffffffffffffffffffffff\n        /* \"abdk-libraries-solidity/ABDKMath64x64.sol\":3675:3694  result <= MAX_64x64 */\n      0x0f\n      signextend\n        /* \"abdk-libraries-solidity/ABDKMath64x64.sol\":3675:3681  result */\n      dup2\n        /* \"abdk-libraries-solidity/ABDKMath64x64.sol\":3675:3694  result <= MAX_64x64 */\n      sgt\n      iszero\n        /* \"abdk-libraries-solidity/ABDKMath64x64.sol\":3652:3694  result >= MIN_64x64 && result <= MAX_64x64 */\n    tag_166:\n        /* \"abdk-libraries-solidity/ABDKMath64x64.sol\":3643:3695  require (result >= MIN_64x64 && result <= MAX_64x64) */\n      tag_167\n      jumpi\n      0x00\n      dup1\n      revert\n    tag_167:\n        /* \"abdk-libraries-solidity/ABDKMath64x64.sol\":3718:3724  result */\n      dup1\n        /* \"abdk-libraries-solidity/ABDKMath64x64.sol\":3703:3725  return int128 (result) */\n      swap2\n      pop\n      pop\n        /* \"abdk-libraries-solidity/ABDKMath64x64.sol\":3517:3736  function add (int128 x, int128 y) internal pure returns (int128) {... */\n      swap3\n      swap2\n      pop\n      pop\n      jump\t// out\n        /* \"abdk-libraries-solidity/ABDKMath64x64.sol\":7038:7290  function div (int128 x, int128 y) internal pure returns (int128) {... */\n    tag_61:\n        /* \"abdk-libraries-solidity/ABDKMath64x64.sol\":7095:7101  int128 */\n      0x00\n        /* \"abdk-libraries-solidity/ABDKMath64x64.sol\":7141:7142  0 */\n      dup1\n        /* \"abdk-libraries-solidity/ABDKMath64x64.sol\":7136:7137  y */\n      dup3\n        /* \"abdk-libraries-solidity/ABDKMath64x64.sol\":7136:7142  y != 0 */\n      0x0f\n      signextend\n      sub\n        /* \"abdk-libraries-solidity/ABDKMath64x64.sol\":7127:7143  require (y != 0) */\n      tag_169\n      jumpi\n      0x00\n      dup1\n      revert\n    tag_169:\n        /* \"abdk-libraries-solidity/ABDKMath64x64.sol\":7151:7164  int256 result */\n      0x00\n        /* \"abdk-libraries-solidity/ABDKMath64x64.sol\":7188:7189  y */\n      dup3\n        /* \"abdk-libraries-solidity/ABDKMath64x64.sol\":7167:7189  (int256 (x) << 64) / y */\n      0x0f\n      signextend\n        /* \"abdk-libraries-solidity/ABDKMath64x64.sol\":7182:7184  64 */\n      0x40\n        /* \"abdk-libraries-solidity/ABDKMath64x64.sol\":7176:7177  x */\n      dup6\n        /* \"abdk-libraries-solidity/ABDKMath64x64.sol\":7168:7178  int256 (x) */\n      0x0f\n      signextend\n        /* \"abdk-libraries-solidity/ABDKMath64x64.sol\":7168:7184  int256 (x) << 64 */\n      swap1\n      shl\n        /* \"abdk-libraries-solidity/ABDKMath64x64.sol\":7167:7189  (int256 (x) << 64) / y */\n      dup2\n      tag_170\n      jumpi\n      tag_171\n      tag_172\n      jump\t// in\n    tag_171:\n    tag_170:\n      sdiv\n        /* \"abdk-libraries-solidity/ABDKMath64x64.sol\":7151:7189  int256 result = (int256 (x) << 64) / y */\n      swap1\n      pop\n        /* \"abdk-libraries-solidity/ABDKMath64x64.sol\":805:840  -0x80000000000000000000000000000000 */\n      0xffffffffffffffffffffffffffffffff80000000000000000000000000000000\n        /* \"abdk-libraries-solidity/ABDKMath64x64.sol\":7206:7225  result >= MIN_64x64 */\n      0x0f\n      signextend\n        /* \"abdk-libraries-solidity/ABDKMath64x64.sol\":7206:7212  result */\n      dup2\n        /* \"abdk-libraries-solidity/ABDKMath64x64.sol\":7206:7225  result >= MIN_64x64 */\n      slt\n      iszero\n        /* \"abdk-libraries-solidity/ABDKMath64x64.sol\":7206:7248  result >= MIN_64x64 && result <= MAX_64x64 */\n      dup1\n      iszero\n      tag_173\n      jumpi\n      pop\n        /* \"abdk-libraries-solidity/ABDKMath64x64.sol\":958:992  0x7FFFFFFFFFFFFFFFFFFFFFFFFFFFFFFF */\n      0x7fffffffffffffffffffffffffffffff\n        /* \"abdk-libraries-solidity/ABDKMath64x64.sol\":7229:7248  result <= MAX_64x64 */\n      0x0f\n      signextend\n        /* \"abdk-libraries-solidity/ABDKMath64x64.sol\":7229:7235  result */\n      dup2\n        /* \"abdk-libraries-solidity/ABDKMath64x64.sol\":7229:7248  result <= MAX_64x64 */\n      sgt\n      iszero\n        /* \"abdk-libraries-solidity/ABDKMath64x64.sol\":7206:7248  result >= MIN_64x64 && result <= MAX_64x64 */\n    tag_173:\n        /* \"abdk-libraries-solidity/ABDKMath64x64.sol\":7197:7249  require (result >= MIN_64x64 && result <= MAX_64x64) */\n      tag_174\n      jumpi\n      0x00\n      dup1\n      revert\n    tag_174:\n        /* \"abdk-libraries-solidity/ABDKMath64x64.sol\":7272:7278  result */\n      dup1\n        /* \"abdk-libraries-solidity/ABDKMath64x64.sol\":7257:7279  return int128 (result) */\n      swap2\n      pop\n      pop\n        /* \"abdk-libraries-solidity/ABDKMath64x64.sol\":7038:7290  function div (int128 x, int128 y) internal pure returns (int128) {... */\n      swap3\n      swap2\n      pop\n      pop\n      jump\t// out\n        /* \"abdk-libraries-solidity/ABDKMath64x64.sol\":4395:4620  function mul (int128 x, int128 y) internal pure returns (int128) {... */\n    tag_67:\n        /* \"abdk-libraries-solidity/ABDKMath64x64.sol\":4452:4458  int128 */\n      0x00\n        /* \"abdk-libraries-solidity/ABDKMath64x64.sol\":4484:4497  int256 result */\n      dup1\n        /* \"abdk-libraries-solidity/ABDKMath64x64.sol\":4517:4519  64 */\n      0x40\n        /* \"abdk-libraries-solidity/ABDKMath64x64.sol\":4512:4513  y */\n      dup4\n        /* \"abdk-libraries-solidity/ABDKMath64x64.sol\":4500:4513  int256(x) * y */\n      0x0f\n      signextend\n        /* \"abdk-libraries-solidity/ABDKMath64x64.sol\":4507:4508  x */\n      dup6\n        /* \"abdk-libraries-solidity/ABDKMath64x64.sol\":4500:4509  int256(x) */\n      0x0f\n      signextend\n        /* \"abdk-libraries-solidity/ABDKMath64x64.sol\":4500:4513  int256(x) * y */\n      mul\n        /* \"abdk-libraries-solidity/ABDKMath64x64.sol\":4500:4519  int256(x) * y >> 64 */\n      swap1\n      sar\n        /* \"abdk-libraries-solidity/ABDKMath64x64.sol\":4484:4519  int256 result = int256(x) * y >> 64 */\n      swap1\n      pop\n        /* \"abdk-libraries-solidity/ABDKMath64x64.sol\":805:840  -0x80000000000000000000000000000000 */\n      0xffffffffffffffffffffffffffffffff80000000000000000000000000000000\n        /* \"abdk-libraries-solidity/ABDKMath64x64.sol\":4536:4555  result >= MIN_64x64 */\n      0x0f\n      signextend\n        /* \"abdk-libraries-solidity/ABDKMath64x64.sol\":4536:4542  result */\n      dup2\n        /* \"abdk-libraries-solidity/ABDKMath64x64.sol\":4536:4555  result >= MIN_64x64 */\n      slt\n      iszero\n        /* \"abdk-libraries-solidity/ABDKMath64x64.sol\":4536:4578  result >= MIN_64x64 && result <= MAX_64x64 */\n      dup1\n      iszero\n      tag_176\n      jumpi\n      pop\n        /* \"abdk-libraries-solidity/ABDKMath64x64.sol\":958:992  0x7FFFFFFFFFFFFFFFFFFFFFFFFFFFFFFF */\n      0x7fffffffffffffffffffffffffffffff\n        /* \"abdk-libraries-solidity/ABDKMath64x64.sol\":4559:4578  result <= MAX_64x64 */\n      0x0f\n      signextend\n        /* \"abdk-libraries-solidity/ABDKMath64x64.sol\":4559:4565  result */\n      dup2\n        /* \"abdk-libraries-solidity/ABDKMath64x64.sol\":4559:4578  result <= MAX_64x64 */\n      sgt\n      iszero\n        /* \"abdk-libraries-solidity/ABDKMath64x64.sol\":4536:4578  result >= MIN_64x64 && result <= MAX_64x64 */\n    tag_176:\n        /* \"abdk-libraries-solidity/ABDKMath64x64.sol\":4527:4579  require (result >= MIN_64x64 && result <= MAX_64x64) */\n      tag_177\n      jumpi\n      0x00\n      dup1\n      revert\n    tag_177:\n        /* \"abdk-libraries-solidity/ABDKMath64x64.sol\":4602:4608  result */\n      dup1\n        /* \"abdk-libraries-solidity/ABDKMath64x64.sol\":4587:4609  return int128 (result) */\n      swap2\n      pop\n      pop\n        /* \"abdk-libraries-solidity/ABDKMath64x64.sol\":4395:4620  function mul (int128 x, int128 y) internal pure returns (int128) {... */\n      swap3\n      swap2\n      pop\n      pop\n      jump\t// out\n        /* \"abdk-libraries-solidity/ABDKMath64x64.sol\":2365:2515  function toUInt (int128 x) internal pure returns (uint64) {... */\n    tag_71:\n        /* \"abdk-libraries-solidity/ABDKMath64x64.sol\":2415:2421  uint64 */\n      0x00\n        /* \"abdk-libraries-solidity/ABDKMath64x64.sol\":2461:2462  0 */\n      dup1\n        /* \"abdk-libraries-solidity/ABDKMath64x64.sol\":2456:2457  x */\n      dup3\n        /* \"abdk-libraries-solidity/ABDKMath64x64.sol\":2456:2462  x >= 0 */\n      0x0f\n      signextend\n      slt\n      iszero\n        /* \"abdk-libraries-solidity/ABDKMath64x64.sol\":2447:2463  require (x >= 0) */\n      tag_179\n      jumpi\n      0x00\n      dup1\n      revert\n    tag_179:\n        /* \"abdk-libraries-solidity/ABDKMath64x64.sol\":2500:2502  64 */\n      0x40\n        /* \"abdk-libraries-solidity/ABDKMath64x64.sol\":2495:2496  x */\n      dup3\n        /* \"abdk-libraries-solidity/ABDKMath64x64.sol\":2495:2502  x >> 64 */\n      0x0f\n      signextend\n      swap1\n      sar\n        /* \"abdk-libraries-solidity/ABDKMath64x64.sol\":2471:2504  return uint64 (uint128 (x >> 64)) */\n      swap1\n      pop\n        /* \"abdk-libraries-solidity/ABDKMath64x64.sol\":2365:2515  function toUInt (int128 x) internal pure returns (uint64) {... */\n      swap2\n      swap1\n      pop\n      jump\t// out\n        /* \"abdk-libraries-solidity/ABDKMath64x64.sol\":7586:8387  function divi (int256 x, int256 y) internal pure returns (int128) {... */\n    tag_120:\n        /* \"abdk-libraries-solidity/ABDKMath64x64.sol\":7644:7650  int128 */\n      0x00\n        /* \"abdk-libraries-solidity/ABDKMath64x64.sol\":7690:7691  0 */\n      dup1\n        /* \"abdk-libraries-solidity/ABDKMath64x64.sol\":7685:7686  y */\n      dup3\n        /* \"abdk-libraries-solidity/ABDKMath64x64.sol\":7685:7691  y != 0 */\n      sub\n        /* \"abdk-libraries-solidity/ABDKMath64x64.sol\":7676:7692  require (y != 0) */\n      tag_181\n      jumpi\n      0x00\n      dup1\n      revert\n    tag_181:\n        /* \"abdk-libraries-solidity/ABDKMath64x64.sol\":7701:7720  bool negativeResult */\n      0x00\n        /* \"abdk-libraries-solidity/ABDKMath64x64.sol\":7744:7745  0 */\n      dup1\n        /* \"abdk-libraries-solidity/ABDKMath64x64.sol\":7740:7741  x */\n      dup5\n        /* \"abdk-libraries-solidity/ABDKMath64x64.sol\":7740:7745  x < 0 */\n      slt\n        /* \"abdk-libraries-solidity/ABDKMath64x64.sol\":7736:7840  if (x < 0) {... */\n      iszero\n      tag_182\n      jumpi\n        /* \"abdk-libraries-solidity/ABDKMath64x64.sol\":7762:7763  x */\n      dup4\n        /* \"abdk-libraries-solidity/ABDKMath64x64.sol\":7761:7763  -x */\n      0x00\n      sub\n        /* \"abdk-libraries-solidity/ABDKMath64x64.sol\":7757:7763  x = -x */\n      swap4\n      pop\n        /* \"abdk-libraries-solidity/ABDKMath64x64.sol\":7827:7831  true */\n      0x01\n        /* \"abdk-libraries-solidity/ABDKMath64x64.sol\":7810:7831  negativeResult = true */\n      swap1\n      pop\n        /* \"abdk-libraries-solidity/ABDKMath64x64.sol\":7736:7840  if (x < 0) {... */\n    tag_182:\n        /* \"abdk-libraries-solidity/ABDKMath64x64.sol\":7855:7856  0 */\n      0x00\n        /* \"abdk-libraries-solidity/ABDKMath64x64.sol\":7851:7852  y */\n      dup4\n        /* \"abdk-libraries-solidity/ABDKMath64x64.sol\":7851:7856  y < 0 */\n      slt\n        /* \"abdk-libraries-solidity/ABDKMath64x64.sol\":7847:7962  if (y < 0) {... */\n      iszero\n      tag_183\n      jumpi\n        /* \"abdk-libraries-solidity/ABDKMath64x64.sol\":7873:7874  y */\n      dup3\n        /* \"abdk-libraries-solidity/ABDKMath64x64.sol\":7872:7874  -y */\n      0x00\n      sub\n        /* \"abdk-libraries-solidity/ABDKMath64x64.sol\":7868:7874  y = -y */\n      swap3\n      pop\n        /* \"abdk-libraries-solidity/ABDKMath64x64.sol\":7939:7953  negativeResult */\n      dup1\n        /* \"abdk-libraries-solidity/ABDKMath64x64.sol\":7938:7953  !negativeResult */\n      iszero\n        /* \"abdk-libraries-solidity/ABDKMath64x64.sol\":7921:7953  negativeResult = !negativeResult */\n      swap1\n      pop\n        /* \"abdk-libraries-solidity/ABDKMath64x64.sol\":7847:7962  if (y < 0) {... */\n    tag_183:\n        /* \"abdk-libraries-solidity/ABDKMath64x64.sol\":7969:7991  uint128 absoluteResult */\n      0x00\n        /* \"abdk-libraries-solidity/ABDKMath64x64.sol\":7994:8026  divuu (uint256 (x), uint256 (y)) */\n      tag_184\n        /* \"abdk-libraries-solidity/ABDKMath64x64.sol\":8010:8011  x */\n      dup6\n        /* \"abdk-libraries-solidity/ABDKMath64x64.sol\":8023:8024  y */\n      dup6\n        /* \"abdk-libraries-solidity/ABDKMath64x64.sol\":7994:7999  divuu */\n      tag_185\n        /* \"abdk-libraries-solidity/ABDKMath64x64.sol\":7994:8026  divuu (uint256 (x), uint256 (y)) */\n      jump\t// in\n    tag_184:\n        /* \"abdk-libraries-solidity/ABDKMath64x64.sol\":7969:8026  uint128 absoluteResult = divuu (uint256 (x), uint256 (y)) */\n      swap1\n      pop\n        /* \"abdk-libraries-solidity/ABDKMath64x64.sol\":8038:8052  negativeResult */\n      dup2\n        /* \"abdk-libraries-solidity/ABDKMath64x64.sol\":8034:8377  if (negativeResult) {... */\n      iszero\n      tag_186\n      jumpi\n        /* \"abdk-libraries-solidity/ABDKMath64x64.sol\":8091:8125  0x80000000000000000000000000000000 */\n      0x80000000000000000000000000000000\n        /* \"abdk-libraries-solidity/ABDKMath64x64.sol\":8073:8087  absoluteResult */\n      dup2\n        /* \"abdk-libraries-solidity/ABDKMath64x64.sol\":8073:8125  absoluteResult <= 0x80000000000000000000000000000000 */\n      0xffffffffffffffffffffffffffffffff\n      and\n      gt\n      iszero\n        /* \"abdk-libraries-solidity/ABDKMath64x64.sol\":8064:8126  require (absoluteResult <= 0x80000000000000000000000000000000) */\n      tag_187\n      jumpi\n      0x00\n      dup1\n      revert\n    tag_187:\n        /* \"abdk-libraries-solidity/ABDKMath64x64.sol\":8152:8166  absoluteResult */\n      dup1\n        /* \"abdk-libraries-solidity/ABDKMath64x64.sol\":8143:8167  -int128 (absoluteResult) */\n      0x00\n      sub\n        /* \"abdk-libraries-solidity/ABDKMath64x64.sol\":8136:8167  return -int128 (absoluteResult) */\n      swap3\n      pop\n      pop\n      pop\n      jump(tag_180)\n        /* \"abdk-libraries-solidity/ABDKMath64x64.sol\":8034:8377  if (negativeResult) {... */\n    tag_186:\n        /* \"abdk-libraries-solidity/ABDKMath64x64.sol\":8256:8290  0x7FFFFFFFFFFFFFFFFFFFFFFFFFFFFFFF */\n      0x7fffffffffffffffffffffffffffffff\n        /* \"abdk-libraries-solidity/ABDKMath64x64.sol\":8238:8252  absoluteResult */\n      dup2\n        /* \"abdk-libraries-solidity/ABDKMath64x64.sol\":8238:8290  absoluteResult <= 0x7FFFFFFFFFFFFFFFFFFFFFFFFFFFFFFF */\n      0xffffffffffffffffffffffffffffffff\n      and\n      gt\n      iszero\n        /* \"abdk-libraries-solidity/ABDKMath64x64.sol\":8229:8291  require (absoluteResult <= 0x7FFFFFFFFFFFFFFFFFFFFFFFFFFFFFFF) */\n      tag_189\n      jumpi\n      0x00\n      dup1\n      revert\n    tag_189:\n        /* \"abdk-libraries-solidity/ABDKMath64x64.sol\":8316:8330  absoluteResult */\n      dup1\n        /* \"abdk-libraries-solidity/ABDKMath64x64.sol\":8301:8331  return int128 (absoluteResult) */\n      swap3\n      pop\n      pop\n      pop\n        /* \"abdk-libraries-solidity/ABDKMath64x64.sol\":7586:8387  function divi (int256 x, int256 y) internal pure returns (int128) {... */\n    tag_180:\n      swap3\n      swap2\n      pop\n      pop\n      jump\t// out\n        /* \"abdk-libraries-solidity/ABDKMath64x64.sol\":23169:24454  function divuu (uint256 x, uint256 y) private pure returns (uint128) {... */\n    tag_185:\n        /* \"abdk-libraries-solidity/ABDKMath64x64.sol\":23229:23236  uint128 */\n      0x00\n        /* \"abdk-libraries-solidity/ABDKMath64x64.sol\":23276:23277  0 */\n      dup1\n        /* \"abdk-libraries-solidity/ABDKMath64x64.sol\":23271:23272  y */\n      dup3\n        /* \"abdk-libraries-solidity/ABDKMath64x64.sol\":23271:23277  y != 0 */\n      sub\n        /* \"abdk-libraries-solidity/ABDKMath64x64.sol\":23262:23278  require (y != 0) */\n      tag_191\n      jumpi\n      0x00\n      dup1\n      revert\n    tag_191:\n        /* \"abdk-libraries-solidity/ABDKMath64x64.sol\":23287:23301  uint256 result */\n      0x00\n        /* \"abdk-libraries-solidity/ABDKMath64x64.sol\":23319:23369  0xFFFFFFFFFFFFFFFFFFFFFFFFFFFFFFFFFFFFFFFFFFFFFFFF */\n      0xffffffffffffffffffffffffffffffffffffffffffffffff\n        /* \"abdk-libraries-solidity/ABDKMath64x64.sol\":23314:23315  x */\n      dup5\n        /* \"abdk-libraries-solidity/ABDKMath64x64.sol\":23314:23369  x <= 0xFFFFFFFFFFFFFFFFFFFFFFFFFFFFFFFFFFFFFFFFFFFFFFFF */\n      gt\n        /* \"abdk-libraries-solidity/ABDKMath64x64.sol\":23310:24350  if (x <= 0xFFFFFFFFFFFFFFFFFFFFFFFFFFFFFFFFFFFFFFFFFFFFFFFF)... */\n      tag_192\n      jumpi\n        /* \"abdk-libraries-solidity/ABDKMath64x64.sol\":23400:23401  y */\n      dup3\n        /* \"abdk-libraries-solidity/ABDKMath64x64.sol\":23394:23396  64 */\n      0x40\n        /* \"abdk-libraries-solidity/ABDKMath64x64.sol\":23389:23390  x */\n      dup6\n        /* \"abdk-libraries-solidity/ABDKMath64x64.sol\":23389:23396  x << 64 */\n      swap1\n      shl\n        /* \"abdk-libraries-solidity/ABDKMath64x64.sol\":23388:23401  (x << 64) / y */\n      dup2\n      tag_193\n      jumpi\n      tag_194\n      tag_172\n      jump\t// in\n    tag_194:\n    tag_193:\n      div\n        /* \"abdk-libraries-solidity/ABDKMath64x64.sol\":23379:23401  result = (x << 64) / y */\n      swap1\n      pop\n        /* \"abdk-libraries-solidity/ABDKMath64x64.sol\":23310:24350  if (x <= 0xFFFFFFFFFFFFFFFFFFFFFFFFFFFFFFFFFFFFFFFFFFFFFFFF)... */\n      jump(tag_195)\n    tag_192:\n        /* \"abdk-libraries-solidity/ABDKMath64x64.sol\":23424:23435  uint256 msb */\n      0x00\n        /* \"abdk-libraries-solidity/ABDKMath64x64.sol\":23438:23441  192 */\n      0xc0\n        /* \"abdk-libraries-solidity/ABDKMath64x64.sol\":23424:23441  uint256 msb = 192 */\n      swap1\n      pop\n        /* \"abdk-libraries-solidity/ABDKMath64x64.sol\":23451:23461  uint256 xc */\n      0x00\n        /* \"abdk-libraries-solidity/ABDKMath64x64.sol\":23469:23472  192 */\n      0xc0\n        /* \"abdk-libraries-solidity/ABDKMath64x64.sol\":23464:23465  x */\n      dup7\n        /* \"abdk-libraries-solidity/ABDKMath64x64.sol\":23464:23472  x >> 192 */\n      swap1\n      shr\n        /* \"abdk-libraries-solidity/ABDKMath64x64.sol\":23451:23472  uint256 xc = x >> 192 */\n      swap1\n      pop\n        /* \"abdk-libraries-solidity/ABDKMath64x64.sol\":23492:23503  0x100000000 */\n      0x0100000000\n        /* \"abdk-libraries-solidity/ABDKMath64x64.sol\":23486:23488  xc */\n      dup2\n        /* \"abdk-libraries-solidity/ABDKMath64x64.sol\":23486:23503  xc >= 0x100000000 */\n      lt\n        /* \"abdk-libraries-solidity/ABDKMath64x64.sol\":23482:23530  if (xc >= 0x100000000) { xc >>= 32; msb += 32; } */\n      tag_196\n      jumpi\n        /* \"abdk-libraries-solidity/ABDKMath64x64.sol\":23514:23516  32 */\n      0x20\n        /* \"abdk-libraries-solidity/ABDKMath64x64.sol\":23507:23516  xc >>= 32 */\n      dup2\n      swap1\n      shr\n      swap1\n      pop\n        /* \"abdk-libraries-solidity/ABDKMath64x64.sol\":23525:23527  32 */\n      0x20\n        /* \"abdk-libraries-solidity/ABDKMath64x64.sol\":23518:23527  msb += 32 */\n      dup3\n      add\n      swap2\n      pop\n        /* \"abdk-libraries-solidity/ABDKMath64x64.sol\":23482:23530  if (xc >= 0x100000000) { xc >>= 32; msb += 32; } */\n    tag_196:\n        /* \"abdk-libraries-solidity/ABDKMath64x64.sol\":23549:23556  0x10000 */\n      0x010000\n        /* \"abdk-libraries-solidity/ABDKMath64x64.sol\":23543:23545  xc */\n      dup2\n        /* \"abdk-libraries-solidity/ABDKMath64x64.sol\":23543:23556  xc >= 0x10000 */\n      lt\n        /* \"abdk-libraries-solidity/ABDKMath64x64.sol\":23539:23583  if (xc >= 0x10000) { xc >>= 16; msb += 16; } */\n      tag_197\n      jumpi\n        /* \"abdk-libraries-solidity/ABDKMath64x64.sol\":23567:23569  16 */\n      0x10\n        /* \"abdk-libraries-solidity/ABDKMath64x64.sol\":23560:23569  xc >>= 16 */\n      dup2\n      swap1\n      shr\n      swap1\n      pop\n        /* \"abdk-libraries-solidity/ABDKMath64x64.sol\":23578:23580  16 */\n      0x10\n        /* \"abdk-libraries-solidity/ABDKMath64x64.sol\":23571:23580  msb += 16 */\n      dup3\n      add\n      swap2\n      pop\n        /* \"abdk-libraries-solidity/ABDKMath64x64.sol\":23539:23583  if (xc >= 0x10000) { xc >>= 16; msb += 16; } */\n    tag_197:\n        /* \"abdk-libraries-solidity/ABDKMath64x64.sol\":23602:23607  0x100 */\n      0x0100\n        /* \"abdk-libraries-solidity/ABDKMath64x64.sol\":23596:23598  xc */\n      dup2\n        /* \"abdk-libraries-solidity/ABDKMath64x64.sol\":23596:23607  xc >= 0x100 */\n      lt\n        /* \"abdk-libraries-solidity/ABDKMath64x64.sol\":23592:23632  if (xc >= 0x100) { xc >>= 8; msb += 8; } */\n      tag_198\n      jumpi\n        /* \"abdk-libraries-solidity/ABDKMath64x64.sol\":23618:23619  8 */\n      0x08\n        /* \"abdk-libraries-solidity/ABDKMath64x64.sol\":23611:23619  xc >>= 8 */\n      dup2\n      swap1\n      shr\n      swap1\n      pop\n        /* \"abdk-libraries-solidity/ABDKMath64x64.sol\":23628:23629  8 */\n      0x08\n        /* \"abdk-libraries-solidity/ABDKMath64x64.sol\":23621:23629  msb += 8 */\n      dup3\n      add\n      swap2\n      pop\n        /* \"abdk-libraries-solidity/ABDKMath64x64.sol\":23592:23632  if (xc >= 0x100) { xc >>= 8; msb += 8; } */\n    tag_198:\n        /* \"abdk-libraries-solidity/ABDKMath64x64.sol\":23651:23655  0x10 */\n      0x10\n        /* \"abdk-libraries-solidity/ABDKMath64x64.sol\":23645:23647  xc */\n      dup2\n        /* \"abdk-libraries-solidity/ABDKMath64x64.sol\":23645:23655  xc >= 0x10 */\n      lt\n        /* \"abdk-libraries-solidity/ABDKMath64x64.sol\":23641:23680  if (xc >= 0x10) { xc >>= 4; msb += 4; } */\n      tag_199\n      jumpi\n        /* \"abdk-libraries-solidity/ABDKMath64x64.sol\":23666:23667  4 */\n      0x04\n        /* \"abdk-libraries-solidity/ABDKMath64x64.sol\":23659:23667  xc >>= 4 */\n      dup2\n      swap1\n      shr\n      swap1\n      pop\n        /* \"abdk-libraries-solidity/ABDKMath64x64.sol\":23676:23677  4 */\n      0x04\n        /* \"abdk-libraries-solidity/ABDKMath64x64.sol\":23669:23677  msb += 4 */\n      dup3\n      add\n      swap2\n      pop\n        /* \"abdk-libraries-solidity/ABDKMath64x64.sol\":23641:23680  if (xc >= 0x10) { xc >>= 4; msb += 4; } */\n    tag_199:\n        /* \"abdk-libraries-solidity/ABDKMath64x64.sol\":23699:23702  0x4 */\n      0x04\n        /* \"abdk-libraries-solidity/ABDKMath64x64.sol\":23693:23695  xc */\n      dup2\n        /* \"abdk-libraries-solidity/ABDKMath64x64.sol\":23693:23702  xc >= 0x4 */\n      lt\n        /* \"abdk-libraries-solidity/ABDKMath64x64.sol\":23689:23727  if (xc >= 0x4) { xc >>= 2; msb += 2; } */\n      tag_200\n      jumpi\n        /* \"abdk-libraries-solidity/ABDKMath64x64.sol\":23713:23714  2 */\n      0x02\n        /* \"abdk-libraries-solidity/ABDKMath64x64.sol\":23706:23714  xc >>= 2 */\n      dup2\n      swap1\n      shr\n      swap1\n      pop\n        /* \"abdk-libraries-solidity/ABDKMath64x64.sol\":23723:23724  2 */\n      0x02\n        /* \"abdk-libraries-solidity/ABDKMath64x64.sol\":23716:23724  msb += 2 */\n      dup3\n      add\n      swap2\n      pop\n        /* \"abdk-libraries-solidity/ABDKMath64x64.sol\":23689:23727  if (xc >= 0x4) { xc >>= 2; msb += 2; } */\n    tag_200:\n        /* \"abdk-libraries-solidity/ABDKMath64x64.sol\":23746:23749  0x2 */\n      0x02\n        /* \"abdk-libraries-solidity/ABDKMath64x64.sol\":23740:23742  xc */\n      dup2\n        /* \"abdk-libraries-solidity/ABDKMath64x64.sol\":23740:23749  xc >= 0x2 */\n      lt\n        /* \"abdk-libraries-solidity/ABDKMath64x64.sol\":23736:23759  if (xc >= 0x2) msb += 1 */\n      tag_201\n      jumpi\n        /* \"abdk-libraries-solidity/ABDKMath64x64.sol\":23758:23759  1 */\n      0x01\n        /* \"abdk-libraries-solidity/ABDKMath64x64.sol\":23751:23759  msb += 1 */\n      dup3\n      add\n      swap2\n      pop\n        /* \"abdk-libraries-solidity/ABDKMath64x64.sol\":23736:23759  if (xc >= 0x2) msb += 1 */\n    tag_201:\n        /* \"abdk-libraries-solidity/ABDKMath64x64.sol\":23854:23855  1 */\n      0x01\n        /* \"abdk-libraries-solidity/ABDKMath64x64.sol\":23847:23850  191 */\n      0xbf\n        /* \"abdk-libraries-solidity/ABDKMath64x64.sol\":23841:23844  msb */\n      dup4\n        /* \"abdk-libraries-solidity/ABDKMath64x64.sol\":23841:23850  msb - 191 */\n      sub\n        /* \"abdk-libraries-solidity/ABDKMath64x64.sol\":23836:23837  1 */\n      0x01\n        /* \"abdk-libraries-solidity/ABDKMath64x64.sol\":23832:23833  y */\n      dup8\n        /* \"abdk-libraries-solidity/ABDKMath64x64.sol\":23832:23837  y - 1 */\n      sub\n        /* \"abdk-libraries-solidity/ABDKMath64x64.sol\":23832:23850  y - 1 >> msb - 191 */\n      swap1\n      shr\n        /* \"abdk-libraries-solidity/ABDKMath64x64.sol\":23831:23855  (y - 1 >> msb - 191) + 1 */\n      add\n        /* \"abdk-libraries-solidity/ABDKMath64x64.sol\":23823:23826  msb */\n      dup3\n        /* \"abdk-libraries-solidity/ABDKMath64x64.sol\":23817:23820  255 */\n      0xff\n        /* \"abdk-libraries-solidity/ABDKMath64x64.sol\":23817:23826  255 - msb */\n      sub\n        /* \"abdk-libraries-solidity/ABDKMath64x64.sol\":23812:23813  x */\n      dup8\n        /* \"abdk-libraries-solidity/ABDKMath64x64.sol\":23812:23826  x << 255 - msb */\n      swap1\n      shl\n        /* \"abdk-libraries-solidity/ABDKMath64x64.sol\":23811:23856  (x << 255 - msb) / ((y - 1 >> msb - 191) + 1) */\n      dup2\n      tag_202\n      jumpi\n      tag_203\n      tag_172\n      jump\t// in\n    tag_203:\n    tag_202:\n      div\n        /* \"abdk-libraries-solidity/ABDKMath64x64.sol\":23802:23856  result = (x << 255 - msb) / ((y - 1 >> msb - 191) + 1) */\n      swap3\n      pop\n        /* \"abdk-libraries-solidity/ABDKMath64x64.sol\":23885:23919  0xFFFFFFFFFFFFFFFFFFFFFFFFFFFFFFFF */\n      0xffffffffffffffffffffffffffffffff\n        /* \"abdk-libraries-solidity/ABDKMath64x64.sol\":23875:23881  result */\n      dup4\n        /* \"abdk-libraries-solidity/ABDKMath64x64.sol\":23875:23919  result <= 0xFFFFFFFFFFFFFFFFFFFFFFFFFFFFFFFF */\n      gt\n      iszero\n        /* \"abdk-libraries-solidity/ABDKMath64x64.sol\":23866:23920  require (result <= 0xFFFFFFFFFFFFFFFFFFFFFFFFFFFFFFFF) */\n      tag_204\n      jumpi\n      0x00\n      dup1\n      revert\n    tag_204:\n        /* \"abdk-libraries-solidity/ABDKMath64x64.sol\":23931:23941  uint256 hi */\n      0x00\n        /* \"abdk-libraries-solidity/ABDKMath64x64.sol\":23959:23962  128 */\n      0x80\n        /* \"abdk-libraries-solidity/ABDKMath64x64.sol\":23954:23955  y */\n      dup7\n        /* \"abdk-libraries-solidity/ABDKMath64x64.sol\":23954:23962  y >> 128 */\n      swap1\n      shr\n        /* \"abdk-libraries-solidity/ABDKMath64x64.sol\":23944:23950  result */\n      dup5\n        /* \"abdk-libraries-solidity/ABDKMath64x64.sol\":23944:23963  result * (y >> 128) */\n      mul\n        /* \"abdk-libraries-solidity/ABDKMath64x64.sol\":23931:23963  uint256 hi = result * (y >> 128) */\n      swap1\n      pop\n        /* \"abdk-libraries-solidity/ABDKMath64x64.sol\":23973:23983  uint256 lo */\n      0x00\n        /* \"abdk-libraries-solidity/ABDKMath64x64.sol\":24000:24034  0xFFFFFFFFFFFFFFFFFFFFFFFFFFFFFFFF */\n      0xffffffffffffffffffffffffffffffff\n        /* \"abdk-libraries-solidity/ABDKMath64x64.sol\":23996:23997  y */\n      dup8\n        /* \"abdk-libraries-solidity/ABDKMath64x64.sol\":23996:24034  y & 0xFFFFFFFFFFFFFFFFFFFFFFFFFFFFFFFF */\n      and\n        /* \"abdk-libraries-solidity/ABDKMath64x64.sol\":23986:23992  result */\n      dup6\n        /* \"abdk-libraries-solidity/ABDKMath64x64.sol\":23986:24035  result * (y & 0xFFFFFFFFFFFFFFFFFFFFFFFFFFFFFFFF) */\n      mul\n        /* \"abdk-libraries-solidity/ABDKMath64x64.sol\":23973:24035  uint256 lo = result * (y & 0xFFFFFFFFFFFFFFFFFFFFFFFFFFFFFFFF) */\n      swap1\n      pop\n        /* \"abdk-libraries-solidity/ABDKMath64x64.sol\":24046:24056  uint256 xh */\n      0x00\n        /* \"abdk-libraries-solidity/ABDKMath64x64.sol\":24064:24067  192 */\n      0xc0\n        /* \"abdk-libraries-solidity/ABDKMath64x64.sol\":24059:24060  x */\n      dup10\n        /* \"abdk-libraries-solidity/ABDKMath64x64.sol\":24059:24067  x >> 192 */\n      swap1\n      shr\n        /* \"abdk-libraries-solidity/ABDKMath64x64.sol\":24046:24067  uint256 xh = x >> 192 */\n      swap1\n      pop\n        /* \"abdk-libraries-solidity/ABDKMath64x64.sol\":24077:24087  uint256 xl */\n      0x00\n        /* \"abdk-libraries-solidity/ABDKMath64x64.sol\":24095:24097  64 */\n      0x40\n        /* \"abdk-libraries-solidity/ABDKMath64x64.sol\":24090:24091  x */\n      dup11\n        /* \"abdk-libraries-solidity/ABDKMath64x64.sol\":24090:24097  x << 64 */\n      swap1\n      shl\n        /* \"abdk-libraries-solidity/ABDKMath64x64.sol\":24077:24097  uint256 xl = x << 64 */\n      swap1\n      pop\n        /* \"abdk-libraries-solidity/ABDKMath64x64.sol\":24117:24119  lo */\n      dup3\n        /* \"abdk-libraries-solidity/ABDKMath64x64.sol\":24112:24114  xl */\n      dup2\n        /* \"abdk-libraries-solidity/ABDKMath64x64.sol\":24112:24119  xl < lo */\n      lt\n        /* \"abdk-libraries-solidity/ABDKMath64x64.sol\":24108:24128  if (xl < lo) xh -= 1 */\n      iszero\n      tag_205\n      jumpi\n        /* \"abdk-libraries-solidity/ABDKMath64x64.sol\":24127:24128  1 */\n      0x01\n        /* \"abdk-libraries-solidity/ABDKMath64x64.sol\":24121:24128  xh -= 1 */\n      dup3\n      sub\n      swap2\n      pop\n        /* \"abdk-libraries-solidity/ABDKMath64x64.sol\":24108:24128  if (xl < lo) xh -= 1 */\n    tag_205:\n        /* \"abdk-libraries-solidity/ABDKMath64x64.sol\":24144:24146  lo */\n      dup3\n        /* \"abdk-libraries-solidity/ABDKMath64x64.sol\":24138:24146  xl -= lo */\n      dup2\n      sub\n      swap1\n      pop\n        /* \"abdk-libraries-solidity/ABDKMath64x64.sol\":24204:24207  128 */\n      0x80\n        /* \"abdk-libraries-solidity/ABDKMath64x64.sol\":24198:24200  hi */\n      dup5\n        /* \"abdk-libraries-solidity/ABDKMath64x64.sol\":24198:24207  hi << 128 */\n      swap1\n      shl\n        /* \"abdk-libraries-solidity/ABDKMath64x64.sol\":24193:24207  lo = hi << 128 */\n      swap3\n      pop\n        /* \"abdk-libraries-solidity/ABDKMath64x64.sol\":24226:24228  lo */\n      dup3\n        /* \"abdk-libraries-solidity/ABDKMath64x64.sol\":24221:24223  xl */\n      dup2\n        /* \"abdk-libraries-solidity/ABDKMath64x64.sol\":24221:24228  xl < lo */\n      lt\n        /* \"abdk-libraries-solidity/ABDKMath64x64.sol\":24217:24237  if (xl < lo) xh -= 1 */\n      iszero\n      tag_206\n      jumpi\n        /* \"abdk-libraries-solidity/ABDKMath64x64.sol\":24236:24237  1 */\n      0x01\n        /* \"abdk-libraries-solidity/ABDKMath64x64.sol\":24230:24237  xh -= 1 */\n      dup3\n      sub\n      swap2\n      pop\n        /* \"abdk-libraries-solidity/ABDKMath64x64.sol\":24217:24237  if (xl < lo) xh -= 1 */\n    tag_206:\n        /* \"abdk-libraries-solidity/ABDKMath64x64.sol\":24253:24255  lo */\n      dup3\n        /* \"abdk-libraries-solidity/ABDKMath64x64.sol\":24247:24255  xl -= lo */\n      dup2\n      sub\n      swap1\n      pop\n        /* \"abdk-libraries-solidity/ABDKMath64x64.sol\":24325:24328  128 */\n      0x80\n        /* \"abdk-libraries-solidity/ABDKMath64x64.sol\":24319:24321  hi */\n      dup5\n        /* \"abdk-libraries-solidity/ABDKMath64x64.sol\":24319:24328  hi >> 128 */\n      swap1\n      shr\n        /* \"abdk-libraries-solidity/ABDKMath64x64.sol\":24313:24315  xh */\n      dup3\n        /* \"abdk-libraries-solidity/ABDKMath64x64.sol\":24313:24328  xh == hi >> 128 */\n      eq\n        /* \"abdk-libraries-solidity/ABDKMath64x64.sol\":24313:24341  xh == hi >> 128 ? xl / y : 1 */\n      tag_207\n      jumpi\n        /* \"abdk-libraries-solidity/ABDKMath64x64.sol\":24340:24341  1 */\n      0x01\n        /* \"abdk-libraries-solidity/ABDKMath64x64.sol\":24313:24341  xh == hi >> 128 ? xl / y : 1 */\n      jump(tag_208)\n    tag_207:\n        /* \"abdk-libraries-solidity/ABDKMath64x64.sol\":24336:24337  y */\n      dup9\n        /* \"abdk-libraries-solidity/ABDKMath64x64.sol\":24331:24333  xl */\n      dup2\n        /* \"abdk-libraries-solidity/ABDKMath64x64.sol\":24331:24337  xl / y */\n      dup2\n      tag_209\n      jumpi\n      tag_210\n      tag_172\n      jump\t// in\n    tag_210:\n    tag_209:\n      div\n        /* \"abdk-libraries-solidity/ABDKMath64x64.sol\":24313:24341  xh == hi >> 128 ? xl / y : 1 */\n    tag_208:\n        /* \"abdk-libraries-solidity/ABDKMath64x64.sol\":24303:24341  result += xh == hi >> 128 ? xl / y : 1 */\n      dup8\n      add\n      swap7\n      pop\n        /* \"abdk-libraries-solidity/ABDKMath64x64.sol\":23414:24350  {... */\n      pop\n      pop\n      pop\n      pop\n      pop\n      pop\n        /* \"abdk-libraries-solidity/ABDKMath64x64.sol\":23310:24350  if (x <= 0xFFFFFFFFFFFFFFFFFFFFFFFFFFFFFFFFFFFFFFFFFFFFFFFF)... */\n    tag_195:\n        /* \"abdk-libraries-solidity/ABDKMath64x64.sol\":24377:24411  0xFFFFFFFFFFFFFFFFFFFFFFFFFFFFFFFF */\n      0xffffffffffffffffffffffffffffffff\n        /* \"abdk-libraries-solidity/ABDKMath64x64.sol\":24367:24373  result */\n      dup2\n        /* \"abdk-libraries-solidity/ABDKMath64x64.sol\":24367:24411  result <= 0xFFFFFFFFFFFFFFFFFFFFFFFFFFFFFFFF */\n      gt\n      iszero\n        /* \"abdk-libraries-solidity/ABDKMath64x64.sol\":24358:24412  require (result <= 0xFFFFFFFFFFFFFFFFFFFFFFFFFFFFFFFF) */\n      tag_211\n      jumpi\n      0x00\n      dup1\n      revert\n    tag_211:\n        /* \"abdk-libraries-solidity/ABDKMath64x64.sol\":24436:24442  result */\n      dup1\n        /* \"abdk-libraries-solidity/ABDKMath64x64.sol\":24420:24443  return uint128 (result) */\n      swap2\n      pop\n      pop\n        /* \"abdk-libraries-solidity/ABDKMath64x64.sol\":23169:24454  function divuu (uint256 x, uint256 y) private pure returns (uint128) {... */\n      swap3\n      swap2\n      pop\n      pop\n      jump\t// out\n    tag_122:\n      mload(0x40)\n      dup1\n      0x40\n      add\n      0x40\n      mstore\n      dup1\n      0x02\n      swap1\n      0x20\n      dup3\n      mul\n      dup1\n      calldatasize\n      dup4\n      calldatacopy\n      dup1\n      dup3\n      add\n      swap2\n      pop\n      pop\n      swap1\n      pop\n      pop\n      swap1\n      jump\t// out\n    tag_150:\n      mload(0x40)\n      dup1\n      0x80\n      add\n      0x40\n      mstore\n      dup1\n      0x04\n      swap1\n    tag_212:\n      tag_213\n      tag_214\n      jump\t// in\n    tag_213:\n      dup2\n      mstore\n      0x20\n      add\n      swap1\n      0x01\n      swap1\n      sub\n      swap1\n      dup2\n      tag_212\n      jumpi\n      swap1\n      pop\n      pop\n      swap1\n      jump\t// out\n    tag_214:\n      mload(0x40)\n      dup1\n      0x40\n      add\n      0x40\n      mstore\n      dup1\n      0x02\n      swap1\n      0x20\n      dup3\n      mul\n      dup1\n      calldatasize\n      dup4\n      calldatacopy\n      dup1\n      dup3\n      add\n      swap2\n      pop\n      pop\n      swap1\n      pop\n      pop\n      swap1\n      jump\t// out\n        /* \"#utility.yul\":88:205   */\n    tag_216:\n        /* \"#utility.yul\":197:198   */\n      0x00\n        /* \"#utility.yul\":194:195   */\n      dup1\n        /* \"#utility.yul\":187:199   */\n      revert\n        /* \"#utility.yul\":334:427   */\n    tag_218:\n        /* \"#utility.yul\":370:377   */\n      0x00\n        /* \"#utility.yul\":410:420   */\n      0xffffffff\n        /* \"#utility.yul\":403:408   */\n      dup3\n        /* \"#utility.yul\":399:421   */\n      and\n        /* \"#utility.yul\":388:421   */\n      swap1\n      pop\n        /* \"#utility.yul\":334:427   */\n      swap2\n      swap1\n      pop\n      jump\t// out\n        /* \"#utility.yul\":433:553   */\n    tag_219:\n        /* \"#utility.yul\":505:528   */\n      tag_269\n        /* \"#utility.yul\":522:527   */\n      dup2\n        /* \"#utility.yul\":505:528   */\n      tag_218\n      jump\t// in\n    tag_269:\n        /* \"#utility.yul\":498:503   */\n      dup2\n        /* \"#utility.yul\":495:529   */\n      eq\n        /* \"#utility.yul\":485:547   */\n      tag_270\n      jumpi\n        /* \"#utility.yul\":543:544   */\n      0x00\n        /* \"#utility.yul\":540:541   */\n      dup1\n        /* \"#utility.yul\":533:545   */\n      revert\n        /* \"#utility.yul\":485:547   */\n    tag_270:\n        /* \"#utility.yul\":433:553   */\n      pop\n      jump\t// out\n        /* \"#utility.yul\":559:696   */\n    tag_220:\n        /* \"#utility.yul\":604:609   */\n      0x00\n        /* \"#utility.yul\":642:648   */\n      dup2\n        /* \"#utility.yul\":629:649   */\n      calldataload\n        /* \"#utility.yul\":620:649   */\n      swap1\n      pop\n        /* \"#utility.yul\":658:690   */\n      tag_272\n        /* \"#utility.yul\":684:689   */\n      dup2\n        /* \"#utility.yul\":658:690   */\n      tag_219\n      jump\t// in\n    tag_272:\n        /* \"#utility.yul\":559:696   */\n      swap3\n      swap2\n      pop\n      pop\n      jump\t// out\n        /* \"#utility.yul\":702:1459   */\n    tag_10:\n        /* \"#utility.yul\":784:790   */\n      0x00\n        /* \"#utility.yul\":792:798   */\n      dup1\n        /* \"#utility.yul\":800:806   */\n      0x00\n        /* \"#utility.yul\":808:814   */\n      dup1\n        /* \"#utility.yul\":857:860   */\n      0x80\n        /* \"#utility.yul\":845:854   */\n      dup6\n        /* \"#utility.yul\":836:843   */\n      dup8\n        /* \"#utility.yul\":832:855   */\n      sub\n        /* \"#utility.yul\":828:861   */\n      slt\n        /* \"#utility.yul\":825:945   */\n      iszero\n      tag_274\n      jumpi\n        /* \"#utility.yul\":864:943   */\n      tag_275\n      tag_216\n      jump\t// in\n    tag_275:\n        /* \"#utility.yul\":825:945   */\n    tag_274:\n        /* \"#utility.yul\":984:985   */\n      0x00\n        /* \"#utility.yul\":1009:1061   */\n      tag_276\n        /* \"#utility.yul\":1053:1060   */\n      dup8\n        /* \"#utility.yul\":1044:1050   */\n      dup3\n        /* \"#utility.yul\":1033:1042   */\n      dup9\n        /* \"#utility.yul\":1029:1051   */\n      add\n        /* \"#utility.yul\":1009:1061   */\n      tag_220\n      jump\t// in\n    tag_276:\n        /* \"#utility.yul\":999:1061   */\n      swap5\n      pop\n        /* \"#utility.yul\":955:1071   */\n      pop\n        /* \"#utility.yul\":1110:1112   */\n      0x20\n        /* \"#utility.yul\":1136:1188   */\n      tag_277\n        /* \"#utility.yul\":1180:1187   */\n      dup8\n        /* \"#utility.yul\":1171:1177   */\n      dup3\n        /* \"#utility.yul\":1160:1169   */\n      dup9\n        /* \"#utility.yul\":1156:1178   */\n      add\n        /* \"#utility.yul\":1136:1188   */\n      tag_220\n      jump\t// in\n    tag_277:\n        /* \"#utility.yul\":1126:1188   */\n      swap4\n      pop\n        /* \"#utility.yul\":1081:1198   */\n      pop\n        /* \"#utility.yul\":1237:1239   */\n      0x40\n        /* \"#utility.yul\":1263:1315   */\n      tag_278\n        /* \"#utility.yul\":1307:1314   */\n      dup8\n        /* \"#utility.yul\":1298:1304   */\n      dup3\n        /* \"#utility.yul\":1287:1296   */\n      dup9\n        /* \"#utility.yul\":1283:1305   */\n      add\n        /* \"#utility.yul\":1263:1315   */\n      tag_220\n      jump\t// in\n    tag_278:\n        /* \"#utility.yul\":1253:1315   */\n      swap3\n      pop\n        /* \"#utility.yul\":1208:1325   */\n      pop\n        /* \"#utility.yul\":1364:1366   */\n      0x60\n        /* \"#utility.yul\":1390:1442   */\n      tag_279\n        /* \"#utility.yul\":1434:1441   */\n      dup8\n        /* \"#utility.yul\":1425:1431   */\n      dup3\n        /* \"#utility.yul\":1414:1423   */\n      dup9\n        /* \"#utility.yul\":1410:1432   */\n      add\n        /* \"#utility.yul\":1390:1442   */\n      tag_220\n      jump\t// in\n    tag_279:\n        /* \"#utility.yul\":1380:1442   */\n      swap2\n      pop\n        /* \"#utility.yul\":1335:1452   */\n      pop\n        /* \"#utility.yul\":702:1459   */\n      swap3\n      swap6\n      swap2\n      swap5\n      pop\n      swap3\n      pop\n      jump\t// out\n        /* \"#utility.yul\":1465:1542   */\n    tag_221:\n        /* \"#utility.yul\":1502:1509   */\n      0x00\n        /* \"#utility.yul\":1531:1536   */\n      dup2\n        /* \"#utility.yul\":1520:1536   */\n      swap1\n      pop\n        /* \"#utility.yul\":1465:1542   */\n      swap2\n      swap1\n      pop\n      jump\t// out\n        /* \"#utility.yul\":1548:1674   */\n    tag_222:\n        /* \"#utility.yul\":1643:1667   */\n      tag_282\n        /* \"#utility.yul\":1661:1666   */\n      dup2\n        /* \"#utility.yul\":1643:1667   */\n      tag_221\n      jump\t// in\n    tag_282:\n        /* \"#utility.yul\":1638:1641   */\n      dup3\n        /* \"#utility.yul\":1631:1668   */\n      mstore\n        /* \"#utility.yul\":1548:1674   */\n      pop\n      pop\n      jump\t// out\n        /* \"#utility.yul\":1680:1918   */\n    tag_13:\n        /* \"#utility.yul\":1781:1785   */\n      0x00\n        /* \"#utility.yul\":1819:1821   */\n      0x20\n        /* \"#utility.yul\":1808:1817   */\n      dup3\n        /* \"#utility.yul\":1804:1822   */\n      add\n        /* \"#utility.yul\":1796:1822   */\n      swap1\n      pop\n        /* \"#utility.yul\":1832:1911   */\n      tag_284\n        /* \"#utility.yul\":1908:1909   */\n      0x00\n        /* \"#utility.yul\":1897:1906   */\n      dup4\n        /* \"#utility.yul\":1893:1910   */\n      add\n        /* \"#utility.yul\":1884:1890   */\n      dup5\n        /* \"#utility.yul\":1832:1911   */\n      tag_222\n      jump\t// in\n    tag_284:\n        /* \"#utility.yul\":1680:1918   */\n      swap3\n      swap2\n      pop\n      pop\n      jump\t// out\n        /* \"#utility.yul\":1924:2016   */\n    tag_223:\n        /* \"#utility.yul\":1960:1967   */\n      0x00\n        /* \"#utility.yul\":2004:2009   */\n      dup2\n        /* \"#utility.yul\":2000:2002   */\n      0x0f\n        /* \"#utility.yul\":1989:2010   */\n      signextend\n        /* \"#utility.yul\":1978:2010   */\n      swap1\n      pop\n        /* \"#utility.yul\":1924:2016   */\n      swap2\n      swap1\n      pop\n      jump\t// out\n        /* \"#utility.yul\":2022:2145   */\n    tag_224:\n        /* \"#utility.yul\":2115:2138   */\n      tag_287\n        /* \"#utility.yul\":2132:2137   */\n      dup2\n        /* \"#utility.yul\":2115:2138   */\n      tag_223\n      jump\t// in\n    tag_287:\n        /* \"#utility.yul\":2110:2113   */\n      dup3\n        /* \"#utility.yul\":2103:2139   */\n      mstore\n        /* \"#utility.yul\":2022:2145   */\n      pop\n      pop\n      jump\t// out\n        /* \"#utility.yul\":2151:2385   */\n    tag_18:\n        /* \"#utility.yul\":2250:2254   */\n      0x00\n        /* \"#utility.yul\":2288:2290   */\n      0x20\n        /* \"#utility.yul\":2277:2286   */\n      dup3\n        /* \"#utility.yul\":2273:2291   */\n      add\n        /* \"#utility.yul\":2265:2291   */\n      swap1\n      pop\n        /* \"#utility.yul\":2301:2378   */\n      tag_289\n        /* \"#utility.yul\":2375:2376   */\n      0x00\n        /* \"#utility.yul\":2364:2373   */\n      dup4\n        /* \"#utility.yul\":2360:2377   */\n      add\n        /* \"#utility.yul\":2351:2357   */\n      dup5\n        /* \"#utility.yul\":2301:2378   */\n      tag_224\n      jump\t// in\n    tag_289:\n        /* \"#utility.yul\":2151:2385   */\n      swap3\n      swap2\n      pop\n      pop\n      jump\t// out\n        /* \"#utility.yul\":2391:2493   */\n    tag_225:\n        /* \"#utility.yul\":2454:2460   */\n      0x00\n        /* \"#utility.yul\":2482:2486   */\n      0x02\n        /* \"#utility.yul\":2472:2486   */\n      swap1\n      pop\n        /* \"#utility.yul\":2391:2493   */\n      swap2\n      swap1\n      pop\n      jump\t// out\n        /* \"#utility.yul\":2499:2648   */\n    tag_226:\n        /* \"#utility.yul\":2602:2613   */\n      0x00\n        /* \"#utility.yul\":2639:2642   */\n      dup2\n        /* \"#utility.yul\":2624:2642   */\n      swap1\n      pop\n        /* \"#utility.yul\":2499:2648   */\n      swap3\n      swap2\n      pop\n      pop\n      jump\t// out\n        /* \"#utility.yul\":2654:2750   */\n    tag_227:\n        /* \"#utility.yul\":2717:2721   */\n      0x00\n        /* \"#utility.yul\":2740:2743   */\n      dup2\n        /* \"#utility.yul\":2732:2743   */\n      swap1\n      pop\n        /* \"#utility.yul\":2654:2750   */\n      swap2\n      swap1\n      pop\n      jump\t// out\n        /* \"#utility.yul\":2756:2846   */\n    tag_228:\n        /* \"#utility.yul\":2791:2798   */\n      0x00\n        /* \"#utility.yul\":2834:2839   */\n      dup2\n        /* \"#utility.yul\":2831:2832   */\n      0x01\n        /* \"#utility.yul\":2820:2840   */\n      signextend\n        /* \"#utility.yul\":2809:2840   */\n      swap1\n      pop\n        /* \"#utility.yul\":2756:2846   */\n      swap2\n      swap1\n      pop\n      jump\t// out\n        /* \"#utility.yul\":2852:2962   */\n    tag_229:\n        /* \"#utility.yul\":2933:2955   */\n      tag_295\n        /* \"#utility.yul\":2949:2954   */\n      dup2\n        /* \"#utility.yul\":2933:2955   */\n      tag_228\n      jump\t// in\n    tag_295:\n        /* \"#utility.yul\":2928:2931   */\n      dup3\n        /* \"#utility.yul\":2921:2956   */\n      mstore\n        /* \"#utility.yul\":2852:2962   */\n      pop\n      pop\n      jump\t// out\n        /* \"#utility.yul\":2968:3155   */\n    tag_230:\n        /* \"#utility.yul\":3041:3051   */\n      0x00\n        /* \"#utility.yul\":3062:3112   */\n      tag_297\n        /* \"#utility.yul\":3108:3111   */\n      dup4\n        /* \"#utility.yul\":3100:3106   */\n      dup4\n        /* \"#utility.yul\":3062:3112   */\n      tag_229\n      jump\t// in\n    tag_297:\n        /* \"#utility.yul\":3144:3148   */\n      0x20\n        /* \"#utility.yul\":3139:3142   */\n      dup4\n        /* \"#utility.yul\":3135:3149   */\n      add\n        /* \"#utility.yul\":3121:3149   */\n      swap1\n      pop\n        /* \"#utility.yul\":2968:3155   */\n      swap3\n      swap2\n      pop\n      pop\n      jump\t// out\n        /* \"#utility.yul\":3161:3270   */\n    tag_231:\n        /* \"#utility.yul\":3227:3231   */\n      0x00\n        /* \"#utility.yul\":3259:3263   */\n      0x20\n        /* \"#utility.yul\":3254:3257   */\n      dup3\n        /* \"#utility.yul\":3250:3264   */\n      add\n        /* \"#utility.yul\":3242:3264   */\n      swap1\n      pop\n        /* \"#utility.yul\":3161:3270   */\n      swap2\n      swap1\n      pop\n      jump\t// out\n        /* \"#utility.yul\":3304:4006   */\n    tag_232:\n        /* \"#utility.yul\":3444:3494   */\n      tag_300\n        /* \"#utility.yul\":3488:3493   */\n      dup2\n        /* \"#utility.yul\":3444:3494   */\n      tag_225\n      jump\t// in\n    tag_300:\n        /* \"#utility.yul\":3510:3600   */\n      tag_301\n        /* \"#utility.yul\":3593:3599   */\n      dup2\n        /* \"#utility.yul\":3588:3591   */\n      dup5\n        /* \"#utility.yul\":3510:3600   */\n      tag_226\n      jump\t// in\n    tag_301:\n        /* \"#utility.yul\":3503:3600   */\n      swap3\n      pop\n        /* \"#utility.yul\":3624:3676   */\n      tag_302\n        /* \"#utility.yul\":3670:3675   */\n      dup3\n        /* \"#utility.yul\":3624:3676   */\n      tag_227\n      jump\t// in\n    tag_302:\n        /* \"#utility.yul\":3699:3706   */\n      dup1\n        /* \"#utility.yul\":3730:3731   */\n      0x00\n        /* \"#utility.yul\":3715:3999   */\n    tag_303:\n        /* \"#utility.yul\":3740:3746   */\n      dup4\n        /* \"#utility.yul\":3737:3738   */\n      dup2\n        /* \"#utility.yul\":3734:3747   */\n      lt\n        /* \"#utility.yul\":3715:3999   */\n      iszero\n      tag_305\n      jumpi\n        /* \"#utility.yul\":3816:3822   */\n      dup2\n        /* \"#utility.yul\":3810:3823   */\n      mload\n        /* \"#utility.yul\":3843:3910   */\n      tag_306\n        /* \"#utility.yul\":3906:3909   */\n      dup8\n        /* \"#utility.yul\":3891:3904   */\n      dup3\n        /* \"#utility.yul\":3843:3910   */\n      tag_230\n      jump\t// in\n    tag_306:\n        /* \"#utility.yul\":3836:3910   */\n      swap7\n      pop\n        /* \"#utility.yul\":3933:3989   */\n      tag_307\n        /* \"#utility.yul\":3982:3988   */\n      dup4\n        /* \"#utility.yul\":3933:3989   */\n      tag_231\n      jump\t// in\n    tag_307:\n        /* \"#utility.yul\":3923:3989   */\n      swap3\n      pop\n        /* \"#utility.yul\":3775:3999   */\n      pop\n        /* \"#utility.yul\":3762:3763   */\n      0x01\n        /* \"#utility.yul\":3759:3760   */\n      dup2\n        /* \"#utility.yul\":3755:3764   */\n      add\n        /* \"#utility.yul\":3750:3764   */\n      swap1\n      pop\n        /* \"#utility.yul\":3715:3999   */\n      jump(tag_303)\n    tag_305:\n        /* \"#utility.yul\":3719:3733   */\n      pop\n        /* \"#utility.yul\":3420:4006   */\n      pop\n      pop\n      pop\n        /* \"#utility.yul\":3304:4006   */\n      pop\n      pop\n      jump\t// out\n        /* \"#utility.yul\":4012:4334   */\n    tag_23:\n        /* \"#utility.yul\":4155:4159   */\n      0x00\n        /* \"#utility.yul\":4193:4195   */\n      0x40\n        /* \"#utility.yul\":4182:4191   */\n      dup3\n        /* \"#utility.yul\":4178:4196   */\n      add\n        /* \"#utility.yul\":4170:4196   */\n      swap1\n      pop\n        /* \"#utility.yul\":4206:4327   */\n      tag_309\n        /* \"#utility.yul\":4324:4325   */\n      0x00\n        /* \"#utility.yul\":4313:4322   */\n      dup4\n        /* \"#utility.yul\":4309:4326   */\n      add\n        /* \"#utility.yul\":4300:4306   */\n      dup5\n        /* \"#utility.yul\":4206:4327   */\n      tag_232\n      jump\t// in\n    tag_309:\n        /* \"#utility.yul\":4012:4334   */\n      swap3\n      swap2\n      pop\n      pop\n      jump\t// out\n        /* \"#utility.yul\":4340:5241   */\n    tag_26:\n        /* \"#utility.yul\":4430:4436   */\n      0x00\n        /* \"#utility.yul\":4438:4444   */\n      dup1\n        /* \"#utility.yul\":4446:4452   */\n      0x00\n        /* \"#utility.yul\":4454:4460   */\n      dup1\n        /* \"#utility.yul\":4462:4468   */\n      0x00\n        /* \"#utility.yul\":4511:4514   */\n      0xa0\n        /* \"#utility.yul\":4499:4508   */\n      dup7\n        /* \"#utility.yul\":4490:4497   */\n      dup9\n        /* \"#utility.yul\":4486:4509   */\n      sub\n        /* \"#utility.yul\":4482:4515   */\n      slt\n        /* \"#utility.yul\":4479:4599   */\n      iszero\n      tag_311\n      jumpi\n        /* \"#utility.yul\":4518:4597   */\n      tag_312\n      tag_216\n      jump\t// in\n    tag_312:\n        /* \"#utility.yul\":4479:4599   */\n    tag_311:\n        /* \"#utility.yul\":4638:4639   */\n      0x00\n        /* \"#utility.yul\":4663:4715   */\n      tag_313\n        /* \"#utility.yul\":4707:4714   */\n      dup9\n        /* \"#utility.yul\":4698:4704   */\n      dup3\n        /* \"#utility.yul\":4687:4696   */\n      dup10\n        /* \"#utility.yul\":4683:4705   */\n      add\n        /* \"#utility.yul\":4663:4715   */\n      tag_220\n      jump\t// in\n    tag_313:\n        /* \"#utility.yul\":4653:4715   */\n      swap6\n      pop\n        /* \"#utility.yul\":4609:4725   */\n      pop\n        /* \"#utility.yul\":4764:4766   */\n      0x20\n        /* \"#utility.yul\":4790:4842   */\n      tag_314\n        /* \"#utility.yul\":4834:4841   */\n      dup9\n        /* \"#utility.yul\":4825:4831   */\n      dup3\n        /* \"#utility.yul\":4814:4823   */\n      dup10\n        /* \"#utility.yul\":4810:4832   */\n      add\n        /* \"#utility.yul\":4790:4842   */\n      tag_220\n      jump\t// in\n    tag_314:\n        /* \"#utility.yul\":4780:4842   */\n      swap5\n      pop\n        /* \"#utility.yul\":4735:4852   */\n      pop\n        /* \"#utility.yul\":4891:4893   */\n      0x40\n        /* \"#utility.yul\":4917:4969   */\n      tag_315\n        /* \"#utility.yul\":4961:4968   */\n      dup9\n        /* \"#utility.yul\":4952:4958   */\n      dup3\n        /* \"#utility.yul\":4941:4950   */\n      dup10\n        /* \"#utility.yul\":4937:4959   */\n      add\n        /* \"#utility.yul\":4917:4969   */\n      tag_220\n      jump\t// in\n    tag_315:\n        /* \"#utility.yul\":4907:4969   */\n      swap4\n      pop\n        /* \"#utility.yul\":4862:4979   */\n      pop\n        /* \"#utility.yul\":5018:5020   */\n      0x60\n        /* \"#utility.yul\":5044:5096   */\n      tag_316\n        /* \"#utility.yul\":5088:5095   */\n      dup9\n        /* \"#utility.yul\":5079:5085   */\n      dup3\n        /* \"#utility.yul\":5068:5077   */\n      dup10\n        /* \"#utility.yul\":5064:5086   */\n      add\n        /* \"#utility.yul\":5044:5096   */\n      tag_220\n      jump\t// in\n    tag_316:\n        /* \"#utility.yul\":5034:5096   */\n      swap3\n      pop\n        /* \"#utility.yul\":4989:5106   */\n      pop\n        /* \"#utility.yul\":5145:5148   */\n      0x80\n        /* \"#utility.yul\":5172:5224   */\n      tag_317\n        /* \"#utility.yul\":5216:5223   */\n      dup9\n        /* \"#utility.yul\":5207:5213   */\n      dup3\n        /* \"#utility.yul\":5196:5205   */\n      dup10\n        /* \"#utility.yul\":5192:5214   */\n      add\n        /* \"#utility.yul\":5172:5224   */\n      tag_220\n      jump\t// in\n    tag_317:\n        /* \"#utility.yul\":5162:5224   */\n      swap2\n      pop\n        /* \"#utility.yul\":5116:5234   */\n      pop\n        /* \"#utility.yul\":4340:5241   */\n      swap3\n      swap6\n      pop\n      swap3\n      swap6\n      swap1\n      swap4\n      pop\n      jump\t// out\n        /* \"#utility.yul\":5247:5348   */\n    tag_233:\n        /* \"#utility.yul\":5283:5290   */\n      0x00\n        /* \"#utility.yul\":5323:5341   */\n      0xffffffffffffffff\n        /* \"#utility.yul\":5316:5321   */\n      dup3\n        /* \"#utility.yul\":5312:5342   */\n      and\n        /* \"#utility.yul\":5301:5342   */\n      swap1\n      pop\n        /* \"#utility.yul\":5247:5348   */\n      swap2\n      swap1\n      pop\n      jump\t// out\n        /* \"#utility.yul\":5354:5477   */\n    tag_234:\n        /* \"#utility.yul\":5447:5470   */\n      tag_320\n        /* \"#utility.yul\":5464:5469   */\n      dup2\n        /* \"#utility.yul\":5447:5470   */\n      tag_233\n      jump\t// in\n    tag_320:\n        /* \"#utility.yul\":5442:5445   */\n      dup3\n        /* \"#utility.yul\":5435:5471   */\n      mstore\n        /* \"#utility.yul\":5354:5477   */\n      pop\n      pop\n      jump\t// out\n        /* \"#utility.yul\":5483:5717   */\n    tag_29:\n        /* \"#utility.yul\":5582:5586   */\n      0x00\n        /* \"#utility.yul\":5620:5622   */\n      0x20\n        /* \"#utility.yul\":5609:5618   */\n      dup3\n        /* \"#utility.yul\":5605:5623   */\n      add\n        /* \"#utility.yul\":5597:5623   */\n      swap1\n      pop\n        /* \"#utility.yul\":5633:5710   */\n      tag_322\n        /* \"#utility.yul\":5707:5708   */\n      0x00\n        /* \"#utility.yul\":5696:5705   */\n      dup4\n        /* \"#utility.yul\":5692:5709   */\n      add\n        /* \"#utility.yul\":5683:5689   */\n      dup5\n        /* \"#utility.yul\":5633:5710   */\n      tag_234\n      jump\t// in\n    tag_322:\n        /* \"#utility.yul\":5483:5717   */\n      swap3\n      swap2\n      pop\n      pop\n      jump\t// out\n        /* \"#utility.yul\":5723:6336   */\n    tag_32:\n        /* \"#utility.yul\":5797:5803   */\n      0x00\n        /* \"#utility.yul\":5805:5811   */\n      dup1\n        /* \"#utility.yul\":5813:5819   */\n      0x00\n        /* \"#utility.yul\":5862:5864   */\n      0x60\n        /* \"#utility.yul\":5850:5859   */\n      dup5\n        /* \"#utility.yul\":5841:5848   */\n      dup7\n        /* \"#utility.yul\":5837:5860   */\n      sub\n        /* \"#utility.yul\":5833:5865   */\n      slt\n        /* \"#utility.yul\":5830:5949   */\n      iszero\n      tag_324\n      jumpi\n        /* \"#utility.yul\":5868:5947   */\n      tag_325\n      tag_216\n      jump\t// in\n    tag_325:\n        /* \"#utility.yul\":5830:5949   */\n    tag_324:\n        /* \"#utility.yul\":5988:5989   */\n      0x00\n        /* \"#utility.yul\":6013:6065   */\n      tag_326\n        /* \"#utility.yul\":6057:6064   */\n      dup7\n        /* \"#utility.yul\":6048:6054   */\n      dup3\n        /* \"#utility.yul\":6037:6046   */\n      dup8\n        /* \"#utility.yul\":6033:6055   */\n      add\n        /* \"#utility.yul\":6013:6065   */\n      tag_220\n      jump\t// in\n    tag_326:\n        /* \"#utility.yul\":6003:6065   */\n      swap4\n      pop\n        /* \"#utility.yul\":5959:6075   */\n      pop\n        /* \"#utility.yul\":6114:6116   */\n      0x20\n        /* \"#utility.yul\":6140:6192   */\n      tag_327\n        /* \"#utility.yul\":6184:6191   */\n      dup7\n        /* \"#utility.yul\":6175:6181   */\n      dup3\n        /* \"#utility.yul\":6164:6173   */\n      dup8\n        /* \"#utility.yul\":6160:6182   */\n      add\n        /* \"#utility.yul\":6140:6192   */\n      tag_220\n      jump\t// in\n    tag_327:\n        /* \"#utility.yul\":6130:6192   */\n      swap3\n      pop\n        /* \"#utility.yul\":6085:6202   */\n      pop\n        /* \"#utility.yul\":6241:6243   */\n      0x40\n        /* \"#utility.yul\":6267:6319   */\n      tag_328\n        /* \"#utility.yul\":6311:6318   */\n      dup7\n        /* \"#utility.yul\":6302:6308   */\n      dup3\n        /* \"#utility.yul\":6291:6300   */\n      dup8\n        /* \"#utility.yul\":6287:6309   */\n      add\n        /* \"#utility.yul\":6267:6319   */\n      tag_220\n      jump\t// in\n    tag_328:\n        /* \"#utility.yul\":6257:6319   */\n      swap2\n      pop\n        /* \"#utility.yul\":6212:6329   */\n      pop\n        /* \"#utility.yul\":5723:6336   */\n      swap3\n      pop\n      swap3\n      pop\n      swap3\n      jump\t// out\n        /* \"#utility.yul\":6342:6468   */\n    tag_235:\n        /* \"#utility.yul\":6429:6435   */\n      0x00\n        /* \"#utility.yul\":6457:6461   */\n      0x04\n        /* \"#utility.yul\":6447:6461   */\n      swap1\n      pop\n        /* \"#utility.yul\":6342:6468   */\n      swap2\n      swap1\n      pop\n      jump\t// out\n        /* \"#utility.yul\":6474:6647   */\n    tag_236:\n        /* \"#utility.yul\":6601:6612   */\n      0x00\n        /* \"#utility.yul\":6638:6641   */\n      dup2\n        /* \"#utility.yul\":6623:6641   */\n      swap1\n      pop\n        /* \"#utility.yul\":6474:6647   */\n      swap3\n      swap2\n      pop\n      pop\n      jump\t// out\n        /* \"#utility.yul\":6653:6773   */\n    tag_237:\n        /* \"#utility.yul\":6740:6744   */\n      0x00\n        /* \"#utility.yul\":6763:6766   */\n      dup2\n        /* \"#utility.yul\":6755:6766   */\n      swap1\n      pop\n        /* \"#utility.yul\":6653:6773   */\n      swap2\n      swap1\n      pop\n      jump\t// out\n        /* \"#utility.yul\":6779:6882   */\n    tag_238:\n        /* \"#utility.yul\":6843:6849   */\n      0x00\n        /* \"#utility.yul\":6871:6875   */\n      0x02\n        /* \"#utility.yul\":6861:6875   */\n      swap1\n      pop\n        /* \"#utility.yul\":6779:6882   */\n      swap2\n      swap1\n      pop\n      jump\t// out\n        /* \"#utility.yul\":6888:7028   */\n    tag_239:\n        /* \"#utility.yul\":6982:6993   */\n      0x00\n        /* \"#utility.yul\":7019:7022   */\n      dup2\n        /* \"#utility.yul\":7004:7022   */\n      swap1\n      pop\n        /* \"#utility.yul\":6888:7028   */\n      swap3\n      swap2\n      pop\n      pop\n      jump\t// out\n        /* \"#utility.yul\":7034:7131   */\n    tag_240:\n        /* \"#utility.yul\":7098:7102   */\n      0x00\n        /* \"#utility.yul\":7121:7124   */\n      dup2\n        /* \"#utility.yul\":7113:7124   */\n      swap1\n      pop\n        /* \"#utility.yul\":7034:7131   */\n      swap2\n      swap1\n      pop\n      jump\t// out\n        /* \"#utility.yul\":7137:7250   */\n    tag_241:\n        /* \"#utility.yul\":7220:7243   */\n      tag_336\n        /* \"#utility.yul\":7237:7242   */\n      dup2\n        /* \"#utility.yul\":7220:7243   */\n      tag_218\n      jump\t// in\n    tag_336:\n        /* \"#utility.yul\":7215:7218   */\n      dup3\n        /* \"#utility.yul\":7208:7244   */\n      mstore\n        /* \"#utility.yul\":7137:7250   */\n      pop\n      pop\n      jump\t// out\n        /* \"#utility.yul\":7256:7447   */\n    tag_242:\n        /* \"#utility.yul\":7331:7341   */\n      0x00\n        /* \"#utility.yul\":7352:7404   */\n      tag_338\n        /* \"#utility.yul\":7400:7403   */\n      dup4\n        /* \"#utility.yul\":7392:7398   */\n      dup4\n        /* \"#utility.yul\":7352:7404   */\n      tag_241\n      jump\t// in\n    tag_338:\n        /* \"#utility.yul\":7436:7440   */\n      0x20\n        /* \"#utility.yul\":7431:7434   */\n      dup4\n        /* \"#utility.yul\":7427:7441   */\n      add\n        /* \"#utility.yul\":7413:7441   */\n      swap1\n      pop\n        /* \"#utility.yul\":7256:7447   */\n      swap3\n      swap2\n      pop\n      pop\n      jump\t// out\n        /* \"#utility.yul\":7453:7563   */\n    tag_243:\n        /* \"#utility.yul\":7520:7524   */\n      0x00\n        /* \"#utility.yul\":7552:7556   */\n      0x20\n        /* \"#utility.yul\":7547:7550   */\n      dup3\n        /* \"#utility.yul\":7543:7557   */\n      add\n        /* \"#utility.yul\":7535:7557   */\n      swap1\n      pop\n        /* \"#utility.yul\":7453:7563   */\n      swap2\n      swap1\n      pop\n      jump\t// out\n        /* \"#utility.yul\":7599:8289   */\n    tag_244:\n        /* \"#utility.yul\":7731:7782   */\n      tag_341\n        /* \"#utility.yul\":7776:7781   */\n      dup2\n        /* \"#utility.yul\":7731:7782   */\n      tag_238\n      jump\t// in\n    tag_341:\n        /* \"#utility.yul\":7798:7879   */\n      tag_342\n        /* \"#utility.yul\":7872:7878   */\n      dup2\n        /* \"#utility.yul\":7867:7870   */\n      dup5\n        /* \"#utility.yul\":7798:7879   */\n      tag_239\n      jump\t// in\n    tag_342:\n        /* \"#utility.yul\":7791:7879   */\n      swap3\n      pop\n        /* \"#utility.yul\":7903:7956   */\n      tag_343\n        /* \"#utility.yul\":7950:7955   */\n      dup3\n        /* \"#utility.yul\":7903:7956   */\n      tag_240\n      jump\t// in\n    tag_343:\n        /* \"#utility.yul\":7979:7986   */\n      dup1\n        /* \"#utility.yul\":8010:8011   */\n      0x00\n        /* \"#utility.yul\":7995:8282   */\n    tag_344:\n        /* \"#utility.yul\":8020:8026   */\n      dup4\n        /* \"#utility.yul\":8017:8018   */\n      dup2\n        /* \"#utility.yul\":8014:8027   */\n      lt\n        /* \"#utility.yul\":7995:8282   */\n      iszero\n      tag_346\n      jumpi\n        /* \"#utility.yul\":8096:8102   */\n      dup2\n        /* \"#utility.yul\":8090:8103   */\n      mload\n        /* \"#utility.yul\":8123:8192   */\n      tag_347\n        /* \"#utility.yul\":8188:8191   */\n      dup8\n        /* \"#utility.yul\":8173:8186   */\n      dup3\n        /* \"#utility.yul\":8123:8192   */\n      tag_242\n      jump\t// in\n    tag_347:\n        /* \"#utility.yul\":8116:8192   */\n      swap7\n      pop\n        /* \"#utility.yul\":8215:8272   */\n      tag_348\n        /* \"#utility.yul\":8265:8271   */\n      dup4\n        /* \"#utility.yul\":8215:8272   */\n      tag_243\n      jump\t// in\n    tag_348:\n        /* \"#utility.yul\":8205:8272   */\n      swap3\n      pop\n        /* \"#utility.yul\":8055:8282   */\n      pop\n        /* \"#utility.yul\":8042:8043   */\n      0x01\n        /* \"#utility.yul\":8039:8040   */\n      dup2\n        /* \"#utility.yul\":8035:8044   */\n      add\n        /* \"#utility.yul\":8030:8044   */\n      swap1\n      pop\n        /* \"#utility.yul\":7995:8282   */\n      jump(tag_344)\n    tag_346:\n        /* \"#utility.yul\":7999:8013   */\n      pop\n        /* \"#utility.yul\":7707:8289   */\n      pop\n      pop\n      pop\n        /* \"#utility.yul\":7599:8289   */\n      pop\n      pop\n      jump\t// out\n        /* \"#utility.yul\":8295:8578   */\n    tag_245:\n        /* \"#utility.yul\":8416:8426   */\n      0x00\n        /* \"#utility.yul\":8437:8535   */\n      tag_350\n        /* \"#utility.yul\":8531:8534   */\n      dup4\n        /* \"#utility.yul\":8523:8529   */\n      dup4\n        /* \"#utility.yul\":8437:8535   */\n      tag_244\n      jump\t// in\n    tag_350:\n        /* \"#utility.yul\":8567:8571   */\n      0x40\n        /* \"#utility.yul\":8562:8565   */\n      dup4\n        /* \"#utility.yul\":8558:8572   */\n      add\n        /* \"#utility.yul\":8544:8572   */\n      swap1\n      pop\n        /* \"#utility.yul\":8295:8578   */\n      swap3\n      swap2\n      pop\n      pop\n      jump\t// out\n        /* \"#utility.yul\":8584:8717   */\n    tag_246:\n        /* \"#utility.yul\":8674:8678   */\n      0x00\n        /* \"#utility.yul\":8706:8710   */\n      0x20\n        /* \"#utility.yul\":8701:8704   */\n      dup3\n        /* \"#utility.yul\":8697:8711   */\n      add\n        /* \"#utility.yul\":8689:8711   */\n      swap1\n      pop\n        /* \"#utility.yul\":8584:8717   */\n      swap2\n      swap1\n      pop\n      jump\t// out\n        /* \"#utility.yul\":8759:9653   */\n    tag_247:\n        /* \"#utility.yul\":8947:9021   */\n      tag_353\n        /* \"#utility.yul\":9015:9020   */\n      dup2\n        /* \"#utility.yul\":8947:9021   */\n      tag_235\n      jump\t// in\n    tag_353:\n        /* \"#utility.yul\":9037:9151   */\n      tag_354\n        /* \"#utility.yul\":9144:9150   */\n      dup2\n        /* \"#utility.yul\":9139:9142   */\n      dup5\n        /* \"#utility.yul\":9037:9151   */\n      tag_236\n      jump\t// in\n    tag_354:\n        /* \"#utility.yul\":9030:9151   */\n      swap3\n      pop\n        /* \"#utility.yul\":9175:9251   */\n      tag_355\n        /* \"#utility.yul\":9245:9250   */\n      dup3\n        /* \"#utility.yul\":9175:9251   */\n      tag_237\n      jump\t// in\n    tag_355:\n        /* \"#utility.yul\":9274:9281   */\n      dup1\n        /* \"#utility.yul\":9305:9306   */\n      0x00\n        /* \"#utility.yul\":9290:9646   */\n    tag_356:\n        /* \"#utility.yul\":9315:9321   */\n      dup4\n        /* \"#utility.yul\":9312:9313   */\n      dup2\n        /* \"#utility.yul\":9309:9322   */\n      lt\n        /* \"#utility.yul\":9290:9646   */\n      iszero\n      tag_358\n      jumpi\n        /* \"#utility.yul\":9391:9397   */\n      dup2\n        /* \"#utility.yul\":9385:9398   */\n      mload\n        /* \"#utility.yul\":9418:9533   */\n      tag_359\n        /* \"#utility.yul\":9529:9532   */\n      dup8\n        /* \"#utility.yul\":9514:9527   */\n      dup3\n        /* \"#utility.yul\":9418:9533   */\n      tag_245\n      jump\t// in\n    tag_359:\n        /* \"#utility.yul\":9411:9533   */\n      swap7\n      pop\n        /* \"#utility.yul\":9556:9636   */\n      tag_360\n        /* \"#utility.yul\":9629:9635   */\n      dup4\n        /* \"#utility.yul\":9556:9636   */\n      tag_246\n      jump\t// in\n    tag_360:\n        /* \"#utility.yul\":9546:9636   */\n      swap3\n      pop\n        /* \"#utility.yul\":9350:9646   */\n      pop\n        /* \"#utility.yul\":9337:9338   */\n      0x01\n        /* \"#utility.yul\":9334:9335   */\n      dup2\n        /* \"#utility.yul\":9330:9339   */\n      add\n        /* \"#utility.yul\":9325:9339   */\n      swap1\n      pop\n        /* \"#utility.yul\":9290:9646   */\n      jump(tag_356)\n    tag_358:\n        /* \"#utility.yul\":9294:9308   */\n      pop\n        /* \"#utility.yul\":8923:9653   */\n      pop\n      pop\n      pop\n        /* \"#utility.yul\":8759:9653   */\n      pop\n      pop\n      jump\t// out\n        /* \"#utility.yul\":9659:10078   */\n    tag_35:\n        /* \"#utility.yul\":9850:9854   */\n      0x00\n        /* \"#utility.yul\":9888:9891   */\n      0x0100\n        /* \"#utility.yul\":9877:9886   */\n      dup3\n        /* \"#utility.yul\":9873:9892   */\n      add\n        /* \"#utility.yul\":9865:9892   */\n      swap1\n      pop\n        /* \"#utility.yul\":9902:10071   */\n      tag_362\n        /* \"#utility.yul\":10068:10069   */\n      0x00\n        /* \"#utility.yul\":10057:10066   */\n      dup4\n        /* \"#utility.yul\":10053:10070   */\n      add\n        /* \"#utility.yul\":10044:10050   */\n      dup5\n        /* \"#utility.yul\":9902:10071   */\n      tag_247\n      jump\t// in\n    tag_362:\n        /* \"#utility.yul\":9659:10078   */\n      swap3\n      swap2\n      pop\n      pop\n      jump\t// out\n        /* \"#utility.yul\":10084:10204   */\n    tag_248:\n        /* \"#utility.yul\":10156:10179   */\n      tag_364\n        /* \"#utility.yul\":10173:10178   */\n      dup2\n        /* \"#utility.yul\":10156:10179   */\n      tag_223\n      jump\t// in\n    tag_364:\n        /* \"#utility.yul\":10149:10154   */\n      dup2\n        /* \"#utility.yul\":10146:10180   */\n      eq\n        /* \"#utility.yul\":10136:10198   */\n      tag_365\n      jumpi\n        /* \"#utility.yul\":10194:10195   */\n      0x00\n        /* \"#utility.yul\":10191:10192   */\n      dup1\n        /* \"#utility.yul\":10184:10196   */\n      revert\n        /* \"#utility.yul\":10136:10198   */\n    tag_365:\n        /* \"#utility.yul\":10084:10204   */\n      pop\n      jump\t// out\n        /* \"#utility.yul\":10210:10347   */\n    tag_249:\n        /* \"#utility.yul\":10255:10260   */\n      0x00\n        /* \"#utility.yul\":10293:10299   */\n      dup2\n        /* \"#utility.yul\":10280:10300   */\n      calldataload\n        /* \"#utility.yul\":10271:10300   */\n      swap1\n      pop\n        /* \"#utility.yul\":10309:10341   */\n      tag_367\n        /* \"#utility.yul\":10335:10340   */\n      dup2\n        /* \"#utility.yul\":10309:10341   */\n      tag_248\n      jump\t// in\n    tag_367:\n        /* \"#utility.yul\":10210:10347   */\n      swap3\n      swap2\n      pop\n      pop\n      jump\t// out\n        /* \"#utility.yul\":10353:10680   */\n    tag_38:\n        /* \"#utility.yul\":10411:10417   */\n      0x00\n        /* \"#utility.yul\":10460:10462   */\n      0x20\n        /* \"#utility.yul\":10448:10457   */\n      dup3\n        /* \"#utility.yul\":10439:10446   */\n      dup5\n        /* \"#utility.yul\":10435:10458   */\n      sub\n        /* \"#utility.yul\":10431:10463   */\n      slt\n        /* \"#utility.yul\":10428:10547   */\n      iszero\n      tag_369\n      jumpi\n        /* \"#utility.yul\":10466:10545   */\n      tag_370\n      tag_216\n      jump\t// in\n    tag_370:\n        /* \"#utility.yul\":10428:10547   */\n    tag_369:\n        /* \"#utility.yul\":10586:10587   */\n      0x00\n        /* \"#utility.yul\":10611:10663   */\n      tag_371\n        /* \"#utility.yul\":10655:10662   */\n      dup5\n        /* \"#utility.yul\":10646:10652   */\n      dup3\n        /* \"#utility.yul\":10635:10644   */\n      dup6\n        /* \"#utility.yul\":10631:10653   */\n      add\n        /* \"#utility.yul\":10611:10663   */\n      tag_249\n      jump\t// in\n    tag_371:\n        /* \"#utility.yul\":10601:10663   */\n      swap2\n      pop\n        /* \"#utility.yul\":10557:10673   */\n      pop\n        /* \"#utility.yul\":10353:10680   */\n      swap3\n      swap2\n      pop\n      pop\n      jump\t// out\n        /* \"#utility.yul\":10686:10866   */\n    tag_250:\n        /* \"#utility.yul\":10734:10811   */\n      0x4e487b7100000000000000000000000000000000000000000000000000000000\n        /* \"#utility.yul\":10731:10732   */\n      0x00\n        /* \"#utility.yul\":10724:10812   */\n      mstore\n        /* \"#utility.yul\":10831:10835   */\n      0x11\n        /* \"#utility.yul\":10828:10829   */\n      0x04\n        /* \"#utility.yul\":10821:10836   */\n      mstore\n        /* \"#utility.yul\":10855:10859   */\n      0x24\n        /* \"#utility.yul\":10852:10853   */\n      0x00\n        /* \"#utility.yul\":10845:10860   */\n      revert\n        /* \"#utility.yul\":10872:10974   */\n    tag_251:\n        /* \"#utility.yul\":10914:10922   */\n      0x00\n        /* \"#utility.yul\":10961:10966   */\n      dup2\n        /* \"#utility.yul\":10958:10959   */\n      0x01\n        /* \"#utility.yul\":10954:10967   */\n      shr\n        /* \"#utility.yul\":10933:10967   */\n      swap1\n      pop\n        /* \"#utility.yul\":10872:10974   */\n      swap2\n      swap1\n      pop\n      jump\t// out\n        /* \"#utility.yul\":10980:11828   */\n    tag_252:\n        /* \"#utility.yul\":11041:11046   */\n      0x00\n        /* \"#utility.yul\":11048:11052   */\n      dup1\n        /* \"#utility.yul\":11072:11078   */\n      dup3\n        /* \"#utility.yul\":11063:11078   */\n      swap2\n      pop\n        /* \"#utility.yul\":11096:11101   */\n      dup4\n        /* \"#utility.yul\":11087:11101   */\n      swap1\n      pop\n        /* \"#utility.yul\":11110:11822   */\n    tag_375:\n        /* \"#utility.yul\":11131:11132   */\n      0x01\n        /* \"#utility.yul\":11121:11129   */\n      dup6\n        /* \"#utility.yul\":11118:11133   */\n      gt\n        /* \"#utility.yul\":11110:11822   */\n      iszero\n      tag_377\n      jumpi\n        /* \"#utility.yul\":11226:11230   */\n      dup1\n        /* \"#utility.yul\":11221:11224   */\n      dup7\n        /* \"#utility.yul\":11217:11231   */\n      div\n        /* \"#utility.yul\":11211:11215   */\n      dup2\n        /* \"#utility.yul\":11208:11232   */\n      gt\n        /* \"#utility.yul\":11205:11255   */\n      iszero\n      tag_378\n      jumpi\n        /* \"#utility.yul\":11235:11253   */\n      tag_379\n      tag_250\n      jump\t// in\n    tag_379:\n        /* \"#utility.yul\":11205:11255   */\n    tag_378:\n        /* \"#utility.yul\":11285:11286   */\n      0x01\n        /* \"#utility.yul\":11275:11283   */\n      dup6\n        /* \"#utility.yul\":11271:11287   */\n      and\n        /* \"#utility.yul\":11268:11719   */\n      iszero\n      tag_380\n      jumpi\n        /* \"#utility.yul\":11700:11704   */\n      dup1\n        /* \"#utility.yul\":11693:11698   */\n      dup3\n        /* \"#utility.yul\":11689:11705   */\n      mul\n        /* \"#utility.yul\":11680:11705   */\n      swap2\n      pop\n        /* \"#utility.yul\":11268:11719   */\n    tag_380:\n        /* \"#utility.yul\":11750:11754   */\n      dup1\n        /* \"#utility.yul\":11744:11748   */\n      dup2\n        /* \"#utility.yul\":11740:11755   */\n      mul\n        /* \"#utility.yul\":11732:11755   */\n      swap1\n      pop\n        /* \"#utility.yul\":11780:11812   */\n      tag_381\n        /* \"#utility.yul\":11803:11811   */\n      dup6\n        /* \"#utility.yul\":11780:11812   */\n      tag_251\n      jump\t// in\n    tag_381:\n        /* \"#utility.yul\":11768:11812   */\n      swap5\n      pop\n        /* \"#utility.yul\":11110:11822   */\n      jump(tag_375)\n    tag_377:\n        /* \"#utility.yul\":10980:11828   */\n      swap5\n      pop\n      swap5\n      swap3\n      pop\n      pop\n      pop\n      jump\t// out\n        /* \"#utility.yul\":11834:12907   */\n    tag_253:\n        /* \"#utility.yul\":11888:11893   */\n      0x00\n        /* \"#utility.yul\":12079:12087   */\n      dup3\n        /* \"#utility.yul\":12069:12109   */\n      tag_383\n      jumpi\n        /* \"#utility.yul\":12100:12101   */\n      0x01\n        /* \"#utility.yul\":12091:12101   */\n      swap1\n      pop\n        /* \"#utility.yul\":12102:12107   */\n      jump(tag_382)\n        /* \"#utility.yul\":12069:12109   */\n    tag_383:\n        /* \"#utility.yul\":12128:12132   */\n      dup2\n        /* \"#utility.yul\":12118:12154   */\n      tag_384\n      jumpi\n        /* \"#utility.yul\":12145:12146   */\n      0x00\n        /* \"#utility.yul\":12136:12146   */\n      swap1\n      pop\n        /* \"#utility.yul\":12147:12152   */\n      jump(tag_382)\n        /* \"#utility.yul\":12118:12154   */\n    tag_384:\n        /* \"#utility.yul\":12214:12218   */\n      dup2\n        /* \"#utility.yul\":12262:12263   */\n      0x01\n        /* \"#utility.yul\":12257:12284   */\n      dup2\n      eq\n      tag_386\n      jumpi\n        /* \"#utility.yul\":12298:12299   */\n      0x02\n        /* \"#utility.yul\":12293:12484   */\n      dup2\n      eq\n      tag_387\n      jumpi\n        /* \"#utility.yul\":12207:12484   */\n      jump(tag_385)\n        /* \"#utility.yul\":12257:12284   */\n    tag_386:\n        /* \"#utility.yul\":12275:12276   */\n      0x01\n        /* \"#utility.yul\":12266:12276   */\n      swap2\n      pop\n        /* \"#utility.yul\":12277:12282   */\n      pop\n      jump(tag_382)\n        /* \"#utility.yul\":12293:12484   */\n    tag_387:\n        /* \"#utility.yul\":12338:12341   */\n      0xff\n        /* \"#utility.yul\":12328:12336   */\n      dup5\n        /* \"#utility.yul\":12325:12342   */\n      gt\n        /* \"#utility.yul\":12322:12365   */\n      iszero\n      tag_388\n      jumpi\n        /* \"#utility.yul\":12345:12363   */\n      tag_389\n      tag_250\n      jump\t// in\n    tag_389:\n        /* \"#utility.yul\":12322:12365   */\n    tag_388:\n        /* \"#utility.yul\":12394:12402   */\n      dup4\n        /* \"#utility.yul\":12391:12392   */\n      0x02\n        /* \"#utility.yul\":12387:12403   */\n      exp\n        /* \"#utility.yul\":12378:12403   */\n      swap2\n      pop\n        /* \"#utility.yul\":12429:12432   */\n      dup5\n        /* \"#utility.yul\":12422:12427   */\n      dup3\n        /* \"#utility.yul\":12419:12433   */\n      gt\n        /* \"#utility.yul\":12416:12456   */\n      iszero\n      tag_390\n      jumpi\n        /* \"#utility.yul\":12436:12454   */\n      tag_391\n      tag_250\n      jump\t// in\n    tag_391:\n        /* \"#utility.yul\":12416:12456   */\n    tag_390:\n        /* \"#utility.yul\":12469:12474   */\n      pop\n      jump(tag_382)\n        /* \"#utility.yul\":12207:12484   */\n    tag_385:\n      pop\n        /* \"#utility.yul\":12593:12595   */\n      0x20\n        /* \"#utility.yul\":12583:12591   */\n      dup4\n        /* \"#utility.yul\":12580:12596   */\n      lt\n        /* \"#utility.yul\":12574:12577   */\n      0x0133\n        /* \"#utility.yul\":12568:12572   */\n      dup4\n        /* \"#utility.yul\":12565:12578   */\n      lt\n        /* \"#utility.yul\":12561:12597   */\n      and\n        /* \"#utility.yul\":12543:12545   */\n      0x4e\n        /* \"#utility.yul\":12533:12541   */\n      dup5\n        /* \"#utility.yul\":12530:12546   */\n      lt\n        /* \"#utility.yul\":12525:12527   */\n      0x0b\n        /* \"#utility.yul\":12519:12523   */\n      dup5\n        /* \"#utility.yul\":12516:12528   */\n      lt\n        /* \"#utility.yul\":12512:12547   */\n      and\n        /* \"#utility.yul\":12496:12607   */\n      or\n        /* \"#utility.yul\":12493:12739   */\n      iszero\n      tag_392\n      jumpi\n        /* \"#utility.yul\":12649:12657   */\n      dup3\n        /* \"#utility.yul\":12643:12647   */\n      dup3\n        /* \"#utility.yul\":12639:12658   */\n      exp\n        /* \"#utility.yul\":12630:12658   */\n      swap1\n      pop\n        /* \"#utility.yul\":12684:12687   */\n      dup4\n        /* \"#utility.yul\":12677:12682   */\n      dup2\n        /* \"#utility.yul\":12674:12688   */\n      gt\n        /* \"#utility.yul\":12671:12711   */\n      iszero\n      tag_393\n      jumpi\n        /* \"#utility.yul\":12691:12709   */\n      tag_394\n      tag_250\n      jump\t// in\n    tag_394:\n        /* \"#utility.yul\":12671:12711   */\n    tag_393:\n        /* \"#utility.yul\":12724:12729   */\n      jump(tag_382)\n        /* \"#utility.yul\":12493:12739   */\n    tag_392:\n        /* \"#utility.yul\":12764:12806   */\n      tag_395\n        /* \"#utility.yul\":12802:12805   */\n      dup5\n        /* \"#utility.yul\":12792:12800   */\n      dup5\n        /* \"#utility.yul\":12786:12790   */\n      dup5\n        /* \"#utility.yul\":12783:12784   */\n      0x01\n        /* \"#utility.yul\":12764:12806   */\n      tag_252\n      jump\t// in\n    tag_395:\n        /* \"#utility.yul\":12749:12806   */\n      swap3\n      pop\n      swap1\n      pop\n        /* \"#utility.yul\":12838:12842   */\n      dup2\n        /* \"#utility.yul\":12833:12836   */\n      dup5\n        /* \"#utility.yul\":12829:12843   */\n      div\n        /* \"#utility.yul\":12822:12827   */\n      dup2\n        /* \"#utility.yul\":12819:12844   */\n      gt\n        /* \"#utility.yul\":12816:12867   */\n      iszero\n      tag_396\n      jumpi\n        /* \"#utility.yul\":12847:12865   */\n      tag_397\n      tag_250\n      jump\t// in\n    tag_397:\n        /* \"#utility.yul\":12816:12867   */\n    tag_396:\n        /* \"#utility.yul\":12896:12900   */\n      dup2\n        /* \"#utility.yul\":12889:12894   */\n      dup2\n        /* \"#utility.yul\":12885:12901   */\n      mul\n        /* \"#utility.yul\":12876:12901   */\n      swap1\n      pop\n        /* \"#utility.yul\":11834:12907   */\n    tag_382:\n      swap4\n      swap3\n      pop\n      pop\n      pop\n      jump\t// out\n        /* \"#utility.yul\":12913:12999   */\n    tag_254:\n        /* \"#utility.yul\":12948:12955   */\n      0x00\n        /* \"#utility.yul\":12988:12992   */\n      0xff\n        /* \"#utility.yul\":12981:12986   */\n      dup3\n        /* \"#utility.yul\":12977:12993   */\n      and\n        /* \"#utility.yul\":12966:12993   */\n      swap1\n      pop\n        /* \"#utility.yul\":12913:12999   */\n      swap2\n      swap1\n      pop\n      jump\t// out\n        /* \"#utility.yul\":13005:13286   */\n    tag_49:\n        /* \"#utility.yul\":13063:13068   */\n      0x00\n        /* \"#utility.yul\":13087:13110   */\n      tag_400\n        /* \"#utility.yul\":13105:13109   */\n      dup3\n        /* \"#utility.yul\":13087:13110   */\n      tag_221\n      jump\t// in\n    tag_400:\n        /* \"#utility.yul\":13079:13110   */\n      swap2\n      pop\n        /* \"#utility.yul\":13131:13156   */\n      tag_401\n        /* \"#utility.yul\":13147:13155   */\n      dup4\n        /* \"#utility.yul\":13131:13156   */\n      tag_254\n      jump\t// in\n    tag_401:\n        /* \"#utility.yul\":13119:13156   */\n      swap3\n      pop\n        /* \"#utility.yul\":13175:13279   */\n      tag_402\n        /* \"#utility.yul\":13212:13278   */\n      0xffffffffffffffffffffffffffffffffffffffffffffffffffffffffffffffff\n        /* \"#utility.yul\":13202:13210   */\n      dup5\n        /* \"#utility.yul\":13196:13200   */\n      dup5\n        /* \"#utility.yul\":13175:13279   */\n      tag_253\n      jump\t// in\n    tag_402:\n        /* \"#utility.yul\":13166:13279   */\n      swap1\n      pop\n        /* \"#utility.yul\":13005:13286   */\n      swap3\n      swap2\n      pop\n      pop\n      jump\t// out\n        /* \"#utility.yul\":13292:13567   */\n    tag_51:\n        /* \"#utility.yul\":13331:13338   */\n      0x00\n        /* \"#utility.yul\":13354:13373   */\n      tag_404\n        /* \"#utility.yul\":13371:13372   */\n      dup3\n        /* \"#utility.yul\":13354:13373   */\n      tag_218\n      jump\t// in\n    tag_404:\n        /* \"#utility.yul\":13349:13373   */\n      swap2\n      pop\n        /* \"#utility.yul\":13387:13406   */\n      tag_405\n        /* \"#utility.yul\":13404:13405   */\n      dup4\n        /* \"#utility.yul\":13387:13406   */\n      tag_218\n      jump\t// in\n    tag_405:\n        /* \"#utility.yul\":13382:13406   */\n      swap3\n      pop\n        /* \"#utility.yul\":13441:13442   */\n      dup3\n        /* \"#utility.yul\":13438:13439   */\n      dup3\n        /* \"#utility.yul\":13434:13443   */\n      mul\n        /* \"#utility.yul\":13463:13492   */\n      tag_406\n        /* \"#utility.yul\":13480:13491   */\n      dup2\n        /* \"#utility.yul\":13463:13492   */\n      tag_218\n      jump\t// in\n    tag_406:\n        /* \"#utility.yul\":13452:13492   */\n      swap2\n      pop\n        /* \"#utility.yul\":13524:13535   */\n      dup1\n        /* \"#utility.yul\":13515:13522   */\n      dup3\n        /* \"#utility.yul\":13512:13536   */\n      eq\n        /* \"#utility.yul\":13502:13560   */\n      tag_407\n      jumpi\n        /* \"#utility.yul\":13540:13558   */\n      tag_408\n      tag_250\n      jump\t// in\n    tag_408:\n        /* \"#utility.yul\":13502:13560   */\n    tag_407:\n        /* \"#utility.yul\":13339:13567   */\n      pop\n        /* \"#utility.yul\":13292:13567   */\n      swap3\n      swap2\n      pop\n      pop\n      jump\t// out\n        /* \"#utility.yul\":13573:13740   */\n    tag_55:\n        /* \"#utility.yul\":13610:13613   */\n      0x00\n        /* \"#utility.yul\":13633:13655   */\n      tag_410\n        /* \"#utility.yul\":13649:13654   */\n      dup3\n        /* \"#utility.yul\":13633:13655   */\n      tag_254\n      jump\t// in\n    tag_410:\n        /* \"#utility.yul\":13624:13655   */\n      swap2\n      pop\n        /* \"#utility.yul\":13677:13681   */\n      0xff\n        /* \"#utility.yul\":13670:13675   */\n      dup3\n        /* \"#utility.yul\":13667:13682   */\n      sub\n        /* \"#utility.yul\":13664:13705   */\n      tag_411\n      jumpi\n        /* \"#utility.yul\":13685:13703   */\n      tag_412\n      tag_250\n      jump\t// in\n    tag_412:\n        /* \"#utility.yul\":13664:13705   */\n    tag_411:\n        /* \"#utility.yul\":13732:13733   */\n      0x01\n        /* \"#utility.yul\":13725:13730   */\n      dup3\n        /* \"#utility.yul\":13721:13734   */\n      add\n        /* \"#utility.yul\":13714:13734   */\n      swap1\n      pop\n        /* \"#utility.yul\":13573:13740   */\n      swap2\n      swap1\n      pop\n      jump\t// out\n        /* \"#utility.yul\":13746:13835   */\n    tag_255:\n        /* \"#utility.yul\":13782:13789   */\n      0x00\n        /* \"#utility.yul\":13822:13828   */\n      0xffff\n        /* \"#utility.yul\":13815:13820   */\n      dup3\n        /* \"#utility.yul\":13811:13829   */\n      and\n        /* \"#utility.yul\":13800:13829   */\n      swap1\n      pop\n        /* \"#utility.yul\":13746:13835   */\n      swap2\n      swap1\n      pop\n      jump\t// out\n        /* \"#utility.yul\":13841:14021   */\n    tag_172:\n        /* \"#utility.yul\":13889:13966   */\n      0x4e487b7100000000000000000000000000000000000000000000000000000000\n        /* \"#utility.yul\":13886:13887   */\n      0x00\n        /* \"#utility.yul\":13879:13967   */\n      mstore\n        /* \"#utility.yul\":13986:13990   */\n      0x12\n        /* \"#utility.yul\":13983:13984   */\n      0x04\n        /* \"#utility.yul\":13976:13991   */\n      mstore\n        /* \"#utility.yul\":14010:14014   */\n      0x24\n        /* \"#utility.yul\":14007:14008   */\n      0x00\n        /* \"#utility.yul\":14000:14015   */\n      revert\n        /* \"#utility.yul\":14027:14209   */\n    tag_66:\n        /* \"#utility.yul\":14066:14067   */\n      0x00\n        /* \"#utility.yul\":14083:14102   */\n      tag_416\n        /* \"#utility.yul\":14100:14101   */\n      dup3\n        /* \"#utility.yul\":14083:14102   */\n      tag_255\n      jump\t// in\n    tag_416:\n        /* \"#utility.yul\":14078:14102   */\n      swap2\n      pop\n        /* \"#utility.yul\":14116:14135   */\n      tag_417\n        /* \"#utility.yul\":14133:14134   */\n      dup4\n        /* \"#utility.yul\":14116:14135   */\n      tag_255\n      jump\t// in\n    tag_417:\n        /* \"#utility.yul\":14111:14135   */\n      swap3\n      pop\n        /* \"#utility.yul\":14154:14155   */\n      dup3\n        /* \"#utility.yul\":14144:14179   */\n      tag_418\n      jumpi\n        /* \"#utility.yul\":14159:14177   */\n      tag_419\n      tag_172\n      jump\t// in\n    tag_419:\n        /* \"#utility.yul\":14144:14179   */\n    tag_418:\n        /* \"#utility.yul\":14201:14202   */\n      dup3\n        /* \"#utility.yul\":14198:14199   */\n      dup3\n        /* \"#utility.yul\":14194:14203   */\n      div\n        /* \"#utility.yul\":14189:14203   */\n      swap1\n      pop\n        /* \"#utility.yul\":14027:14209   */\n      swap3\n      swap2\n      pop\n      pop\n      jump\t// out\n        /* \"#utility.yul\":14215:14395   */\n    tag_79:\n        /* \"#utility.yul\":14263:14340   */\n      0x4e487b7100000000000000000000000000000000000000000000000000000000\n        /* \"#utility.yul\":14260:14261   */\n      0x00\n        /* \"#utility.yul\":14253:14341   */\n      mstore\n        /* \"#utility.yul\":14360:14364   */\n      0x32\n        /* \"#utility.yul\":14357:14358   */\n      0x04\n        /* \"#utility.yul\":14350:14365   */\n      mstore\n        /* \"#utility.yul\":14384:14388   */\n      0x24\n        /* \"#utility.yul\":14381:14382   */\n      0x00\n        /* \"#utility.yul\":14374:14389   */\n      revert\n        /* \"#utility.yul\":14401:14491   */\n    tag_256:\n        /* \"#utility.yul\":14436:14443   */\n      0x00\n        /* \"#utility.yul\":14479:14484   */\n      dup2\n        /* \"#utility.yul\":14476:14477   */\n      0x03\n        /* \"#utility.yul\":14465:14485   */\n      signextend\n        /* \"#utility.yul\":14454:14485   */\n      swap1\n      pop\n        /* \"#utility.yul\":14401:14491   */\n      swap2\n      swap1\n      pop\n      jump\t// out\n        /* \"#utility.yul\":14497:14812   */\n    tag_83:\n        /* \"#utility.yul\":14535:14539   */\n      0x00\n        /* \"#utility.yul\":14555:14573   */\n      tag_423\n        /* \"#utility.yul\":14571:14572   */\n      dup3\n        /* \"#utility.yul\":14555:14573   */\n      tag_256\n      jump\t// in\n    tag_423:\n        /* \"#utility.yul\":14550:14573   */\n      swap2\n      pop\n        /* \"#utility.yul\":14587:14605   */\n      tag_424\n        /* \"#utility.yul\":14603:14604   */\n      dup4\n        /* \"#utility.yul\":14587:14605   */\n      tag_256\n      jump\t// in\n    tag_424:\n        /* \"#utility.yul\":14582:14605   */\n      swap3\n      pop\n        /* \"#utility.yul\":14629:14630   */\n      dup3\n        /* \"#utility.yul\":14626:14627   */\n      dup3\n        /* \"#utility.yul\":14622:14631   */\n      sub\n        /* \"#utility.yul\":14614:14631   */\n      swap1\n      pop\n        /* \"#utility.yul\":14761:14771   */\n      0x7fffffff\n        /* \"#utility.yul\":14755:14759   */\n      dup2\n        /* \"#utility.yul\":14751:14772   */\n      sgt\n        /* \"#utility.yul\":14670:14736   */\n      0xffffffffffffffffffffffffffffffffffffffffffffffffffffffff80000000\n        /* \"#utility.yul\":14664:14668   */\n      dup3\n        /* \"#utility.yul\":14660:14737   */\n      slt\n        /* \"#utility.yul\":14644:14782   */\n      or\n        /* \"#utility.yul\":14641:14805   */\n      iszero\n      tag_425\n      jumpi\n        /* \"#utility.yul\":14785:14803   */\n      tag_426\n      tag_250\n      jump\t// in\n    tag_426:\n        /* \"#utility.yul\":14641:14805   */\n    tag_425:\n        /* \"#utility.yul\":14497:14812   */\n      swap3\n      swap2\n      pop\n      pop\n      jump\t// out\n        /* \"#utility.yul\":14818:14908   */\n    tag_257:\n        /* \"#utility.yul\":14853:14860   */\n      0x00\n        /* \"#utility.yul\":14896:14901   */\n      dup2\n        /* \"#utility.yul\":14893:14894   */\n      0x07\n        /* \"#utility.yul\":14882:14902   */\n      signextend\n        /* \"#utility.yul\":14871:14902   */\n      swap1\n      pop\n        /* \"#utility.yul\":14818:14908   */\n      swap2\n      swap1\n      pop\n      jump\t// out\n        /* \"#utility.yul\":14914:15185   */\n    tag_97:\n        /* \"#utility.yul\":14952:14959   */\n      0x00\n        /* \"#utility.yul\":14975:14993   */\n      tag_429\n        /* \"#utility.yul\":14991:14992   */\n      dup3\n        /* \"#utility.yul\":14975:14993   */\n      tag_257\n      jump\t// in\n    tag_429:\n        /* \"#utility.yul\":14970:14993   */\n      swap2\n      pop\n        /* \"#utility.yul\":15007:15025   */\n      tag_430\n        /* \"#utility.yul\":15023:15024   */\n      dup4\n        /* \"#utility.yul\":15007:15025   */\n      tag_257\n      jump\t// in\n    tag_430:\n        /* \"#utility.yul\":15002:15025   */\n      swap3\n      pop\n        /* \"#utility.yul\":15060:15061   */\n      dup3\n        /* \"#utility.yul\":15057:15058   */\n      dup3\n        /* \"#utility.yul\":15053:15062   */\n      mul\n        /* \"#utility.yul\":15082:15110   */\n      tag_431\n        /* \"#utility.yul\":15098:15109   */\n      dup2\n        /* \"#utility.yul\":15082:15110   */\n      tag_257\n      jump\t// in\n    tag_431:\n        /* \"#utility.yul\":15071:15110   */\n      swap2\n      pop\n        /* \"#utility.yul\":15142:15153   */\n      dup1\n        /* \"#utility.yul\":15133:15140   */\n      dup3\n        /* \"#utility.yul\":15130:15154   */\n      eq\n        /* \"#utility.yul\":15120:15178   */\n      tag_432\n      jumpi\n        /* \"#utility.yul\":15158:15176   */\n      tag_433\n      tag_250\n      jump\t// in\n    tag_433:\n        /* \"#utility.yul\":15120:15178   */\n    tag_432:\n        /* \"#utility.yul\":14960:15185   */\n      pop\n        /* \"#utility.yul\":14914:15185   */\n      swap3\n      swap2\n      pop\n      pop\n      jump\t// out\n        /* \"#utility.yul\":15191:15510   */\n    tag_104:\n        /* \"#utility.yul\":15229:15232   */\n      0x00\n        /* \"#utility.yul\":15248:15266   */\n      tag_435\n        /* \"#utility.yul\":15264:15265   */\n      dup3\n        /* \"#utility.yul\":15248:15266   */\n      tag_257\n      jump\t// in\n    tag_435:\n        /* \"#utility.yul\":15243:15266   */\n      swap2\n      pop\n        /* \"#utility.yul\":15280:15298   */\n      tag_436\n        /* \"#utility.yul\":15296:15297   */\n      dup4\n        /* \"#utility.yul\":15280:15298   */\n      tag_257\n      jump\t// in\n    tag_436:\n        /* \"#utility.yul\":15275:15298   */\n      swap3\n      pop\n        /* \"#utility.yul\":15321:15322   */\n      dup3\n        /* \"#utility.yul\":15318:15319   */\n      dup3\n        /* \"#utility.yul\":15314:15323   */\n      add\n        /* \"#utility.yul\":15307:15323   */\n      swap1\n      pop\n        /* \"#utility.yul\":15403:15469   */\n      0xffffffffffffffffffffffffffffffffffffffffffffffff8000000000000000\n        /* \"#utility.yul\":15398:15401   */\n      dup2\n        /* \"#utility.yul\":15394:15470   */\n      slt\n        /* \"#utility.yul\":15361:15379   */\n      0x7fffffffffffffff\n        /* \"#utility.yul\":15356:15359   */\n      dup3\n        /* \"#utility.yul\":15352:15380   */\n      sgt\n        /* \"#utility.yul\":15336:15480   */\n      or\n        /* \"#utility.yul\":15333:15503   */\n      iszero\n      tag_437\n      jumpi\n        /* \"#utility.yul\":15483:15501   */\n      tag_438\n      tag_250\n      jump\t// in\n    tag_438:\n        /* \"#utility.yul\":15333:15503   */\n    tag_437:\n        /* \"#utility.yul\":15191:15510   */\n      swap3\n      swap2\n      pop\n      pop\n      jump\t// out\n        /* \"#utility.yul\":15516:15791   */\n    tag_111:\n        /* \"#utility.yul\":15555:15562   */\n      0x00\n        /* \"#utility.yul\":15578:15597   */\n      tag_440\n        /* \"#utility.yul\":15595:15596   */\n      dup3\n        /* \"#utility.yul\":15578:15597   */\n      tag_223\n      jump\t// in\n    tag_440:\n        /* \"#utility.yul\":15573:15597   */\n      swap2\n      pop\n        /* \"#utility.yul\":15611:15630   */\n      tag_441\n        /* \"#utility.yul\":15628:15629   */\n      dup4\n        /* \"#utility.yul\":15611:15630   */\n      tag_223\n      jump\t// in\n    tag_441:\n        /* \"#utility.yul\":15606:15630   */\n      swap3\n      pop\n        /* \"#utility.yul\":15665:15666   */\n      dup3\n        /* \"#utility.yul\":15662:15663   */\n      dup3\n        /* \"#utility.yul\":15658:15667   */\n      mul\n        /* \"#utility.yul\":15687:15716   */\n      tag_442\n        /* \"#utility.yul\":15704:15715   */\n      dup2\n        /* \"#utility.yul\":15687:15716   */\n      tag_223\n      jump\t// in\n    tag_442:\n        /* \"#utility.yul\":15676:15716   */\n      swap2\n      pop\n        /* \"#utility.yul\":15748:15759   */\n      dup1\n        /* \"#utility.yul\":15739:15746   */\n      dup3\n        /* \"#utility.yul\":15736:15760   */\n      eq\n        /* \"#utility.yul\":15726:15784   */\n      tag_443\n      jumpi\n        /* \"#utility.yul\":15764:15782   */\n      tag_444\n      tag_250\n      jump\t// in\n    tag_444:\n        /* \"#utility.yul\":15726:15784   */\n    tag_443:\n        /* \"#utility.yul\":15563:15791   */\n      pop\n        /* \"#utility.yul\":15516:15791   */\n      swap3\n      swap2\n      pop\n      pop\n      jump\t// out\n        /* \"#utility.yul\":15797:16135   */\n    tag_113:\n        /* \"#utility.yul\":15836:15839   */\n      0x00\n        /* \"#utility.yul\":15855:15874   */\n      tag_446\n        /* \"#utility.yul\":15872:15873   */\n      dup3\n        /* \"#utility.yul\":15855:15874   */\n      tag_223\n      jump\t// in\n    tag_446:\n        /* \"#utility.yul\":15850:15874   */\n      swap2\n      pop\n        /* \"#utility.yul\":15888:15907   */\n      tag_447\n        /* \"#utility.yul\":15905:15906   */\n      dup4\n        /* \"#utility.yul\":15888:15907   */\n      tag_223\n      jump\t// in\n    tag_447:\n        /* \"#utility.yul\":15883:15907   */\n      swap3\n      pop\n        /* \"#utility.yul\":15930:15931   */\n      dup3\n        /* \"#utility.yul\":15927:15928   */\n      dup3\n        /* \"#utility.yul\":15923:15932   */\n      add\n        /* \"#utility.yul\":15916:15932   */\n      swap1\n      pop\n        /* \"#utility.yul\":16028:16094   */\n      0xffffffffffffffffffffffffffffffff80000000000000000000000000000000\n        /* \"#utility.yul\":16023:16026   */\n      dup2\n        /* \"#utility.yul\":16019:16095   */\n      slt\n        /* \"#utility.yul\":15970:16004   */\n      0x7fffffffffffffffffffffffffffffff\n        /* \"#utility.yul\":15965:15968   */\n      dup3\n        /* \"#utility.yul\":15961:16005   */\n      sgt\n        /* \"#utility.yul\":15945:16105   */\n      or\n        /* \"#utility.yul\":15942:16128   */\n      iszero\n      tag_448\n      jumpi\n        /* \"#utility.yul\":16108:16126   */\n      tag_449\n      tag_250\n      jump\t// in\n    tag_449:\n        /* \"#utility.yul\":15942:16128   */\n    tag_448:\n        /* \"#utility.yul\":15797:16135   */\n      swap3\n      swap2\n      pop\n      pop\n      jump\t// out\n        /* \"#utility.yul\":16141:17366   */\n    tag_258:\n        /* \"#utility.yul\":16198:16203   */\n      0x00\n        /* \"#utility.yul\":16364:16372   */\n      dup3\n        /* \"#utility.yul\":16386:16387   */\n      0x00\n        /* \"#utility.yul\":16381:16408   */\n      dup2\n      eq\n      tag_452\n      jumpi\n        /* \"#utility.yul\":16422:16423   */\n      0x01\n        /* \"#utility.yul\":16417:16447   */\n      dup2\n      eq\n      tag_453\n      jumpi\n        /* \"#utility.yul\":16357:16447   */\n      jump(tag_451)\n        /* \"#utility.yul\":16381:16408   */\n    tag_452:\n        /* \"#utility.yul\":16399:16400   */\n      0x01\n        /* \"#utility.yul\":16390:16400   */\n      swap2\n      pop\n        /* \"#utility.yul\":16401:16406   */\n      pop\n      jump(tag_450)\n        /* \"#utility.yul\":16417:16447   */\n    tag_453:\n        /* \"#utility.yul\":16435:16439   */\n      dup3\n        /* \"#utility.yul\":16426:16439   */\n      swap2\n      pop\n        /* \"#utility.yul\":16440:16445   */\n      pop\n      jump(tag_450)\n        /* \"#utility.yul\":16357:16447   */\n    tag_451:\n      pop\n        /* \"#utility.yul\":16466:16470   */\n      dup2\n        /* \"#utility.yul\":16456:16492   */\n      tag_454\n      jumpi\n        /* \"#utility.yul\":16483:16484   */\n      0x00\n        /* \"#utility.yul\":16474:16484   */\n      swap1\n      pop\n        /* \"#utility.yul\":16485:16490   */\n      jump(tag_450)\n        /* \"#utility.yul\":16456:16492   */\n    tag_454:\n        /* \"#utility.yul\":16511:16512   */\n      0x01\n        /* \"#utility.yul\":16502:16512   */\n      swap1\n      pop\n        /* \"#utility.yul\":16734:16735   */\n      0x00\n        /* \"#utility.yul\":16728:16732   */\n      dup3\n        /* \"#utility.yul\":16724:16736   */\n      sgt\n        /* \"#utility.yul\":16750:16751   */\n      0x01\n        /* \"#utility.yul\":16745:16806   */\n      dup2\n      eq\n      tag_456\n      jumpi\n        /* \"#utility.yul\":16820:16821   */\n      0x00\n        /* \"#utility.yul\":16815:16878   */\n      dup2\n      eq\n      tag_457\n      jumpi\n        /* \"#utility.yul\":16717:16878   */\n      jump(tag_455)\n        /* \"#utility.yul\":16745:16806   */\n    tag_456:\n        /* \"#utility.yul\":16775:16779   */\n      dup3\n        /* \"#utility.yul\":16770:16773   */\n      dup7\n        /* \"#utility.yul\":16766:16780   */\n      div\n        /* \"#utility.yul\":16760:16764   */\n      dup4\n        /* \"#utility.yul\":16757:16781   */\n      gt\n        /* \"#utility.yul\":16754:16804   */\n      iszero\n      tag_458\n      jumpi\n        /* \"#utility.yul\":16784:16802   */\n      tag_459\n      tag_250\n      jump\t// in\n    tag_459:\n        /* \"#utility.yul\":16754:16804   */\n    tag_458:\n        /* \"#utility.yul\":16745:16806   */\n      jump(tag_455)\n        /* \"#utility.yul\":16815:16878   */\n    tag_457:\n        /* \"#utility.yul\":16847:16851   */\n      dup3\n        /* \"#utility.yul\":16842:16845   */\n      dup7\n        /* \"#utility.yul\":16837:16852   */\n      sdiv\n        /* \"#utility.yul\":16831:16835   */\n      dup4\n        /* \"#utility.yul\":16827:16853   */\n      slt\n        /* \"#utility.yul\":16824:16876   */\n      iszero\n      tag_460\n      jumpi\n        /* \"#utility.yul\":16856:16874   */\n      tag_461\n      tag_250\n      jump\t// in\n    tag_461:\n        /* \"#utility.yul\":16824:16876   */\n    tag_460:\n        /* \"#utility.yul\":16717:16878   */\n    tag_455:\n      pop\n        /* \"#utility.yul\":16904:16905   */\n      0x01\n        /* \"#utility.yul\":16894:16902   */\n      dup4\n        /* \"#utility.yul\":16890:16906   */\n      and\n        /* \"#utility.yul\":16887:16952   */\n      iszero\n      tag_462\n      jumpi\n        /* \"#utility.yul\":16938:16942   */\n      dup2\n        /* \"#utility.yul\":16929:16942   */\n      swap1\n      pop\n        /* \"#utility.yul\":16887:16952   */\n    tag_462:\n        /* \"#utility.yul\":16979:16983   */\n      dup2\n        /* \"#utility.yul\":16973:16977   */\n      dup3\n        /* \"#utility.yul\":16969:16984   */\n      mul\n        /* \"#utility.yul\":16961:16984   */\n      swap2\n      pop\n        /* \"#utility.yul\":17005:17037   */\n      tag_463\n        /* \"#utility.yul\":17028:17036   */\n      dup4\n        /* \"#utility.yul\":17005:17037   */\n      tag_251\n      jump\t// in\n    tag_463:\n        /* \"#utility.yul\":16993:17037   */\n      swap3\n      pop\n        /* \"#utility.yul\":17117:17163   */\n      tag_464\n        /* \"#utility.yul\":17159:17162   */\n      dup6\n        /* \"#utility.yul\":17149:17157   */\n      dup5\n        /* \"#utility.yul\":17143:17147   */\n      dup5\n        /* \"#utility.yul\":17136:17141   */\n      dup5\n        /* \"#utility.yul\":17117:17163   */\n      tag_252\n      jump\t// in\n    tag_464:\n        /* \"#utility.yul\":17102:17163   */\n      swap3\n      pop\n      swap1\n      pop\n        /* \"#utility.yul\":17214:17218   */\n      dup2\n        /* \"#utility.yul\":17209:17212   */\n      dup6\n        /* \"#utility.yul\":17205:17219   */\n      div\n        /* \"#utility.yul\":17198:17203   */\n      dup2\n        /* \"#utility.yul\":17195:17220   */\n      gt\n        /* \"#utility.yul\":17191:17192   */\n      0x00\n        /* \"#utility.yul\":17184:17189   */\n      dup3\n        /* \"#utility.yul\":17180:17193   */\n      sgt\n        /* \"#utility.yul\":17176:17221   */\n      and\n        /* \"#utility.yul\":17173:17244   */\n      iszero\n      tag_465\n      jumpi\n        /* \"#utility.yul\":17224:17242   */\n      tag_466\n      tag_250\n      jump\t// in\n    tag_466:\n        /* \"#utility.yul\":17173:17244   */\n    tag_465:\n        /* \"#utility.yul\":17296:17300   */\n      dup2\n        /* \"#utility.yul\":17291:17294   */\n      dup5\n        /* \"#utility.yul\":17286:17301   */\n      sdiv\n        /* \"#utility.yul\":17279:17284   */\n      dup2\n        /* \"#utility.yul\":17275:17302   */\n      slt\n        /* \"#utility.yul\":17271:17272   */\n      0x00\n        /* \"#utility.yul\":17264:17269   */\n      dup3\n        /* \"#utility.yul\":17260:17273   */\n      slt\n        /* \"#utility.yul\":17256:17303   */\n      and\n        /* \"#utility.yul\":17253:17326   */\n      iszero\n      tag_467\n      jumpi\n        /* \"#utility.yul\":17306:17324   */\n      tag_468\n      tag_250\n      jump\t// in\n    tag_468:\n        /* \"#utility.yul\":17253:17326   */\n    tag_467:\n        /* \"#utility.yul\":17355:17359   */\n      dup2\n        /* \"#utility.yul\":17348:17353   */\n      dup2\n        /* \"#utility.yul\":17344:17360   */\n      mul\n        /* \"#utility.yul\":17335:17360   */\n      swap1\n      pop\n        /* \"#utility.yul\":16141:17366   */\n    tag_450:\n      swap5\n      swap4\n      pop\n      pop\n      pop\n      pop\n      jump\t// out\n        /* \"#utility.yul\":17372:17448   */\n    tag_259:\n        /* \"#utility.yul\":17408:17415   */\n      0x00\n        /* \"#utility.yul\":17437:17442   */\n      dup2\n        /* \"#utility.yul\":17426:17442   */\n      swap1\n      pop\n        /* \"#utility.yul\":17372:17448   */\n      swap2\n      swap1\n      pop\n      jump\t// out\n        /* \"#utility.yul\":17454:17799   */\n    tag_117:\n        /* \"#utility.yul\":17511:17516   */\n      0x00\n        /* \"#utility.yul\":17535:17557   */\n      tag_471\n        /* \"#utility.yul\":17552:17556   */\n      dup3\n        /* \"#utility.yul\":17535:17557   */\n      tag_259\n      jump\t// in\n    tag_471:\n        /* \"#utility.yul\":17527:17557   */\n      swap2\n      pop\n        /* \"#utility.yul\":17578:17603   */\n      tag_472\n        /* \"#utility.yul\":17594:17602   */\n      dup4\n        /* \"#utility.yul\":17578:17603   */\n      tag_254\n      jump\t// in\n    tag_472:\n        /* \"#utility.yul\":17566:17603   */\n      swap3\n      pop\n        /* \"#utility.yul\":17622:17792   */\n      tag_473\n        /* \"#utility.yul\":17725:17791   */\n      0x7fffffffffffffffffffffffffffffffffffffffffffffffffffffffffffffff\n        /* \"#utility.yul\":17657:17723   */\n      0x8000000000000000000000000000000000000000000000000000000000000000\n        /* \"#utility.yul\":17647:17655   */\n      dup6\n        /* \"#utility.yul\":17641:17645   */\n      dup6\n        /* \"#utility.yul\":17622:17792   */\n      tag_258\n      jump\t// in\n    tag_473:\n        /* \"#utility.yul\":17613:17792   */\n      swap1\n      pop\n        /* \"#utility.yul\":17454:17799   */\n      swap3\n      swap2\n      pop\n      pop\n      jump\t// out\n        /* \"#utility.yul\":17805:18361   */\n    tag_119:\n        /* \"#utility.yul\":17844:17851   */\n      0x00\n        /* \"#utility.yul\":17867:17886   */\n      tag_475\n        /* \"#utility.yul\":17884:17885   */\n      dup3\n        /* \"#utility.yul\":17867:17886   */\n      tag_259\n      jump\t// in\n    tag_475:\n        /* \"#utility.yul\":17862:17886   */\n      swap2\n      pop\n        /* \"#utility.yul\":17900:17919   */\n      tag_476\n        /* \"#utility.yul\":17917:17918   */\n      dup4\n        /* \"#utility.yul\":17900:17919   */\n      tag_259\n      jump\t// in\n    tag_476:\n        /* \"#utility.yul\":17895:17919   */\n      swap3\n      pop\n        /* \"#utility.yul\":17954:17955   */\n      dup3\n        /* \"#utility.yul\":17951:17952   */\n      dup3\n        /* \"#utility.yul\":17947:17956   */\n      mul\n        /* \"#utility.yul\":17976:18005   */\n      tag_477\n        /* \"#utility.yul\":17993:18004   */\n      dup2\n        /* \"#utility.yul\":17976:18005   */\n      tag_259\n      jump\t// in\n    tag_477:\n        /* \"#utility.yul\":17965:18005   */\n      swap2\n      pop\n        /* \"#utility.yul\":18063:18129   */\n      0x8000000000000000000000000000000000000000000000000000000000000000\n        /* \"#utility.yul\":18060:18061   */\n      dup5\n        /* \"#utility.yul\":18057:18130   */\n      eq\n        /* \"#utility.yul\":18053:18054   */\n      0x00\n        /* \"#utility.yul\":18050:18051   */\n      dup5\n        /* \"#utility.yul\":18046:18055   */\n      slt\n        /* \"#utility.yul\":18042:18131   */\n      and\n        /* \"#utility.yul\":18039:18154   */\n      iszero\n      tag_478\n      jumpi\n        /* \"#utility.yul\":18134:18152   */\n      tag_479\n      tag_250\n      jump\t// in\n    tag_479:\n        /* \"#utility.yul\":18039:18154   */\n    tag_478:\n        /* \"#utility.yul\":18304:18305   */\n      dup3\n        /* \"#utility.yul\":18295:18302   */\n      dup3\n        /* \"#utility.yul\":18290:18306   */\n      sdiv\n        /* \"#utility.yul\":18287:18288   */\n      dup5\n        /* \"#utility.yul\":18284:18307   */\n      eq\n        /* \"#utility.yul\":18264:18265   */\n      dup4\n        /* \"#utility.yul\":18257:18266   */\n      iszero\n        /* \"#utility.yul\":18237:18321   */\n      or\n        /* \"#utility.yul\":18214:18354   */\n      tag_480\n      jumpi\n        /* \"#utility.yul\":18334:18352   */\n      tag_481\n      tag_250\n      jump\t// in\n    tag_481:\n        /* \"#utility.yul\":18214:18354   */\n    tag_480:\n        /* \"#utility.yul\":17852:18361   */\n      pop\n        /* \"#utility.yul\":17805:18361   */\n      swap3\n      swap2\n      pop\n      pop\n      jump\t// out\n        /* \"#utility.yul\":18367:18463   */\n    tag_260:\n        /* \"#utility.yul\":18401:18409   */\n      0x00\n        /* \"#utility.yul\":18450:18455   */\n      dup2\n        /* \"#utility.yul\":18445:18448   */\n      0xe0\n        /* \"#utility.yul\":18441:18456   */\n      shl\n        /* \"#utility.yul\":18420:18456   */\n      swap1\n      pop\n        /* \"#utility.yul\":18367:18463   */\n      swap2\n      swap1\n      pop\n      jump\t// out\n        /* \"#utility.yul\":18469:18563   */\n    tag_261:\n        /* \"#utility.yul\":18507:18514   */\n      0x00\n        /* \"#utility.yul\":18536:18557   */\n      tag_484\n        /* \"#utility.yul\":18551:18556   */\n      dup3\n        /* \"#utility.yul\":18536:18557   */\n      tag_260\n      jump\t// in\n    tag_484:\n        /* \"#utility.yul\":18525:18557   */\n      swap1\n      pop\n        /* \"#utility.yul\":18469:18563   */\n      swap2\n      swap1\n      pop\n      jump\t// out\n        /* \"#utility.yul\":18569:18722   */\n    tag_262:\n        /* \"#utility.yul\":18672:18715   */\n      tag_486\n        /* \"#utility.yul\":18691:18714   */\n      tag_487\n        /* \"#utility.yul\":18708:18713   */\n      dup3\n        /* \"#utility.yul\":18691:18714   */\n      tag_218\n      jump\t// in\n    tag_487:\n        /* \"#utility.yul\":18672:18715   */\n      tag_261\n      jump\t// in\n    tag_486:\n        /* \"#utility.yul\":18667:18670   */\n      dup3\n        /* \"#utility.yul\":18660:18716   */\n      mstore\n        /* \"#utility.yul\":18569:18722   */\n      pop\n      pop\n      jump\t// out\n        /* \"#utility.yul\":18728:19387   */\n    tag_125:\n        /* \"#utility.yul\":18916:18919   */\n      0x00\n        /* \"#utility.yul\":18931:19004   */\n      tag_489\n        /* \"#utility.yul\":19000:19003   */\n      dup3\n        /* \"#utility.yul\":18991:18997   */\n      dup8\n        /* \"#utility.yul\":18931:19004   */\n      tag_262\n      jump\t// in\n    tag_489:\n        /* \"#utility.yul\":19029:19030   */\n      0x04\n        /* \"#utility.yul\":19024:19027   */\n      dup3\n        /* \"#utility.yul\":19020:19031   */\n      add\n        /* \"#utility.yul\":19013:19031   */\n      swap2\n      pop\n        /* \"#utility.yul\":19041:19114   */\n      tag_490\n        /* \"#utility.yul\":19110:19113   */\n      dup3\n        /* \"#utility.yul\":19101:19107   */\n      dup7\n        /* \"#utility.yul\":19041:19114   */\n      tag_262\n      jump\t// in\n    tag_490:\n        /* \"#utility.yul\":19139:19140   */\n      0x04\n        /* \"#utility.yul\":19134:19137   */\n      dup3\n        /* \"#utility.yul\":19130:19141   */\n      add\n        /* \"#utility.yul\":19123:19141   */\n      swap2\n      pop\n        /* \"#utility.yul\":19151:19224   */\n      tag_491\n        /* \"#utility.yul\":19220:19223   */\n      dup3\n        /* \"#utility.yul\":19211:19217   */\n      dup6\n        /* \"#utility.yul\":19151:19224   */\n      tag_262\n      jump\t// in\n    tag_491:\n        /* \"#utility.yul\":19249:19250   */\n      0x04\n        /* \"#utility.yul\":19244:19247   */\n      dup3\n        /* \"#utility.yul\":19240:19251   */\n      add\n        /* \"#utility.yul\":19233:19251   */\n      swap2\n      pop\n        /* \"#utility.yul\":19261:19334   */\n      tag_492\n        /* \"#utility.yul\":19330:19333   */\n      dup3\n        /* \"#utility.yul\":19321:19327   */\n      dup5\n        /* \"#utility.yul\":19261:19334   */\n      tag_262\n      jump\t// in\n    tag_492:\n        /* \"#utility.yul\":19359:19360   */\n      0x04\n        /* \"#utility.yul\":19354:19357   */\n      dup3\n        /* \"#utility.yul\":19350:19361   */\n      add\n        /* \"#utility.yul\":19343:19361   */\n      swap2\n      pop\n        /* \"#utility.yul\":19378:19381   */\n      dup2\n        /* \"#utility.yul\":19371:19381   */\n      swap1\n      pop\n        /* \"#utility.yul\":18728:19387   */\n      swap6\n      swap5\n      pop\n      pop\n      pop\n      pop\n      pop\n      jump\t// out\n        /* \"#utility.yul\":19393:19569   */\n    tag_127:\n        /* \"#utility.yul\":19425:19426   */\n      0x00\n        /* \"#utility.yul\":19442:19462   */\n      tag_494\n        /* \"#utility.yul\":19460:19461   */\n      dup3\n        /* \"#utility.yul\":19442:19462   */\n      tag_221\n      jump\t// in\n    tag_494:\n        /* \"#utility.yul\":19437:19462   */\n      swap2\n      pop\n        /* \"#utility.yul\":19476:19496   */\n      tag_495\n        /* \"#utility.yul\":19494:19495   */\n      dup4\n        /* \"#utility.yul\":19476:19496   */\n      tag_221\n      jump\t// in\n    tag_495:\n        /* \"#utility.yul\":19471:19496   */\n      swap3\n      pop\n        /* \"#utility.yul\":19515:19516   */\n      dup3\n        /* \"#utility.yul\":19505:19540   */\n      tag_496\n      jumpi\n        /* \"#utility.yul\":19520:19538   */\n      tag_497\n      tag_172\n      jump\t// in\n    tag_497:\n        /* \"#utility.yul\":19505:19540   */\n    tag_496:\n        /* \"#utility.yul\":19561:19562   */\n      dup3\n        /* \"#utility.yul\":19558:19559   */\n      dup3\n        /* \"#utility.yul\":19554:19563   */\n      mod\n        /* \"#utility.yul\":19549:19563   */\n      swap1\n      pop\n        /* \"#utility.yul\":19393:19569   */\n      swap3\n      swap2\n      pop\n      pop\n      jump\t// out\n        /* \"#utility.yul\":19575:19775   */\n    tag_133:\n        /* \"#utility.yul\":19614:19618   */\n      0x00\n        /* \"#utility.yul\":19634:19653   */\n      tag_499\n        /* \"#utility.yul\":19651:19652   */\n      dup3\n        /* \"#utility.yul\":19634:19653   */\n      tag_218\n      jump\t// in\n    tag_499:\n        /* \"#utility.yul\":19629:19653   */\n      swap2\n      pop\n        /* \"#utility.yul\":19667:19686   */\n      tag_500\n        /* \"#utility.yul\":19684:19685   */\n      dup4\n        /* \"#utility.yul\":19667:19686   */\n      tag_218\n      jump\t// in\n    tag_500:\n        /* \"#utility.yul\":19662:19686   */\n      swap3\n      pop\n        /* \"#utility.yul\":19710:19711   */\n      dup3\n        /* \"#utility.yul\":19707:19708   */\n      dup3\n        /* \"#utility.yul\":19703:19712   */\n      sub\n        /* \"#utility.yul\":19695:19712   */\n      swap1\n      pop\n        /* \"#utility.yul\":19734:19744   */\n      0xffffffff\n        /* \"#utility.yul\":19728:19732   */\n      dup2\n        /* \"#utility.yul\":19725:19745   */\n      gt\n        /* \"#utility.yul\":19722:19768   */\n      iszero\n      tag_501\n      jumpi\n        /* \"#utility.yul\":19748:19766   */\n      tag_502\n      tag_250\n      jump\t// in\n    tag_502:\n        /* \"#utility.yul\":19722:19768   */\n    tag_501:\n        /* \"#utility.yul\":19575:19775   */\n      swap3\n      swap2\n      pop\n      pop\n      jump\t// out\n        /* \"#utility.yul\":19781:20056   */\n    tag_136:\n        /* \"#utility.yul\":19820:19827   */\n      0x00\n        /* \"#utility.yul\":19843:19862   */\n      tag_504\n        /* \"#utility.yul\":19860:19861   */\n      dup3\n        /* \"#utility.yul\":19843:19862   */\n      tag_233\n      jump\t// in\n    tag_504:\n        /* \"#utility.yul\":19838:19862   */\n      swap2\n      pop\n        /* \"#utility.yul\":19876:19895   */\n      tag_505\n        /* \"#utility.yul\":19893:19894   */\n      dup4\n        /* \"#utility.yul\":19876:19895   */\n      tag_233\n      jump\t// in\n    tag_505:\n        /* \"#utility.yul\":19871:19895   */\n      swap3\n      pop\n        /* \"#utility.yul\":19930:19931   */\n      dup3\n        /* \"#utility.yul\":19927:19928   */\n      dup3\n        /* \"#utility.yul\":19923:19932   */\n      mul\n        /* \"#utility.yul\":19952:19981   */\n      tag_506\n        /* \"#utility.yul\":19969:19980   */\n      dup2\n        /* \"#utility.yul\":19952:19981   */\n      tag_233\n      jump\t// in\n    tag_506:\n        /* \"#utility.yul\":19941:19981   */\n      swap2\n      pop\n        /* \"#utility.yul\":20013:20024   */\n      dup1\n        /* \"#utility.yul\":20004:20011   */\n      dup3\n        /* \"#utility.yul\":20001:20025   */\n      eq\n        /* \"#utility.yul\":19991:20049   */\n      tag_507\n      jumpi\n        /* \"#utility.yul\":20029:20047   */\n      tag_508\n      tag_250\n      jump\t// in\n    tag_508:\n        /* \"#utility.yul\":19991:20049   */\n    tag_507:\n        /* \"#utility.yul\":19828:20056   */\n      pop\n        /* \"#utility.yul\":19781:20056   */\n      swap3\n      swap2\n      pop\n      pop\n      jump\t// out\n        /* \"#utility.yul\":20062:20244   */\n    tag_153:\n        /* \"#utility.yul\":20101:20102   */\n      0x00\n        /* \"#utility.yul\":20118:20137   */\n      tag_510\n        /* \"#utility.yul\":20135:20136   */\n      dup3\n        /* \"#utility.yul\":20118:20137   */\n      tag_218\n      jump\t// in\n    tag_510:\n        /* \"#utility.yul\":20113:20137   */\n      swap2\n      pop\n        /* \"#utility.yul\":20151:20170   */\n      tag_511\n        /* \"#utility.yul\":20168:20169   */\n      dup4\n        /* \"#utility.yul\":20151:20170   */\n      tag_218\n      jump\t// in\n    tag_511:\n        /* \"#utility.yul\":20146:20170   */\n      swap3\n      pop\n        /* \"#utility.yul\":20189:20190   */\n      dup3\n        /* \"#utility.yul\":20179:20214   */\n      tag_512\n      jumpi\n        /* \"#utility.yul\":20194:20212   */\n      tag_513\n      tag_172\n      jump\t// in\n    tag_513:\n        /* \"#utility.yul\":20179:20214   */\n    tag_512:\n        /* \"#utility.yul\":20236:20237   */\n      dup3\n        /* \"#utility.yul\":20233:20234   */\n      dup3\n        /* \"#utility.yul\":20229:20238   */\n      div\n        /* \"#utility.yul\":20224:20238   */\n      swap1\n      pop\n        /* \"#utility.yul\":20062:20244   */\n      swap3\n      swap2\n      pop\n      pop\n      jump\t// out\n        /* \"#utility.yul\":20250:20447   */\n    tag_158:\n        /* \"#utility.yul\":20289:20292   */\n      0x00\n        /* \"#utility.yul\":20308:20327   */\n      tag_515\n        /* \"#utility.yul\":20325:20326   */\n      dup3\n        /* \"#utility.yul\":20308:20327   */\n      tag_218\n      jump\t// in\n    tag_515:\n        /* \"#utility.yul\":20303:20327   */\n      swap2\n      pop\n        /* \"#utility.yul\":20341:20360   */\n      tag_516\n        /* \"#utility.yul\":20358:20359   */\n      dup4\n        /* \"#utility.yul\":20341:20360   */\n      tag_218\n      jump\t// in\n    tag_516:\n        /* \"#utility.yul\":20336:20360   */\n      swap3\n      pop\n        /* \"#utility.yul\":20383:20384   */\n      dup3\n        /* \"#utility.yul\":20380:20381   */\n      dup3\n        /* \"#utility.yul\":20376:20385   */\n      add\n        /* \"#utility.yul\":20369:20385   */\n      swap1\n      pop\n        /* \"#utility.yul\":20406:20416   */\n      0xffffffff\n        /* \"#utility.yul\":20401:20404   */\n      dup2\n        /* \"#utility.yul\":20398:20417   */\n      gt\n        /* \"#utility.yul\":20395:20440   */\n      iszero\n      tag_517\n      jumpi\n        /* \"#utility.yul\":20420:20438   */\n      tag_518\n      tag_250\n      jump\t// in\n    tag_518:\n        /* \"#utility.yul\":20395:20440   */\n    tag_517:\n        /* \"#utility.yul\":20250:20447   */\n      swap3\n      swap2\n      pop\n      pop\n      jump\t// out\n\n    auxdata: 0xa2646970667358221220279339b109245a44f5758b086bc7694350acfaa35f3d04f1b6bc91ff104a107064736f6c63430008120033\n}\n",
				"bytecode": {
					"linkReferences": {},
					"object": "611d53610053600b82828239805160001a607314610046577f4e487b7100000000000000000000000000000000000000000000000000000000600052600060045260246000fd5b30600052607381538281f3fe730000000000000000000000000000000000000000301460806040526004361061006c5760003560e01c8063229d05881461007157806322efde0a146100a157806393f32993146100d1578063b9576c3514610101578063d15eb0d514610131578063e707518714610161575b600080fd5b61008b600480360381019061008691906110cb565b610191565b604051610098919061114b565b60405180910390f35b6100bb60048036038101906100b691906110cb565b610297565b6040516100c89190611182565b60405180910390f35b6100eb60048036038101906100e691906110cb565b6104c4565b6040516100f89190611255565b60405180910390f35b61011b60048036038101906101169190611270565b61099d565b604051610128919061130e565b60405180910390f35b61014b60048036038101906101469190611329565b610a8d565b60405161015891906114c3565b60405180910390f35b61017b6004803603810190610176919061150b565b610bd3565b6040516101889190611182565b60405180910390f35b60008061019e6000610bdd565b905060005b60038160ff1610156101f65760006101d488888460026101c391906116a7565b886101ce91906116f2565b89610297565b90506101e08382610c00565b92505080806101ee9061172f565b9150506101a3565b5061021881610213888860018861020d91906116f2565b89610297565b610c00565b905061022d816102286004610bdd565b610c67565b9050600061027661025783610252600260406102499190611795565b61ffff16610bdd565b610cf0565b610271600260406102689190611795565b61ffff16610bdd565b610c00565b905061028181610d5b565b67ffffffffffffffff1692505050949350505050565b6000806102a5868686610a8d565b90506000805b60048160ff16101561048b576000838260ff16600481106102cf576102ce6117c6565b5b6020020151905060006040518060400160405280836000600281106102f7576102f66117c6565b5b60200201518c6103079190611802565b60030b60030b815260200183600160028110610326576103256117c6565b5b60200201518b6103369190611802565b60030b60030b8152509050600061037f8360006002811061035a576103596117c6565b5b602002015184600160028110610373576103726117c6565b5b60200201518b8b6104c4565b9050600081600160028110610397576103966117c6565b5b602002015160010b836001600281106103b3576103b26117c6565b5b602002015160030b6103c5919061186b565b826000600281106103d9576103d86117c6565b5b602002015160010b846000600281106103f5576103f46117c6565b5b602002015160030b610407919061186b565b61041191906118a8565b905060006104528560006002811061042c5761042b6117c6565b5b602002015186600160028110610445576104446117c6565b5b60200201518f8f8f61099d565b90508160070b8160070b6104669190611908565b876104719190611945565b9650505050505080806104839061172f565b9150506102ab565b506104b881600f0b60038760030b6104a39190611aa6565b6103e860010b6104b39190611b12565b610d7c565b92505050949350505050565b6104cc611019565b60006010868686866040516020016104e79493929190611bc0565b6040516020818303038152906040528051906020012060001c61050a9190611c0e565b9050600060405180610200016040528060405180604001604052806103e860010b60010b8152602001600060010b60010b8152508152602001604051806040016040528061039b60010b60010b815260200161017e60010b60010b815250815260200160405180604001604052806102c360010b60010b81526020016102c360010b60010b8152508152602001604051806040016040528061017e60010b60010b815260200161039b60010b60010b81525081526020016040518060400160405280600060010b60010b81526020016103e860010b60010b815250815260200160405180604001604052807ffffffffffffffffffffffffffffffffffffffffffffffffffffffffffffffe8160010b60010b815260200161039b60010b60010b815250815260200160405180604001604052807ffffffffffffffffffffffffffffffffffffffffffffffffffffffffffffffd3c60010b60010b81526020016102c360010b60010b815250815260200160405180604001604052807ffffffffffffffffffffffffffffffffffffffffffffffffffffffffffffffc6460010b60010b815260200161017e60010b60010b815250815260200160405180604001604052807ffffffffffffffffffffffffffffffffffffffffffffffffffffffffffffffc1860010b60010b8152602001600060010b60010b815250815260200160405180604001604052807ffffffffffffffffffffffffffffffffffffffffffffffffffffffffffffffc6460010b60010b81526020017ffffffffffffffffffffffffffffffffffffffffffffffffffffffffffffffe8160010b60010b815250815260200160405180604001604052807ffffffffffffffffffffffffffffffffffffffffffffffffffffffffffffffd3c60010b60010b81526020017ffffffffffffffffffffffffffffffffffffffffffffffffffffffffffffffd3c60010b60010b815250815260200160405180604001604052807ffffffffffffffffffffffffffffffffffffffffffffffffffffffffffffffe8160010b60010b81526020017ffffffffffffffffffffffffffffffffffffffffffffffffffffffffffffffc6460010b60010b815250815260200160405180604001604052807fffffffffffffffffffffffffffffffffffffffffffffffffffffffffffffffff60010b60010b81526020017ffffffffffffffffffffffffffffffffffffffffffffffffffffffffffffffc1860010b60010b8152508152602001604051806040016040528061017e60010b60010b81526020017ffffffffffffffffffffffffffffffffffffffffffffffffffffffffffffffc6460010b60010b815250815260200160405180604001604052806102c360010b60010b81526020017ffffffffffffffffffffffffffffffffffffffffffffffffffffffffffffffd3c60010b60010b8152508152602001604051806040016040528061039b60010b60010b81526020017ffffffffffffffffffffffffffffffffffffffffffffffffffffffffffffffe8160010b60010b815250815250905080826010811061098c5761098b6117c6565b5b602002015192505050949350505050565b600080600190508463ffffffff168763ffffffff1611156109e75784876109c49190611c3f565b836109cf9190611c3f565b63ffffffff16816109e09190611c77565b9050610a12565b86856109f39190611c3f565b836109fe9190611c3f565b63ffffffff1681610a0f9190611c77565b90505b8363ffffffff168663ffffffff161115610a55578386610a329190611c3f565b83610a3d9190611c3f565b63ffffffff1681610a4e9190611c77565b9050610a80565b8584610a619190611c3f565b83610a6c9190611c3f565b63ffffffff1681610a7d9190611c77565b90505b8091505095945050505050565b610a9561103b565b6000828386610aa49190611cb4565b610aae91906116f2565b90506000838486610abf9190611cb4565b610ac991906116f2565b9050604051806080016040528060405180604001604052808563ffffffff1663ffffffff1681526020018463ffffffff1663ffffffff16815250815260200160405180604001604052808786610b1f9190611ce5565b63ffffffff1663ffffffff1681526020018463ffffffff1663ffffffff16815250815260200160405180604001604052808786610b5c9190611ce5565b63ffffffff1663ffffffff1681526020018785610b799190611ce5565b63ffffffff1663ffffffff16815250815260200160405180604001604052808563ffffffff1663ffffffff1681526020018785610bb69190611ce5565b63ffffffff1663ffffffff16815250815250925050509392505050565b6000819050919050565b6000677fffffffffffffff821115610bf457600080fd5b604082901b9050919050565b60008082600f0b84600f0b0190507fffffffffffffffffffffffffffffffff80000000000000000000000000000000600f0b8112158015610c5457506f7fffffffffffffffffffffffffffffff600f0b8113155b610c5d57600080fd5b8091505092915050565b60008082600f0b03610c7857600080fd5b600082600f0b604085600f0b901b81610c9457610c93611766565b5b0590507fffffffffffffffffffffffffffffffff80000000000000000000000000000000600f0b8112158015610cdd57506f7fffffffffffffffffffffffffffffff600f0b8113155b610ce657600080fd5b8091505092915050565b600080604083600f0b85600f0b02901d90507fffffffffffffffffffffffffffffffff80000000000000000000000000000000600f0b8112158015610d4857506f7fffffffffffffffffffffffffffffff600f0b8113155b610d5157600080fd5b8091505092915050565b60008082600f0b1215610d6d57600080fd5b604082600f0b901d9050919050565b6000808203610d8a57600080fd5b600080841215610d9f57836000039350600190505b6000831215610db357826000039250801590505b6000610dbf8585610e3e565b90508115610e03576f80000000000000000000000000000000816fffffffffffffffffffffffffffffffff161115610df657600080fd5b8060000392505050610e38565b6f7fffffffffffffffffffffffffffffff816fffffffffffffffffffffffffffffffff161115610e3257600080fd5b80925050505b92915050565b6000808203610e4c57600080fd5b600077ffffffffffffffffffffffffffffffffffffffffffffffff8411610e895782604085901b81610e8157610e80611766565b5b049050610ff2565b600060c09050600060c086901c90506401000000008110610eb257602081901c90506020820191505b620100008110610eca57601081901c90506010820191505b6101008110610ee157600881901c90506008820191505b60108110610ef757600481901c90506004820191505b60048110610f0d57600281901c90506002820191505b60028110610f1c576001820191505b600160bf830360018703901c018260ff0387901b81610f3e57610f3d611766565b5b0492506fffffffffffffffffffffffffffffffff831115610f5e57600080fd5b6000608086901c8402905060006fffffffffffffffffffffffffffffffff871685029050600060c089901c9050600060408a901b905082811015610fa3576001820391505b8281039050608084901b925082811015610fbe576001820391505b8281039050608084901c8214610fd5576001610fe7565b888181610fe557610fe4611766565b5b045b870196505050505050505b6fffffffffffffffffffffffffffffffff81111561100f57600080fd5b8091505092915050565b6040518060400160405280600290602082028036833780820191505090505090565b60405180608001604052806004905b611052611068565b81526020019060019003908161104a5790505090565b6040518060400160405280600290602082028036833780820191505090505090565b600080fd5b600063ffffffff82169050919050565b6110a88161108f565b81146110b357600080fd5b50565b6000813590506110c58161109f565b92915050565b600080600080608085870312156110e5576110e461108a565b5b60006110f3878288016110b6565b9450506020611104878288016110b6565b9350506040611115878288016110b6565b9250506060611126878288016110b6565b91505092959194509250565b6000819050919050565b61114581611132565b82525050565b6000602082019050611160600083018461113c565b92915050565b600081600f0b9050919050565b61117c81611166565b82525050565b60006020820190506111976000830184611173565b92915050565b600060029050919050565b600081905092915050565b6000819050919050565b60008160010b9050919050565b6111d3816111bd565b82525050565b60006111e583836111ca565b60208301905092915050565b6000602082019050919050565b6112078161119d565b61121181846111a8565b925061121c826111b3565b8060005b8381101561124d57815161123487826111d9565b965061123f836111f1565b925050600181019050611220565b505050505050565b600060408201905061126a60008301846111fe565b92915050565b600080600080600060a0868803121561128c5761128b61108a565b5b600061129a888289016110b6565b95505060206112ab888289016110b6565b94505060406112bc888289016110b6565b93505060606112cd888289016110b6565b92505060806112de888289016110b6565b9150509295509295909350565b600067ffffffffffffffff82169050919050565b611308816112eb565b82525050565b600060208201905061132360008301846112ff565b92915050565b6000806000606084860312156113425761134161108a565b5b6000611350868287016110b6565b9350506020611361868287016110b6565b9250506040611372868287016110b6565b9150509250925092565b600060049050919050565b600081905092915050565b6000819050919050565b600060029050919050565b600081905092915050565b6000819050919050565b6113c58161108f565b82525050565b60006113d783836113bc565b60208301905092915050565b6000602082019050919050565b6113f98161139c565b61140381846113a7565b925061140e826113b2565b8060005b8381101561143f57815161142687826113cb565b9650611431836113e3565b925050600181019050611412565b505050505050565b600061145383836113f0565b60408301905092915050565b6000602082019050919050565b6114758161137c565b61147f8184611387565b925061148a82611392565b8060005b838110156114bb5781516114a28782611447565b96506114ad8361145f565b92505060018101905061148e565b505050505050565b6000610100820190506114d9600083018461146c565b92915050565b6114e881611166565b81146114f357600080fd5b50565b600081359050611505816114df565b92915050565b6000602082840312156115215761152061108a565b5b600061152f848285016114f6565b91505092915050565b7f4e487b7100000000000000000000000000000000000000000000000000000000600052601160045260246000fd5b60008160011c9050919050565b6000808291508390505b60018511156115be5780860481111561159a57611599611538565b5b60018516156115a95780820291505b80810290506115b785611567565b945061157e565b94509492505050565b6000826115d75760019050611693565b816115e55760009050611693565b81600181146115fb576002811461160557611634565b6001915050611693565b60ff84111561161757611616611538565b5b8360020a91508482111561162e5761162d611538565b5b50611693565b5060208310610133831016604e8410600b84101617156116695782820a90508381111561166457611663611538565b5b611693565b6116768484846001611574565b9250905081840481111561168d5761168c611538565b5b81810290505b9392505050565b600060ff82169050919050565b60006116b282611132565b91506116bd8361169a565b92506116ea7fffffffffffffffffffffffffffffffffffffffffffffffffffffffffffffffff84846115c7565b905092915050565b60006116fd8261108f565b91506117088361108f565b92508282026117168161108f565b915080821461172857611727611538565b5b5092915050565b600061173a8261169a565b915060ff820361174d5761174c611538565b5b600182019050919050565b600061ffff82169050919050565b7f4e487b7100000000000000000000000000000000000000000000000000000000600052601260045260246000fd5b60006117a082611758565b91506117ab83611758565b9250826117bb576117ba611766565b5b828204905092915050565b7f4e487b7100000000000000000000000000000000000000000000000000000000600052603260045260246000fd5b60008160030b9050919050565b600061180d826117f5565b9150611818836117f5565b92508282039050637fffffff81137fffffffffffffffffffffffffffffffffffffffffffffffffffffffff800000008212171561185857611857611538565b5b92915050565b60008160070b9050919050565b60006118768261185e565b91506118818361185e565b925082820261188f8161185e565b91508082146118a1576118a0611538565b5b5092915050565b60006118b38261185e565b91506118be8361185e565b925082820190507fffffffffffffffffffffffffffffffffffffffffffffffff80000000000000008112677fffffffffffffff8213171561190257611901611538565b5b92915050565b600061191382611166565b915061191e83611166565b925082820261192c81611166565b915080821461193e5761193d611538565b5b5092915050565b600061195082611166565b915061195b83611166565b925082820190507fffffffffffffffffffffffffffffffff8000000000000000000000000000000081126f7fffffffffffffffffffffffffffffff821317156119a7576119a6611538565b5b92915050565b600082600081146119c557600181146119cf576119d8565b6001915050611a94565b82915050611a94565b50816119e75760009050611a94565b600190506000821360018114611a045760008114611a1c57611a30565b828604831115611a1757611a16611538565b5b611a30565b828605831215611a2f57611a2e611538565b5b5b506001831615611a3e578190505b8182029150611a4c83611567565b9250611a5a85848484611574565b925090508185048111600082131615611a7657611a75611538565b5b8184058112600082121615611a8e57611a8d611538565b5b81810290505b949350505050565b6000819050919050565b6000611ab182611a9c565b9150611abc8361169a565b9250611b0a7f7fffffffffffffffffffffffffffffffffffffffffffffffffffffffffffffff7f800000000000000000000000000000000000000000000000000000000000000085856119ad565b905092915050565b6000611b1d82611a9c565b9150611b2883611a9c565b9250828202611b3681611a9c565b91507f80000000000000000000000000000000000000000000000000000000000000008414600084121615611b6e57611b6d611538565b5b8282058414831517611b8357611b82611538565b5b5092915050565b60008160e01b9050919050565b6000611ba282611b8a565b9050919050565b611bba611bb58261108f565b611b97565b82525050565b6000611bcc8287611ba9565b600482019150611bdc8286611ba9565b600482019150611bec8285611ba9565b600482019150611bfc8284611ba9565b60048201915081905095945050505050565b6000611c1982611132565b9150611c2483611132565b925082611c3457611c33611766565b5b828206905092915050565b6000611c4a8261108f565b9150611c558361108f565b9250828203905063ffffffff811115611c7157611c70611538565b5b92915050565b6000611c82826112eb565b9150611c8d836112eb565b9250828202611c9b816112eb565b9150808214611cad57611cac611538565b5b5092915050565b6000611cbf8261108f565b9150611cca8361108f565b925082611cda57611cd9611766565b5b828204905092915050565b6000611cf08261108f565b9150611cfb8361108f565b9250828201905063ffffffff811115611d1757611d16611538565b5b9291505056fea2646970667358221220279339b109245a44f5758b086bc7694350acfaa35f3d04f1b6bc91ff104a107064736f6c63430008120033",
					"opcodes": "PUSH2 0x1D53 PUSH2 0x53 PUSH1 0xB DUP3 DUP3 DUP3 CODECOPY DUP1 MLOAD PUSH1 0x0 BYTE PUSH1 0x73 EQ PUSH2 0x46 JUMPI PUSH32 0x4E487B7100000000000000000000000000000000000000000000000000000000 PUSH1 0x0 MSTORE PUSH1 0x0 PUSH1 0x4 MSTORE PUSH1 0x24 PUSH1 0x0 REVERT JUMPDEST ADDRESS PUSH1 0x0 MSTORE PUSH1 0x73 DUP2 MSTORE8 DUP3 DUP2 RETURN INVALID PUSH20 0x0 ADDRESS EQ PUSH1 0x80 PUSH1 0x40 MSTORE PUSH1 0x4 CALLDATASIZE LT PUSH2 0x6C JUMPI PUSH1 0x0 CALLDATALOAD PUSH1 0xE0 SHR DUP1 PUSH4 0x229D0588 EQ PUSH2 0x71 JUMPI DUP1 PUSH4 0x22EFDE0A EQ PUSH2 0xA1 JUMPI DUP1 PUSH4 0x93F32993 EQ PUSH2 0xD1 JUMPI DUP1 PUSH4 0xB9576C35 EQ PUSH2 0x101 JUMPI DUP1 PUSH4 0xD15EB0D5 EQ PUSH2 0x131 JUMPI DUP1 PUSH4 0xE7075187 EQ PUSH2 0x161 JUMPI JUMPDEST PUSH1 0x0 DUP1 REVERT JUMPDEST PUSH2 0x8B PUSH1 0x4 DUP1 CALLDATASIZE SUB DUP2 ADD SWAP1 PUSH2 0x86 SWAP2 SWAP1 PUSH2 0x10CB JUMP JUMPDEST PUSH2 0x191 JUMP JUMPDEST PUSH1 0x40 MLOAD PUSH2 0x98 SWAP2 SWAP1 PUSH2 0x114B JUMP JUMPDEST PUSH1 0x40 MLOAD DUP1 SWAP2 SUB SWAP1 RETURN JUMPDEST PUSH2 0xBB PUSH1 0x4 DUP1 CALLDATASIZE SUB DUP2 ADD SWAP1 PUSH2 0xB6 SWAP2 SWAP1 PUSH2 0x10CB JUMP JUMPDEST PUSH2 0x297 JUMP JUMPDEST PUSH1 0x40 MLOAD PUSH2 0xC8 SWAP2 SWAP1 PUSH2 0x1182 JUMP JUMPDEST PUSH1 0x40 MLOAD DUP1 SWAP2 SUB SWAP1 RETURN JUMPDEST PUSH2 0xEB PUSH1 0x4 DUP1 CALLDATASIZE SUB DUP2 ADD SWAP1 PUSH2 0xE6 SWAP2 SWAP1 PUSH2 0x10CB JUMP JUMPDEST PUSH2 0x4C4 JUMP JUMPDEST PUSH1 0x40 MLOAD PUSH2 0xF8 SWAP2 SWAP1 PUSH2 0x1255 JUMP JUMPDEST PUSH1 0x40 MLOAD DUP1 SWAP2 SUB SWAP1 RETURN JUMPDEST PUSH2 0x11B PUSH1 0x4 DUP1 CALLDATASIZE SUB DUP2 ADD SWAP1 PUSH2 0x116 SWAP2 SWAP1 PUSH2 0x1270 JUMP JUMPDEST PUSH2 0x99D JUMP JUMPDEST PUSH1 0x40 MLOAD PUSH2 0x128 SWAP2 SWAP1 PUSH2 0x130E JUMP JUMPDEST PUSH1 0x40 MLOAD DUP1 SWAP2 SUB SWAP1 RETURN JUMPDEST PUSH2 0x14B PUSH1 0x4 DUP1 CALLDATASIZE SUB DUP2 ADD SWAP1 PUSH2 0x146 SWAP2 SWAP1 PUSH2 0x1329 JUMP JUMPDEST PUSH2 0xA8D JUMP JUMPDEST PUSH1 0x40 MLOAD PUSH2 0x158 SWAP2 SWAP1 PUSH2 0x14C3 JUMP JUMPDEST PUSH1 0x40 MLOAD DUP1 SWAP2 SUB SWAP1 RETURN JUMPDEST PUSH2 0x17B PUSH1 0x4 DUP1 CALLDATASIZE SUB DUP2 ADD SWAP1 PUSH2 0x176 SWAP2 SWAP1 PUSH2 0x150B JUMP JUMPDEST PUSH2 0xBD3 JUMP JUMPDEST PUSH1 0x40 MLOAD PUSH2 0x188 SWAP2 SWAP1 PUSH2 0x1182 JUMP JUMPDEST PUSH1 0x40 MLOAD DUP1 SWAP2 SUB SWAP1 RETURN JUMPDEST PUSH1 0x0 DUP1 PUSH2 0x19E PUSH1 0x0 PUSH2 0xBDD JUMP JUMPDEST SWAP1 POP PUSH1 0x0 JUMPDEST PUSH1 0x3 DUP2 PUSH1 0xFF AND LT ISZERO PUSH2 0x1F6 JUMPI PUSH1 0x0 PUSH2 0x1D4 DUP9 DUP9 DUP5 PUSH1 0x2 PUSH2 0x1C3 SWAP2 SWAP1 PUSH2 0x16A7 JUMP JUMPDEST DUP9 PUSH2 0x1CE SWAP2 SWAP1 PUSH2 0x16F2 JUMP JUMPDEST DUP10 PUSH2 0x297 JUMP JUMPDEST SWAP1 POP PUSH2 0x1E0 DUP4 DUP3 PUSH2 0xC00 JUMP JUMPDEST SWAP3 POP POP DUP1 DUP1 PUSH2 0x1EE SWAP1 PUSH2 0x172F JUMP JUMPDEST SWAP2 POP POP PUSH2 0x1A3 JUMP JUMPDEST POP PUSH2 0x218 DUP2 PUSH2 0x213 DUP9 DUP9 PUSH1 0x1 DUP9 PUSH2 0x20D SWAP2 SWAP1 PUSH2 0x16F2 JUMP JUMPDEST DUP10 PUSH2 0x297 JUMP JUMPDEST PUSH2 0xC00 JUMP JUMPDEST SWAP1 POP PUSH2 0x22D DUP2 PUSH2 0x228 PUSH1 0x4 PUSH2 0xBDD JUMP JUMPDEST PUSH2 0xC67 JUMP JUMPDEST SWAP1 POP PUSH1 0x0 PUSH2 0x276 PUSH2 0x257 DUP4 PUSH2 0x252 PUSH1 0x2 PUSH1 0x40 PUSH2 0x249 SWAP2 SWAP1 PUSH2 0x1795 JUMP JUMPDEST PUSH2 0xFFFF AND PUSH2 0xBDD JUMP JUMPDEST PUSH2 0xCF0 JUMP JUMPDEST PUSH2 0x271 PUSH1 0x2 PUSH1 0x40 PUSH2 0x268 SWAP2 SWAP1 PUSH2 0x1795 JUMP JUMPDEST PUSH2 0xFFFF AND PUSH2 0xBDD JUMP JUMPDEST PUSH2 0xC00 JUMP JUMPDEST SWAP1 POP PUSH2 0x281 DUP2 PUSH2 0xD5B JUMP JUMPDEST PUSH8 0xFFFFFFFFFFFFFFFF AND SWAP3 POP POP POP SWAP5 SWAP4 POP POP POP POP JUMP JUMPDEST PUSH1 0x0 DUP1 PUSH2 0x2A5 DUP7 DUP7 DUP7 PUSH2 0xA8D JUMP JUMPDEST SWAP1 POP PUSH1 0x0 DUP1 JUMPDEST PUSH1 0x4 DUP2 PUSH1 0xFF AND LT ISZERO PUSH2 0x48B JUMPI PUSH1 0x0 DUP4 DUP3 PUSH1 0xFF AND PUSH1 0x4 DUP2 LT PUSH2 0x2CF JUMPI PUSH2 0x2CE PUSH2 0x17C6 JUMP JUMPDEST JUMPDEST PUSH1 0x20 MUL ADD MLOAD SWAP1 POP PUSH1 0x0 PUSH1 0x40 MLOAD DUP1 PUSH1 0x40 ADD PUSH1 0x40 MSTORE DUP1 DUP4 PUSH1 0x0 PUSH1 0x2 DUP2 LT PUSH2 0x2F7 JUMPI PUSH2 0x2F6 PUSH2 0x17C6 JUMP JUMPDEST JUMPDEST PUSH1 0x20 MUL ADD MLOAD DUP13 PUSH2 0x307 SWAP2 SWAP1 PUSH2 0x1802 JUMP JUMPDEST PUSH1 0x3 SIGNEXTEND PUSH1 0x3 SIGNEXTEND DUP2 MSTORE PUSH1 0x20 ADD DUP4 PUSH1 0x1 PUSH1 0x2 DUP2 LT PUSH2 0x326 JUMPI PUSH2 0x325 PUSH2 0x17C6 JUMP JUMPDEST JUMPDEST PUSH1 0x20 MUL ADD MLOAD DUP12 PUSH2 0x336 SWAP2 SWAP1 PUSH2 0x1802 JUMP JUMPDEST PUSH1 0x3 SIGNEXTEND PUSH1 0x3 SIGNEXTEND DUP2 MSTORE POP SWAP1 POP PUSH1 0x0 PUSH2 0x37F DUP4 PUSH1 0x0 PUSH1 0x2 DUP2 LT PUSH2 0x35A JUMPI PUSH2 0x359 PUSH2 0x17C6 JUMP JUMPDEST JUMPDEST PUSH1 0x20 MUL ADD MLOAD DUP5 PUSH1 0x1 PUSH1 0x2 DUP2 LT PUSH2 0x373 JUMPI PUSH2 0x372 PUSH2 0x17C6 JUMP JUMPDEST JUMPDEST PUSH1 0x20 MUL ADD MLOAD DUP12 DUP12 PUSH2 0x4C4 JUMP JUMPDEST SWAP1 POP PUSH1 0x0 DUP2 PUSH1 0x1 PUSH1 0x2 DUP2 LT PUSH2 0x397 JUMPI PUSH2 0x396 PUSH2 0x17C6 JUMP JUMPDEST JUMPDEST PUSH1 0x20 MUL ADD MLOAD PUSH1 0x1 SIGNEXTEND DUP4 PUSH1 0x1 PUSH1 0x2 DUP2 LT PUSH2 0x3B3 JUMPI PUSH2 0x3B2 PUSH2 0x17C6 JUMP JUMPDEST JUMPDEST PUSH1 0x20 MUL ADD MLOAD PUSH1 0x3 SIGNEXTEND PUSH2 0x3C5 SWAP2 SWAP1 PUSH2 0x186B JUMP JUMPDEST DUP3 PUSH1 0x0 PUSH1 0x2 DUP2 LT PUSH2 0x3D9 JUMPI PUSH2 0x3D8 PUSH2 0x17C6 JUMP JUMPDEST JUMPDEST PUSH1 0x20 MUL ADD MLOAD PUSH1 0x1 SIGNEXTEND DUP5 PUSH1 0x0 PUSH1 0x2 DUP2 LT PUSH2 0x3F5 JUMPI PUSH2 0x3F4 PUSH2 0x17C6 JUMP JUMPDEST JUMPDEST PUSH1 0x20 MUL ADD MLOAD PUSH1 0x3 SIGNEXTEND PUSH2 0x407 SWAP2 SWAP1 PUSH2 0x186B JUMP JUMPDEST PUSH2 0x411 SWAP2 SWAP1 PUSH2 0x18A8 JUMP JUMPDEST SWAP1 POP PUSH1 0x0 PUSH2 0x452 DUP6 PUSH1 0x0 PUSH1 0x2 DUP2 LT PUSH2 0x42C JUMPI PUSH2 0x42B PUSH2 0x17C6 JUMP JUMPDEST JUMPDEST PUSH1 0x20 MUL ADD MLOAD DUP7 PUSH1 0x1 PUSH1 0x2 DUP2 LT PUSH2 0x445 JUMPI PUSH2 0x444 PUSH2 0x17C6 JUMP JUMPDEST JUMPDEST PUSH1 0x20 MUL ADD MLOAD DUP16 DUP16 DUP16 PUSH2 0x99D JUMP JUMPDEST SWAP1 POP DUP2 PUSH1 0x7 SIGNEXTEND DUP2 PUSH1 0x7 SIGNEXTEND PUSH2 0x466 SWAP2 SWAP1 PUSH2 0x1908 JUMP JUMPDEST DUP8 PUSH2 0x471 SWAP2 SWAP1 PUSH2 0x1945 JUMP JUMPDEST SWAP7 POP POP POP POP POP POP DUP1 DUP1 PUSH2 0x483 SWAP1 PUSH2 0x172F JUMP JUMPDEST SWAP2 POP POP PUSH2 0x2AB JUMP JUMPDEST POP PUSH2 0x4B8 DUP2 PUSH1 0xF SIGNEXTEND PUSH1 0x3 DUP8 PUSH1 0x3 SIGNEXTEND PUSH2 0x4A3 SWAP2 SWAP1 PUSH2 0x1AA6 JUMP JUMPDEST PUSH2 0x3E8 PUSH1 0x1 SIGNEXTEND PUSH2 0x4B3 SWAP2 SWAP1 PUSH2 0x1B12 JUMP JUMPDEST PUSH2 0xD7C JUMP JUMPDEST SWAP3 POP POP POP SWAP5 SWAP4 POP POP POP POP JUMP JUMPDEST PUSH2 0x4CC PUSH2 0x1019 JUMP JUMPDEST PUSH1 0x0 PUSH1 0x10 DUP7 DUP7 DUP7 DUP7 PUSH1 0x40 MLOAD PUSH1 0x20 ADD PUSH2 0x4E7 SWAP5 SWAP4 SWAP3 SWAP2 SWAP1 PUSH2 0x1BC0 JUMP JUMPDEST PUSH1 0x40 MLOAD PUSH1 0x20 DUP2 DUP4 SUB SUB DUP2 MSTORE SWAP1 PUSH1 0x40 MSTORE DUP1 MLOAD SWAP1 PUSH1 0x20 ADD KECCAK256 PUSH1 0x0 SHR PUSH2 0x50A SWAP2 SWAP1 PUSH2 0x1C0E JUMP JUMPDEST SWAP1 POP PUSH1 0x0 PUSH1 0x40 MLOAD DUP1 PUSH2 0x200 ADD PUSH1 0x40 MSTORE DUP1 PUSH1 0x40 MLOAD DUP1 PUSH1 0x40 ADD PUSH1 0x40 MSTORE DUP1 PUSH2 0x3E8 PUSH1 0x1 SIGNEXTEND PUSH1 0x1 SIGNEXTEND DUP2 MSTORE PUSH1 0x20 ADD PUSH1 0x0 PUSH1 0x1 SIGNEXTEND PUSH1 0x1 SIGNEXTEND DUP2 MSTORE POP DUP2 MSTORE PUSH1 0x20 ADD PUSH1 0x40 MLOAD DUP1 PUSH1 0x40 ADD PUSH1 0x40 MSTORE DUP1 PUSH2 0x39B PUSH1 0x1 SIGNEXTEND PUSH1 0x1 SIGNEXTEND DUP2 MSTORE PUSH1 0x20 ADD PUSH2 0x17E PUSH1 0x1 SIGNEXTEND PUSH1 0x1 SIGNEXTEND DUP2 MSTORE POP DUP2 MSTORE PUSH1 0x20 ADD PUSH1 0x40 MLOAD DUP1 PUSH1 0x40 ADD PUSH1 0x40 MSTORE DUP1 PUSH2 0x2C3 PUSH1 0x1 SIGNEXTEND PUSH1 0x1 SIGNEXTEND DUP2 MSTORE PUSH1 0x20 ADD PUSH2 0x2C3 PUSH1 0x1 SIGNEXTEND PUSH1 0x1 SIGNEXTEND DUP2 MSTORE POP DUP2 MSTORE PUSH1 0x20 ADD PUSH1 0x40 MLOAD DUP1 PUSH1 0x40 ADD PUSH1 0x40 MSTORE DUP1 PUSH2 0x17E PUSH1 0x1 SIGNEXTEND PUSH1 0x1 SIGNEXTEND DUP2 MSTORE PUSH1 0x20 ADD PUSH2 0x39B PUSH1 0x1 SIGNEXTEND PUSH1 0x1 SIGNEXTEND DUP2 MSTORE POP DUP2 MSTORE PUSH1 0x20 ADD PUSH1 0x40 MLOAD DUP1 PUSH1 0x40 ADD PUSH1 0x40 MSTORE DUP1 PUSH1 0x0 PUSH1 0x1 SIGNEXTEND PUSH1 0x1 SIGNEXTEND DUP2 MSTORE PUSH1 0x20 ADD PUSH2 0x3E8 PUSH1 0x1 SIGNEXTEND PUSH1 0x1 SIGNEXTEND DUP2 MSTORE POP DUP2 MSTORE PUSH1 0x20 ADD PUSH1 0x40 MLOAD DUP1 PUSH1 0x40 ADD PUSH1 0x40 MSTORE DUP1 PUSH32 0xFFFFFFFFFFFFFFFFFFFFFFFFFFFFFFFFFFFFFFFFFFFFFFFFFFFFFFFFFFFFFE81 PUSH1 0x1 SIGNEXTEND PUSH1 0x1 SIGNEXTEND DUP2 MSTORE PUSH1 0x20 ADD PUSH2 0x39B PUSH1 0x1 SIGNEXTEND PUSH1 0x1 SIGNEXTEND DUP2 MSTORE POP DUP2 MSTORE PUSH1 0x20 ADD PUSH1 0x40 MLOAD DUP1 PUSH1 0x40 ADD PUSH1 0x40 MSTORE DUP1 PUSH32 0xFFFFFFFFFFFFFFFFFFFFFFFFFFFFFFFFFFFFFFFFFFFFFFFFFFFFFFFFFFFFFD3C PUSH1 0x1 SIGNEXTEND PUSH1 0x1 SIGNEXTEND DUP2 MSTORE PUSH1 0x20 ADD PUSH2 0x2C3 PUSH1 0x1 SIGNEXTEND PUSH1 0x1 SIGNEXTEND DUP2 MSTORE POP DUP2 MSTORE PUSH1 0x20 ADD PUSH1 0x40 MLOAD DUP1 PUSH1 0x40 ADD PUSH1 0x40 MSTORE DUP1 PUSH32 0xFFFFFFFFFFFFFFFFFFFFFFFFFFFFFFFFFFFFFFFFFFFFFFFFFFFFFFFFFFFFFC64 PUSH1 0x1 SIGNEXTEND PUSH1 0x1 SIGNEXTEND DUP2 MSTORE PUSH1 0x20 ADD PUSH2 0x17E PUSH1 0x1 SIGNEXTEND PUSH1 0x1 SIGNEXTEND DUP2 MSTORE POP DUP2 MSTORE PUSH1 0x20 ADD PUSH1 0x40 MLOAD DUP1 PUSH1 0x40 ADD PUSH1 0x40 MSTORE DUP1 PUSH32 0xFFFFFFFFFFFFFFFFFFFFFFFFFFFFFFFFFFFFFFFFFFFFFFFFFFFFFFFFFFFFFC18 PUSH1 0x1 SIGNEXTEND PUSH1 0x1 SIGNEXTEND DUP2 MSTORE PUSH1 0x20 ADD PUSH1 0x0 PUSH1 0x1 SIGNEXTEND PUSH1 0x1 SIGNEXTEND DUP2 MSTORE POP DUP2 MSTORE PUSH1 0x20 ADD PUSH1 0x40 MLOAD DUP1 PUSH1 0x40 ADD PUSH1 0x40 MSTORE DUP1 PUSH32 0xFFFFFFFFFFFFFFFFFFFFFFFFFFFFFFFFFFFFFFFFFFFFFFFFFFFFFFFFFFFFFC64 PUSH1 0x1 SIGNEXTEND PUSH1 0x1 SIGNEXTEND DUP2 MSTORE PUSH1 0x20 ADD PUSH32 0xFFFFFFFFFFFFFFFFFFFFFFFFFFFFFFFFFFFFFFFFFFFFFFFFFFFFFFFFFFFFFE81 PUSH1 0x1 SIGNEXTEND PUSH1 0x1 SIGNEXTEND DUP2 MSTORE POP DUP2 MSTORE PUSH1 0x20 ADD PUSH1 0x40 MLOAD DUP1 PUSH1 0x40 ADD PUSH1 0x40 MSTORE DUP1 PUSH32 0xFFFFFFFFFFFFFFFFFFFFFFFFFFFFFFFFFFFFFFFFFFFFFFFFFFFFFFFFFFFFFD3C PUSH1 0x1 SIGNEXTEND PUSH1 0x1 SIGNEXTEND DUP2 MSTORE PUSH1 0x20 ADD PUSH32 0xFFFFFFFFFFFFFFFFFFFFFFFFFFFFFFFFFFFFFFFFFFFFFFFFFFFFFFFFFFFFFD3C PUSH1 0x1 SIGNEXTEND PUSH1 0x1 SIGNEXTEND DUP2 MSTORE POP DUP2 MSTORE PUSH1 0x20 ADD PUSH1 0x40 MLOAD DUP1 PUSH1 0x40 ADD PUSH1 0x40 MSTORE DUP1 PUSH32 0xFFFFFFFFFFFFFFFFFFFFFFFFFFFFFFFFFFFFFFFFFFFFFFFFFFFFFFFFFFFFFE81 PUSH1 0x1 SIGNEXTEND PUSH1 0x1 SIGNEXTEND DUP2 MSTORE PUSH1 0x20 ADD PUSH32 0xFFFFFFFFFFFFFFFFFFFFFFFFFFFFFFFFFFFFFFFFFFFFFFFFFFFFFFFFFFFFFC64 PUSH1 0x1 SIGNEXTEND PUSH1 0x1 SIGNEXTEND DUP2 MSTORE POP DUP2 MSTORE PUSH1 0x20 ADD PUSH1 0x40 MLOAD DUP1 PUSH1 0x40 ADD PUSH1 0x40 MSTORE DUP1 PUSH32 0xFFFFFFFFFFFFFFFFFFFFFFFFFFFFFFFFFFFFFFFFFFFFFFFFFFFFFFFFFFFFFFFF PUSH1 0x1 SIGNEXTEND PUSH1 0x1 SIGNEXTEND DUP2 MSTORE PUSH1 0x20 ADD PUSH32 0xFFFFFFFFFFFFFFFFFFFFFFFFFFFFFFFFFFFFFFFFFFFFFFFFFFFFFFFFFFFFFC18 PUSH1 0x1 SIGNEXTEND PUSH1 0x1 SIGNEXTEND DUP2 MSTORE POP DUP2 MSTORE PUSH1 0x20 ADD PUSH1 0x40 MLOAD DUP1 PUSH1 0x40 ADD PUSH1 0x40 MSTORE DUP1 PUSH2 0x17E PUSH1 0x1 SIGNEXTEND PUSH1 0x1 SIGNEXTEND DUP2 MSTORE PUSH1 0x20 ADD PUSH32 0xFFFFFFFFFFFFFFFFFFFFFFFFFFFFFFFFFFFFFFFFFFFFFFFFFFFFFFFFFFFFFC64 PUSH1 0x1 SIGNEXTEND PUSH1 0x1 SIGNEXTEND DUP2 MSTORE POP DUP2 MSTORE PUSH1 0x20 ADD PUSH1 0x40 MLOAD DUP1 PUSH1 0x40 ADD PUSH1 0x40 MSTORE DUP1 PUSH2 0x2C3 PUSH1 0x1 SIGNEXTEND PUSH1 0x1 SIGNEXTEND DUP2 MSTORE PUSH1 0x20 ADD PUSH32 0xFFFFFFFFFFFFFFFFFFFFFFFFFFFFFFFFFFFFFFFFFFFFFFFFFFFFFFFFFFFFFD3C PUSH1 0x1 SIGNEXTEND PUSH1 0x1 SIGNEXTEND DUP2 MSTORE POP DUP2 MSTORE PUSH1 0x20 ADD PUSH1 0x40 MLOAD DUP1 PUSH1 0x40 ADD PUSH1 0x40 MSTORE DUP1 PUSH2 0x39B PUSH1 0x1 SIGNEXTEND PUSH1 0x1 SIGNEXTEND DUP2 MSTORE PUSH1 0x20 ADD PUSH32 0xFFFFFFFFFFFFFFFFFFFFFFFFFFFFFFFFFFFFFFFFFFFFFFFFFFFFFFFFFFFFFE81 PUSH1 0x1 SIGNEXTEND PUSH1 0x1 SIGNEXTEND DUP2 MSTORE POP DUP2 MSTORE POP SWAP1 POP DUP1 DUP3 PUSH1 0x10 DUP2 LT PUSH2 0x98C JUMPI PUSH2 0x98B PUSH2 0x17C6 JUMP JUMPDEST JUMPDEST PUSH1 0x20 MUL ADD MLOAD SWAP3 POP POP POP SWAP5 SWAP4 POP POP POP POP JUMP JUMPDEST PUSH1 0x0 DUP1 PUSH1 0x1 SWAP1 POP DUP5 PUSH4 0xFFFFFFFF AND DUP8 PUSH4 0xFFFFFFFF AND GT ISZERO PUSH2 0x9E7 JUMPI DUP5 DUP8 PUSH2 0x9C4 SWAP2 SWAP1 PUSH2 0x1C3F JUMP JUMPDEST DUP4 PUSH2 0x9CF SWAP2 SWAP1 PUSH2 0x1C3F JUMP JUMPDEST PUSH4 0xFFFFFFFF AND DUP2 PUSH2 0x9E0 SWAP2 SWAP1 PUSH2 0x1C77 JUMP JUMPDEST SWAP1 POP PUSH2 0xA12 JUMP JUMPDEST DUP7 DUP6 PUSH2 0x9F3 SWAP2 SWAP1 PUSH2 0x1C3F JUMP JUMPDEST DUP4 PUSH2 0x9FE SWAP2 SWAP1 PUSH2 0x1C3F JUMP JUMPDEST PUSH4 0xFFFFFFFF AND DUP2 PUSH2 0xA0F SWAP2 SWAP1 PUSH2 0x1C77 JUMP JUMPDEST SWAP1 POP JUMPDEST DUP4 PUSH4 0xFFFFFFFF AND DUP7 PUSH4 0xFFFFFFFF AND GT ISZERO PUSH2 0xA55 JUMPI DUP4 DUP7 PUSH2 0xA32 SWAP2 SWAP1 PUSH2 0x1C3F JUMP JUMPDEST DUP4 PUSH2 0xA3D SWAP2 SWAP1 PUSH2 0x1C3F JUMP JUMPDEST PUSH4 0xFFFFFFFF AND DUP2 PUSH2 0xA4E SWAP2 SWAP1 PUSH2 0x1C77 JUMP JUMPDEST SWAP1 POP PUSH2 0xA80 JUMP JUMPDEST DUP6 DUP5 PUSH2 0xA61 SWAP2 SWAP1 PUSH2 0x1C3F JUMP JUMPDEST DUP4 PUSH2 0xA6C SWAP2 SWAP1 PUSH2 0x1C3F JUMP JUMPDEST PUSH4 0xFFFFFFFF AND DUP2 PUSH2 0xA7D SWAP2 SWAP1 PUSH2 0x1C77 JUMP JUMPDEST SWAP1 POP JUMPDEST DUP1 SWAP2 POP POP SWAP6 SWAP5 POP POP POP POP POP JUMP JUMPDEST PUSH2 0xA95 PUSH2 0x103B JUMP JUMPDEST PUSH1 0x0 DUP3 DUP4 DUP7 PUSH2 0xAA4 SWAP2 SWAP1 PUSH2 0x1CB4 JUMP JUMPDEST PUSH2 0xAAE SWAP2 SWAP1 PUSH2 0x16F2 JUMP JUMPDEST SWAP1 POP PUSH1 0x0 DUP4 DUP5 DUP7 PUSH2 0xABF SWAP2 SWAP1 PUSH2 0x1CB4 JUMP JUMPDEST PUSH2 0xAC9 SWAP2 SWAP1 PUSH2 0x16F2 JUMP JUMPDEST SWAP1 POP PUSH1 0x40 MLOAD DUP1 PUSH1 0x80 ADD PUSH1 0x40 MSTORE DUP1 PUSH1 0x40 MLOAD DUP1 PUSH1 0x40 ADD PUSH1 0x40 MSTORE DUP1 DUP6 PUSH4 0xFFFFFFFF AND PUSH4 0xFFFFFFFF AND DUP2 MSTORE PUSH1 0x20 ADD DUP5 PUSH4 0xFFFFFFFF AND PUSH4 0xFFFFFFFF AND DUP2 MSTORE POP DUP2 MSTORE PUSH1 0x20 ADD PUSH1 0x40 MLOAD DUP1 PUSH1 0x40 ADD PUSH1 0x40 MSTORE DUP1 DUP8 DUP7 PUSH2 0xB1F SWAP2 SWAP1 PUSH2 0x1CE5 JUMP JUMPDEST PUSH4 0xFFFFFFFF AND PUSH4 0xFFFFFFFF AND DUP2 MSTORE PUSH1 0x20 ADD DUP5 PUSH4 0xFFFFFFFF AND PUSH4 0xFFFFFFFF AND DUP2 MSTORE POP DUP2 MSTORE PUSH1 0x20 ADD PUSH1 0x40 MLOAD DUP1 PUSH1 0x40 ADD PUSH1 0x40 MSTORE DUP1 DUP8 DUP7 PUSH2 0xB5C SWAP2 SWAP1 PUSH2 0x1CE5 JUMP JUMPDEST PUSH4 0xFFFFFFFF AND PUSH4 0xFFFFFFFF AND DUP2 MSTORE PUSH1 0x20 ADD DUP8 DUP6 PUSH2 0xB79 SWAP2 SWAP1 PUSH2 0x1CE5 JUMP JUMPDEST PUSH4 0xFFFFFFFF AND PUSH4 0xFFFFFFFF AND DUP2 MSTORE POP DUP2 MSTORE PUSH1 0x20 ADD PUSH1 0x40 MLOAD DUP1 PUSH1 0x40 ADD PUSH1 0x40 MSTORE DUP1 DUP6 PUSH4 0xFFFFFFFF AND PUSH4 0xFFFFFFFF AND DUP2 MSTORE PUSH1 0x20 ADD DUP8 DUP6 PUSH2 0xBB6 SWAP2 SWAP1 PUSH2 0x1CE5 JUMP JUMPDEST PUSH4 0xFFFFFFFF AND PUSH4 0xFFFFFFFF AND DUP2 MSTORE POP DUP2 MSTORE POP SWAP3 POP POP POP SWAP4 SWAP3 POP POP POP JUMP JUMPDEST PUSH1 0x0 DUP2 SWAP1 POP SWAP2 SWAP1 POP JUMP JUMPDEST PUSH1 0x0 PUSH8 0x7FFFFFFFFFFFFFFF DUP3 GT ISZERO PUSH2 0xBF4 JUMPI PUSH1 0x0 DUP1 REVERT JUMPDEST PUSH1 0x40 DUP3 SWAP1 SHL SWAP1 POP SWAP2 SWAP1 POP JUMP JUMPDEST PUSH1 0x0 DUP1 DUP3 PUSH1 0xF SIGNEXTEND DUP5 PUSH1 0xF SIGNEXTEND ADD SWAP1 POP PUSH32 0xFFFFFFFFFFFFFFFFFFFFFFFFFFFFFFFF80000000000000000000000000000000 PUSH1 0xF SIGNEXTEND DUP2 SLT ISZERO DUP1 ISZERO PUSH2 0xC54 JUMPI POP PUSH16 0x7FFFFFFFFFFFFFFFFFFFFFFFFFFFFFFF PUSH1 0xF SIGNEXTEND DUP2 SGT ISZERO JUMPDEST PUSH2 0xC5D JUMPI PUSH1 0x0 DUP1 REVERT JUMPDEST DUP1 SWAP2 POP POP SWAP3 SWAP2 POP POP JUMP JUMPDEST PUSH1 0x0 DUP1 DUP3 PUSH1 0xF SIGNEXTEND SUB PUSH2 0xC78 JUMPI PUSH1 0x0 DUP1 REVERT JUMPDEST PUSH1 0x0 DUP3 PUSH1 0xF SIGNEXTEND PUSH1 0x40 DUP6 PUSH1 0xF SIGNEXTEND SWAP1 SHL DUP2 PUSH2 0xC94 JUMPI PUSH2 0xC93 PUSH2 0x1766 JUMP JUMPDEST JUMPDEST SDIV SWAP1 POP PUSH32 0xFFFFFFFFFFFFFFFFFFFFFFFFFFFFFFFF80000000000000000000000000000000 PUSH1 0xF SIGNEXTEND DUP2 SLT ISZERO DUP1 ISZERO PUSH2 0xCDD JUMPI POP PUSH16 0x7FFFFFFFFFFFFFFFFFFFFFFFFFFFFFFF PUSH1 0xF SIGNEXTEND DUP2 SGT ISZERO JUMPDEST PUSH2 0xCE6 JUMPI PUSH1 0x0 DUP1 REVERT JUMPDEST DUP1 SWAP2 POP POP SWAP3 SWAP2 POP POP JUMP JUMPDEST PUSH1 0x0 DUP1 PUSH1 0x40 DUP4 PUSH1 0xF SIGNEXTEND DUP6 PUSH1 0xF SIGNEXTEND MUL SWAP1 SAR SWAP1 POP PUSH32 0xFFFFFFFFFFFFFFFFFFFFFFFFFFFFFFFF80000000000000000000000000000000 PUSH1 0xF SIGNEXTEND DUP2 SLT ISZERO DUP1 ISZERO PUSH2 0xD48 JUMPI POP PUSH16 0x7FFFFFFFFFFFFFFFFFFFFFFFFFFFFFFF PUSH1 0xF SIGNEXTEND DUP2 SGT ISZERO JUMPDEST PUSH2 0xD51 JUMPI PUSH1 0x0 DUP1 REVERT JUMPDEST DUP1 SWAP2 POP POP SWAP3 SWAP2 POP POP JUMP JUMPDEST PUSH1 0x0 DUP1 DUP3 PUSH1 0xF SIGNEXTEND SLT ISZERO PUSH2 0xD6D JUMPI PUSH1 0x0 DUP1 REVERT JUMPDEST PUSH1 0x40 DUP3 PUSH1 0xF SIGNEXTEND SWAP1 SAR SWAP1 POP SWAP2 SWAP1 POP JUMP JUMPDEST PUSH1 0x0 DUP1 DUP3 SUB PUSH2 0xD8A JUMPI PUSH1 0x0 DUP1 REVERT JUMPDEST PUSH1 0x0 DUP1 DUP5 SLT ISZERO PUSH2 0xD9F JUMPI DUP4 PUSH1 0x0 SUB SWAP4 POP PUSH1 0x1 SWAP1 POP JUMPDEST PUSH1 0x0 DUP4 SLT ISZERO PUSH2 0xDB3 JUMPI DUP3 PUSH1 0x0 SUB SWAP3 POP DUP1 ISZERO SWAP1 POP JUMPDEST PUSH1 0x0 PUSH2 0xDBF DUP6 DUP6 PUSH2 0xE3E JUMP JUMPDEST SWAP1 POP DUP2 ISZERO PUSH2 0xE03 JUMPI PUSH16 0x80000000000000000000000000000000 DUP2 PUSH16 0xFFFFFFFFFFFFFFFFFFFFFFFFFFFFFFFF AND GT ISZERO PUSH2 0xDF6 JUMPI PUSH1 0x0 DUP1 REVERT JUMPDEST DUP1 PUSH1 0x0 SUB SWAP3 POP POP POP PUSH2 0xE38 JUMP JUMPDEST PUSH16 0x7FFFFFFFFFFFFFFFFFFFFFFFFFFFFFFF DUP2 PUSH16 0xFFFFFFFFFFFFFFFFFFFFFFFFFFFFFFFF AND GT ISZERO PUSH2 0xE32 JUMPI PUSH1 0x0 DUP1 REVERT JUMPDEST DUP1 SWAP3 POP POP POP JUMPDEST SWAP3 SWAP2 POP POP JUMP JUMPDEST PUSH1 0x0 DUP1 DUP3 SUB PUSH2 0xE4C JUMPI PUSH1 0x0 DUP1 REVERT JUMPDEST PUSH1 0x0 PUSH24 0xFFFFFFFFFFFFFFFFFFFFFFFFFFFFFFFFFFFFFFFFFFFFFFFF DUP5 GT PUSH2 0xE89 JUMPI DUP3 PUSH1 0x40 DUP6 SWAP1 SHL DUP2 PUSH2 0xE81 JUMPI PUSH2 0xE80 PUSH2 0x1766 JUMP JUMPDEST JUMPDEST DIV SWAP1 POP PUSH2 0xFF2 JUMP JUMPDEST PUSH1 0x0 PUSH1 0xC0 SWAP1 POP PUSH1 0x0 PUSH1 0xC0 DUP7 SWAP1 SHR SWAP1 POP PUSH5 0x100000000 DUP2 LT PUSH2 0xEB2 JUMPI PUSH1 0x20 DUP2 SWAP1 SHR SWAP1 POP PUSH1 0x20 DUP3 ADD SWAP2 POP JUMPDEST PUSH3 0x10000 DUP2 LT PUSH2 0xECA JUMPI PUSH1 0x10 DUP2 SWAP1 SHR SWAP1 POP PUSH1 0x10 DUP3 ADD SWAP2 POP JUMPDEST PUSH2 0x100 DUP2 LT PUSH2 0xEE1 JUMPI PUSH1 0x8 DUP2 SWAP1 SHR SWAP1 POP PUSH1 0x8 DUP3 ADD SWAP2 POP JUMPDEST PUSH1 0x10 DUP2 LT PUSH2 0xEF7 JUMPI PUSH1 0x4 DUP2 SWAP1 SHR SWAP1 POP PUSH1 0x4 DUP3 ADD SWAP2 POP JUMPDEST PUSH1 0x4 DUP2 LT PUSH2 0xF0D JUMPI PUSH1 0x2 DUP2 SWAP1 SHR SWAP1 POP PUSH1 0x2 DUP3 ADD SWAP2 POP JUMPDEST PUSH1 0x2 DUP2 LT PUSH2 0xF1C JUMPI PUSH1 0x1 DUP3 ADD SWAP2 POP JUMPDEST PUSH1 0x1 PUSH1 0xBF DUP4 SUB PUSH1 0x1 DUP8 SUB SWAP1 SHR ADD DUP3 PUSH1 0xFF SUB DUP8 SWAP1 SHL DUP2 PUSH2 0xF3E JUMPI PUSH2 0xF3D PUSH2 0x1766 JUMP JUMPDEST JUMPDEST DIV SWAP3 POP PUSH16 0xFFFFFFFFFFFFFFFFFFFFFFFFFFFFFFFF DUP4 GT ISZERO PUSH2 0xF5E JUMPI PUSH1 0x0 DUP1 REVERT JUMPDEST PUSH1 0x0 PUSH1 0x80 DUP7 SWAP1 SHR DUP5 MUL SWAP1 POP PUSH1 0x0 PUSH16 0xFFFFFFFFFFFFFFFFFFFFFFFFFFFFFFFF DUP8 AND DUP6 MUL SWAP1 POP PUSH1 0x0 PUSH1 0xC0 DUP10 SWAP1 SHR SWAP1 POP PUSH1 0x0 PUSH1 0x40 DUP11 SWAP1 SHL SWAP1 POP DUP3 DUP2 LT ISZERO PUSH2 0xFA3 JUMPI PUSH1 0x1 DUP3 SUB SWAP2 POP JUMPDEST DUP3 DUP2 SUB SWAP1 POP PUSH1 0x80 DUP5 SWAP1 SHL SWAP3 POP DUP3 DUP2 LT ISZERO PUSH2 0xFBE JUMPI PUSH1 0x1 DUP3 SUB SWAP2 POP JUMPDEST DUP3 DUP2 SUB SWAP1 POP PUSH1 0x80 DUP5 SWAP1 SHR DUP3 EQ PUSH2 0xFD5 JUMPI PUSH1 0x1 PUSH2 0xFE7 JUMP JUMPDEST DUP9 DUP2 DUP2 PUSH2 0xFE5 JUMPI PUSH2 0xFE4 PUSH2 0x1766 JUMP JUMPDEST JUMPDEST DIV JUMPDEST DUP8 ADD SWAP7 POP POP POP POP POP POP POP JUMPDEST PUSH16 0xFFFFFFFFFFFFFFFFFFFFFFFFFFFFFFFF DUP2 GT ISZERO PUSH2 0x100F JUMPI PUSH1 0x0 DUP1 REVERT JUMPDEST DUP1 SWAP2 POP POP SWAP3 SWAP2 POP POP JUMP JUMPDEST PUSH1 0x40 MLOAD DUP1 PUSH1 0x40 ADD PUSH1 0x40 MSTORE DUP1 PUSH1 0x2 SWAP1 PUSH1 0x20 DUP3 MUL DUP1 CALLDATASIZE DUP4 CALLDATACOPY DUP1 DUP3 ADD SWAP2 POP POP SWAP1 POP POP SWAP1 JUMP JUMPDEST PUSH1 0x40 MLOAD DUP1 PUSH1 0x80 ADD PUSH1 0x40 MSTORE DUP1 PUSH1 0x4 SWAP1 JUMPDEST PUSH2 0x1052 PUSH2 0x1068 JUMP JUMPDEST DUP2 MSTORE PUSH1 0x20 ADD SWAP1 PUSH1 0x1 SWAP1 SUB SWAP1 DUP2 PUSH2 0x104A JUMPI SWAP1 POP POP SWAP1 JUMP JUMPDEST PUSH1 0x40 MLOAD DUP1 PUSH1 0x40 ADD PUSH1 0x40 MSTORE DUP1 PUSH1 0x2 SWAP1 PUSH1 0x20 DUP3 MUL DUP1 CALLDATASIZE DUP4 CALLDATACOPY DUP1 DUP3 ADD SWAP2 POP POP SWAP1 POP POP SWAP1 JUMP JUMPDEST PUSH1 0x0 DUP1 REVERT JUMPDEST PUSH1 0x0 PUSH4 0xFFFFFFFF DUP3 AND SWAP1 POP SWAP2 SWAP1 POP JUMP JUMPDEST PUSH2 0x10A8 DUP2 PUSH2 0x108F JUMP JUMPDEST DUP2 EQ PUSH2 0x10B3 JUMPI PUSH1 0x0 DUP1 REVERT JUMPDEST POP JUMP JUMPDEST PUSH1 0x0 DUP2 CALLDATALOAD SWAP1 POP PUSH2 0x10C5 DUP2 PUSH2 0x109F JUMP JUMPDEST SWAP3 SWAP2 POP POP JUMP JUMPDEST PUSH1 0x0 DUP1 PUSH1 0x0 DUP1 PUSH1 0x80 DUP6 DUP8 SUB SLT ISZERO PUSH2 0x10E5 JUMPI PUSH2 0x10E4 PUSH2 0x108A JUMP JUMPDEST JUMPDEST PUSH1 0x0 PUSH2 0x10F3 DUP8 DUP3 DUP9 ADD PUSH2 0x10B6 JUMP JUMPDEST SWAP5 POP POP PUSH1 0x20 PUSH2 0x1104 DUP8 DUP3 DUP9 ADD PUSH2 0x10B6 JUMP JUMPDEST SWAP4 POP POP PUSH1 0x40 PUSH2 0x1115 DUP8 DUP3 DUP9 ADD PUSH2 0x10B6 JUMP JUMPDEST SWAP3 POP POP PUSH1 0x60 PUSH2 0x1126 DUP8 DUP3 DUP9 ADD PUSH2 0x10B6 JUMP JUMPDEST SWAP2 POP POP SWAP3 SWAP6 SWAP2 SWAP5 POP SWAP3 POP JUMP JUMPDEST PUSH1 0x0 DUP2 SWAP1 POP SWAP2 SWAP1 POP JUMP JUMPDEST PUSH2 0x1145 DUP2 PUSH2 0x1132 JUMP JUMPDEST DUP3 MSTORE POP POP JUMP JUMPDEST PUSH1 0x0 PUSH1 0x20 DUP3 ADD SWAP1 POP PUSH2 0x1160 PUSH1 0x0 DUP4 ADD DUP5 PUSH2 0x113C JUMP JUMPDEST SWAP3 SWAP2 POP POP JUMP JUMPDEST PUSH1 0x0 DUP2 PUSH1 0xF SIGNEXTEND SWAP1 POP SWAP2 SWAP1 POP JUMP JUMPDEST PUSH2 0x117C DUP2 PUSH2 0x1166 JUMP JUMPDEST DUP3 MSTORE POP POP JUMP JUMPDEST PUSH1 0x0 PUSH1 0x20 DUP3 ADD SWAP1 POP PUSH2 0x1197 PUSH1 0x0 DUP4 ADD DUP5 PUSH2 0x1173 JUMP JUMPDEST SWAP3 SWAP2 POP POP JUMP JUMPDEST PUSH1 0x0 PUSH1 0x2 SWAP1 POP SWAP2 SWAP1 POP JUMP JUMPDEST PUSH1 0x0 DUP2 SWAP1 POP SWAP3 SWAP2 POP POP JUMP JUMPDEST PUSH1 0x0 DUP2 SWAP1 POP SWAP2 SWAP1 POP JUMP JUMPDEST PUSH1 0x0 DUP2 PUSH1 0x1 SIGNEXTEND SWAP1 POP SWAP2 SWAP1 POP JUMP JUMPDEST PUSH2 0x11D3 DUP2 PUSH2 0x11BD JUMP JUMPDEST DUP3 MSTORE POP POP JUMP JUMPDEST PUSH1 0x0 PUSH2 0x11E5 DUP4 DUP4 PUSH2 0x11CA JUMP JUMPDEST PUSH1 0x20 DUP4 ADD SWAP1 POP SWAP3 SWAP2 POP POP JUMP JUMPDEST PUSH1 0x0 PUSH1 0x20 DUP3 ADD SWAP1 POP SWAP2 SWAP1 POP JUMP JUMPDEST PUSH2 0x1207 DUP2 PUSH2 0x119D JUMP JUMPDEST PUSH2 0x1211 DUP2 DUP5 PUSH2 0x11A8 JUMP JUMPDEST SWAP3 POP PUSH2 0x121C DUP3 PUSH2 0x11B3 JUMP JUMPDEST DUP1 PUSH1 0x0 JUMPDEST DUP4 DUP2 LT ISZERO PUSH2 0x124D JUMPI DUP2 MLOAD PUSH2 0x1234 DUP8 DUP3 PUSH2 0x11D9 JUMP JUMPDEST SWAP7 POP PUSH2 0x123F DUP4 PUSH2 0x11F1 JUMP JUMPDEST SWAP3 POP POP PUSH1 0x1 DUP2 ADD SWAP1 POP PUSH2 0x1220 JUMP JUMPDEST POP POP POP POP POP POP JUMP JUMPDEST PUSH1 0x0 PUSH1 0x40 DUP3 ADD SWAP1 POP PUSH2 0x126A PUSH1 0x0 DUP4 ADD DUP5 PUSH2 0x11FE JUMP JUMPDEST SWAP3 SWAP2 POP POP JUMP JUMPDEST PUSH1 0x0 DUP1 PUSH1 0x0 DUP1 PUSH1 0x0 PUSH1 0xA0 DUP7 DUP9 SUB SLT ISZERO PUSH2 0x128C JUMPI PUSH2 0x128B PUSH2 0x108A JUMP JUMPDEST JUMPDEST PUSH1 0x0 PUSH2 0x129A DUP9 DUP3 DUP10 ADD PUSH2 0x10B6 JUMP JUMPDEST SWAP6 POP POP PUSH1 0x20 PUSH2 0x12AB DUP9 DUP3 DUP10 ADD PUSH2 0x10B6 JUMP JUMPDEST SWAP5 POP POP PUSH1 0x40 PUSH2 0x12BC DUP9 DUP3 DUP10 ADD PUSH2 0x10B6 JUMP JUMPDEST SWAP4 POP POP PUSH1 0x60 PUSH2 0x12CD DUP9 DUP3 DUP10 ADD PUSH2 0x10B6 JUMP JUMPDEST SWAP3 POP POP PUSH1 0x80 PUSH2 0x12DE DUP9 DUP3 DUP10 ADD PUSH2 0x10B6 JUMP JUMPDEST SWAP2 POP POP SWAP3 SWAP6 POP SWAP3 SWAP6 SWAP1 SWAP4 POP JUMP JUMPDEST PUSH1 0x0 PUSH8 0xFFFFFFFFFFFFFFFF DUP3 AND SWAP1 POP SWAP2 SWAP1 POP JUMP JUMPDEST PUSH2 0x1308 DUP2 PUSH2 0x12EB JUMP JUMPDEST DUP3 MSTORE POP POP JUMP JUMPDEST PUSH1 0x0 PUSH1 0x20 DUP3 ADD SWAP1 POP PUSH2 0x1323 PUSH1 0x0 DUP4 ADD DUP5 PUSH2 0x12FF JUMP JUMPDEST SWAP3 SWAP2 POP POP JUMP JUMPDEST PUSH1 0x0 DUP1 PUSH1 0x0 PUSH1 0x60 DUP5 DUP7 SUB SLT ISZERO PUSH2 0x1342 JUMPI PUSH2 0x1341 PUSH2 0x108A JUMP JUMPDEST JUMPDEST PUSH1 0x0 PUSH2 0x1350 DUP7 DUP3 DUP8 ADD PUSH2 0x10B6 JUMP JUMPDEST SWAP4 POP POP PUSH1 0x20 PUSH2 0x1361 DUP7 DUP3 DUP8 ADD PUSH2 0x10B6 JUMP JUMPDEST SWAP3 POP POP PUSH1 0x40 PUSH2 0x1372 DUP7 DUP3 DUP8 ADD PUSH2 0x10B6 JUMP JUMPDEST SWAP2 POP POP SWAP3 POP SWAP3 POP SWAP3 JUMP JUMPDEST PUSH1 0x0 PUSH1 0x4 SWAP1 POP SWAP2 SWAP1 POP JUMP JUMPDEST PUSH1 0x0 DUP2 SWAP1 POP SWAP3 SWAP2 POP POP JUMP JUMPDEST PUSH1 0x0 DUP2 SWAP1 POP SWAP2 SWAP1 POP JUMP JUMPDEST PUSH1 0x0 PUSH1 0x2 SWAP1 POP SWAP2 SWAP1 POP JUMP JUMPDEST PUSH1 0x0 DUP2 SWAP1 POP SWAP3 SWAP2 POP POP JUMP JUMPDEST PUSH1 0x0 DUP2 SWAP1 POP SWAP2 SWAP1 POP JUMP JUMPDEST PUSH2 0x13C5 DUP2 PUSH2 0x108F JUMP JUMPDEST DUP3 MSTORE POP POP JUMP JUMPDEST PUSH1 0x0 PUSH2 0x13D7 DUP4 DUP4 PUSH2 0x13BC JUMP JUMPDEST PUSH1 0x20 DUP4 ADD SWAP1 POP SWAP3 SWAP2 POP POP JUMP JUMPDEST PUSH1 0x0 PUSH1 0x20 DUP3 ADD SWAP1 POP SWAP2 SWAP1 POP JUMP JUMPDEST PUSH2 0x13F9 DUP2 PUSH2 0x139C JUMP JUMPDEST PUSH2 0x1403 DUP2 DUP5 PUSH2 0x13A7 JUMP JUMPDEST SWAP3 POP PUSH2 0x140E DUP3 PUSH2 0x13B2 JUMP JUMPDEST DUP1 PUSH1 0x0 JUMPDEST DUP4 DUP2 LT ISZERO PUSH2 0x143F JUMPI DUP2 MLOAD PUSH2 0x1426 DUP8 DUP3 PUSH2 0x13CB JUMP JUMPDEST SWAP7 POP PUSH2 0x1431 DUP4 PUSH2 0x13E3 JUMP JUMPDEST SWAP3 POP POP PUSH1 0x1 DUP2 ADD SWAP1 POP PUSH2 0x1412 JUMP JUMPDEST POP POP POP POP POP POP JUMP JUMPDEST PUSH1 0x0 PUSH2 0x1453 DUP4 DUP4 PUSH2 0x13F0 JUMP JUMPDEST PUSH1 0x40 DUP4 ADD SWAP1 POP SWAP3 SWAP2 POP POP JUMP JUMPDEST PUSH1 0x0 PUSH1 0x20 DUP3 ADD SWAP1 POP SWAP2 SWAP1 POP JUMP JUMPDEST PUSH2 0x1475 DUP2 PUSH2 0x137C JUMP JUMPDEST PUSH2 0x147F DUP2 DUP5 PUSH2 0x1387 JUMP JUMPDEST SWAP3 POP PUSH2 0x148A DUP3 PUSH2 0x1392 JUMP JUMPDEST DUP1 PUSH1 0x0 JUMPDEST DUP4 DUP2 LT ISZERO PUSH2 0x14BB JUMPI DUP2 MLOAD PUSH2 0x14A2 DUP8 DUP3 PUSH2 0x1447 JUMP JUMPDEST SWAP7 POP PUSH2 0x14AD DUP4 PUSH2 0x145F JUMP JUMPDEST SWAP3 POP POP PUSH1 0x1 DUP2 ADD SWAP1 POP PUSH2 0x148E JUMP JUMPDEST POP POP POP POP POP POP JUMP JUMPDEST PUSH1 0x0 PUSH2 0x100 DUP3 ADD SWAP1 POP PUSH2 0x14D9 PUSH1 0x0 DUP4 ADD DUP5 PUSH2 0x146C JUMP JUMPDEST SWAP3 SWAP2 POP POP JUMP JUMPDEST PUSH2 0x14E8 DUP2 PUSH2 0x1166 JUMP JUMPDEST DUP2 EQ PUSH2 0x14F3 JUMPI PUSH1 0x0 DUP1 REVERT JUMPDEST POP JUMP JUMPDEST PUSH1 0x0 DUP2 CALLDATALOAD SWAP1 POP PUSH2 0x1505 DUP2 PUSH2 0x14DF JUMP JUMPDEST SWAP3 SWAP2 POP POP JUMP JUMPDEST PUSH1 0x0 PUSH1 0x20 DUP3 DUP5 SUB SLT ISZERO PUSH2 0x1521 JUMPI PUSH2 0x1520 PUSH2 0x108A JUMP JUMPDEST JUMPDEST PUSH1 0x0 PUSH2 0x152F DUP5 DUP3 DUP6 ADD PUSH2 0x14F6 JUMP JUMPDEST SWAP2 POP POP SWAP3 SWAP2 POP POP JUMP JUMPDEST PUSH32 0x4E487B7100000000000000000000000000000000000000000000000000000000 PUSH1 0x0 MSTORE PUSH1 0x11 PUSH1 0x4 MSTORE PUSH1 0x24 PUSH1 0x0 REVERT JUMPDEST PUSH1 0x0 DUP2 PUSH1 0x1 SHR SWAP1 POP SWAP2 SWAP1 POP JUMP JUMPDEST PUSH1 0x0 DUP1 DUP3 SWAP2 POP DUP4 SWAP1 POP JUMPDEST PUSH1 0x1 DUP6 GT ISZERO PUSH2 0x15BE JUMPI DUP1 DUP7 DIV DUP2 GT ISZERO PUSH2 0x159A JUMPI PUSH2 0x1599 PUSH2 0x1538 JUMP JUMPDEST JUMPDEST PUSH1 0x1 DUP6 AND ISZERO PUSH2 0x15A9 JUMPI DUP1 DUP3 MUL SWAP2 POP JUMPDEST DUP1 DUP2 MUL SWAP1 POP PUSH2 0x15B7 DUP6 PUSH2 0x1567 JUMP JUMPDEST SWAP5 POP PUSH2 0x157E JUMP JUMPDEST SWAP5 POP SWAP5 SWAP3 POP POP POP JUMP JUMPDEST PUSH1 0x0 DUP3 PUSH2 0x15D7 JUMPI PUSH1 0x1 SWAP1 POP PUSH2 0x1693 JUMP JUMPDEST DUP2 PUSH2 0x15E5 JUMPI PUSH1 0x0 SWAP1 POP PUSH2 0x1693 JUMP JUMPDEST DUP2 PUSH1 0x1 DUP2 EQ PUSH2 0x15FB JUMPI PUSH1 0x2 DUP2 EQ PUSH2 0x1605 JUMPI PUSH2 0x1634 JUMP JUMPDEST PUSH1 0x1 SWAP2 POP POP PUSH2 0x1693 JUMP JUMPDEST PUSH1 0xFF DUP5 GT ISZERO PUSH2 0x1617 JUMPI PUSH2 0x1616 PUSH2 0x1538 JUMP JUMPDEST JUMPDEST DUP4 PUSH1 0x2 EXP SWAP2 POP DUP5 DUP3 GT ISZERO PUSH2 0x162E JUMPI PUSH2 0x162D PUSH2 0x1538 JUMP JUMPDEST JUMPDEST POP PUSH2 0x1693 JUMP JUMPDEST POP PUSH1 0x20 DUP4 LT PUSH2 0x133 DUP4 LT AND PUSH1 0x4E DUP5 LT PUSH1 0xB DUP5 LT AND OR ISZERO PUSH2 0x1669 JUMPI DUP3 DUP3 EXP SWAP1 POP DUP4 DUP2 GT ISZERO PUSH2 0x1664 JUMPI PUSH2 0x1663 PUSH2 0x1538 JUMP JUMPDEST JUMPDEST PUSH2 0x1693 JUMP JUMPDEST PUSH2 0x1676 DUP5 DUP5 DUP5 PUSH1 0x1 PUSH2 0x1574 JUMP JUMPDEST SWAP3 POP SWAP1 POP DUP2 DUP5 DIV DUP2 GT ISZERO PUSH2 0x168D JUMPI PUSH2 0x168C PUSH2 0x1538 JUMP JUMPDEST JUMPDEST DUP2 DUP2 MUL SWAP1 POP JUMPDEST SWAP4 SWAP3 POP POP POP JUMP JUMPDEST PUSH1 0x0 PUSH1 0xFF DUP3 AND SWAP1 POP SWAP2 SWAP1 POP JUMP JUMPDEST PUSH1 0x0 PUSH2 0x16B2 DUP3 PUSH2 0x1132 JUMP JUMPDEST SWAP2 POP PUSH2 0x16BD DUP4 PUSH2 0x169A JUMP JUMPDEST SWAP3 POP PUSH2 0x16EA PUSH32 0xFFFFFFFFFFFFFFFFFFFFFFFFFFFFFFFFFFFFFFFFFFFFFFFFFFFFFFFFFFFFFFFF DUP5 DUP5 PUSH2 0x15C7 JUMP JUMPDEST SWAP1 POP SWAP3 SWAP2 POP POP JUMP JUMPDEST PUSH1 0x0 PUSH2 0x16FD DUP3 PUSH2 0x108F JUMP JUMPDEST SWAP2 POP PUSH2 0x1708 DUP4 PUSH2 0x108F JUMP JUMPDEST SWAP3 POP DUP3 DUP3 MUL PUSH2 0x1716 DUP2 PUSH2 0x108F JUMP JUMPDEST SWAP2 POP DUP1 DUP3 EQ PUSH2 0x1728 JUMPI PUSH2 0x1727 PUSH2 0x1538 JUMP JUMPDEST JUMPDEST POP SWAP3 SWAP2 POP POP JUMP JUMPDEST PUSH1 0x0 PUSH2 0x173A DUP3 PUSH2 0x169A JUMP JUMPDEST SWAP2 POP PUSH1 0xFF DUP3 SUB PUSH2 0x174D JUMPI PUSH2 0x174C PUSH2 0x1538 JUMP JUMPDEST JUMPDEST PUSH1 0x1 DUP3 ADD SWAP1 POP SWAP2 SWAP1 POP JUMP JUMPDEST PUSH1 0x0 PUSH2 0xFFFF DUP3 AND SWAP1 POP SWAP2 SWAP1 POP JUMP JUMPDEST PUSH32 0x4E487B7100000000000000000000000000000000000000000000000000000000 PUSH1 0x0 MSTORE PUSH1 0x12 PUSH1 0x4 MSTORE PUSH1 0x24 PUSH1 0x0 REVERT JUMPDEST PUSH1 0x0 PUSH2 0x17A0 DUP3 PUSH2 0x1758 JUMP JUMPDEST SWAP2 POP PUSH2 0x17AB DUP4 PUSH2 0x1758 JUMP JUMPDEST SWAP3 POP DUP3 PUSH2 0x17BB JUMPI PUSH2 0x17BA PUSH2 0x1766 JUMP JUMPDEST JUMPDEST DUP3 DUP3 DIV SWAP1 POP SWAP3 SWAP2 POP POP JUMP JUMPDEST PUSH32 0x4E487B7100000000000000000000000000000000000000000000000000000000 PUSH1 0x0 MSTORE PUSH1 0x32 PUSH1 0x4 MSTORE PUSH1 0x24 PUSH1 0x0 REVERT JUMPDEST PUSH1 0x0 DUP2 PUSH1 0x3 SIGNEXTEND SWAP1 POP SWAP2 SWAP1 POP JUMP JUMPDEST PUSH1 0x0 PUSH2 0x180D DUP3 PUSH2 0x17F5 JUMP JUMPDEST SWAP2 POP PUSH2 0x1818 DUP4 PUSH2 0x17F5 JUMP JUMPDEST SWAP3 POP DUP3 DUP3 SUB SWAP1 POP PUSH4 0x7FFFFFFF DUP2 SGT PUSH32 0xFFFFFFFFFFFFFFFFFFFFFFFFFFFFFFFFFFFFFFFFFFFFFFFFFFFFFFFF80000000 DUP3 SLT OR ISZERO PUSH2 0x1858 JUMPI PUSH2 0x1857 PUSH2 0x1538 JUMP JUMPDEST JUMPDEST SWAP3 SWAP2 POP POP JUMP JUMPDEST PUSH1 0x0 DUP2 PUSH1 0x7 SIGNEXTEND SWAP1 POP SWAP2 SWAP1 POP JUMP JUMPDEST PUSH1 0x0 PUSH2 0x1876 DUP3 PUSH2 0x185E JUMP JUMPDEST SWAP2 POP PUSH2 0x1881 DUP4 PUSH2 0x185E JUMP JUMPDEST SWAP3 POP DUP3 DUP3 MUL PUSH2 0x188F DUP2 PUSH2 0x185E JUMP JUMPDEST SWAP2 POP DUP1 DUP3 EQ PUSH2 0x18A1 JUMPI PUSH2 0x18A0 PUSH2 0x1538 JUMP JUMPDEST JUMPDEST POP SWAP3 SWAP2 POP POP JUMP JUMPDEST PUSH1 0x0 PUSH2 0x18B3 DUP3 PUSH2 0x185E JUMP JUMPDEST SWAP2 POP PUSH2 0x18BE DUP4 PUSH2 0x185E JUMP JUMPDEST SWAP3 POP DUP3 DUP3 ADD SWAP1 POP PUSH32 0xFFFFFFFFFFFFFFFFFFFFFFFFFFFFFFFFFFFFFFFFFFFFFFFF8000000000000000 DUP2 SLT PUSH8 0x7FFFFFFFFFFFFFFF DUP3 SGT OR ISZERO PUSH2 0x1902 JUMPI PUSH2 0x1901 PUSH2 0x1538 JUMP JUMPDEST JUMPDEST SWAP3 SWAP2 POP POP JUMP JUMPDEST PUSH1 0x0 PUSH2 0x1913 DUP3 PUSH2 0x1166 JUMP JUMPDEST SWAP2 POP PUSH2 0x191E DUP4 PUSH2 0x1166 JUMP JUMPDEST SWAP3 POP DUP3 DUP3 MUL PUSH2 0x192C DUP2 PUSH2 0x1166 JUMP JUMPDEST SWAP2 POP DUP1 DUP3 EQ PUSH2 0x193E JUMPI PUSH2 0x193D PUSH2 0x1538 JUMP JUMPDEST JUMPDEST POP SWAP3 SWAP2 POP POP JUMP JUMPDEST PUSH1 0x0 PUSH2 0x1950 DUP3 PUSH2 0x1166 JUMP JUMPDEST SWAP2 POP PUSH2 0x195B DUP4 PUSH2 0x1166 JUMP JUMPDEST SWAP3 POP DUP3 DUP3 ADD SWAP1 POP PUSH32 0xFFFFFFFFFFFFFFFFFFFFFFFFFFFFFFFF80000000000000000000000000000000 DUP2 SLT PUSH16 0x7FFFFFFFFFFFFFFFFFFFFFFFFFFFFFFF DUP3 SGT OR ISZERO PUSH2 0x19A7 JUMPI PUSH2 0x19A6 PUSH2 0x1538 JUMP JUMPDEST JUMPDEST SWAP3 SWAP2 POP POP JUMP JUMPDEST PUSH1 0x0 DUP3 PUSH1 0x0 DUP2 EQ PUSH2 0x19C5 JUMPI PUSH1 0x1 DUP2 EQ PUSH2 0x19CF JUMPI PUSH2 0x19D8 JUMP JUMPDEST PUSH1 0x1 SWAP2 POP POP PUSH2 0x1A94 JUMP JUMPDEST DUP3 SWAP2 POP POP PUSH2 0x1A94 JUMP JUMPDEST POP DUP2 PUSH2 0x19E7 JUMPI PUSH1 0x0 SWAP1 POP PUSH2 0x1A94 JUMP JUMPDEST PUSH1 0x1 SWAP1 POP PUSH1 0x0 DUP3 SGT PUSH1 0x1 DUP2 EQ PUSH2 0x1A04 JUMPI PUSH1 0x0 DUP2 EQ PUSH2 0x1A1C JUMPI PUSH2 0x1A30 JUMP JUMPDEST DUP3 DUP7 DIV DUP4 GT ISZERO PUSH2 0x1A17 JUMPI PUSH2 0x1A16 PUSH2 0x1538 JUMP JUMPDEST JUMPDEST PUSH2 0x1A30 JUMP JUMPDEST DUP3 DUP7 SDIV DUP4 SLT ISZERO PUSH2 0x1A2F JUMPI PUSH2 0x1A2E PUSH2 0x1538 JUMP JUMPDEST JUMPDEST JUMPDEST POP PUSH1 0x1 DUP4 AND ISZERO PUSH2 0x1A3E JUMPI DUP2 SWAP1 POP JUMPDEST DUP2 DUP3 MUL SWAP2 POP PUSH2 0x1A4C DUP4 PUSH2 0x1567 JUMP JUMPDEST SWAP3 POP PUSH2 0x1A5A DUP6 DUP5 DUP5 DUP5 PUSH2 0x1574 JUMP JUMPDEST SWAP3 POP SWAP1 POP DUP2 DUP6 DIV DUP2 GT PUSH1 0x0 DUP3 SGT AND ISZERO PUSH2 0x1A76 JUMPI PUSH2 0x1A75 PUSH2 0x1538 JUMP JUMPDEST JUMPDEST DUP2 DUP5 SDIV DUP2 SLT PUSH1 0x0 DUP3 SLT AND ISZERO PUSH2 0x1A8E JUMPI PUSH2 0x1A8D PUSH2 0x1538 JUMP JUMPDEST JUMPDEST DUP2 DUP2 MUL SWAP1 POP JUMPDEST SWAP5 SWAP4 POP POP POP POP JUMP JUMPDEST PUSH1 0x0 DUP2 SWAP1 POP SWAP2 SWAP1 POP JUMP JUMPDEST PUSH1 0x0 PUSH2 0x1AB1 DUP3 PUSH2 0x1A9C JUMP JUMPDEST SWAP2 POP PUSH2 0x1ABC DUP4 PUSH2 0x169A JUMP JUMPDEST SWAP3 POP PUSH2 0x1B0A PUSH32 0x7FFFFFFFFFFFFFFFFFFFFFFFFFFFFFFFFFFFFFFFFFFFFFFFFFFFFFFFFFFFFFFF PUSH32 0x8000000000000000000000000000000000000000000000000000000000000000 DUP6 DUP6 PUSH2 0x19AD JUMP JUMPDEST SWAP1 POP SWAP3 SWAP2 POP POP JUMP JUMPDEST PUSH1 0x0 PUSH2 0x1B1D DUP3 PUSH2 0x1A9C JUMP JUMPDEST SWAP2 POP PUSH2 0x1B28 DUP4 PUSH2 0x1A9C JUMP JUMPDEST SWAP3 POP DUP3 DUP3 MUL PUSH2 0x1B36 DUP2 PUSH2 0x1A9C JUMP JUMPDEST SWAP2 POP PUSH32 0x8000000000000000000000000000000000000000000000000000000000000000 DUP5 EQ PUSH1 0x0 DUP5 SLT AND ISZERO PUSH2 0x1B6E JUMPI PUSH2 0x1B6D PUSH2 0x1538 JUMP JUMPDEST JUMPDEST DUP3 DUP3 SDIV DUP5 EQ DUP4 ISZERO OR PUSH2 0x1B83 JUMPI PUSH2 0x1B82 PUSH2 0x1538 JUMP JUMPDEST JUMPDEST POP SWAP3 SWAP2 POP POP JUMP JUMPDEST PUSH1 0x0 DUP2 PUSH1 0xE0 SHL SWAP1 POP SWAP2 SWAP1 POP JUMP JUMPDEST PUSH1 0x0 PUSH2 0x1BA2 DUP3 PUSH2 0x1B8A JUMP JUMPDEST SWAP1 POP SWAP2 SWAP1 POP JUMP JUMPDEST PUSH2 0x1BBA PUSH2 0x1BB5 DUP3 PUSH2 0x108F JUMP JUMPDEST PUSH2 0x1B97 JUMP JUMPDEST DUP3 MSTORE POP POP JUMP JUMPDEST PUSH1 0x0 PUSH2 0x1BCC DUP3 DUP8 PUSH2 0x1BA9 JUMP JUMPDEST PUSH1 0x4 DUP3 ADD SWAP2 POP PUSH2 0x1BDC DUP3 DUP7 PUSH2 0x1BA9 JUMP JUMPDEST PUSH1 0x4 DUP3 ADD SWAP2 POP PUSH2 0x1BEC DUP3 DUP6 PUSH2 0x1BA9 JUMP JUMPDEST PUSH1 0x4 DUP3 ADD SWAP2 POP PUSH2 0x1BFC DUP3 DUP5 PUSH2 0x1BA9 JUMP JUMPDEST PUSH1 0x4 DUP3 ADD SWAP2 POP DUP2 SWAP1 POP SWAP6 SWAP5 POP POP POP POP POP JUMP JUMPDEST PUSH1 0x0 PUSH2 0x1C19 DUP3 PUSH2 0x1132 JUMP JUMPDEST SWAP2 POP PUSH2 0x1C24 DUP4 PUSH2 0x1132 JUMP JUMPDEST SWAP3 POP DUP3 PUSH2 0x1C34 JUMPI PUSH2 0x1C33 PUSH2 0x1766 JUMP JUMPDEST JUMPDEST DUP3 DUP3 MOD SWAP1 POP SWAP3 SWAP2 POP POP JUMP JUMPDEST PUSH1 0x0 PUSH2 0x1C4A DUP3 PUSH2 0x108F JUMP JUMPDEST SWAP2 POP PUSH2 0x1C55 DUP4 PUSH2 0x108F JUMP JUMPDEST SWAP3 POP DUP3 DUP3 SUB SWAP1 POP PUSH4 0xFFFFFFFF DUP2 GT ISZERO PUSH2 0x1C71 JUMPI PUSH2 0x1C70 PUSH2 0x1538 JUMP JUMPDEST JUMPDEST SWAP3 SWAP2 POP POP JUMP JUMPDEST PUSH1 0x0 PUSH2 0x1C82 DUP3 PUSH2 0x12EB JUMP JUMPDEST SWAP2 POP PUSH2 0x1C8D DUP4 PUSH2 0x12EB JUMP JUMPDEST SWAP3 POP DUP3 DUP3 MUL PUSH2 0x1C9B DUP2 PUSH2 0x12EB JUMP JUMPDEST SWAP2 POP DUP1 DUP3 EQ PUSH2 0x1CAD JUMPI PUSH2 0x1CAC PUSH2 0x1538 JUMP JUMPDEST JUMPDEST POP SWAP3 SWAP2 POP POP JUMP JUMPDEST PUSH1 0x0 PUSH2 0x1CBF DUP3 PUSH2 0x108F JUMP JUMPDEST SWAP2 POP PUSH2 0x1CCA DUP4 PUSH2 0x108F JUMP JUMPDEST SWAP3 POP DUP3 PUSH2 0x1CDA JUMPI PUSH2 0x1CD9 PUSH2 0x1766 JUMP JUMPDEST JUMPDEST DUP3 DUP3 DIV SWAP1 POP SWAP3 SWAP2 POP POP JUMP JUMPDEST PUSH1 0x0 PUSH2 0x1CF0 DUP3 PUSH2 0x108F JUMP JUMPDEST SWAP2 POP PUSH2 0x1CFB DUP4 PUSH2 0x108F JUMP JUMPDEST SWAP3 POP DUP3 DUP3 ADD SWAP1 POP PUSH4 0xFFFFFFFF DUP2 GT ISZERO PUSH2 0x1D17 JUMPI PUSH2 0x1D16 PUSH2 0x1538 JUMP JUMPDEST JUMPDEST SWAP3 SWAP2 POP POP JUMP INVALID LOG2 PUSH5 0x6970667358 0x22 SLT KECCAK256 0x27 SWAP4 CODECOPY 0xB1 MULMOD 0x24 GAS PREVRANDAO CREATE2 PUSH22 0x8B086BC7694350ACFAA35F3D04F1B6BC91FF104A1070 PUSH5 0x736F6C6343 STOP ADDMOD SLT STOP CALLER "
				},
				"gasEstimates": {
					"creation": {
						"codeDepositCost": "1501400",
						"executionCost": "1593",
						"totalCost": "1502993"
					},
					"external": {
						"computePerlin(uint32,uint32,uint32,uint32)": "infinite",
						"getCorners(uint32,uint32,uint32)": "infinite",
						"getGradientAt(uint32,uint32,uint32,uint32)": "infinite",
						"getSingleScalePerlin(uint32,uint32,uint32,uint32)": "infinite",
						"getWeight(uint32,uint32,uint32,uint32,uint32)": "infinite",
						"smoothStep(int128)": "infinite"
					}
				},
				"methodIdentifiers": {
					"computePerlin(uint32,uint32,uint32,uint32)": "229d0588",
					"getCorners(uint32,uint32,uint32)": "d15eb0d5",
					"getGradientAt(uint32,uint32,uint32,uint32)": "93f32993",
					"getSingleScalePerlin(uint32,uint32,uint32,uint32)": "22efde0a",
					"getWeight(uint32,uint32,uint32,uint32,uint32)": "b9576c35",
					"smoothStep(int128)": "e7075187"
				}
			},
			"storageLayout": {
				"storage": [],
				"types": null
			},
			"userdoc": {
				"kind": "user",
				"methods": {},
				"version": 1
			}
		}
	}
}